:020000040800F2
:1000000000000220493600087D34000885340008CD
:100010008D340008953400089D340008000000006D
:10002000000000000000000000000000A5340008EF
:10003000B334000800000000C1340008CF340008C9
:100040009936000899360008993600089936000854
:100050009936000899360008993600089936000844
:10006000993600089936000899360008DD340008F2
:10007000F1340008993600089936000899360008CE
:100080009936000899360008053500080000000080
:100090000000000000000000000000009936000889
:1000A000193500082D350008413500085535000880
:1000B0009936000899360008993600086935000815
:1000C0007D350008993600089936000899360008F1
:1000D000993600089936000899360008000000009B
:1000E000993600089936000899360008000000008B
:1000F0000000000000000000000000009936000829
:10010000000000009936000899360008993600086A
:1001100000000000000000000000000000000000DF
:10012000913500089936000899360008993600087C
:1001300099360008000000000000000000000000E8
:10014000000000000000000000000000A5350008CD
:100150009936000899360008993600089936000843
:1001600099360008993600080000000000000000E1
:10017000000000000000000000000000000000007F
:100180000000000099360008000000000000000098
:080190009936000899360008B9
:1001A00010B5054C237833B9044B13B10448AFF3B1
:1001B00000800123237010BD80010020000000009A
:1001C0003CEF000808B5034B1BB103490348AFF3EC
:1001D000008008BD00000000840100203CEF000802
:1001E00001F0FF01102A2BDB10F0070F08D010F8E8
:1001F000013B013A8B422DD010F0070F42B3F6D1EC
:10020000F0B441EA012141EA014122F007047FF004
:1002100000070023F0E80256083C85EA010586EA5B
:10022000010685FA47F5A3FA87F586FA47F6A5FA97
:1002300087F68EB9EED1F0BC01F0FF0102F00702A3
:1002400032B110F8013B013A83EA010313B1F8D14E
:100250000020704701387047002D06BF354603382F
:10026000073815F0010F07D1013015F4807F02BF68
:10027000013015F4C03F0130F0BC0138704700BFB9
:1002800081F0004102E000BF83F0004330B54FEA47
:1002900041044FEA430594EA050F08BF90EA020FB4
:1002A0001FBF54EA000C55EA020C7FEA645C7FEA47
:1002B000655C00F0E2804FEA5454D4EB5555B8BF6A
:1002C0006D420CDD2C4480EA020281EA030382EADB
:1002D000000083EA010180EA020281EA0303362D6D
:1002E00088BF30BD11F0004F4FEA01314FF4801C40
:1002F0004CEA113102D0404261EB410113F0004F52
:100300004FEA03334CEA133302D0524263EB430308
:1003100094EA050F00F0A780A4F10104D5F1200EA6
:100320000DDB02FA0EFC22FA05F2801841F1000101
:1003300003FA0EF2801843FA05F359410EE0A5F1D5
:1003400020050EF1200E012A03FA0EFC28BF4CF006
:10035000020C43FA05F3C01851EBE37101F00045BC
:1003600007D54FF0000EDCF1000C7EEB00006EEBC9
:100370000101B1F5801F1BD3B1F5001F0CD3490853
:100380005FEA30004FEA3C0C04F101044FEA4452AA
:1003900012F5800F80F09A80BCF1004F08BF5FEA31
:1003A000500C50F1000041EB045141EA050130BD11
:1003B0005FEA4C0C404141EB0101013C28BFB1F523
:1003C000801FE9D291F0000F04BF01460020B1FA6E
:1003D00081F308BF2033A3F10B03B3F120020CDA41
:1003E0000C3208DD02F1140CC2F10C0201FA0CF01F
:1003F00021FA02F10CE002F11402D8BFC2F1200C84
:1004000001FA02F120FA0CFCDCBF41EA0C01904039
:10041000E41AA2BF01EB0451294330BD6FEA040482
:100420001F3C1CDA0C340EDC04F11404C4F120026D
:1004300020FA04F001FA02F340EA030021FA04F37F
:1004400045EA030130BDC4F10C04C4F1200220FAD6
:1004500002F001FA04F340EA0300294630BD21FA14
:1004600004F0294630BD94F0000F83F4801306BFDA
:1004700081F480110134013D4EE77FEA645C18BFCE
:100480007FEA655C29D094EA050F08BF90EA020F65
:1004900005D054EA000C04BF1946104630BD91EA5D
:1004A000030F1EBF0021002030BD5FEA545C05D160
:1004B0004000494128BF41F0004130BD14F580049F
:1004C0003CBF01F5801130BD01F0004545F0FE4113
:1004D00041F470014FF0000030BD7FEA645C1ABF48
:1004E000194610467FEA655C1CBF0B46024650EA7F
:1004F000013406BF52EA033591EA030F41F40021AB
:1005000030BD00BF90F0000F04BF0021704730B530
:100510004FF4806404F132044FF000054FF0000105
:1005200050E700BF90F0000F04BF0021704730B5C6
:100530004FF4806404F1320410F0004548BF40429B
:100540004FF000013EE700BF42004FEAE2014FEAF0
:1005500031014FEA02701FBF12F07F4393F07F4FCB
:1005600081F06051704732F07F4208BF704793F0CE
:100570007F4F04BF41F40021704730B54FF46074E1
:1005800001F0004521F000411CE700BF50EA0102E4
:1005900008BF704730B54FF000050AE050EA01028D
:1005A00008BF704730B511F0004502D5404261EBFD
:1005B00041014FF4806404F132045FEA915C3FF43E
:1005C000D8AE4FF003025FEADC0C18BF03325FEADB
:1005D000DC0C18BF033202EBDC02C2F1200300FA8C
:1005E00003FC20FA02F001FA03FE40EA0E0021FAB1
:1005F00002F11444BDE600BF70B54FF0FF0C4CF49F
:10060000E06C1CEA11541DBF1CEA135594EA0C0F50
:1006100095EA0C0F00F0DEF82C4481EA030621EA8B
:100620004C5123EA4C5350EA013518BF52EA0335C6
:1006300041F4801143F4801338D0A0FB02CE4FF078
:100640000005E1FB02E506F00042E0FB03E54FF0A8
:100650000006E1FB03569CF0000F18BF4EF0010EA0
:10066000A4F1FF04B6F5007F64F5407404D25FEA9C
:100670004E0E6D4146EB060642EAC62141EA55514F
:100680004FEAC52040EA5E504FEACE2EB4F1FD0C91
:1006900088BFBCF5E06F1ED8BEF1004F08BF5FEA0F
:1006A000500E50F1000041EB045170BD06F00046C1
:1006B00046EA010140EA020081EA0301B4EB5C046E
:1006C000C2BFD4EB0C0541EA045170BD41F4801166
:1006D0004FF0000E013C00F3AB8014F1360FDEBF8B
:1006E000002001F0004170BDC4F10004203C35DA67
:1006F0000C341BDC04F11404C4F1200500FA05F3EA
:1007000020FA04F001FA05F240EA020001F000428A
:1007100021F0004110EBD37021FA04F642EB060100
:100720005EEA430E08BF20EAD37070BDC4F10C042A
:10073000C4F1200500FA04F320FA05F001FA04F2EE
:1007400040EA020001F0004110EBD37041F10001DA
:100750005EEA430E08BF20EAD37070BDC4F12005E5
:1007600000FA05F24EEA020E20FA04F301FA05F24D
:1007700043EA020321FA04F001F0004121FA04F2F5
:1007800020EA020000EBD3705EEA430E08BF20EAC5
:10079000D37070BD94F0000F0FD101F000464000FF
:1007A00041EB010111F4801F08BF013CF7D041EA81
:1007B000060195F0000F18BF704703F00046520085
:1007C00043EB030313F4801F08BF013DF7D043EA56
:1007D0000603704794EA0C0F0CEA135518BF95EA0C
:1007E0000C0F0CD050EA410618BF52EA4306D1D193
:1007F00081EA030101F000414FF0000070BD50EAB2
:10080000410606BF1046194652EA430619D094EA3B
:100810000C0F02D150EA013613D195EA0C0F05D125
:1008200052EA03361CBF104619460AD181EA030179
:1008300001F0004141F0FE4141F470014FF0000031
:1008400070BD41F0FE4141F4780170BD70B54FF0CC
:10085000FF0C4CF4E06C1CEA11541DBF1CEA13554C
:1008600094EA0C0F95EA0C0F00F0A7F8A4EB05042E
:1008700081EA030E52EA03354FEA013100F0888025
:100880004FEA03334FF0805545EA131343EA1263EE
:100890004FEA022245EA111545EA10654FEA0026A3
:1008A0000EF000419D4208BF964244F1FD0404F55C
:1008B000407402D25B084FEA3202B61A65EB0305B8
:1008C0005B084FEA32024FF480104FF4002CB6EB75
:1008D000020E75EB030E22BFB61A754640EA0C00F5
:1008E0005B084FEA3202B6EB020E75EB030E22BF35
:1008F000B61A754640EA5C005B084FEA3202B6EB76
:10090000020E75EB030E22BFB61A754640EA9C0034
:100910005B084FEA3202B6EB020E75EB030E22BF04
:10092000B61A754640EADC0055EA060E18D04FEAC2
:10093000051545EA16754FEA06164FEAC30343EA62
:1009400052734FEAC2025FEA1C1CC0D111F4801F2F
:100950000BD141EA00014FF000004FF0004CB6E728
:1009600011F4801F04BF01430020B4F1FD0C88BFC7
:10097000BCF5E06F3FF6AFAEB5EB030C04BFB6EBD2
:10098000020C5FEA500C50F1000041EB045170BDC5
:100990000EF0004E4EEA113114EB5C04C2BFD4EBF2
:1009A0000C0541EA045170BD41F480114FF0000E76
:1009B000013C90E645EA060E8DE60CEA135594EAF2
:1009C0000C0F08BF95EA0C0F3FF43BAF94EA0C0FF5
:1009D0000AD150EA01347FF434AF95EA0C0F7FF46A
:1009E00025AF104619462CE795EA0C0F06D152EABE
:1009F00003353FF4FDAE1046194622E750EA4106A2
:100A000018BF52EA43067FF4C5AE50EA41047FF4B2
:100A10000DAF52EA43057FF4EBAE12E74FEA410215
:100A200012F5001215D211D56FF47873B3EB625240
:100A300012D94FEAC12343F0004343EA505311F067
:100A4000004F23FA02F018BF404270474FF00000F9
:100A5000704750EA013005D111F0004008BF6FF037
:100A6000004070474FF00000704700BF53B94AB9CB
:100A7000002908BF00281CBF4FF0FF314FF0FF30A6
:100A800000F088B9ADF1080C6DE904CE00F006F86D
:100A9000DDF804E0DDE9022304B070472DE9F047FA
:100AA000089D8E4604468846002B4AD18A42174646
:100AB00062D9B2FA82F64EB1C6F1200301FA06F805
:100AC00020FA03F3B74043EA0808B4404FEA174E50
:100AD0001FFA87FCB8FBFEF1230C0EFB118843EADA
:100AE000084301FB0CF29A4209D9FB1801F1FF30CF
:100AF00080F0EA809A4240F2E78002393B449A1A39
:100B0000A3B2B2FBFEF00EFB102243EA024300FB4D
:100B10000CFC9C4509D9FB1800F1FF3280F0D6800F
:100B20009C4540F2D3803B44023840EA0140A3EBAD
:100B30000C0300211DB1F3400022C5E90032BDE8DD
:100B4000F0878B4205D90DB1C5E9000100210846A7
:100B5000F5E7B3FA83F1002946D1734502D3824207
:100B600000F20581841A6EEB030201209046002DED
:100B7000E5D0C5E90048E2E7002A00F09080B2FA2B
:100B800082F6002E40F0A4808A1A030C4FEA174E1A
:100B900080B2BCB20121B2FBFEFC0EFB1C2243EA78
:100BA000024304FB0CF29A4207D9FB180CF1FF3800
:100BB00002D29A4200F2E080C4469B1AB3FBFEF2D6
:100BC0000EFB123340EA034302FB04F49C4207D9B4
:100BD000FB1802F1FF3002D29C4200F2CA800246AA
:100BE0001B1B42EA0C40A5E7C1F120068B4022FA0C
:100BF00006F71F430EFA01F420FA06F32EFA06FE5A
:100C00004FEA1749234300FA01F81FFA87FCBEFB9D
:100C1000F9F01C0C09FB10EE44EA0E4400FB0CFE3C
:100C2000A64502FA01F209D93C1900F1FF3A80F019
:100C30009C80A64540F2998002383C44A4EB0E0407
:100C40001FFA83FEB4FBF9F309FB13444EEA044494
:100C500003FB0CFCA44508D93C1903F1FF3E80F0CE
:100C60008280A4457FD9023B3C4443EA0040A4EB88
:100C70000C04A0FB02EC64457346E14662D35FD0EE
:100C80005DB1B8EB030264EB090404FA06F622FA3C
:100C900001F31E43CC40C5E9006400214FE7B1FBDE
:100CA000F2FC010C41EA0E4180B240EA01423B46AF
:100CB00038463C46B846BE462026B1FBF7F1A2EBCB
:100CC000080241EA0C4166E7014618E710462CE7A6
:100CD000C6F120022EFA02F3B740B14020FA02F228
:100CE0004FEA174E0A43B3FBFEF8BCB20EFB1833B3
:100CF000110C41EA034108FB04F9B04089454FEA71
:100D0000104380B23ED9791808F1FF3C01D28945E1
:100D10001FD8A1EB0901B1FBFEF909FB04F80EFB9A
:100D2000191192B242EA0142424529D2BA1809F198
:100D3000FF31C4D24245C2D2A9F102013A44BEE712
:100D4000F0459DD2BEEB02036CEB070C0138E14687
:100D500096E7A7EB09094944A8F1020CB1FBFEF99B
:100D600009FB04F8DBE773467FE7504666E7084671
:100D7000FDE63B44023A33E7ACF1020C3B441CE78E
:100D800049469CE7A1EB0901C446B1FBFEF909FB0A
:100D900004F8C4E7704700BF80B485B000AF786046
:100DA0000023FB600AE00A4AFB6832F81310094A84
:100DB000FB6822F81310FB680133FB60FB68072B0C
:100DC000F1DD00BF00BF1437BD465DF8047B7047FE
:100DD000A4030020B403002080B483B000AF786087
:100DE000044B01221A7000BF0C37BD465DF8047B2E
:100DF000704700BFDD05002080B582B000AF78608D
:100E00007B681B680E4A934216D10E4B1B78013348
:100E1000DAB20C4B1A700B4B1B78282B07D1094BFD
:100E200000221A70084A137843F0800313700822D6
:100E30000649074802F01CFE00BF0837BD4680BDCA
:100E400000000140A0030020DC050020A4030020D6
:100E50009C01002090B484B000AF7860396000231A
:100E6000FB7318E0FB7B7A681A44104B19680F4B30
:100E70005B79581CC4B20D4844710B4412781A7047
:100E80000A4B5A79094B9B791340DAB2074B5A71D6
:100E9000FB7B0133FB73FB7B3A689A42E2D800BFCD
:100EA00000BF1037BD4690BC704700BFD003002084
:100EB00080B5C2B000AF224B1A79214B5B799A42C0
:100EC00039D01F4800F094FC0346002B03D01D4985
:100ED0001B4800F039F8002387F807311DE0194B53
:100EE0001A68184B1B7A591CC8B2164908721A4462
:100EF00097F80731117807F58472A2F58272D15400
:100F0000104B1A7A0F4B9B791340DAB20D4B1A72C1
:100F100097F80731013387F807310A4BDB7997F8E7
:100F200007219A42DBD3074BDB791A463B1D11465A
:100F300018460CF079F900BF07F58477BD4680BDEF
:100F4000D0030020C403002080B582B000AF7860D9
:100F500039607B681B687A68127A13441B78F02B1F
:100F600002D0F12B10D01FE00222F021386800F0EF
:100F70001DFB0D21386800F0C8FB3B685B7A194601
:100F8000386800F0C2FB25E00D22F121386800F03E
:100F90000DFB1249386800F0E6FB3B685B7A1946A6
:100FA000386800F0B2FB15E07B681B687A68127A3B
:100FB00013441B7802221946386800F0F7FAFF2123
:100FC000386800F0A2FB3B685B7A1946386800F08D
:100FD0009CFB00BF00BF0837BD4680BD043C010834
:100FE00080B500AF104B1B7823F07F03DBB2002BE2
:100FF00017D00D4A137823F0800313700B4B1B6836
:10100000013B0A4A1360094B1B68002B09D1074BAF
:101010000A221A60044A137843F04003137000F068
:1010200007F800BF80BD00BFDC05002028000020BD
:1010300080B500AF0F4B1B68DB430F4A1278114697
:1010400001228A401340002B04D04FF400510B487A
:1010500003F029FF084B1B780133DAB2064B1A70F4
:10106000054B1B7803F01F03DAB2034B1A7000BF65
:1010700080BD00BF00000020DE0500200008024007
:1010800080B500AF02F00AFB00F03CF800F028FA4F
:1010900000F0E8F900F09EF800F050F900F07CF95B
:1010A0000BF0A8FF0F480CF0F7F80F4807F0ACFF63
:1010B00001224FF400510D4803F0DCFE00F006FD64
:1010C0000B4B0C4A0C490D4800F090FC0C4B0022D5
:1010D0001A70FFF785FFFFF7EBFE01F0CFFF00BFAF
:1010E000F7E700BF550E0008580300200008024033
:1010F000DC030020DC040020C4030020D003002017
:10110000DC05002080B594B000AF07F12003302249
:10111000002118460CF03AFD07F10C0300221A607A
:101120005A609A60DA601A610023BB60274B1B6C1F
:10113000264A43F080531364244B1B6C03F0805306
:10114000BB60BB6800237B60214B1B68204A43F4D3
:10115000404313601E4B1B6803F440437B607B6875
:1011600001233B624FF480337B620223BB634FF465
:101170008003FB6319233B64C0237B640223BB64AD
:101180000423FB6407F12003184607F0A9FA03467D
:10119000002B01D000F004FA0F23FB6002233B6117
:1011A00000237B614FF48053BB610023FB6107F197
:1011B0000C030321184607F00BFD0346002B01D05A
:1011C00000F0EEF900BF5037BD4680BD0038024048
:1011D0000070004080B584B000AF3B4600221A602A
:1011E0005A609A60DA60524B524A1A60504B4FF480
:1011F00080325A604E4B00229A604D4B01221A6198
:101200004B4B00221A764A4B002283F82020484B91
:101210000022DA62464B484A9A62454B0022DA6065
:10122000434B0822DA61424B012283F83020404BC5
:1012300001225A613E4802F0C7FA0346002B01D052
:1012400000F0AEF900233B6001237B600023BB600C
:101250003B461946364802F01DFD0346002B01D0DF
:1012600000F09EF901233B6002237B603B46194658
:101270002F4802F00FFD0346002B01D000F090F93B
:1012800002233B6003237B603B461946284802F05B
:1012900001FD0346002B01D000F082F903233B60DF
:1012A00004237B603B461946214802F0F3FC0346C9
:1012B000002B01D000F074F904233B6005237B6010
:1012C0003B4619461A4802F0E5FC0346002B01D0C4
:1012D00000F066F905233B6006237B603B46194618
:1012E000134802F0D7FC0346002B01D000F058F958
:1012F00006233B6007237B603B4619460C4802F0FF
:10130000C9FC0346002B01D000F04AF907233B60DB
:1013100008237B603B461946054802F0BBFC0346A8
:10132000002B01D000F03CF900BF1037BD4680BD56
:101330009C010020002001400100000F80B500AF9B
:10134000124B134A1A60114B124A5A600F4B00227B
:101350009A600E4B0022DA600C4B4FF480421A6107
:101360000A4B00225A61094B00229A61074B002266
:10137000DA61064B00221A62044803F0AFFD03460F
:10138000002B01D000F00CF900BF80BD440200200A
:1013900000540040801A060080B58CB000AF07F101
:1013A000200300221A605A609A60DA6007F10C0389
:1013B00000221A605A609A60DA601A613B1D0022AE
:1013C0001A605A60254B264A1A60244B5F225A60E5
:1013D000224B00229A60214BF922DA601F4B002237
:1013E0001A611E4B00225A611C4B00229A611B4855
:1013F00007F0BAFD0346002B01D000F0D1F84FF4FE
:1014000080533B6207F120031946144807F04EFF52
:101410000346002B01D000F0C3F80023FB6000233B
:101420003B6107F10C0319460C4808F006F8034627
:10143000002B01D000F0B4F800237B600023BB60D8
:101440003B1D1946054808F015FA0346002B01D04C
:1014500000F0A6F800BF3037BD4680BD580300201D
:101460000000014080B582B000AF00237B601B4BC1
:101470001B6B1A4A43F480031363184B1B6B03F472
:1014800080037B607B6800233B60144B1B6B134A1B
:1014900043F400131363114B1B6B03F400133B6005
:1014A0003B68002200210B2002F089FF0B2002F094
:1014B000A2FF002200210C2002F081FF0C2002F08C
:1014C0009AFF00220021382002F079FF382002F034
:1014D00092FF00BF0837BD4680BD00BF0038024004
:1014E00080B58AB000AF07F1140300221A605A6079
:1014F0009A60DA601A6100233B61274B1B6B264A16
:1015000043F004031363244B1B6B03F004033B61A0
:101510003B690023FB60204B1B6B1F4A43F0800399
:1015200013631D4B1B6B03F08003FB60FB68002300
:10153000BB60194B1B6B184A43F001031363164B36
:101540001B6B03F00103BB60BB6800237B60124B85
:101550001B6B114A43F0020313630F4B1B6B03F029
:1015600002037B607B6800224FF400510B4803F0BC
:1015700081FC4FF400537B610123BB610023FB61BD
:1015800000233B6207F114031946044803F0EEFA06
:1015900000BF2837BD4680BD003802400008024029
:1015A00080B400AF72B600BF00BFFDE780B483B067
:1015B00000AF78600B46FB701346BB70BB780133FD
:1015C000BB707B6800225A727B685A797B681A72FA
:1015D0007B681A687B685B79591CC8B27968487166
:1015E000134455221A707B685A797B689B791340A3
:1015F000DAB27B685A717B681A687B685B79591C20
:10160000C8B27968487113444E221A707B685A79BF
:101610007B689B791340DAB27B685A717B681A68E1
:101620007B685B79591CC8B27968487113444522BC
:101630001A707B685A797B689B791340DAB27B68B1
:101640005A717B681A687B685B79591CC8B27968E3
:101650004871134452221A707B685A797B689B79CF
:101660001340DAB27B685A717B681A687B685B79D1
:10167000591CC8B2796848711344BA781A707B68EB
:101680005A797B689B791340DAB27B685A717B6820
:101690001A687B685B79591CC8B279684871134431
:1016A0003A221A707B685A797B689B791340DAB2C8
:1016B0007B685A717B681A687B685B79591CC8B271
:1016C000796848711344FA781A707B685A797B6894
:1016D0009B791340DAB27B685A717B680722DA7112
:1016E0007B685A7AB978FB784B40DBB25340DBB267
:1016F00083F03603DAB27B685A727B685B7A1846ED
:101700000C37BD465DF8047B704780B483B000AFF2
:1017100078600B46FB707B68DB790133DAB27B685B
:10172000DA717B681A687B685B79591CC8B2796882
:1017300048711344FA781A707B685A797B689B79F0
:101740001340DAB27B685A717B685A7AFB7853404F
:10175000DAB27B685A727B685B7A18460C37BD46F2
:101760005DF8047B704790B484B000AF7860396056
:101770000023FB732CE07B68DB790133DAB27B68F2
:10178000DA71FB7BDBB21A463B681A447B68196846
:101790007B685B79581CC4B2786844710B4412783A
:1017A0001A707B685A797B689B791340DAB27B6840
:1017B0005A71FB7BDBB25A1CD2B2FA731A463B68F1
:1017C00013441A787B685B7A5340DAB27B685A72AA
:1017D000FB7BDBB21A463B6813441B78002BCAD153
:1017E0007B685B7A18461037BD4690BC7047000096
:1017F00080B485B000AF78600023FB737B685B79B1
:10180000BB73E4E0784B1B78072B00F2C98001A280
:1018100052F823F0351800084F1800088D180008FA
:10182000B9180008E5180008FB180008A1190008FD
:101830005D1900087B681B687A68127913441B786D
:10184000552B40F0B180684B01221A70ACE07B68E8
:101850001B687A68127913441B784E2B03D1624BB4
:1018600002221A70A2E07B681B687A68127913441E
:101870001B78552B00F09A805B4B00221A707B6816
:101880001B79013BDAB27B681A718FE07B681B68B9
:101890007A68127913441B78452B03D1524B0322EB
:1018A0001A7086E0504B00221A707B681B79013B4E
:1018B000DAB27B681A717CE07B681B687A681279FF
:1018C00013441B78522B03D1474B04221A7070E04B
:1018D000454B00221A707B681B79013BDAB27B68AA
:1018E0001A7166E07B681B687A68127913441B786A
:1018F000FB733D4B05221A705BE07B681B687A68BE
:10190000127913441B783A2B1ED1374B07221A70D9
:101910007B681B790133DAB27B681A727B681A7AAA
:101920007B689B791340DAB27B681A727B6800226D
:101930005A727B685A7AFB7B5340DBB283F03603E2
:10194000DAB27B685A7234E0274B00221A707B6847
:101950001B79013BDAB27B681A712AE0FB7B013B01
:10196000FB73FB7B002B0CD07B685A7A7B681B686F
:10197000796809790B441B785340DAB27B685A7254
:1019800016E0194B00221A707B681B687A6812797E
:1019900013441A787B685B7A9A4209D101231DE0CF
:1019A000114B00221A7004E000BF02E000BF00E00B
:1019B00000BF7B681B790133DAB27B681A717B68E0
:1019C0001A797B689B791340DAB27B681A717B685D
:1019D0001B79BA7B9A427FF415AF0023184614375F
:1019E000BD465DF8047B7047DF05002080B485B0FC
:1019F00000AFF860B9607A603B60FB687A681A6093
:101A0000FB6800221A71FB6800225A71FB680022F1
:101A10001A72FB680022DA71FB68FF229A71FB6878
:101A200000225A72BB683A681A60BB6800221A71B9
:101A3000BB6800225A71BB6800221A72BB68002280
:101A4000DA71BB68FF229A71BB6800225A7200BF2C
:101A50001437BD465DF8047B704780B400AF00BF0B
:101A6000BD465DF8047B704780B586B004AF034681
:101A7000FB714FF0FF33029301230193FB1D009391
:101A8000012300227821034803F082FB00BF0837BE
:101A9000BD4680BD4402002080B586B004AF7860AA
:101AA00039603B689BB24FF0FF32029201937B6832
:101AB0000093012340227821034803F069FB00BF13
:101AC0000837BD4680BD00BF4402002080B500AF8E
:101AD000FFF7C3FF642001F053FE002000F07AFFFF
:101AE0002020FFF7C1FF0020FFF7BEFFB020FFF767
:101AF000BBFFC820FFF7B8FF0020FFF7B5FF10209D
:101B0000FFF7B2FF4020FFF7AFFFFF2000F04FFFCD
:101B1000A120FFF7A9FFA620FFF7A6FFA820FFF747
:101B2000A3FF3F20FFF7A0FFA420FFF79DFFD320D6
:101B3000FFF79AFF0020FFF797FFD520FFF794FFEC
:101B4000F020FFF791FFD920FFF78EFF2220FFF74B
:101B50008BFFDA20FFF788FF1220FFF785FFDB20DD
:101B6000FFF782FF2020FFF77FFF8D20FFF77CFF2C
:101B70001420FFF779FF012000F02CFF002000F077
:101B80000FF800F025F8054B00221A80034B0022C5
:101B90005A80024B01221A7100BF80BDE00900206B
:101BA00080B582B000AF0346FB71FB79002B01D1F9
:101BB000002300E0FF234FF48062194603480BF036
:101BC000E5FF00BF0837BD4680BD00BFE00500202F
:101BD00080B582B000AF0023FB7116E0FB79503B6B
:101BE000DBB21846FFF740FF0020FFF73DFF102053
:101BF000FFF73AFFFB79DB01084A134480211846BE
:101C0000FFF74AFFFB790133FB71FB79072BE5D91D
:101C100000BF00BF0837BD4680BD00BFE005002003
:101C200080B483B000AF0346FB710B46BB71134613
:101C30007B7197F90730002B3DDBBB793F2B3AD8FE
:101C40007B79012B1AD1FA79BB79DB08D8B203462C
:101C5000DB0113441B4AD35C5AB2BB7903F0070380
:101C6000012101FA03F35BB2134359B2FA79034637
:101C7000DB011344C9B2134AD1541DE0FA79BB7990
:101C8000DB08D8B20346DB0113440E4AD35C5AB2D8
:101C9000BB7903F00703012101FA03F35BB2DB43D5
:101CA0005BB2134059B2FA790346DB011344C9B25F
:101CB000044AD15400E000BF0C37BD465DF8047BF8
:101CC000704700BFE005002090B589B000AF044622
:101CD000384680E80E002346FB73FB7B1F2B02D99E
:101CE000FB7B7E2B01D9002379E0BB68002B05D05C
:101CF000BA68FB7B203B13441B7800E03B78FB7504
:101D0000394B1B881A46FB7D1344802B06DC364B6F
:101D10005B881A467B781344402B01DD00235EE08C
:101D20000023FB614DE07A68FB7B203B797801FB67
:101D300003F31946FB690B445B0013441B883B61AA
:101D40000023BB6136E03A69BB6902FA03F303F48E
:101D50000043002B13D0244B1B88DAB2BB69DBB2E3
:101D60001344D8B2204B5B88DAB2FB69DBB2134470
:101D7000DBB297F830201946FFF752FF17E01A4BF5
:101D80001B88DAB2BB69DBB21344D8B2164B5B884E
:101D9000DAB2FB69DBB21344D9B297F83030002BCA
:101DA0000CBF01230023DBB21A46FFF739FFBB69E2
:101DB0000133BB61FB7DBA699A42C4D3FB6901332D
:101DC000FB617B781A46FB699342ACD3064B1A88B9
:101DD000FB7D9BB213449AB2034B1A80FB7B1846DF
:101DE0002437BD4690BD00BFE009002080B586B015
:101DF00002AFF860384680E80E0013E0FB68187800
:101E00003B7E00933B460ECBFFF75EFF03461A4630
:101E1000FB681B789A4202D0FB681B7808E0FB68DD
:101E20000133FB60FB681B78002BE7D1FB681B7854
:101E300018461037BD4680BD80B483B000AF03465E
:101E40000A46FB711346BB71FB799AB2054B1A80A7
:101E5000BB799AB2034B5A8000BF0C37BD465DF880
:101E6000047B7047E009002090B589B000AF0446BC
:101E7000084611461A462346FB710346BB710B46C2
:101E80007B7113463B717A79FB79D31A002BB8BF6B
:101E90005B42BB613A79BB79D31A002BB8BF5B4276
:101EA0007B61FA797B799A4201D2012301E04FF0FC
:101EB000FF333B61BA793B799A4201D2012301E0B9
:101EC0004FF0FF33FB60BA697B69D31AFB6197F867
:101ED000302039797B791846FFF7A2FE24E097F885
:101EE0003020B979FB791846FFF79AFEFB695B0051
:101EF000BB607B695B42BA689A4208DDFA697B691C
:101F0000D31AFB613B69DAB2FB791344FB71BA68FF
:101F1000BB699A4208DAFA69BB691344FB61FB6842
:101F2000DAB2BB791344BB71FA797B799A42D6D184
:101F3000BA793B799A42D2D100BF2437BD4690BDD1
:101F400090B587B002AF78600B467B8013467B70FC
:101F50007B68002B2AD00123FB8122E0FB8903F15F
:101F60000043013B5B007A6813441878FB8903F156
:101F70000043013B5B007A6813445978FB895B009E
:101F80007A6813441C78FB895B007A6813445A789A
:101F90007B78009313462246FFF766FFFB890133E7
:101FA000FB81FA897B889A42D8D300E000BF1437BE
:101FB000BD4690BD80B483B000AF87ED010AD7ED78
:101FC000017A9FED057A67EE877AB0EE670A0C37E3
:101FD000BD465DF8047B7047A7E78E3C80B485B0B2
:101FE00000AF0346FB80FB88B3F5B47F02D8FB88C3
:101FF000FB8113E0FB88DA080C49A1FB021292086E
:102000004FF4B47101FB02F29B1AFB81FB89002B98
:1020100001D0FB8901E04FF4B473FB81FB891846C2
:102020001437BD465DF8047B704700BF176CC116BE
:1020300090B58DB002AF0446084611461A462346B5
:10204000FB730346BB730B467B7313467B813B8F4D
:102050001846FFF7C3FF0346FB617B891846FFF76D
:10206000BDFF03461A46634B1B7802FB03F3624A2B
:1020700082FB03121A441212DB17D31A7B625D4BE8
:102080001B781A46FB6902FB03F3DB085B4AA2FBE1
:1020900003239B08BB61FB6907EE903AF8EE676A81
:1020A000BB6907EE903AB8EE677AC6EE877AC7ED5D
:1020B000057A96E07B6A07EE903AB8EE677AD7ED3C
:1020C000057A67EE277AB0EE670AFFF773FF87EDB0
:1020D000080A97ED080A0CF001FAB0EE407A7B7B13
:1020E00007EE903AF8EEE77A67EE277AFDEEE77AA8
:1020F000C7ED017A3B795BB2DAB2FB7B1344FB7428
:1021000097ED080A0CF0A6F9B0EE407A7B7B07EE5B
:10211000903AF8EEE77A67EE277AFDEEE77AC7EDB8
:10212000017A3B795BB2DAB2BB7B1344BB747B6A46
:1021300001337B627A6ABB699A420FD07B6A07EEF1
:10214000903AB8EE677AD7ED057A67EE277AB0EE67
:10215000670AFFF72FFF87ED080A0AE0FB6907EE21
:10216000903AF8EE677AB0EE670AFFF723FF87ED43
:10217000080A97ED080A0CF0B1F9B0EE407A7B7BC3
:1021800007EE903AF8EEE77A67EE277AFDEEE77A07
:10219000C7ED017A3B795BB2DAB2FB7B13447B7407
:1021A00097ED080A0CF056F9B0EE407A7B7B07EE0B
:1021B000903AF8EEE77A67EE277AFDEEE77AC7ED18
:1021C000017A3B795BB2DAB2BB7B13443B743C7C53
:1021D0007A7CB97CF87C97F83C3000932346FFF773
:1021E00043FE7A6ABB699A42FFF464AF00BF2C37A2
:1021F000BD4690BD113C0108B7600BB6176CC11607
:1022000090B58FB002AF0446084611461A462346E1
:10221000FB730346BB730B467B7313467B812423FE
:102220003B62002387F82F30002387F82E30B7F861
:1022300040301846FFF7D2FE0346FB617B89184603
:10224000FFF7CCFE03461A463B6A02FB03F3DB08AA
:102250008A4AA2FB03239B08BB62FB693A6A02FB22
:1022600003F3DB08854AA2FB03239B08BB61FB69E0
:1022700007EE903AF8EE676ABB6907EE903AB8EE5F
:10228000677AC6EE877AC7ED057ABB6A07EE903AA1
:10229000B8EE677AD7ED057A67EE277AB0EE670A6F
:1022A000FFF788FE87ED090A97ED090A0CF016F989
:1022B000B0EE407A7B7B07EE903AF8EEE77A67EE75
:1022C000277AFDEEE77AC7ED017A3B795BB2DAB2A5
:1022D000FB7B1344FB7497ED090A0CF0BBF8B0EEDE
:1022E000407A7B7B07EE903AF8EEE77A67EE277A42
:1022F000FDEEE77AC7ED017A3B795BB2DAB2BB7BE0
:102300001344BB749AE0BB6A07EE903AB8EE677A62
:10231000D7ED057A67EE277AB0EE670AFFF74AFE37
:1023200087ED090A97ED090A0CF0D8F8B0EE407A6B
:102330007B7B07EE903AF8EEE77A67EE277AFDEEC0
:10234000E77AC7ED017A3B795BB2DAB2FB7B1344E3
:102350007B7497ED090A0CF07DF8B0EE407A7B7B38
:1023600007EE903AF8EEE77A67EE277AFDEEE77A25
:10237000C7ED017A3B795BB2DAB2BB7B13443B74A5
:10238000BB6A0133BB62BA6ABB699A420FD0BB6AAF
:1023900007EE903AB8EE677AD7ED057A67EE277ABE
:1023A000B0EE670AFFF706FE87ED090A0AE0FB694F
:1023B00007EE903AF8EE677AB0EE670AFFF7FAFD9B
:1023C00087ED090A97ED090A0CF088F8B0EE407A1B
:1023D0007B7B07EE903AF8EEE77A67EE277AFDEE20
:1023E000E77AC7ED017A3B795BB2DAB2FB7B134443
:1023F00087F82F3097ED090A0CF02CF8B0EE407AF0
:102400007B7B07EE903AF8EEE77A67EE277AFDEEEF
:10241000E77AC7ED017A3B795BB2DAB2BB7B134452
:1024200087F82E3097F82E4097F82F20397C787C4B
:1024300097F8443000932346FFF716FDBA6ABB694C
:102440009A42FFF460AFBC7CFA7CB97BF87B97F8CA
:10245000443000932346FFF707FD97F82E4097F886
:102460002F20B97BF87B97F8443000932346FFF781
:10247000FBFC00BF3437BD4690BD00BF176CC116D2
:1024800090B587B000AF0446084611461A46234669
:10249000FB710346BB710B467B7113463B717B7925
:1024A0005B427B6100233B617B79C3F101035B00ED
:1024B000FB6097F90730002B65DBBB793F2B62D8B7
:1024C0007B69DBB2FA79D31AD8B23B69DAB2BB794D
:1024D0001344DBB23A791946FFF7A2FB7B69DAB203
:1024E000FB791344D8B23B69DAB2BB791344DBB24F
:1024F0003A791946FFF794FB7B69DAB2FB7913440A
:10250000D8B23B69DBB2BA79D31ADBB23A79194651
:10251000FFF786FB7B69DBB2FA79D31AD8B23B6945
:10252000DBB2BA79D31ADBB23A791946FFF778FBF6
:10253000FB68BB60BA683B699A4213DC3B690133B4
:102540003B613B695B000133FA681344FB607B69C4
:102550005B423A699A4205D1BA687B699A4201DCCA
:102560000023BB60BA687B699A4208DD7B6901334E
:102570007B617B695B000133FA681344FB607B6914
:10258000002B9DDD00E000BF1C37BD4690BD90B51F
:1025900089B000AF0446084611461A462346FB712F
:1025A0000346BB710B467B7113463B717B795B42E3
:1025B000FB610023BB617B79C3F101035B007B619D
:1025C00097F90730002B51DBBB793F2B4ED8BB6905
:1025D000DAB2BB791344FB7317E0FB69DBB2FA791B
:1025E000D31ABB7308E03A79F97BBB7B1846FFF737
:1025F00017FBBB7B013BBB73BA7BF979FB690B44CF
:102600009A42F0DAFB7B013BFB73FA7BB979BB6939
:10261000CB1A9A42E1DA7B693B613A69BB699A421B
:1026200013DCBB690133BB61BB695B0001337A69B1
:1026300013447B61FB695B42BA699A4205D13A69EE
:10264000FB699A4201DC00233B613A69FB699A42CB
:1026500008DDFB690133FB61FB695B0001337A69CB
:1026600013447B61FB69002BB1DD00E000BF243720
:10267000BD4690BD90B585B002AF044608461146F0
:102680001A462346FB710346BB710B467B7113460A
:102690003B71BC797A79B979F8793B7E009323460E
:1026A000FFF7E2FB3C797A79B97978793B7E009340
:1026B0002346FFF7D9FB3C79FA79397978793B7E63
:1026C00000932346FFF7D0FBBC79FA793979F87982
:1026D0003B7E00932346FFF7C7FB00BF0C37BD4688
:1026E00090BD90B585B000AF0446084611461A4625
:1026F0002346FB710346BB710B467B7113463B714E
:10270000FA797B79934228BF13467B737A79FB79F8
:10271000934238BF13463B73BA793B79934228BF43
:102720001346FB723A79BB79934238BF1346BB72AA
:10273000FB7AFB7317E07B7BBB7309E097F82020E3
:10274000F97BBB7B1846FFF76BFABB7B0133BB738E
:10275000BA7B3B7B9A4203D897F90E30002BEDDA17
:10276000FB7B0133FB73FA7BBB7A9A4203D8FB7B7A
:102770003F2BE0D900BF00BF1437BD4690BD00001D
:1027800090B486B000AF0446084611461A46234668
:10279000FB710346BB710B467B7113463B7197F986
:1027A0000530002B02DB3B793F2B01D901239CE054
:1027B000FA797B799A4203D8BA793B799A4201D95E
:1027C000012392E0BB79DB08DAB23B79DB08DBB2AC
:1027D0009A4257D0FB793B614FE0BB79DB08DBB213
:1027E000DB011A463B6913447B61424A7B6913440F
:1027F0001B785AB2BB7903F00703FF2101FA03F3F8
:102800005BB253405BB2D9B23A4A7B6913440A4681
:102810001A707B6980337B610DE0364A7B69134413
:102820001B78DB43D9B2334A7B6913440A461A70DA
:102830007B6980337B613B79DB08DBB2DB011A46C5
:102840003B6913447A699A42E7D32A4A7B69134465
:102850001B785AB23B79DB4303F00703FF2141FAAF
:1028600003F35BB253405BB2D9B2224A7B69134493
:102870000A461A703B6901333B617B793A699A4297
:10288000ABD931E0BB7903F00703FF2202FA03F36F
:102890005AB23B79DB4303F00703FF2141FA03F30C
:1028A0005BB213405BB2FB73FA79BB79DB08DBB236
:1028B000DB0113447B610EE00E4A7B6913441A78F6
:1028C000FB7B5340D9B20B4A7B6913440A461A700A
:1028D0007B6901337B617B793A79D208D2B2D2012C
:1028E00013447A699A42E7D9002318461837BD463F
:1028F00090BC7047E005002080B584B000AF3A601E
:102900001A460346FB710B46BB7113467B717B79FC
:102910000733002B00DA0733DB107B810023FB73C6
:1029200097F90730002B3EDBBB793F2B3BD80023C8
:10293000BB7333E000237B7326E07B7B03F007034C
:10294000002B03D0FB7B5B00FB730DE0BB7BB7F977
:102950000A2002FB03F37A7BD208D2B213441A4650
:102960003B6813441B78FB7397F90F30002B08DA90
:10297000FA797B7B1344DBB23A7FB9791846FFF7CB
:102980004FF97B7B01337B737A7B7B799A42D4D37B
:10299000BB7B0133BB73BB790133BB71BA7B3B7E1D
:1029A0009A42C7D300E000BF1037BD4680BD80B556
:1029B00084B000AF0346FB718123FB73FB7B184699
:1029C000FFF752F8FB791846FFF74EF800BF1037B3
:1029D000BD4680BD80B584B000AF0346FB71FB7976
:1029E000002B05D0AF23FB73084B01225A7104E082
:1029F000AE23FB73054B00225A71FB7B1846FFF791
:102A000033F800BF1037BD4680BD00BFE00900208D
:102A100080B582B000AF0020FFF7C2F80023FB7141
:102A20000023BB71B979FB7900221846FFF7F8F84B
:102A3000BB79002B06D1FB797E2B03D8FB790133C0
:102A4000FB7116E0FB797F2B06D1BB793E2B03D8B7
:102A5000BB790133BB710CE0BB793F2B06D1FB790D
:102A6000002B03D0FB79013BFB7102E0BB79013BFA
:102A7000BB71B979FB7901221846FFF7D1F8FFF74E
:102A8000A7F8052000F07CFEFB79002BCAD1BB79AA
:102A9000002BC7D14FF47A7000F072FE00BF0837E8
:102AA000BD4680BD80B584B002AF0023FB7100201D
:102AB000FFF776F8FB7919460220FFF7BDF91D4BA9
:102AC000012200920ECB1C48FFF790F9FB791A33D4
:102AD000FB71FB7919460220FFF7AEF9174B012273
:102AE00000920ECB1648FFF781F9FB791233FB7188
:102AF000FB7919460220FFF79FF9124B0122009241
:102B00000ECB1148FFF772F9FB790A33FB71FB79A1
:102B100019460220FFF790F90C4B012200920ECBD0
:102B20000B48FFF763F9FFF753F800BF0837BD46BE
:102B300080BD00BFE03B010854EF0008D43B010812
:102B400060EF0008C83B01086CEF0008BC3B0108BF
:102B500078EF000890B585B002AF0020FFF720F8AD
:102B600004210020FFF768F9144B012200920ECBDC
:102B70001348FFF73BF924210020FFF75DF90F4BC5
:102B8000012200920ECB0F48FFF730F96023FB7152
:102B90003C23BB71FB7910337B71BB7902333B71F2
:102BA0003B797A79B979F87901240094FFF799FD96
:102BB000FFF70EF800BF0C37BD4690BDEC3B010897
:102BC00084EF000890EF000880B582B002AF0020CB
:102BD000FEF7E6FF04210420FFF72EF9104B012237
:102BE00000920ECB0F48FFF701F918210420FFF7E0
:102BF00023F90B4B012200920ECB0B48FFF7F6F89E
:102C00002C210420FFF718F9054B012200920ECB6E
:102C10000648FFF7EBF8FEF7DBFF00BFBD4680BDBF
:102C2000F83B01089CEF0008ACEF0008BCEF00087F
:102C3000B0B59AB002AF0120FEF7B2FF00F094FDEC
:102C4000B865BB6D7B650023FB65454A07F144030E
:102C500007CA83E8070000210220FFF7EDF8414B87
:102C6000002200920ECB4048FFF7C0F8242102203A
:102C7000FFF7E2F83B4B002200920ECB3B48FFF7F8
:102C8000B5F812210220FFF7D7F8364B07F14400C0
:102C9000002200920ECBFFF7A9F8FEF799FF97F8F4
:102CA000443087F8533007F14403013307F14400FF
:102CB0000A2219460AF050FF97F8533087F84E3031
:102CC000FB6D0133FB6500F04FFD78657A6DBB6DE0
:102CD000D31A41F287329342D3D941F2883000F0BF
:102CE0004FFDFB6D07EE903AF8EEE77A17EE900A8B
:102CF000FDF72AFC04460D467A6DBB6DD31A1846C3
:102D0000FDF700FC4FF00002194BFDF79FFD024656
:102D10000B4620462946FDF799FD02460B46104614
:102D20001946FDF77BFE0346FB65381DFB6D114A16
:102D300040210AF0DBFE0120FEF732FF02210220D3
:102D4000FFF77AF8074B381D002200920ECBFFF7F1
:102D50004DF8FEF73DFF00BF6037BD46B0BD00BF78
:102D6000ECEF0008D43B0108CCEF0008D8EF0008D6
:102D700000408F40E4EF000880B582B002AF01232D
:102D800000933F237F2201210120FFF76DF80123EB
:102D900000933F23012201217F20FFF765F8FEF712
:102DA00017FF00BFBD4680BD90B585B002AF0023C0
:102DB0007B6028E07B68DBB21A4692001344DBB2EA
:102DC0000133D8B27B68DBB21A4692001344DBB2FF
:102DD0000133D9B27B68DBB21A4692001344DBB2EE
:102DE000C3F17F03DAB27B68DBB21C46A400234444
:102DF000DBB2C3F13F03DBB201240094FFF73AFCDE
:102E00007B6801337B607B68042BD3D9FEF7E0FE3F
:102E100000BF0C37BD4690BD80B582B002AF012324
:102E200000932323412201211F20FFF75AFC012395
:102E300000933C2346222D210A20FFF752FC012358
:102E400000932D2364220A214B20FFF74AFC002324
:102E50000093372350221E213720FFF742FCFEF754
:102E6000B7FE00BFBD4680BD80B582B002AF002175
:102E70000220FEF7E1FF274B012200920ECB2648ED
:102E8000FEF7B4FF14210220FEF7D6FF214B0122EA
:102E900000920ECB2148FEF7A9FF28210220FEF761
:102EA000CBFF1C4B012200920ECB1D48FEF79EFF6C
:102EB00000214220FEF7C0FF164B012200920ECBEC
:102EC0001748FEF793FF14214220FEF7B5FF114B80
:102ED000012200920ECB1148FEF788FF28214220E4
:102EE000FEF7AAFF0B4B012200920ECB0A48FEF719
:102EF0007DFF3F233F2200210020FFF741FC3C23C0
:102F00007D223A210220FFF73BFCFEF761FE00BF65
:102F1000BD4680BDD43B0108F8EF000800F0000872
:102F200004F0000880B582B000AF00237B6010E0A1
:102F30007B68DBB21A46920013449B00DBB21E335F
:102F4000D8B201230A220F21FFF79AFA7B680133D6
:102F50007B607B68042BEBD900237B6011E07B68EE
:102F6000DBB21A4652001A44D200D31ADBB20F3336
:102F7000D8B201230A222821FFF709FB7B6801331D
:102F80007B607B68042BEAD9FEF722FE00BF08377E
:102F9000BD4680BD80B582B002AF012301934FF4DE
:102FA0008773009314231E221E211E20FFF740F872
:102FB000012301934FF4877300931E230A223721C4
:102FC0005020FFF71DF9FEF703FE00BFBD4680BD90
:102FD00090B585B000AF084B3C460FCB07C42380AB
:102FE0003B46012207211846FEF7AAFFFEF7F0FD37
:102FF00000BF1437BD4690BD0CF0000880B582B00C
:1030000002AF0120FEF7CCFD002301934023009383
:103010008023184A00210020FFF76EFCFEF7D8FD40
:1030200040F6B83000F0ACFB0020FEF7B9FD0123FC
:1030300001934023009340230F4A00212020FFF7F3
:103040005BFCFEF7C5FD40F6B83000F099FB0120AF
:10305000FEF7A6FD00230193402300934023064A78
:1030600000212020FFF748FCFEF7B2FD00BFBD465F
:1030700080BD00BF143C01081440010880B500AFBA
:10308000FEF724FDFFF7D4FD40F6B83000F078FBE2
:10309000FFF7BEFCFFF706FD40F6B83000F070FB0E
:1030A000FFF758FD40F6B83000F06AFBFFF78CFDE3
:1030B00040F6B83000F064FB0020FEF771FDFFF72A
:1030C00073FEFFF759FE40F6B83000F059FB0020C0
:1030D000FEF766FDFFF7A0FE40F6B83000F050FBAB
:1030E0000020FEF75DFDFFF7BFFE40F6B83000F0B0
:1030F00047FB0020FEF754FDFFF76AFF40F6B830AB
:1031000000F03EFB0020FEF74BFDFFF743FF40F6CB
:10311000B83000F035FB0020FEF742FDFFF702FF5C
:1031200040F6B83000F02CFBFFF768FF40F6B830EF
:1031300000F026FB00BF80BD80B483B000AF002349
:103140007B60104B5B6C0F4A43F4804353640D4B20
:103150005B6C03F480437B607B6800233B60094B1E
:103160001B6C084A43F080531364064B1B6C03F03E
:1031700080533B603B6800BF0C37BD465DF8047B65
:10318000704700BF0038024080B58AB000AF786059
:1031900007F1140300221A605A609A60DA601A611B
:1031A0007B681B68324A93425ED100233B61314BFE
:1031B0005B6C304A43F4807353642E4B5B6C03F4B6
:1031C00080733B613B690023FB602A4B1B6B294AE0
:1031D00043F001031363274B1B6B03F00103FB60F8
:1031E000FB68FF237B610323BB610023FB6107F1C5
:1031F00014031946204801F0B9FC204B204A1A60FC
:103200001E4B00225A601D4B00229A601B4B00226D
:10321000DA601A4B4FF480621A61184B4FF4006267
:103220005A61164B4FF400529A61144B0022DA6136
:10323000124B00221A62114B00225A620F4801F011
:10324000F5F80346002B01D0FEF7AAF97B680B4A7C
:103250009A630A4A7B68936300220021122001F0DE
:10326000AEF8122001F0C7F800BF2837BD4680BD78
:10327000002001400038024000000240E40100202C
:103280001064024080B58AB000AF786007F1140383
:1032900000221A605A609A60DA601A617B681B68C3
:1032A0004F4A934240F0978000233B614D4B1B6B8C
:1032B0004C4A43F0020313634A4B1B6B03F00203B7
:1032C0003B613B69C0237B611223BB610023FB612F
:1032D00003233B6204237B6207F11403194642482F
:1032E00001F044FC0023FB603E4B1B6C3D4A43F461
:1032F000001313643B4B1B6C03F40013FB60FB686F
:103300003A4B3B4A1A60394B4FF000725A60374BC8
:1033100000229A60354B0022DA60344B4FF4806211
:103320001A61324B00225A61304B00229A612F4BB6
:103330000022DA612D4B00221A622C4B00225A62C5
:103340002A4801F073F80346002B01D0FEF728F954
:103350007B68264A9A63254A7B689363254B264AF5
:103360001A60244B00225A60224B40229A60214B63
:103370000022DA601F4B4FF480621A611D4B00225D
:103380005A611C4B00229A611A4B0022DA61194BD8
:1033900000221A62174B00225A62164801F046F8C2
:1033A0000346002B01D0FEF7FBF87B68114A5A63F5
:1033B000104A7B689363002200211F2000F0FFFF6A
:1033C0001F2001F018F800220021202000F0F7FF54
:1033D000202001F010F800BF2837BD4680BD00BF97
:1033E00000540040003802400004024098020020CF
:1033F00010600240F80200202860024080B584B0CE
:1034000000AF78607B681B681A4A93422DD1002375
:10341000FB60194B5B6C184A43F001035364164B75
:103420005B6C03F00103FB60FB68002200211820A5
:1034300000F0C5FF182000F0DEFF00220021192057
:1034400000F0BDFF192000F0D6FF002200211A2055
:1034500000F0B5FF1A2000F0CEFF002200211B2053
:1034600000F0ADFF1B2000F0C6FF00BF1037BD46C7
:1034700080BD00BF000001400038024080B400AFB2
:1034800000BFFDE780B400AF00BFFDE780B400AF30
:1034900000BFFDE780B400AF00BFFDE780B400AF20
:1034A00000BFFDE780B400AF00BFBD465DF8047B00
:1034B000704780B400AF00BFBD465DF8047B704725
:1034C00080B400AF00BFBD465DF8047B704780B597
:1034D00000AF00F035F900BF80BD000080B500AF3F
:1034E000024801F0CBF800BF80BD00BF9802002069
:1034F00080B500AF024801F0C1F800BF80BD00BF39
:10350000F802002080B500AF024800F0A0F900BF2B
:1035100080BD00BF9C01002080B500AF024805F0CF
:10352000D5FD00BF80BD00BF5803002080B500AFAF
:10353000024805F0CBFD00BF80BD00BF580300204E
:1035400080B500AF024805F0C1FD00BF80BD00BFDF
:103550005803002080B500AF024805F0B7FD00BF5A
:1035600080BD00BF5803002080B500AF024801F0C5
:1035700009FF00BF80BD00BF4402002080B500AF3E
:10358000024802F070F800BF80BD00BF4402002076
:1035900080B500AF024801F071F800BF80BD00BFE8
:1035A000E401002080B500AF024803F08BFF00BFAC
:1035B00080BD00BFD412002080B586B000AF786017
:1035C000144A154BD31A7B617B693B61134B1B6813
:1035D000002B02D1114B124A1A60104B1A687B68FB
:1035E00013443A699A4207D20AF0D8FA03460C22E9
:1035F0001A604FF0FF3309E0084B1B68FB60074B74
:103600001A687B681344054A1360FB68184618372C
:10361000BD4680BD0000022000040000E809002033
:10362000201B002080B400AF064BD3F88830054A39
:1036300043F47003C2F8883000BFBD465DF8047BD8
:10364000704700BF00ED00E0DFF834D0FFF7EAFF7D
:103650000C480D490D4A002302E0D458C4500433ED
:10366000C4188C42F9D30A4A0A4C002301E01360C3
:103670000432A242FBD30AF097FAFDF701FD70472E
:1036800000000220000000208001002048460108C0
:1036900080010020201B0020FEE7000080B500AF65
:1036A0000E4B1B680D4A43F4007313600B4B1B68F1
:1036B0000A4A43F480631360084B1B68074A43F4CB
:1036C00080731360032000F06FFE0F2000F008F8F5
:1036D000FFF732FD0023184680BD00BF003C0240CA
:1036E00080B582B000AF7860124B1A68124B1B781D
:1036F00019464FF47A73B3FBF1F3B2FBF3F31846B8
:1037000000F087FE0346002B01D001230EE07B680A
:103710000F2B0AD8002279684FF0FF3000F04FFEDF
:10372000064A7B681360002300E00123184608372F
:10373000BD4680BD2C000020340000203000002059
:1037400080B400AF064B1B781A46064B1B68134427
:10375000044A136000BFBD465DF8047B704700BF9C
:1037600034000020EC09002080B400AF034B1B683C
:103770001846BD465DF8047B704700BFEC09002089
:1037800080B584B000AF7860FFF7EEFFB8607B686B
:10379000FB60FB68B3F1FF3F05D00A4B1B781A466C
:1037A000FB681344FB6000BFFFF7DEFF0246BB6807
:1037B000D31AFA689A42F7D800BF00BF1037BD4647
:1037C00080BD00BF3400002080B584B000AF7860B9
:1037D0000023FB737B68002B01D1012333E07B685E
:1037E0001B6C002B09D17868FFF7CEFC7B680022A8
:1037F0005A647B68002283F83C207B681B6C03F0D2
:103800001003002B18D17B681B6C23F4885323F022
:10381000020343F002027B681A64786800F06CFBD4
:103820007B6800225A647B681B6C23F0030343F01F
:1038300001027B681A6401E00123FB737B680022AC
:1038400083F83C20FB7B18461037BD4680BD80B511
:1038500086B000AF786000237B6100233B617B680A
:103860001B681B68FB607B681B685B68BB60FB6850
:1038700003F002037B61BB6803F020033B617B69BB
:10388000002B49D03B69002B46D07B681B6C03F0B2
:103890001003002B05D17B681B6C43F400727B681E
:1038A0001A647B681B689B6803F04053002B2BD184
:1038B0007B681B7E002B27D17B681B68DB6A03F4C7
:1038C0007003002B06D07B681B689B6803F4806341
:1038D000002B19D17B681B685A687B681B6822F033
:1038E00020025A607B681B6C23F480727B681A6428
:1038F0007B681B6C03F48053002B05D17B681B6C29
:1039000043F001027B681A647868FDF745FA7B682A
:103910001B686FF012021A60FB6803F004037B61FE
:10392000BB6803F080033B617B69002B57D03B6988
:10393000002B54D07B681B6C03F01003002B05D1C7
:103940007B681B6C43F400527B681A647B681B68BD
:103950009B6803F44013002B39D17B681B689B6B79
:1039600003F44013002B06D07B681B689B6803F4AC
:103970008063002B2BD17B681B685B6803F480633A
:10398000002B24D17B681B689B6803F04053002BFD
:103990001DD17B681B7E002B19D17B681B685A6880
:1039A0007B681B6822F080025A607B681B6C23F4E2
:1039B00080527B681A647B681B6C03F48073002B55
:1039C00005D17B681B6C43F001027B681A64786840
:1039D00000F010FC7B681B686FF00C021A60FB683B
:1039E00003F001037B61BB6803F040033B617B692B
:1039F000002B17D03B69002B14D07B681B681B6819
:103A000003F00103012B0DD17B681B6C43F4803262
:103A10007B681A64786800F029F97B681B686FF08E
:103A200001021A60FB6803F020037B61BB6803F0AE
:103A300080633B617B69002B15D03B69002B12D062
:103A40007B685B6C43F002027B685A647B681B688E
:103A50006FF020021A60786800F012F97B681B682A
:103A60006FF020021A6000BF1837BD4680BD00000D
:103A700080B588B000AFF860B9607A6000237B61E0
:103A80000023FB77FB6893F83C30012B01D1022324
:103A9000D0E0FB68012283F83C20FB681B689B6830
:103AA00003F00103012B18D0FB681B689A68FB68C0
:103AB0001B6842F001029A60604B1B68604AA2FBDF
:103AC00003239A0C13465B0013447B6102E07B697D
:103AD000013B7B617B69002BF9D1FB681B689B680C
:103AE00003F48073B3F5807F07D1FB681B689A6885
:103AF000FB681B6822F480729A60FB681B689B68F5
:103B000003F00103012B40F08880FB681B6C23F459
:103B1000E06323F0010343F48072FB681A64FB68DE
:103B20001B685B6803F48063002B07D0FB681B6C89
:103B300023F4405343F48052FB681A64FB681B6C07
:103B400003F48053B3F5805F06D1FB685B6C23F010
:103B50000602FB685A6402E0FB6800225A64FB68B4
:103B6000002283F83C20374BBB61FB689B6B364AD5
:103B7000DA63FB689B6B354A1A64FB689B6B344ABB
:103B8000DA64FB681B686FF022021A60FB681B682E
:103B90005A68FB681B6842F080625A60FB681B68C9
:103BA0009A68FB681B6842F480729A60FB68986BA5
:103BB000FB681B684C331946BA687B6800F0E4FC6C
:103BC0000346FB77BB695B6803F01F03002B0FD133
:103BD000FB681B689B6803F04053002B29D1FB68EE
:103BE0001B689A68FB681B6842F080429A6020E07C
:103BF000FB681B68174A93421BD1FB681B689B68D4
:103C000003F04053002B14D1FB681B689A68FB68D3
:103C10001B6842F080429A600BE0FB681B6C43F02B
:103C20001002FB681A64FB685B6C43F00102FB68DE
:103C30005A64FB7F18462037BD4680BD2C0000200B
:103C400083DE1B4300230140F1400008AB41000824
:103C5000C74100080020014080B483B000AF786005
:103C600000BF0C37BD465DF8047B704780B483B05D
:103C700000AF786000BF0C37BD465DF8047B70472D
:103C800080B483B000AF786000BF0C37BD465DF8EC
:103C9000047B704780B485B000AF78603960002342
:103CA000BB607B6893F83C30012B01D1022313E108
:103CB0007B68012283F83C203B681B68092B25D9CF
:103CC0007B681B68D9683B681B689BB21A46134621
:103CD0005B0013441E3B072202FA03F3DA437B68BE
:103CE0001B680A40DA607B681B68D9683B689A6881
:103CF0003B681B689BB2184603465B0003441E3BAF
:103D00009A407B681B680A43DA6022E07B681B6884
:103D100019693B681B689BB21A4613465B00134443
:103D2000072202FA03F3DA437B681B680A401A6130
:103D30007B681B6819693B689A683B681B689BB283
:103D4000184603465B0003449A407B681B680A439D
:103D50001A613B685B68062B24D87B681B68596B2B
:103D60003B685A6813469B001344053B1F2202FA26
:103D700003F3DA437B681B680A405A637B681B685D
:103D8000596B3B681B689BB218463B685A681346E0
:103D90009B001344053B00FA03F27B681B680A434F
:103DA0005A634CE03B685B680C2B24D87B681B682B
:103DB000196B3B685A6813469B001344233B1F2230
:103DC00002FA03F3DA437B681B680A401A637B68D4
:103DD0001B68196B3B681B689BB218463B685A68A6
:103DE00013469B001344233B00FA03F27B681B68D5
:103DF0000A431A6323E07B681B68D96A3B685A68E8
:103E000013469B001344413B1F2202FA03F3DA439B
:103E10007B681B680A40DA627B681B68D96A3B686A
:103E20001B689BB218463B685A6813469B001344B4
:103E3000413B00FA03F27B681B680A43DA62294BB4
:103E4000FB607B681B68284A93420FD13B681B6864
:103E5000122B0BD1FB685B6823F40002FB685A60ED
:103E6000FB685B6843F48002FB685A607B681B68F0
:103E70001D4A93422BD13B681B681C4A934203D0D6
:103E80003B681B68112B22D1FB685B6823F480021E
:103E9000FB685A60FB685B6843F40002FB685A6089
:103EA0003B681B68114A934211D1114B1B68114AA0
:103EB000A2FB03239A0C13469B0013445B00BB60D8
:103EC00002E0BB68013BBB60BB68002BF9D17B689B
:103ED000002283F83C20002318461437BD465DF8C5
:103EE000047B7047002301400020014012000010B5
:103EF0002C00002083DE1B4380B485B000AF7860C7
:103F0000794BFB60FB685B6823F44032FB685A60C6
:103F1000FB685A687B685B681A43FB685A607B6879
:103F20001B685A687B681B6822F480725A607B6841
:103F30001B6859687B681B691A027B681B680A4307
:103F40005A607B681B685A687B681B6822F0407265
:103F50005A607B681B6859687B689A687B681B6835
:103F60000A435A607B681B689A687B681B6822F466
:103F700000629A607B681B6899687B68DA687B6876
:103F80001B680A439A607B689B6A584A934222D016
:103F90007B681B689A687B681B6822F070629A6075
:103FA0007B681B6899687B689A6A7B681B680A4310
:103FB0009A607B681B689A687B681B6822F0405295
:103FC0009A607B681B6899687B68DA6A7B681B6803
:103FD0000A439A600FE07B681B689A687B681B68DD
:103FE00022F070629A607B681B689A687B681B6825
:103FF00022F040529A607B681B689A687B681B6855
:1040000022F002029A607B681B6899687B681B7EBD
:104010005A007B681B680A439A607B6893F82030DB
:10402000002B1BD07B681B685A687B681B6842F4B6
:1040300000625A607B681B685A687B681B6822F4C0
:1040400060425A607B681B6859687B685B6A013B09
:104050005A037B681B680A435A6007E07B681B6849
:104060005A687B681B6822F400625A607B681B6890
:10407000DA6A7B681B6822F47002DA627B681B686C
:10408000D96A7B68DB69013B1A057B681B680A43B8
:10409000DA627B681B689A687B681B6822F400728E
:1040A0009A607B681B6899687B6893F830305A0285
:1040B0007B681B680A439A607B681B689A687B6808
:1040C0001B6822F480629A607B681B6899687B6831
:1040D0005B699A027B681B680A439A6000BF1437C9
:1040E000BD465DF8047B7047002301400100000FCE
:1040F00080B584B000AF78607B689B6BFB60FB6829
:104100001B6C03F05003002B3CD1FB681B6C43F489
:104110000072FB681A64FB681B689B6803F04053DD
:10412000002B2BD1FB681B7E002B27D1FB681B6863
:10413000DB6A03F47003002B06D0FB681B689B68E6
:1041400003F48063002B19D1FB681B685A68FB6875
:104150001B6822F020025A60FB681B6C23F48072FB
:10416000FB681A64FB681B6C03F48053002B05D1B9
:10417000FB681B6C43F00102FB681A64F868FCF7EB
:104180000BFE0EE0FB681B6C03F01003002B03D04A
:10419000F868FFF775FD04E0FB689B6BDB6C7868E3
:1041A000984700BF1037BD4680BD80B584B000AFD2
:1041B00078607B689B6BFB60F868FFF74DFD00BF84
:1041C0001037BD4680BD80B584B000AF78607B6895
:1041D0009B6BFB60FB6840221A64FB685B6C43F0DE
:1041E0000402FB685A64F868FFF74AFD00BF103705
:1041F000BD4680BD80B483B000AF786000BF0C378F
:10420000BD465DF8047B704780B485B000AF786030
:104210007B6803F00703FB600C4BDB68BB60BA688C
:104220004FF6FF031340BB60FB681A02BB681343E1
:1042300043F0BF6343F40033BB60044ABB68D36000
:1042400000BF1437BD465DF8047B704700ED00E009
:1042500080B400AF044BDB681B0A03F00703184669
:10426000BD465DF8047B704700ED00E080B483B08C
:1042700000AF0346FB7197F90730002B0BDBFB798E
:1042800003F01F02074997F907305B09012000FA84
:1042900002F241F8232000BF0C37BD465DF8047BD5
:1042A000704700BF00E100E080B483B000AF034678
:1042B0003960FB7197F90730002B0ADB3B68DAB2F3
:1042C0000C4997F907301201D2B20B4483F800234E
:1042D0000AE03B68DAB20849FB7903F00F03043BBC
:1042E0001201D2B20B441A7600BF0C37BD465DF8FE
:1042F000047B704700E100E000ED00E080B489B08D
:1043000000AFF860B9607A60FB6803F00703FB61F7
:10431000FB69C3F10703042B28BF0423BB61FB69BE
:104320000433062B02D9FB69033B00E000237B61C9
:104330004FF0FF32BB6902FA03F3DA43BB681A405D
:104340007B699A404FF0FF317B6901FA03F3D9434F
:104350007B680B40134318462437BD465DF8047B49
:104360007047000080B582B000AF78607B68013B89
:10437000B3F1807F01D301230FE00A4A7B68013B40
:1043800053600F214FF0FF30FFF78EFF054B0022E7
:104390009A60044B07221A60002318460837BD466E
:1043A00080BD00BF10E000E080B582B000AF786053
:1043B0007868FFF729FF00BF0837BD4680BD80B58C
:1043C00086B000AF0346B9607A60FB7300237B615F
:1043D000FFF73EFF78617A68B9687869FFF78EFF6A
:1043E000024697F90F3011461846FFF75DFF00BFF0
:1043F0001837BD4680BD80B582B000AF0346FB7163
:1044000097F907301846FFF731FF00BF0837BD4660
:1044100080BD80B582B000AF78607868FFF7A2FFFA
:10442000034618460837BD4680BD000080B586B0FB
:1044300000AF786000237B61FFF796F938617B68F5
:10444000002B01D1012399E07B68022283F83520FB
:104450007B68002283F834207B681B681A687B68BD
:104460001B6822F001021A600FE0FFF77DF9024697
:104470003B69D31A052B08D97B6820225A657B68D3
:10448000032283F83520032378E07B681B681B68D0
:1044900003F00103002BE8D17B681B681B687B617C
:1044A0007A69384B13407B617B685A687B689B68EC
:1044B0001A437B68DB681A437B681B691A437B6875
:1044C0005B691A437B689B691A437B68DB691A4303
:1044D0007B681B6A13437A6913437B617B685B6A61
:1044E000042B07D17B68DA6A7B681B6B13437A69FC
:1044F00013437B617B681B687A691A607B681B6861
:104500005B697B617B6923F007037B617B685B6A86
:104510007A6913437B617B685B6A042B17D17B68E4
:104520009B6A7A6913437B617B68DB6A002B0ED040
:10453000786800F09FFA0346002B08D07B68402281
:104540005A657B68012283F83520012316E07B68D9
:104550001B687A695A61786800F056FA0346FB6076
:104560007B68DB6D3F229A40FB689A607B68002283
:104570005A657B68012283F83520002318461837D6
:10458000BD4680BD3F8010F080B586B000AFF860BA
:10459000B9607A603B600023FB75FB689B6D3B61F3
:1045A000FB6893F83430012B01D1022340E0FB6813
:1045B000012283F83420FB6893F83530DBB2012BFD
:1045C0002FD1FB68022283F83520FB6800225A6550
:1045D0003B687A68B968F86800F0E8F9FB68DB6D59
:1045E0003F229A403B699A60FB681B681A68FB6827
:1045F0001B6842F016021A60FB681B6C002B07D088
:10460000FB681B681A68FB681B6842F008021A60A6
:10461000FB681B681A68FB681B6842F001021A609D
:1046200005E0FB68002283F834200223FB75FB7D44
:1046300018461837BD4680BD80B483B000AF78609F
:104640007B6893F83530DBB2022B04D07B68802284
:104650005A6501230CE07B68052283F835207B68CE
:104660001B681A687B681B6822F001021A6000232D
:1046700018460C37BD465DF8047B704780B586B0A0
:1046800000AF78600023BB608E4B1B688E4AA2FB94
:1046900003239B0A7B617B689B6D3B613B691B68C5
:1046A000FB607B68DB6D08229A40FB681340002B9F
:1046B0001AD07B681B681B6803F00403002B13D01F
:1046C0007B681B681A687B681B6822F004021A600A
:1046D0007B68DB6D08229A403B699A607B685B6D62
:1046E00043F001027B685A657B68DB6D01229A40CA
:1046F000FB681340002B12D07B681B685B6903F0DA
:104700008003002B0BD07B68DB6D01229A403B6954
:104710009A607B685B6D43F002027B685A657B6838
:10472000DB6D04229A40FB681340002B12D07B689B
:104730001B681B6803F00203002B0BD07B68DB6D4A
:1047400004229A403B699A607B685B6D43F00402E7
:104750007B685A657B68DB6D10229A40FB681340CA
:10476000002B43D07B681B681B6803F00803002BF9
:104770003CD07B68DB6D10229A403B699A607B6875
:104780001B681B6803F48023002B18D07B681B6810
:104790001B6803F40023002B08D17B681B6C002BE3
:1047A00024D07B681B6C786898471FE07B689B6C03
:1047B000002B1BD07B689B6C7868984716E07B6861
:1047C0001B681B6803F48073002B07D17B681B6890
:1047D0001A687B681B6822F008021A607B681B6CF1
:1047E000002B03D07B681B6C786898477B68DB6D77
:1047F00020229A40FB681340002B00F08F807B68DA
:104800001B681B6803F01003002B00F087807B6897
:10481000DB6D20229A403B699A607B6893F83530C3
:10482000DBB2052B36D17B681B681A687B681B6876
:1048300022F016021A607B681B685A697B681B6845
:1048400022F080025A617B681B6C002B03D17B68CD
:104850009B6C002B07D07B681B681A687B681B6801
:1048600022F008021A607B68DB6D3F229A403B69A8
:104870009A607B68012283F835207B68002283F8E8
:1048800034207B681B6D002B7ED07B681B6D7868A5
:10489000984779E07B681B681B6803F48023002B32
:1048A0001DD07B681B681B6803F40023002B0DD10F
:1048B0007B685B6C002B31D07B685B6C78689847B9
:1048C0002CE000BF2C000020B5814E1B7B68DB6B09
:1048D000002B23D07B68DB6B786898471EE07B68F1
:1048E0001B681B6803F48073002B0FD17B681B6867
:1048F0001A687B681B6822F010021A607B6801222C
:1049000083F835207B68002283F834207B68DB6BDA
:10491000002B03D07B68DB6B786898477B685B6D06
:10492000002B32D07B685B6D03F00103002B22D09B
:104930007B68052283F835207B681B681A687B68D2
:104940001B6822F001021A60BB680133BB607A6900
:104950009A4207D37B681B681B6803F00103002B96
:10496000F2D100E000BF7B68012283F835207B682C
:10497000002283F834207B68DB6C002B05D07B6839
:10498000DB6C7868984700E000BF1837BD4680BDF3
:1049900080B483B000AF78607B6893F83530DBB2C9
:1049A00018460C37BD465DF8047B704780B485B06F
:1049B00000AFF860B9607A603B60FB681B681A68FA
:1049C000FB681B6822F480221A60FB681B683A6847
:1049D0005A60FB689B68402B08D1FB681B687A68AB
:1049E0009A60FB681B68BA68DA6007E0FB681B68BE
:1049F000BA689A60FB681B687A68DA6000BF14378F
:104A0000BD465DF8047B704780B485B000AF786028
:104A10007B681B68DBB2103B144AA2FB03231B0913
:104A2000FB60134AFB6813441B781A467B68DA65FF
:104A3000FB68032B09D97B681B6823F47F7323F081
:104A400003031A1D7B689A6507E07B681B6823F4E3
:104A50007F7323F003037A6893657B689B6D184628
:104A60001437BD465DF8047B704700BFABAAAAAA05
:104A70002C42010880B485B000AF78600023FB733E
:104A80007B689B6ABB607B689B69002B1FD1BB68FE
:104A9000032B56D801A252F823F000BFAD4A0008FC
:104AA000BF4A0008AD4A0008434B00087B68DB6A38
:104AB00003F08073002B46D00123FB7343E07B6837
:104AC000DB6AB3F1C07F40D10123FB733DE07B681B
:104AD0009B69B3F5005F21D1BB68032B37D801A2D6
:104AE00052F823F0F54A0008FB4A0008F54A00088E
:104AF0000D4B00080123FB7330E07B68DB6A03F099
:104B00008073002B25D00123FB7322E07B68DB6AD6
:104B1000B3F1C07F1FD10123FB731CE0BB68022BE4
:104B200003D9BB68032B03D018E00123FB7315E006
:104B30007B68DB6A03F08073002B0ED00123FB73CC
:104B40000BE000BF0AE000BF08E000BF06E000BFC6
:104B500004E000BF02E000BF00E000BFFB7B18469E
:104B60001437BD465DF8047B704700BF80B489B040
:104B700000AF7860396000237B6100233B61002334
:104B8000BB610023FB6159E10122FB6902FA03F3D7
:104B90007B613B681B687A6913403B613A697B69BA
:104BA0009A4240F048813B685B6803F00303012BA5
:104BB00005D03B685B6803F00303022B30D17B68B0
:104BC0009B68BB61FB695B00032202FA03F3DB43D2
:104BD000BA691340BB613B68DA68FB695B0002FAA3
:104BE00003F3BA691343BB617B68BA699A607B6857
:104BF0005B68BB610122FB6902FA03F3DB43BA691C
:104C00001340BB613B685B681B0903F00102FB6951
:104C100002FA03F3BA691343BB617B68BA695A604D
:104C20003B685B6803F00303032B17D07B68DB68EA
:104C3000BB61FB695B00032202FA03F3DB43BA6941
:104C40001340BB613B689A68FB695B0002FA03F39F
:104C5000BA691343BB617B68BA69DA603B685B6819
:104C600003F00303022B23D1FB69DA087B680832C7
:104C700053F82230BB61FB6903F007039B000F224E
:104C800002FA03F3DB43BA691340BB613B681A695C
:104C9000FB6903F007039B0002FA03F3BA691343AD
:104CA000BB61FB69DA087B680832B96943F82210F6
:104CB0007B681B68BB61FB695B00032202FA03F39C
:104CC000DB43BA691340BB613B685B6803F00302D6
:104CD000FB695B0002FA03F3BA691343BB617B68AB
:104CE000BA691A603B685B6803F44033002B00F03C
:104CF000A2800023FB60574B5B6C564A43F4804311
:104D00005364544B5B6C03F48043FB60FB68524A72
:104D1000FB699B08023352F82330BB61FB6903F047
:104D200003039B000F2202FA03F3DB43BA6913402B
:104D3000BB617B68494A934219D07B68484A9342D9
:104D400013D07B68474A93420DD07B68464A934212
:104D500007D07B68454A934201D1042308E007232A
:104D600006E0032304E0022302E0012300E0002325
:104D7000FA6902F0030292009340BA691343BB61DF
:104D80003549FB699B080233BA6941F82320384B47
:104D90009B68BB613B69DB43BA691340BB613B68FD
:104DA0005B6803F48013002B03D0BA693B6913439B
:104DB000BB612F4ABB6993602D4BDB68BB613B69CC
:104DC000DB43BA691340BB613B685B6803F40013C3
:104DD000002B03D0BA693B691343BB61244ABB690A
:104DE000D360234B5B68BB613B69DB43BA6913400B
:104DF000BB613B685B6803F40033002B03D0BA69E6
:104E00003B691343BB611A4ABB695360184B1B686B
:104E1000BB613B69DB43BA691340BB613B685B68BC
:104E200003F48033002B03D0BA693B691343BB61A1
:104E30000F4ABB691360FB690133FB61FB690F2BF0
:104E40007FF6A2AE00BF00BF2437BD465DF8047BED
:104E5000704700BF003802400038014000000240A7
:104E60000004024000080240000C02400010024012
:104E7000003C014080B483B000AF78600B467B807B
:104E800013467B707B78002B03D07A887B689A610D
:104E900003E07B881A047B689A6100BF0C37BD462B
:104EA0005DF8047B704780B485B000AF78600B4636
:104EB0007B807B685B69FB607A88FB6813401A041F
:104EC000FB68D9437B880B401A437B689A6100BF1B
:104ED0001437BD465DF8047B7047000080B584B090
:104EE00000AF78607B68002B01D101232BE17B6848
:104EF00093F83D30DBB2002B06D17B68002283F8AB
:104F00003C207868FEF7BEF97B68242283F83D20B8
:104F10007B681B681A687B681B6822F001021A60B4
:104F20007B681B681A687B681B6842F400421A6041
:104F30007B681B681A687B681B6822F400421A6051
:104F400003F0FEFFF8607B685B68814A934207D8F4
:104F5000FB68804A934294BF01230023DBB206E042
:104F6000FB687D4A934294BF01230023DBB2002BF0
:104F700001D00123E7E0FB68784AA2FB03239B0CE6
:104F8000BB607B681B685B6823F03F017B681B6824
:104F9000BA680A435A607B681B681B6A23F03F01AA
:104FA0007B685B686A4A934202D8BB68013309E0B8
:104FB000BB684FF4967202FB03F3694AA2FB03231A
:104FC0009B0901337A6812680B4313627B681B6884
:104FD000DB6923F44F4222F0FF027B685B685C4987
:104FE0008B4219D8FB68591E7B685B685B00B1FB7C
:104FF000F3F3591C40F6FC730B40002B0AD0FB68FE
:10500000591E7B685B685B00B1FBF3F30133C3F3AC
:105010000B0351E004234FE07B689B68002B11D108
:10502000FB68581E7B6859680B465B000B44B0FB5D
:10503000F3F30133C3F30B03002B0CBF0123002355
:10504000DBB212E0FB68581E7B6859680B469B0078
:105050000B4499000B44B0FBF3F30133C3F30B0390
:10506000002B0CBF01230023DBB2002B01D0012356
:1050700022E07B689B68002B0ED1FB68581E7B6882
:1050800059680B465B000B44B0FBF3F30133C3F3E9
:105090000B0343F400430FE0FB68581E7B6859681C
:1050A0000B469B000B4499000B44B0FBF3F3013318
:1050B000C3F30B0343F44043796809681343CB619E
:1050C0007B681B681B6823F0C0017B68DA697B681A
:1050D0001B6A1A437B681B680A431A607B681B685B
:1050E0009B6823F4034323F0FF037A6811697A680D
:1050F000D26811437A6812680B4393607B681B681F
:10510000DB6823F0FF017B685A697B689B691A435F
:105110007B681B680A43DA607B681B681A687B68D7
:105120001B6842F001021A607B6800221A647B68E7
:10513000202283F83D207B6800221A637B680022CE
:1051400083F83E20002318461037BD4680BD00BFBF
:10515000A08601007F841E00FF083D0083DE1B4304
:10516000D34D621080B483B000AF78607B681B6859
:105170005B6903F08003802B03D17B681B680022EE
:105180001A6100BF0C37BD465DF8047B7047000014
:1051900080B588B002AFF860084611461A4603464B
:1051A0007B810B463B811346FB80FEF7DDFA78617D
:1051B000FB6893F83D30DBB2202B40F0D9807B694F
:1051C0000093192301226D49F86801F011FE03468E
:1051D000002B01D00223CCE0FB6893F83C30012B7C
:1051E00001D10223C5E0FB68012283F83C20FB6863
:1051F0001B681B6803F00103012B07D0FB681B68C9
:105200001A68FB681B6842F001021A60FB681B68A1
:105210001A68FB681B6822F400621A60FB6821228E
:1052200083F83D20FB68402283F83E20FB68002283
:105230001A64FB683A6A5A62FB68BA8C5A85FB6842
:105240005B8D9AB2FB681A85FB684D4ADA62F88872
:105250003A8979897B690193BB6A00930346F868B0
:1052600001F088FC0346002B52D0012381E07A69CB
:10527000B96AF86801F0D6FE0346002B0DD0FB6832
:105280001B6C042B07D1FB681B681A68FB681B6842
:1052900042F400721A6001236BE0FB685B6A1A78C3
:1052A000FB681B681A61FB685B6A5A1CFB685A62E0
:1052B000FB681B8D013B9AB2FB681A85FB685B8D0E
:1052C0009BB2013B9AB2FB685A85FB681B685B691D
:1052D00003F00403042B1BD1FB681B8D002B17D09C
:1052E000FB685B6A1A78FB681B681A61FB685B6A7B
:1052F0005A1CFB685A62FB681B8D013B9AB2FB6823
:105300001A85FB685B8D9BB2013B9AB2FB685A859C
:10531000FB681B8D002BAAD17A69B96AF86801F085
:10532000C9FE0346002B0DD0FB681B6C042B07D174
:10533000FB681B681A68FB681B6842F400721A60FD
:10534000012316E0FB681B681A68FB681B6842F4BF
:1053500000721A60FB68202283F83D20FB6800225F
:1053600083F83E20FB68002283F83C20002300E005
:10537000022318461837BD4680BD00BF020010004A
:105380000000FFFF80B588B000AF78600023BB61EC
:105390007B681B685B687B617B68DB6A3B617B6861
:1053A00093F83E30FB737B6893F83D30BB73FB7B17
:1053B000102B03D0FB7B402B40F0C1807B681B6827
:1053C0009B69BB617B681B685B69FB61FB6903F0E0
:1053D0000103002B0DD13B69B3F52A0F03D03B69C4
:1053E000B3F12A4F01D1012300E00023012B00F08B
:1053F0003281FB6903F00103002B0CD07B695B0A4F
:1054000003F00103002B06D0786801F0FCFE7868F9
:1054100000F091FD92E0FB69DB0803F00103002B33
:1054200009D07B695B0A03F00103002B03D0786885
:1054300000F007FE82E0FB695B0803F00103002B2C
:1054400009D07B695B0A03F00103002B03D0786865
:1054500000F021FE72E0BB699B0803F00103002B02
:105460003BD07B681B685B6803F40063B3F5006F97
:1054700000F0F380FB69DB0903F00103002B0FD080
:105480007B699B0A03F00103002B09D0FB699B0891
:1054900003F00103002B03D1786800F0E9F94DE037
:1054A000FB699B0803F00103002B00F0D6807B69A9
:1054B0005B0A03F00103002B00F0CF80BB7B212BA4
:1054C00003D1786800F070FAC7E0FB7B402B40F016
:1054D000C480786800F0DEFABFE07B681B685B6818
:1054E00003F40063B3F5006F00F0B780FB699B091C
:1054F00003F00103002B0FD07B699B0A03F001032B
:10550000002B09D0FB699B0803F00103002B03D19A
:10551000786800F057FB11E0FB699B0803F001037A
:10552000002B00F09A807B695B0A03F00103002BDB
:1055300000F09380786800F00DFC8EE08DE07B68D1
:105540001B6C002B04D07B681B685B69FB6107E068
:105550007B681B689B69BB617B681B685B69FB613F
:10556000FB695B0803F00103002B12D07B695B0A27
:1055700003F00103002B0CD07B681B6C002B03D0C5
:105580007B681B689B69BB61B969786800F0D2FFD2
:1055900066E0FB691B0903F00103002B09D07B695E
:1055A0005B0A03F00103002B03D0786801F00CF8CC
:1055B00056E0BB7B212B02D0BB7B292B25D1FB697D
:1055C000DB0903F00103002B0FD07B699B0A03F07A
:1055D0000103002B09D0FB699B0803F00103002B9A
:1055E00003D1786800F0E8FE39E0FB699B0803F01E
:1055F0000103002B33D07B695B0A03F00103002B0E
:105600002DD0786800F015FF29E0FB699B0903F0B5
:105610000103002B0FD07B699B0A03F00103002BD1
:1056200009D0FB699B0803F00103002B03D17868C4
:1056300000F020FF14E0FB699B0803F00103002B3E
:105640000ED07B695B0A03F00103002B08D0786859
:1056500000F04EFF04E000BF02E000BF00E000BF2A
:105660002037BD4680BD80B58AB000AF78607B68CA
:105670001B685B693B627B681B685B68FB6100239E
:105680007B627B6893F83E30FB763B6A1B0A03F033
:105690000103002B0ED0FB691B0A03F00103002B52
:1056A00008D07B6A43F001037B627B681B686FF460
:1056B00080725A613B6A5B0A03F00103002B0ED033
:1056C000FB691B0A03F00103002B08D07B6A43F03F
:1056D00002037B627B681B686FF400725A613B6A4D
:1056E0009B0A03F00103002B3FD0FB691B0A03F068
:1056F0000103002B39D0FB7EBB767B685B8D9BB2B0
:105700007B617B6893F83D30FB747B681B6BFB60AF
:10571000BB7E202B12D17B69002B0FD1FB7C212B70
:1057200008D0FB7C292B05D0FB7C282B06D1FB68FD
:10573000212B03D1786801F077F816E07B681B68AD
:105740006FF480625A617B6A43F004037B62FB7EE4
:10575000102B02D0FB7E402B07D17B681B681A6898
:105760007B681B6842F400721A603B6ADB0A03F034
:105770000103002B0ED0FB691B0A03F00103002B71
:1057800008D07B6A43F008037B627B681B686FF478
:1057900000625A617B6A002B08D07B681A6C7B6AB6
:1057A0001A437B681A64786801F0B2F800BF2837A2
:1057B000BD4680BD80B483B000AF786000BF0C37B9
:1057C000BD465DF8047B704780B483B000AF78605D
:1057D00000BF0C37BD465DF8047B704780B483B0D2
:1057E00000AF786000BF0C37BD465DF8047B7047A2
:1057F00080B483B000AF786000BF0C37BD465DF861
:10580000047B704780B483B000AF78600B46FB70B8
:1058100013463B8000BF0C37BD465DF8047B7047E4
:1058200080B483B000AF786000BF0C37BD465DF830
:10583000047B704780B483B000AF786000BF0C3742
:10584000BD465DF8047B704780B483B000AF7860DC
:1058500000BF0C37BD465DF8047B704780B483B051
:1058600000AF786000BF0C37BD465DF8047B704721
:1058700080B584B000AF78607B6893F83D30FB73EF
:105880007B6893F83E30BB737B68DB6ABB607B68E8
:105890001B8D002B50D1FB7B212B4DD1BB68082BDE
:1058A0001DD0BB68202B1AD0BB6813F5803F16D0E3
:1058B0007B681B685A687B681B6822F4E0625A6048
:1058C0007B6811221A637B68002283F83E207B6884
:1058D000202283F83D207868FFF76CFF60E07B684A
:1058E0001B685A687B681B6822F4E0625A607B6818
:1058F0001B681A687B681B6842F400721A607B6838
:1059000000221A637B68202283F83D207B6893F88D
:105910003E30DBB2402B07D17B68002283F83E206B
:105920007868FBF759FA3BE07B68002283F83E2059
:105930007868FFF73FFF33E0FB7B212B05D0BB7B73
:10594000402B2DD1FB7B222B2AD17B685B8D9BB218
:10595000002B08D17B681B685A687B681B6822F49F
:1059600080625A601CE07B6893F83E30DBB2402BCB
:1059700003D1786800F08EF812E07B685B6A1A78D1
:105980007B681B681A617B685B6A5A1C7B685A6279
:105990007B685B8D9BB2013B9AB27B685A85FFE7BF
:1059A00000BF1037BD4680BD80B584B000AF7860C1
:1059B0007B68DB6AFB607B6893F83D30DBB2212BB0
:1059C00064D17B685B8D9BB2002B12D07B685B6AD5
:1059D0001A787B681B681A617B685B6A5A1C7B6853
:1059E0005A627B685B8D9BB2013B9AB27B685A8599
:1059F0004CE0FB68082B1DD0FB68202B1AD0FB68FD
:105A000013F5803F16D07B681B685A687B681B685B
:105A100022F4E0625A607B6811221A637B680022DC
:105A200083F83E207B68202283F83D207868FFF7CA
:105A3000C1FE2BE07B681B685A687B681B6822F4F8
:105A4000E0625A607B681B681A687B681B6842F4D6
:105A500000721A607B6800221A637B68202283F838
:105A60003D207B6893F83E30DBB2402B07D17B684A
:105A7000002283F83E207868FBF7AEF906E07B68E9
:105A8000002283F83E207868FFF794FE00BF1037AD
:105A9000BD4680BD80B584B000AF78607B6893F868
:105AA0003D30FB737B681B6D002B1DD17B68DB6C6D
:105AB000012B0BD17B689B6CDAB27B681B681A6187
:105AC0007B681B6D9A1C7B681A6577E07B689B6C12
:105AD0009BB21B12DAB27B681B681A617B681B6D74
