:020000040800F2
:1000000000000220B91C0008591B0008611B0008F1
:10001000691B0008711B0008791B00080000000024
:10002000000000000000000000000000811B00082C
:100030008F1B0008000000009D1B0008AB1B000880
:10004000091D0008091D0008091D0008091D0008F8
:10005000091D0008091D0008091D0008091D0008E8
:10006000091D0008091D0008091D0008B91B00082A
:10007000CD1B0008091D0008091D0008091D000806
:10008000091D0008091D0008E11B00080000000010
:10009000000000000000000000000000091D000832
:1000A000F51B0008091C00081D1C0008311C000875
:1000B000091D0008091D0008091D0008451C00084D
:1000C000591C0008091D0008091D0008091D000829
:1000D000091D0008091D0008091D00080000000096
:1000E000091D0008091D0008091D00080000000086
:1000F000000000000000000000000000091D0008D2
:1001000000000000091D0008091D0008091D000865
:1001100000000000000000000000000000000000DF
:100120006D1C0008091D0008091D0008091D0008B4
:10013000091D000800000000000000000000000091
:10014000000000000000000000000000811C00080A
:10015000091D0008091D0008091D0008091D0008E7
:10016000091D0008091D0008000000000000000033
:10017000000000000000000000000000000000007F
:1001800000000000091D0008000000000000000041
:08019000091D0008091D00080B
:1001980010B5054C237833B9044B13B10448AFF3B9
:1001A80000800123237010BD3C01002000000000E6
:1001B80098C6000808B5034B1BB103490348AFF3C1
:1001C800008008BD000000004001002098C600081B
:1001D80053B94AB9002908BF00281CBF4FF0FF31A6
:1001E8004FF0FF3000F088B9ADF1080C6DE904CE8E
:1001F80000F006F8DDF804E0DDE9022304B07047FA
:100208002DE9F047089D8E4604468846002B4AD1C2
:100218008A42174662D9B2FA82F64EB1C6F1200375
:1002280001FA06F820FA03F3B74043EA0808B44095
:100238004FEA174E1FFA87FCB8FBFEF1230C0EFBA2
:10024800118843EA084301FB0CF29A4209D9FB18CA
:1002580001F1FF3080F0EA809A4240F2E7800239EB
:100268003B449A1AA3B2B2FBFEF00EFB102243EAFB
:10027800024300FB0CFC9C4509D9FB1800F1FF3236
:1002880080F0D6809C4540F2D3803B44023840EA57
:100298000140A3EB0C0300211DB1F3400022C5E986
:1002A8000032BDE8F0878B4205D90DB1C5E90001E0
:1002B80000210846F5E7B3FA83F1002946D17345D2
:1002C80002D3824200F20581841A6EEB03020120F8
:1002D8009046002DE5D0C5E90048E2E7002A00F085
:1002E8009080B2FA82F6002E40F0A4808A1A030C9D
:1002F8004FEA174E80B2BCB20121B2FBFEFC0EFBE6
:100308001C2243EA024304FB0CF29A4207D9FB1869
:100318000CF1FF3802D29A4200F2E080C4469B1AE0
:10032800B3FBFEF20EFB123340EA034302FB04F474
:100338009C4207D9FB1802F1FF3002D29C4200F21E
:10034800CA8002461B1B42EA0C40A5E7C1F1200601
:100358008B4022FA06F71F430EFA01F420FA06F33F
:100368002EFA06FE4FEA1749234300FA01F81FFA4E
:1003780087FCBEFBF9F01C0C09FB10EE44EA0E44A6
:1003880000FB0CFEA64502FA01F209D93C1900F15E
:10039800FF3A80F09C80A64540F2998002383C44A0
:1003A800A4EB0E041FFA83FEB4FBF9F309FB134414
:1003B8004EEA044403FB0CFCA44508D93C1903F19C
:1003C800FF3E80F08280A4457FD9023B3C4443EA4B
:1003D8000040A4EB0C04A0FB02EC64457346E14624
:1003E80062D35FD05DB1B8EB030264EB090404FA91
:1003F80006F622FA01F31E43CC40C5E90064002149
:100408004FE7B1FBF2FC010C41EA0E4180B240EA31
:1004180001423B4638463C46B846BE462026B1FB1C
:10042800F7F1A2EB080241EA0C4166E7014618E73A
:1004380010462CE7C6F120022EFA02F3B740B1406D
:1004480020FA02F24FEA174E0A43B3FBFEF8BCB299
:100458000EFB1833110C41EA034108FB04F9B040C4
:1004680089454FEA104380B23ED9791808F1FF3C1C
:1004780001D289451FD8A1EB0901B1FBFEF909FB9F
:1004880004F80EFB191192B242EA0142424529D200
:10049800BA1809F1FF31C4D24245C2D2A9F102010A
:1004A8003A44BEE7F0459DD2BEEB02036CEB070C65
:1004B8000138E14696E7A7EB09094944A8F1020C7F
:1004C800B1FBFEF909FB04F8DBE773467FE750460A
:1004D80066E70846FDE63B44023A33E7ACF1020C16
:1004E8003B441CE749469CE7A1EB0901C446B1FB24
:1004F800FEF909FB04F8C4E7704700BF80B485B073
:1005080000AF78600023FB600AE00A4AFB6832F813
:100518001310094AFB6822F81310FB680133FB60CB
:10052800FB68072BF1DD00BF00BF1437BD465DF83F
:10053800047B7047600300207003002080B483B000
:1005480000AF7860044B01221A7000BF0C37BD461B
:100558005DF8047B704700BF9905002080B582B024
:1005680000AF78607B681B680E4A934216D10E4B29
:100578001B780133DAB20C4B1A700B4B1B78282B03
:1005880007D1094B00221A70084A137843F08003F8
:10059800137008220649074801F09EFD00BF08377E
:1005A800BD4680BD000001405C0300209805002086
:1005B800600300205801002090B484B000AF786038
:1005C80039600023FB7318E0FB7B7A681A44104BF0
:1005D80019680F4B5B79581CC4B20D4844710B4421
:1005E80012781A700A4B5A79094B9B791340DAB280
:1005F800074B5A71FB7B0133FB73FB7B3A689A42CA
:10060800E2D800BF00BF1037BD4690BC704700BF9E
:100618008C03002080B5C2B000AF224B1A79214B61
:100628005B799A4239D01F4800F0C4FC0346002B7E
:1006380003D01D491B4800F039F8002387F807311B
:100648001DE0194B1A68184B1B7A591CC8B2164979
:1006580008721A4497F80731117807F58472A2F5E1
:100668008272D154104B1A7A0F4B9B791340DAB22D
:100678000D4B1A7297F80731013387F807310A4B87
:10068800DB7997F807219A42DBD3074BDB791A46C7
:100698003B1D114618460BF06DFB00BF07F584772C
:1006A800BD4680BD8C0300208003002080B582B049
:1006B80000AF786039607B681B687A68127A1344E7
:1006C8001B78F02B02D0F12B10D01FE00222F02172
:1006D800386800F04DFB0D21386800F0F8FB3B68E6
:1006E8005B7A1946386800F0F2FB25E00D22F1210B
:1006F800386800F03DFB1249386800F016FC3B688A
:100708005B7A1946386800F0E2FB15E07B681B68E5
:100718007A68127A13441B7802221946386800F066
:1007280027FBFF21386800F0D2FB3B685B7A19464B
:10073800386800F0CCFB00BF00BF0837BD4680BD5D
:1007480078D4000880B500AF104B1B7823F07F03E6
:10075800DBB2002B17D00D4A137823F080031370F7
:100768000B4B1B68013B0A4A1360094B1B68002BA3
:1007780009D1074B0A221A60044A137843F0400350
:10078800137000F007F800BF80BD00BF9805002077
:100798003000002080B500AF0F4B1B68DB430F4AC9
:1007A8001278114601228A401340002B04D04FF4DE
:1007B80000510B4802F0B7FE084B1B780133DAB240
:1007C800064B1A70054B1B7803F01F03DAB2034B74
:1007D8001A7000BF80BD00BF080000209A050020E5
:1007E8000008024080B500AF00210A2000F0B6FEE4
:1007F80001220C490C4800F045FF14210A2000F0A2
:10080800ADFE01220749094800F03CFF28210A20D3
:1008180000F0A4FE01220349054800F033FF00BFA1
:1008280080BD00BF00000020B0C60008BCC600089C
:10083800C8C6000880B500AF01F064FA00F044F8BB
:1008480000F030FA00F0F0F900F0A6F800F058F9DE
:1008580000F084F90BF074F912480BF0C3FA12484F
:1008680007F078F901224FF40051104802F042FED7
:10087800012202210E4802F03DFE00F0D1FC0D4B92
:100888000D4A0E490E4800F093FC0E4B00221A70D8
:10089800FFF758FFFFF7BEFEFFF7A4FF00F084FD47
:1008A80000BFF5E7C1050008140300200008024056
:1008B80000040240980300209804002080030020D0
:1008C8008C0300209805002080B594B000AF07F194
:1008D80020033022002118460BF0AEFE07F10C036E
:1008E80000221A605A609A60DA601A610023BB60BD
:1008F800274B1B6C264A43F080531364244B1B6C14
:1009080003F08053BB60BB6800237B60214B1B68EE
:10091800204A43F4404313601E4B1B6803F44043D2
:100928007B607B6801233B624FF480337B62022348
:10093800BB634FF48003FB6319233B64C0237B64D0
:100948000223BB640423FB6407F12003184606F066
:100958006DFC0346002B01D000F004FA0F23FB6066
:1009680002233B6100237B614FF48053BB6100236A
:10097800FB6107F10C030321184606F0CFFE03467E
:10098800002B01D000F0EEF900BF5037BD4680BD06
:10099800003802400070004080B584B000AF3B468C
:1009A80000221A605A609A60DA60524B524A1A6002
:1009B800504B4FF480325A604E4B00229A604D4B98
:1009C80001221A614B4B00221A764A4B002283F807
:1009D8002020484B0022DA62464B484A9A62454B2F
:1009E8000022DA60434B0822DA61424B012283F885
:1009F8003020404B01225A613E4801F019FA034663
:100A0800002B01D000F0AEF900233B6001237B608E
:100A18000023BB603B461946364801F06FFC03468D
:100A2800002B01D000F09EF901233B6002237B607C
:100A38003B4619462F4801F061FC0346002B01D0C4
:100A480000F090F902233B6003237B603B46194684
:100A5800284801F053FC0346002B01D000F082F92E
:100A680003233B6004237B603B461946214801F081
:100A780045FC0346002B01D000F074F904233B60C9
:100A880005237B603B4619461A4801F037FC0346AC
:100A9800002B01D000F066F905233B6006237B603C
:100AA8003B461946134801F029FC0346002B01D0A8
:100AB80000F058F906233B6007237B603B46194644
:100AC8000C4801F01BFC0346002B01D000F04AF94A
:100AD80007233B6008237B603B461946054801F025
:100AE8000DFC0346002B01D000F03CF900BF103785
:100AF800BD4680BD58010020002001400100000FC4
:100B080080B500AF124B134A1A60114B124A5A6053
:100B18000F4B00229A600E4B0022DA600C4B4FF408
:100B280080421A610A4B00225A61094B00229A61DD
:100B3800074B0022DA61064B00221A62044802F0D1
:100B48000DFD0346002B01D000F00CF900BF80BD5D
:100B58000002002000540040801A060080B58CB0C6
:100B680000AF07F1200300221A605A609A60DA6029
:100B780007F10C0300221A605A609A60DA601A6161
:100B88003B1D00221A605A60254B264A1A60244BE6
:100B98005F225A60224B00229A60214BF922DA60C8
:100BA8001F4B00221A611E4B00225A611C4B002267
:100BB8009A611B4806F07EFF0346002B01D000F027
:100BC800D1F84FF480533B6207F1200319461448CB
:100BD80007F012F90346002B01D000F0C3F80023F8
:100BE800FB6000233B6107F10C0319460C4807F032
:100BF800CAF90346002B01D000F0B4F800237B604B
:100C08000023BB603B1D1946054807F0D9FB034686
:100C1800002B01D000F0A6F800BF3037BD4680BDDC
:100C2800140300200000014080B582B000AF00230B
:100C38007B601B4B1B6B1A4A43F480031363184BEE
:100C48001B6B03F480037B607B6800233B60144BC1
:100C58001B6B134A43F400131363114B1B6B03F410
:100C680000133B603B68002200210B2001F0DBFEF3
:100C78000B2001F0F4FE002200210C2001F0D3FE2D
:100C88000C2001F0ECFE00220021382001F0CBFE00
:100C9800382001F0E4FE00BF0837BD4680BD00BF24
:100CA8000038024080B58AB000AF07F11403002273
:100CB8001A605A609A60DA601A6100233B61274B18
:100CC8001B6B264A43F004031363244B1B6B03F08E
:100CD80004033B613B690023FB60204B1B6B1F4AED
:100CE80043F0800313631D4B1B6B03F08003FB6011
:100CF800FB680023BB60194B1B6B184A43F00103C8
:100D08001363164B1B6B03F00103BB60BB68002326
:100D18007B60124B1B6B114A43F0020313630F4BAA
:100D28001B6B03F002037B607B6800224FF40051C9
:100D38000B4802F0DFFB4FF400537B610123BB61DA
:100D48000023FB6100233B6207F1140319460448A2
:100D580002F04CFA00BF2837BD4680BD003802407B
:100D68000008024080B400AF72B600BF00BFFDE7C4
:100D780080B483B000AF78600B46FB701346BB703D
:100D8800BB780133BB707B6800225A727B685A7942
:100D98007B681A727B681A687B685B79591CC8B2D1
:100DA80079684871134455221A707B685A797B68B0
:100DB8009B791340DAB27B685A717B681A687B6842
:100DC8005B79591CC8B27968487113444E221A706D
:100DD8007B685A797B689B791340DAB27B685A71D1
:100DE8007B681A687B685B79591CC8B27968487156
:100DF800134445221A707B685A797B689B791340A3
:100E0800DAB27B685A717B681A687B685B79591C0F
:100E1800C8B279684871134452221A707B685A79AB
:100E28007B689B791340DAB27B685A717B681A68D1
:100E38007B685B79591CC8B2796848711344BA78E1
:100E48001A707B685A797B689B791340DAB27B68A1
:100E58005A717B681A687B685B79591CC8B27968D3
:100E6800487113443A221A707B685A797B689B79D7
:100E78001340DAB27B685A717B681A687B685B79C1
:100E8800591CC8B2796848711344FA781A707B689B
:100E98005A797B689B791340DAB27B685A717B6810
:100EA8000722DA717B685A7AB978FB784B40DBB253
:100EB8005340DBB283F03603DAB27B685A727B6840
:100EC8005B7A18460C37BD465DF8047B704780B4E2
:100ED80083B000AF78600B46FB707B68DB79013329
:100EE800DAB27B68DA717B681A687B685B79591CAF
:100EF800C8B2796848711344FA781A707B685A79CD
:100F08007B689B791340DAB27B685A717B685A7A9E
:100F1800FB785340DAB27B685A727B685B7A184672
:100F28000C37BD465DF8047B704790B484B000AFC1
:100F3800786039600023FB732CE07B68DB79013330
:100F4800DAB27B68DA71FB7BDBB21A463B681A447B
:100F58007B6819687B685B79581CC4B278684471EF
:100F68000B4412781A707B685A797B689B79134016
:100F7800DAB27B685A71FB7BDBB25A1CD2B2FA73C5
:100F88001A463B6813441A787B685B7A5340DAB296
:100F98007B685A72FB7BDBB21A463B6813441B78AA
:100FA800002BCAD17B685B7A18461037BD4690BCC7
:100FB8007047000080B485B000AF78600023FB73F1
:100FC8007B685B79BB73E4E0784B1B78072B00F2F6
:100FD800C98001A252F823F0011000081B10000874
:100FE8005910000885100008B1100008C710000843
:100FF8006D110008291100087B681B687A6812794E
:1010080013441B78552B40F0B180684B01221A70AD
:10101800ACE07B681B687A68127913441B784E2B06
:1010280003D1624B02221A70A2E07B681B687A68BF
:10103800127913441B78552B00F09A805B4B0022E1
:101048001A707B681B79013BDAB27B681A718FE0F2
:101058007B681B687A68127913441B78452B03D187
:10106800524B03221A7086E0504B00221A707B689C
:101078001B79013BDAB27B681A717CE07B681B68DC
:101088007A68127913441B78522B03D1474B0422F8
:101098001A7070E0454B00221A707B681B79013B7F
:1010A800DAB27B681A7166E07B681B687A68127925
:1010B80013441B78FB733D4B05221A705BE07B6879
:1010C8001B687A68127913441B783A2B1ED1374B68
:1010D80007221A707B681B790133DAB27B681A72AF
:1010E8007B681A7A7B689B791340DAB27B681A723C
:1010F8007B6800225A727B685A7AFB7B5340DBB2CA
:1011080083F03603DAB27B685A7234E0274B002248
:101118001A707B681B79013BDAB27B681A712AE086
:10112800FB7B013BFB73FB7B002B0CD07B685A7A63
:101138007B681B68796809790B441B785340DAB2DD
:101148007B685A7216E0194B00221A707B681B687C
:101158007A68127913441A787B685B7A9A4209D1C3
:1011680001231DE0114B00221A7004E000BF02E0C9
:1011780000BF00E000BF7B681B790133DAB27B68EF
:101188001A717B681A797B689B791340DAB27B689D
:101198001A717B681B79BA7B9A427FF415AF0023DA
:1011A80018461437BD465DF8047B70479B05002040
:1011B80080B485B000AFF860B9607A603B60FB68C6
:1011C8007A681A60FB6800221A71FB6800225A715B
:1011D800FB6800221A72FB680022DA71FB68FF22A2
:1011E8009A71FB6800225A72BB683A681A60BB6839
:1011F80000221A71BB6800225A71BB6800221A7259
:10120800BB680022DA71BB68FF229A71BB680022B2
:101218005A7200BF1437BD465DF8047B7047000062
:1012280080B582B000AF00F053FA44F62063012283
:1012380078215B4802F04AFC0346002B01D00023CA
:10124800A9E040F6C4137B6002E07B68013B7B6049
:101258007B68002BF9D1AE220021782000F0B6FA85
:1012680020220021782000F0B1FA102200217820F5
:1012780000F0ACFAB0220021782000F0A7FAC822CA
:101288000021782000F0A2FA00220021782000F046
:101298009DFA10220021782000F098FA40220021BF
:1012A800782000F093FA81220021782000F08EFA4D
:1012B800FF220021782000F089FAA122002178205D
:1012C80000F084FAA6220021782000F07FFAA822F4
:1012D8000021782000F07AFA3F220021782000F0DF
:1012E80075FAA4220021782000F070FAD322002198
:1012F800782000F06BFA00220021782000F066FACE
:10130800D5220021782000F061FAF022002178200F
:1013180000F05CFAD9220021782000F057FA222246
:101328000021782000F052FADA220021782000F01B
:101338004DFA12220021782000F048FADB22002121
:10134800782000F043FA20220021782000F03EFAAD
:101358008D220021782000F039FA1422002178200B
:1013680000F034FAAF220021782000F02FFA2E2264
:101378000021782000F02AFA002000F077F800F029
:1013880013F8084B00221A80064B00225A80054B9E
:1013980001225A71012318460837BD4680BD00BF97
:1013A800000200209C09002080B500AF2B4B1B7861
:1013B800DBB2002B03D12A4B1B78012B4CD1274BD6
:1013C80000221A70264B1B78013B032B44D801A23C
:1013D80052F823F0ED130008071400081914000848
:1013E8002B1400081F4B1B78503BDBB21A46002118
:1013F800782000F0EBF91A4B02221A702CE0002238
:101408000021782000F0E2F9154B03221A7023E03E
:1014180010220021782000F0D9F9114B04221A700B
:101428001AE0104B1B78DB010F4A1A448023402135
:10143800782000F063F90B4B1B780133DAB2094BC3
:101448001A70084B1B78072B02D9064B00221A701A
:10145800034B01221A7000BF00BF80BD9905002010
:1014680034000020A20900209C05002080B582B02D
:1014780000AF0346FB71FB79002B01D1002300E08C
:10148800FF234FF48062194603480BF0D5F800BFDC
:101498000837BD4680BD00BF9C05002080B483B0DE
:1014A80000AF0346FB800B46BB801346FB70FB88EE
:1014B8007F2B48D8BB883F2B45D8264B1B79002B60
:1014C80006D0FB78002B0CBF01230023DBB2FB7096
:1014D800FB78012B1AD1FA88BB88DB0898B203463F
:1014E800DB0113441C4AD35C5AB2BB8803F00703E0
:1014F800012101FA03F35BB2134359B2FA88034698
:10150800DB011344C9B2144AD1541DE0FA88BB88E0
:10151800DB0898B20346DB0113440F4AD35C5AB286
:10152800BB8803F00703012101FA03F35BB2DB4335
:101538005BB2134059B2FA880346DB011344C9B2BF
:10154800054AD15400E000BF0C37BD465DF8047B66
:10155800704700BF9C0900209C05002080B483B020
:1015680000AF03460A46FB801346BB80054AFB884A
:101578001380044ABB88538000BF0C37BD465DF812
:10158800047B70479C09002080B586B000AF0346F5
:101598003960FB711346BB71394B1B881A463B688F
:1015A8001B7813447F2B07DC354B5B881A463B6856
:1015B8005B7813443F2B01DD00235DE000237B6152
:1015C8004BE03B685A68FB79203B3968497801FB56
:1015D80003F319467B690B445B0013441B88FB60CB
:1015E80000233B6130E0FA683B6902FA03F303F435
:1015F8000043002B10D0224B1A883B699BB213443E
:1016080098B21F4B5A887B699BB213449BB2BA7934
:101618001946FFF743FF14E0194B1A883B699BB240
:10162800134498B2164B5A887B699BB2134499B2FB
:10163800BB79002B0CBF01230023DBB21A46FFF74E
:101648002DFF3B6901333B613B681B781A463B69B8
:101658009342C8D37B6901337B613B685B781A4648
:101668007B699342ADD3064B1B883A6812781344C2
:101678009AB2034B1A80FB7918461837BD4680BDCD
:101688009C09002080B584B000AFF860B9601346AB
:10169800FB7112E0FB681B78FA79B9681846FFF706
:1016A80073FF03461A46FB681B789A4202D0FB6810
:1016B8001B7808E0FB680133FB60FB681B78002B94
:1016C800E8D1FB681B7818461037BD4680BD00007E
:1016D80080B483B000AF084B7B6002E07B68013BBD
:1016E8007B607B68002BF9D100BF00BF0C37BD467B
:1016F8005DF8047B704700BF90D0030090B5C7B079
:1017080002AF0446084607F58871A1F588710A609A
:10171800194607F58873A3F2091322461A7007F5CC
:101728008873A3F5857302461A7007F58873A3F5C5
:1017380086730A461A8007F58873A3F5827307F53E
:101748008872A2F5857212781A70002387F80F3113
:1017580015E097F80F3107F58872A2F588721268BC
:101768001A4497F80F310133117807F58872A2F5FA
:101778008272D15497F80F31013387F80F3197F8F7
:101788000F319BB207F58872A2F5867212889A42C9
:10179800DFD807F58873A3F209131B7899B207F508
:1017A8008873A3F586731B8801339BB2019307F1F5
:1017B8000C03009301234022034802F029F800BFDC
:1017C80007F58A77BD4690BD0002002080B586B037
:1017D80002AF0346FB710B46BB7113467B71BB79A5
:1017E8003B737B797B73FB7999B20223019307F1F1
:1017F8000C03009301234022034802F009F800BFBC
:101808001037BD4680BD00BF0002002080B483B001
:1018180000AF00237B60104B5B6C0F4A43F480439E
:1018280053640D4B5B6C03F480437B607B6800233F
:101838003B60094B1B6C084A43F080531364064B0A
:101848001B6C03F080533B603B6800BF0C37BD4600
:101858005DF8047B704700BF0038024080B58AB04D
:1018680000AF786007F1140300221A605A609A608A
:10187800DA601A617B681B68324A93425ED10023A2
:101888003B61314B5B6C304A43F4807353642E4B9D
:101898005B6C03F480733B613B690023FB602A4B5C
:1018A8001B6B294A43F001031363274B1B6B03F09F
:1018B8000103FB60FB68FF237B610323BB610023FB
:1018C800FB6107F114031946204801F08FFC204BF7
:1018D800204A1A601E4B00225A601D4B00229A6053
:1018E8001B4B0022DA601A4B4FF480621A61184BC6
:1018F8004FF400625A61164B4FF400529A61144B30
:101908000022DA61124B00221A62114B00225A623D
:101918000F4801F0BFF80346002B01D0FFF722FA69
:101928007B680B4A9A630A4A7B689363002200210A
:10193800122001F078F8122001F091F800BF283742
:10194800BD4680BD00200140003802400000024032
:10195800A00100201064024080B58AB000AF786012
:1019680007F1140300221A605A609A60DA601A615B
:101978007B681B684F4A934240F0978000233B6185
:101988004D4B1B6B4C4A43F0020313634A4B1B6BD2
:1019980003F002033B613B69C0237B611223BB61F7
:1019A8000023FB6103233B6204237B6207F11403DA
:1019B8001946424801F01AFC0023FB603E4B1B6CA1
:1019C8003D4A43F4001313643B4B1B6C03F40013B0
:1019D800FB60FB683A4B3B4A1A60394B4FF0007288
:1019E8005A60374B00229A60354B0022DA60344B3C
:1019F8004FF480621A61324B00225A61304B002248
:101A08009A612F4B0022DA612D4B00221A622C4B6F
:101A180000225A622A4801F03DF80346002B01D003
:101A2800FFF7A0F97B68264A9A63254A7B68936387
:101A3800254B264A1A60244B00225A60224B40222A
:101A48009A60214B0022DA601F4B4FF480621A61C2
:101A58001D4B00225A611C4B00229A611A4B00222E
:101A6800DA61194B00221A62174B00225A62164893
:101A780001F010F80346002B01D0FFF773F97B68DB
:101A8800114A5A63104A7B689363002200211F2081
:101A980000F0C9FF1F2000F0E2FF002200212020F3
:101AA80000F0C1FF202000F0DAFF00BF2837BD4654
:101AB80080BD00BF005400400038024000040240CE
:101AC8005402002010600240B40200202860024046
:101AD80080B584B000AF78607B681B681A4A93426F
:101AE8002DD10023FB60194B5B6C184A43F00103AE
:101AF8005364164B5B6C03F00103FB60FB68002228
:101B08000021182000F08FFF182000F0A8FF002205
:101B18000021192000F087FF192000F0A0FF002203
:101B280000211A2000F07FFF1A2000F098FF002201
:101B380000211B2000F077FF1B2000F090FF00BF62
:101B48001037BD4680BD00BF00000140003802408C
:101B580080B400AF00BFFDE780B400AF00BFFDE771
:101B680080B400AF00BFFDE780B400AF00BFFDE761
:101B780080B400AF00BFFDE780B400AF00BFBD4632
:101B88005DF8047B704780B400AF00BFBD465DF8C8
:101B9800047B704780B400AF00BFBD465DF8047B8E
:101BA800704780B500AF00F0FFF800BF80BD0000AF
:101BB80080B500AF024801F095F800BF80BD00BFB6
:101BC8005402002080B500AF024801F08BF800BF36
:101BD80080BD00BFB402002080B500AF024800F00D
:101BE8006AF900BF80BD00BF5801002080B500AF72
:101BF800024806F011F800BF80BD00BF14030020A2
:101C080080B500AF024806F007F800BF80BD00BFEE
:101C18001403002080B500AF024805F0FDFF00BFA7
:101C280080BD00BF1403002080B500AF024805F056
:101C3800F3FF00BF80BD00BF1403002080B500AFD4
:101C4800024802F071F800BF80BD00BF000200200A
:101C580080B500AF024802F0D8F900BF80BD00BFD0
:101C68000002002080B500AF024801F03BF800BF39
:101C780080BD00BFA001002080B500AF024804F07D
:101C8800C7F900BF80BD00BF8C12002080B400AF30
:101C9800064BD3F88830054A43F47003C2F88830FD
:101CA80000BFBD465DF8047B704700BF00ED00E053
:101CB800DFF834D0FFF7EAFF0C480D490D4A00233E
:101CC80002E0D458C4500433C4188C42F9D30A4AE9
:101CD8000A4C002301E013600432A242FBD30AF04D
:101CE800B3FCFEF7A7FD70470000022000000020AB
:101CF8003C010020B8D400083C01002090190020C5
:101D0800FEE7000080B500AF0E4B1B680D4A43F498
:101D1800007313600B4B1B680A4A43F4806313601B
:101D2800084B1B68074A43F480731360032000F0D4
:101D38006FFE0F2000F008F8FFF768FD0023184633
:101D480080BD00BF003C024080B582B000AF786023
:101D5800124B1A68124B1B7819464FF47A73B3FB6F
:101D6800F1F3B2FBF3F3184600F087FE0346002BAD
:101D780001D001230EE07B680F2B0AD80022796876
:101D88004FF0FF3000F04FFE064A7B6813600023D7
:101D980000E0012318460837BD4680BD3800002002
:101DA800400000203C00002080B400AF064B1B78A8
:101DB8001A46064B1B681344044A136000BFBD460D
:101DC8005DF8047B704700BF40000020A409002094
:101DD80080B400AF034B1B681846BD465DF8047B12
:101DE800704700BFA409002080B584B000AF7860B8
:101DF800FFF7EEFFB8607B68FB60FB68B3F1FF3F5D
:101E080005D00A4B1B781A46FB681344FB6000BFD9
:101E1800FFF7DEFF0246BB68D31AFA689A42F7D882
:101E280000BF00BF1037BD4680BD00BF4000002086
:101E380080B584B000AF78600023FB737B68002B0B
:101E480001D1012333E07B681B6C002B09D1786832
:101E5800FFF704FD7B6800225A647B68002283F840
:101E68003C207B681B6C03F01003002B18D17B68A7
:101E78001B6C23F4885323F0020343F002027B68AF
:101E88001A64786800F06CFB7B6800225A647B68EF
:101E98001B6C23F0030343F001027B681A6401E022
:101EA8000123FB737B68002283F83C20FB7B1846E8
:101EB8001037BD4680BD80B586B000AF786000237E
:101EC8007B6100233B617B681B681B68FB607B6848
:101ED8001B685B68BB60FB6803F002037B61BB683F
:101EE80003F020033B617B69002B49D03B69002B41
:101EF80046D07B681B6C03F01003002B05D17B6870
:101F08001B6C43F400727B681A647B681B689B68CF
:101F180003F04053002B2BD17B681B7E002B27D16D
:101F28007B681B68DB6A03F47003002B06D07B68B0
:101F38001B689B6803F48063002B19D17B681B68BE
:101F48005A687B681B6822F020025A607B681B6C09
:101F580023F480727B681A647B681B6C03F48053DB
:101F6800002B05D17B681B6C43F001027B681A6467
:101F78007868FEF7C3FA7B681B686FF012021A6074
:101F8800FB6803F004037B61BB6803F080033B61DB
:101F98007B69002B57D03B69002B54D07B681B6CA6
:101FA80003F01003002B05D17B681B6C43F400522F
:101FB8007B681A647B681B689B6803F44013002BDA
:101FC80039D17B681B689B6B03F44013002B06D048
:101FD8007B681B689B6803F48063002B2BD17B68AC
:101FE8001B685B6803F48063002B24D17B681B6843
:101FF8009B6803F04053002B1DD17B681B7E002B90
:1020080019D17B681B685A687B681B6822F08002BC
:102018005A607B681B6C23F480527B681A647B6867
:102028001B6C03F48073002B05D17B681B6C43F099
:1020380001027B681A64786800F010FC7B681B68F2
:102048006FF00C021A60FB6803F001037B61BB6848
:1020580003F040033B617B69002B17D03B69002BE1
:1020680014D07B681B681B6803F00103012B0DD19A
:102078007B681B6C43F480327B681A64786800F0D4
:1020880029F97B681B686FF001021A60FB6803F08E
:1020980020037B61BB6803F080633B617B69002B95
:1020A80015D03B69002B12D07B685B6C43F00202B1
:1020B8007B685A647B681B686FF020021A60786836
:1020C80000F012F97B681B686FF020021A6000BFED
:1020D8001837BD4680BD000080B588B000AFF860F5
:1020E800B9607A6000237B610023FB77FB6893F873
:1020F8003C30012B01D10223D0E0FB68012283F898
:102108003C20FB681B689B6803F00103012B18D077
:10211800FB681B689A68FB681B6842F001029A60BA
:10212800604B1B68604AA2FB03239A0C13465B00B2
:1021380013447B6102E07B69013B7B617B69002B77
:10214800F9D1FB681B689B6803F48073B3F5807F43
:1021580007D1FB681B689A68FB681B6822F48072C9
:102168009A60FB681B689B6803F00103012B40F031
:102178008880FB681B6C23F4E06323F0010343F4BD
:102188008072FB681A64FB681B685B6803F48063F1
:10219800002B07D0FB681B6C23F4405343F4805298
:1021A800FB681A64FB681B6C03F48053B3F5805F0B
:1021B80006D1FB685B6C23F00602FB685A6402E0F8
:1021C800FB6800225A64FB68002283F83C20374BE6
:1021D800BB61FB689B6B364ADA63FB689B6B354ACD
:1021E8001A64FB689B6B344ADA64FB681B686FF0FF
:1021F80022021A60FB681B685A68FB681B6842F079
:1022080080625A60FB681B689A68FB681B6842F426
:1022180080729A60FB68986BFB681B684C331946A0
:10222800BA687B6800F0E4FC0346FB77BB695B682F
:1022380003F01F03002B0FD1FB681B689B6803F09A
:102248004053002B29D1FB681B689A68FB681B6800
:1022580042F080429A6020E0FB681B68174A93426C
:102268001BD1FB681B689B6803F04053002B14D1FB
:10227800FB681B689A68FB681B6842F080429A609A
:102288000BE0FB681B6C43F01002FB681A64FB68E8
:102298005B6C43F00102FB685A64FB7F18462037E9
:1022A800BD4680BD3800002083DE1B43002301406B
:1022B800612700081B280008372800080020014073
:1022C80080B483B000AF786000BF0C37BD465DF8BE
:1022D800047B704780B483B000AF786000BF0C37D0
:1022E800BD465DF8047B704780B483B000AF78606A
:1022F80000BF0C37BD465DF8047B704780B485B0DD
:1023080000AF786039600023BB607B6893F83C308D
:10231800012B01D1022313E17B68012283F83C20C1
:102328003B681B68092B25D97B681B68D9683B6803
:102338001B689BB21A4613465B0013441E3B0722D8
:1023480002FA03F3DA437B681B680A40DA607B68A9
:102358001B68D9683B689A683B681B689BB218463B
:1023680003465B0003441E3B9A407B681B680A4394
:10237800DA6022E07B681B6819693B681B689BB2BE
:102388001A4613465B001344072202FA03F3DA43A2
:102398007B681B680A401A617B681B6819693B687F
:1023A8009A683B681B689BB2184603465B00034467
:1023B8009A407B681B680A431A613B685B68062B76
:1023C80024D87B681B68596B3B685A6813469B0086
:1023D8001344053B1F2202FA03F3DA437B681B68A8
:1023E8000A405A637B681B68596B3B681B689BB241
:1023F80018463B685A6813469B001344053B00FA8D
:1024080003F27B681B680A435A634CE03B685B68CD
:102418000C2B24D87B681B68196B3B685A681346D9
:102428009B001344233B1F2202FA03F3DA437B6821
:102438001B680A401A637B681B68196B3B681B683A
:102448009BB218463B685A6813469B001344233BCB
:1024580000FA03F27B681B680A431A6323E07B686F
:102468001B68D96A3B685A6813469B001344413B72
:102478001F2202FA03F3DA437B681B680A40DA6218
:102488007B681B68D96A3B681B689BB218463B6827
:102498005A6813469B001344413B00FA03F27B68D9
:1024A8001B680A43DA62294BFB607B681B68284A71
:1024B80093420FD13B681B68122B0BD1FB685B68FA
:1024C80023F40002FB685A60FB685B6843F48002EF
:1024D800FB685A607B681B681D4A93422BD13B6896
:1024E8001B681C4A934203D03B681B68112B22D1FE
:1024F800FB685B6823F48002FB685A60FB685B68D2
:1025080043F40002FB685A603B681B68114A934217
:1025180011D1114B1B68114AA2FB03239A0C1346D5
:102528009B0013445B00BB6002E0BB68013BBB60DF
:10253800BB68002BF9D17B68002283F83C2000237C
:1025480018461437BD465DF8047B704700230140E8
:1025580000200140120000103800002083DE1B43D9
:1025680080B485B000AF7860794BFB60FB685B682E
:1025780023F44032FB685A60FB685A687B685B68E2
:102588001A43FB685A607B681B685A687B681B683B
:1025980022F480725A607B681B6859687B681B69E3
:1025A8001A027B681B680A435A607B681B685A6872
:1025B8007B681B6822F040725A607B681B68596808
:1025C8007B689A687B681B680A435A607B681B684B
:1025D8009A687B681B6822F400629A607B681B68B3
:1025E80099687B68DA687B681B680A439A607B682D
:1025F8009B6A584A934222D07B681B689A687B681A
:102608001B6822F070629A607B681B6899687B6817
:102618009A6A7B681B680A439A607B681B689A6899
:102628007B681B6822F040529A607B681B68996837
:102638007B68DA6A7B681B680A439A600FE07B68EC
:102648001B689A687B681B6822F070629A607B68D6
:102658001B689A687B681B6822F040529A607B6806
:102668001B689A687B681B6822F002029A607B6884
:102678001B6899687B681B7E5A007B681B680A4345
:102688009A607B6893F82030002B1BD07B681B680E
:102698005A687B681B6842F400625A607B681B6852
:1026A8005A687B681B6822F460425A607B681B6822
:1026B80059687B685B6A013B5A037B681B680A435D
:1026C8005A6007E07B681B685A687B681B6822F4BD
:1026D80000625A607B681B68DA6A7B681B6822F4B0
:1026E8007002DA627B681B68D96A7B68DB69013B28
:1026F8001A057B681B680A43DA627B681B689A685C
:102708007B681B6822F400729A607B681B68996872
:102718007B6893F830305A027B681B680A439A60DA
:102728007B681B689A687B681B6822F480629A60E1
:102738007B681B6899687B685B699A027B681B6881
:102748000A439A6000BF1437BD465DF8047B7047A2
:10275800002301400100000F80B584B000AF78600D
:102768007B689B6BFB60FB681B6C03F05003002BC2
:102778003CD1FB681B6C43F40072FB681A64FB686D
:102788001B689B6803F04053002B2BD1FB681B7E12
:10279800002B27D1FB681B68DB6A03F47003002B4E
:1027A80006D0FB681B689B6803F48063002B19D173
:1027B800FB681B685A68FB681B6822F020025A6095
:1027C800FB681B6C23F48072FB681A64FB681B6C43
:1027D80003F48053002B05D1FB681B6C43F0010206
:1027E800FB681A64F868FDF789FE0EE0FB681B6C4D
:1027F80003F01003002B03D0F868FFF775FD04E021
:10280800FB689B6BDB6C7868984700BF1037BD4648
:1028180080BD80B584B000AF78607B689B6BFB603F
:10282800F868FFF74DFD00BF1037BD4680BD80B585
:1028380084B000AF78607B689B6BFB60FB684022CC
:102848001A64FB685B6C43F00402FB685A64F8681E
:10285800FFF74AFD00BF1037BD4680BD80B483B086
:1028680000AF786000BF0C37BD465DF8047B704749
:1028780080B485B000AF78607B6803F00703FB6025
:102888000C4BDB68BB60BA684FF6FF031340BB60B4
:10289800FB681A02BB68134343F0BF6343F4003379
:1028A800BB60044ABB68D36000BF1437BD465DF8FF
:1028B800047B704700ED00E080B400AF044BDB6898
:1028C8001B0A03F007031846BD465DF8047B7047F2
:1028D80000ED00E080B483B000AF0346FB7197F9C8
:1028E8000730002B0BDBFB7903F01F02074997F930
:1028F80007305B09012000FA02F241F8232000BFEB
:102908000C37BD465DF8047B704700BF00E100E06E
:1029180080B483B000AF03463960FB7197F9073084
:10292800002B0ADB3B68DAB20C4997F90730120131
:10293800D2B20B4483F800230AE03B68DAB20849B4
:10294800FB7903F00F03043B1201D2B20B441A7651
:1029580000BF0C37BD465DF8047B704700E100E01E
:1029680000ED00E080B489B000AFF860B9607A602B
:10297800FB6803F00703FB61FB69C3F10703042B42
:1029880028BF0423BB61FB690433062B02D9FB690A
:10299800033B00E000237B614FF0FF32BB6902FA82
:1029A80003F3DA43BB681A407B699A404FF0FF3162
:1029B8007B6901FA03F3D9437B680B40134318463C
:1029C8002437BD465DF8047B7047000080B582B0AF
:1029D80000AF78607B68013BB3F1807F01D30123AE
:1029E8000FE00A4A7B68013B53600F214FF0FF302C
:1029F800FFF78EFF054B00229A60044B07221A60EE
:102A0800002318460837BD4680BD00BF10E000E02F
:102A180080B582B000AF78607868FFF729FF00BF03
:102A28000837BD4680BD80B586B000AF0346B960A3
:102A38007A60FB7300237B61FFF73EFF78617A6859
:102A4800B9687869FFF78EFF024697F90F3011468B
:102A58001846FFF75DFF00BF1837BD4680BD80B53B
:102A680082B000AF0346FB7197F907301846FFF7AD
:102A780031FF00BF0837BD4680BD80B582B000AFCA
:102A880078607868FFF7A2FF034618460837BD4606
:102A980080BD000080B586B000AF786000237B6100
:102AA800FFF796F938617B68002B01D1012399E083
:102AB8007B68022283F835207B68002283F8342063
:102AC8007B681B681A687B681B6822F001021A6021
:102AD8000FE0FFF77DF902463B69D31A052B08D9A9
:102AE8007B6820225A657B68032283F835200323FC
:102AF80078E07B681B681B6803F00103002BE8D1B2
:102B08007B681B681B687B617A69384B13407B6163
:102B18007B685A687B689B681A437B68DB681A4342
:102B28007B681B691A437B685B691A437B689B69EE
:102B38001A437B68DB691A437B681B6A13437A690B
:102B480013437B617B685B6A042B07D17B68DA6A75
:102B58007B681B6B13437A6913437B617B681B6833
:102B68007A691A607B681B685B697B617B6923F003
:102B780007037B617B685B6A7A6913437B617B68C7
:102B88005B6A042B17D17B689B6A7A6913437B6164
:102B98007B68DB6A002B0ED0786800F0ABFA03463E
:102BA800002B08D07B6840225A657B68012283F895
:102BB8003520012316E07B681B687A695A617868BA
:102BC80000F062FA0346FB607B68DB6D3F229A40A7
:102BD800FB689A607B6800225A657B68012283F84B
:102BE8003520002318461837BD4680BD3F8010F0B9
:102BF80080B586B000AFF860B9607A603B600023AA
:102C0800FB75FB689B6D3B61FB6893F83430012BC7
:102C180001D1022340E0FB68012283F83420FB68DD
:102C280093F83530DBB2012B2FD1FB68022283F8F1
:102C38003520FB6800225A653B687A68B968F868ED
:102C480000F0F4F9FB68DB6D3F229A403B699A601B
:102C5800FB681B681A68FB681B6842F016021A605A
:102C6800FB681B6C002B07D0FB681B681A68FB68A5
:102C78001B6842F008021A60FB681B681A68FB6848
:102C88001B6842F001021A6005E0FB68002283F825
:102C980034200223FB75FB7D18461837BD4680BDDE
:102CA80080B483B000AF78607B6893F83530DBB2CE
:102CB800022B04D07B6880225A6501230CE07B68D4
:102CC800052283F835207B681B681A687B681B68B7
:102CD80022F001021A60002318460C37BD465DF841
:102CE800047B704780B586B000AF78600023BB6076
:102CF8008E4B1B688E4AA2FB03239B0A7B617B6871
:102D08009B6D3B613B691B68FB607B68DB6D082240
:102D18009A40FB681340002B1AD07B681B681B681D
:102D280003F00403002B13D07B681B681A687B68C8
:102D38001B6822F004021A607B68DB6D08229A4047
:102D48003B699A607B685B6D43F001027B685A655A
:102D58007B68DB6D01229A40FB681340002B12D080
:102D68007B681B685B6903F08003002B0BD07B68D2
:102D7800DB6D01229A403B699A607B685B6D43F08A
:102D880002027B685A657B68DB6D04229A40FB6807
:102D98001340002B12D07B681B681B6803F00203EA
:102DA800002B0BD07B68DB6D04229A403B699A604C
:102DB8007B685B6D43F004027B685A657B68DB6D5A
:102DC80010229A40FB681340002B43D07B681B6895
:102DD8001B6803F00803002B3CD07B68DB6D1022D6
:102DE8009A403B699A607B681B681B6803F48023E0
:102DF800002B18D07B681B681B6803F40023002B8A
:102E080008D17B681B6C002B24D07B681B6C78680E
:102E180098471FE07B689B6C002B1BD07B689B6CE2
:102E28007868984716E07B681B681B6803F4807312
:102E3800002B07D17B681B681A687B681B6822F027
:102E480008021A607B681B6C002B03D07B681B6C24
:102E5800786898477B68DB6D20229A40FB681340AE
:102E6800002B00F08F807B681B681B6803F0100341
:102E7800002B00F087807B68DB6D20229A403B693D
:102E88009A607B6893F83530DBB2052B36D17B68C6
:102E98001B681A687B681B6822F016021A607B6838
:102EA8001B685A697B681B6822F080025A617B683C
:102EB8001B6C002B03D17B689B6C002B07D07B68B5
:102EC8001B681A687B681B6822F008021A607B6816
:102ED800DB6D3F229A403B699A607B68012283F848
:102EE80035207B68002283F834207B681B6D002B1B
:102EF8007ED07B681B6D7868984779E07B681B6893
:102F08001B6803F48023002B1DD07B681B681B689B
:102F180003F40023002B0DD17B685B6C002B31D0B0
:102F28007B685B6C786898472CE000BF380000200D
:102F3800B5814E1B7B68DB6B002B23D07B68DB6B7A
:102F4800786898471EE07B681B681B6803F48073E9
:102F5800002B0FD17B681B681A687B681B6822F0FE
:102F680010021A607B68012283F835207B680022F2
:102F780083F834207B68DB6B002B03D07B68DB6B2A
:102F8800786898477B685B6D002B32D07B685B6DF7
:102F980003F00103002B22D07B68052283F835203B
:102FA8007B681B681A687B681B6822F001021A603C
:102FB800BB680133BB607A699A4207D37B681B6898
:102FC8001B6803F00103002BF2D100E000BF7B680F
:102FD800012283F835207B68002283F834207B683F
:102FE800DB6C002B05D07B68DB6C7868984700E0C9
:102FF80000BF1837BD4680BD80B483B000AF78608D
:103008007B6893F83530DBB218460C37BD465DF85F
:10301800047B704780B483B000AF78607B685B6DD9
:1030280018460C37BD465DF8047B704780B485B000
:1030380000AFF860B9607A603B60FB681B681A688B
:10304800FB681B6822F480221A60FB681B683A68D8
:103058005A60FB689B68402B08D1FB681B687A683C
:103068009A60FB681B68BA68DA6007E0FB681B684F
:10307800BA689A60FB681B687A68DA6000BF143720
:10308800BD465DF8047B704780B485B000AF7860BA
:103098007B681B68DBB2103B144AA2FB03231B09A5
:1030A800FB60134AFB6813441B781A467B68DA6591
:1030B800FB68032B09D97B681B6823F47F7323F013
:1030C80003031A1D7B689A6507E07B681B6823F475
:1030D8007F7323F003037A6893657B689B6D1846BA
:1030E8001437BD465DF8047B704700BFABAAAAAA97
:1030F800A0D4000880B485B000AF78600023FB73CB
:103108007B689B6ABB607B689B69002B1FD1BB688F
:10311800032B56D801A252F823F000BF353100081E
:103128004731000835310008CB3100087B68DB6A7D
:1031380003F08073002B46D00123FB7343E07B68C8
:10314800DB6AB3F1C07F40D10123FB733DE07B68AC
:103158009B69B3F5005F21D1BB68032B37D801A267
:1031680052F823F07D310008833100087D310008D2
:10317800953100080123FB7330E07B68DB6A03F0BC
:103188008073002B25D00123FB7322E07B68DB6A68
:10319800B3F1C07F1FD10123FB731CE0BB68022B76
:1031A80003D9BB68032B03D018E00123FB7315E098
:1031B8007B68DB6A03F08073002B0ED00123FB735E
:1031C8000BE000BF0AE000BF08E000BF06E000BF58
:1031D80004E000BF02E000BF00E000BFFB7B184630
:1031E8001437BD465DF8047B704700BF80B489B0D2
:1031F80000AF7860396000237B6100233B610023C6
:10320800BB610023FB6159E10122FB6902FA03F368
:103218007B613B681B687A6913403B613A697B694B
:103228009A4240F048813B685B6803F00303012B36
:1032380005D03B685B6803F00303022B30D17B6841
:103248009B68BB61FB695B00032202FA03F3DB4363
:10325800BA691340BB613B68DA68FB695B0002FA34
:1032680003F3BA691343BB617B68BA699A607B68E8
:103278005B68BB610122FB6902FA03F3DB43BA69AD
:103288001340BB613B685B681B0903F00102FB69E3
:1032980002FA03F3BA691343BB617B68BA695A60DF
:1032A8003B685B6803F00303032B17D07B68DB687C
:1032B800BB61FB695B00032202FA03F3DB43BA69D3
:1032C8001340BB613B689A68FB695B0002FA03F331
:1032D800BA691343BB617B68BA69DA603B685B68AB
:1032E80003F00303022B23D1FB69DA087B68083259
:1032F80053F82230BB61FB6903F007039B000F22E0
:1033080002FA03F3DB43BA691340BB613B681A69ED
:10331800FB6903F007039B0002FA03F3BA6913433E
:10332800BB61FB69DA087B680832B96943F8221087
:103338007B681B68BB61FB695B00032202FA03F32D
:10334800DB43BA691340BB613B685B6803F0030267
:10335800FB695B0002FA03F3BA691343BB617B683C
:10336800BA691A603B685B6803F44033002B00F0CD
:10337800A2800023FB60574B5B6C564A43F48043A2
:103388005364544B5B6C03F48043FB60FB68524A04
:10339800FB699B08023352F82330BB61FB6903F0D9
:1033A80003039B000F2202FA03F3DB43BA691340BD
:1033B800BB617B68494A934219D07B68484A93426B
:1033C80013D07B68474A93420DD07B68464A9342A4
:1033D80007D07B68454A934201D1042308E00723BC
:1033E80006E0032304E0022302E0012300E00023B7
:1033F800FA6902F0030292009340BA691343BB6171
:103408003549FB699B080233BA6941F82320384BD8
:103418009B68BB613B69DB43BA691340BB613B688E
:103428005B6803F48013002B03D0BA693B6913432C
:10343800BB612F4ABB6993602D4BDB68BB613B695D
:10344800DB43BA691340BB613B685B6803F4001354
:10345800002B03D0BA693B691343BB61244ABB699B
:10346800D360234B5B68BB613B69DB43BA6913409C
:10347800BB613B685B6803F40033002B03D0BA6977
:103488003B691343BB611A4ABB695360184B1B68FD
:10349800BB613B69DB43BA691340BB613B685B684E
:1034A80003F48033002B03D0BA693B691343BB6133
:1034B8000F4ABB691360FB690133FB61FB690F2B82
:1034C8007FF6A2AE00BF00BF2437BD465DF8047B7F
:1034D800704700BF00380240003801400000024039
:1034E8000004024000080240000C024000100240A4
:1034F800003C014080B483B000AF78600B467B800D
:1035080013467B707B78002B03D07A887B689A619E
:1035180003E07B881A047B689A6100BF0C37BD46BC
:103528005DF8047B704780B485B000AF78600B46C7
:103538007B807B685B69FB607A88FB6813401A04B0
:10354800FB68D9437B880B401A437B689A6100BFAC
:103558001437BD465DF8047B7047000080B584B021
:1035680000AF78607B68002B01D101232BE17B68D9
:1035780093F83D30DBB2002B06D17B68002283F83C
:103588003C207868FEF7E8F97B68242283F83D2020
:103598007B681B681A687B681B6822F001021A6046
:1035A8007B681B681A687B681B6842F400421A60D3
:1035B8007B681B681A687B681B6822F400421A60E3
:1035C80004F064FAF8607B685B68814A934207D824
:1035D800FB68804A934294BF01230023DBB206E0D4
:1035E800FB687D4A934294BF01230023DBB2002B82
:1035F80001D00123E7E0FB68784AA2FB03239B0C78
:10360800BB607B681B685B6823F03F017B681B68B5
:10361800BA680A435A607B681B681B6A23F03F013B
:103628007B685B686A4A934202D8BB68013309E049
:10363800BB684FF4967202FB03F3694AA2FB0323AB
:103648009B0901337A6812680B4313627B681B6815
:10365800DB6923F44F4222F0FF027B685B685C4918
:103668008B4219D8FB68591E7B685B685B00B1FB0D
:10367800F3F3591C40F6FC730B40002B0AD0FB688F
:10368800591E7B685B685B00B1FBF3F30133C3F33E
:103698000B0351E004234FE07B689B68002B11D19A
:1036A800FB68581E7B6859680B465B000B44B0FBEF
:1036B800F3F30133C3F30B03002B0CBF01230023E7
:1036C800DBB212E0FB68581E7B6859680B469B000A
:1036D8000B4499000B44B0FBF3F30133C3F30B0322
:1036E800002B0CBF01230023DBB2002B01D00123E8
:1036F80022E07B689B68002B0ED1FB68581E7B6814
:1037080059680B465B000B44B0FBF3F30133C3F37A
:103718000B0343F400430FE0FB68581E7B685968AD
:103728000B469B000B4499000B44B0FBF3F30133A9
:10373800C3F30B0343F44043796809681343CB612F
:103748007B681B681B6823F0C0017B68DA697B68AB
:103758001B6A1A437B681B680A431A607B681B68EC
:103768009B6823F4034323F0FF037A6811697A689E
:10377800D26811437A6812680B4393607B681B68B0
:10378800DB6823F0FF017B685A697B689B691A43F1
:103798007B681B680A43DA607B681B681A687B6869
:1037A8001B6842F001021A607B6800221A647B6879
:1037B800202283F83D207B6800221A637B68002260
:1037C80083F83E20002318461037BD4680BD00BF51
:1037D800A08601007F841E00FF083D0083DE1B4396
:1037E800D34D621080B483B000AF78607B681B68EB
:1037F8005B6903F08003802B03D17B681B68002280
:103808001A6100BF0C37BD465DF8047B70470000A5
:1038180080B58AB002AFF860084611461A460346DA
:103828007B810B463B811346FB8000237B61FEF7BF
:10383800CFFAF861FB6893F83D30DBB2202B40F0FB
:1038480036819D4B1B68DB089C4AA2FB03231A0A9E
:1038580013469B0013449A0013447B617B69013B28
:103868007B617B69002B12D1FB6800221A63FB681D
:10387800202283F83D20FB68002283F83E20FB6865
:103888001B6C43F02002FB681A64022310E1FB68FA
:103898001B689B6903F00203022BDFD0FB6893F8D7
:1038A8003C30012B01D1022302E1FB68012283F89D
:1038B8003C20FB681B681B6803F00103012B07D041
:1038C800FB681B681A68FB681B6842F001021A60F3
:1038D800FB681B681A68FB681B6822F400621A60A0
:1038E800FB68212283F83D20FB68402283F83E20B4
:1038F800FB6800221A64FB68BA6A5A62FB68BA8DD0
:103908005A85FB685B8D9AB2FB681A85FB686C4A1E
:10391800DA627A89FB685A643A89FB689A64FA8899
:10392800FB68DA64FB6800221A65FB681B8D002BB4
:1039380000F0A980FB685B6B002B2AD0FB685B6BEF
:10394800604ADA63FB685B6B5F4ADA64FB685B6B4F
:1039580000221A64FB685B6B00225A64FB685B6B8D
:1039680000229A64FB685B6B00221A65FB68586B3F
:10397800FB685B6A1946FB681B6810331A46FB68CC
:103988001B8DFFF735F90346FB76FB7E002B66D1CE
:1039980013E0FB68202283F83D20FB68002283F8AF
:1039A8003E20FB681B6C43F08002FB681A64FB68CE
:1039B800002283F83C2001237AE0F8883A89798943
:1039C800FB690193232300930346F86801F0A4FDE3
:1039D8000346002B22D0FB685B6B1846FFF760F9A3
:1039E8000346FB76FB685B6B0022DA63FB681B68A7
:1039F8001A68FB681B6822F480621A60FB68002260
:103A08001A85FB6800225A85FB681B681A68FB68E0
:103A18001B6822F001021A60012349E000233B6180
:103A2800FB681B685B693B61FB681B689B693B61C2
:103A38003B69FB68002283F83C20FB681B685A68D6
:103A4800FB681B6842F480725A60FB681B685A68FE
:103A5800FB681B6842F400625A60002328E0FB6898
:103A6800202283F83D20FB68002283F83E20FB6873
:103A78001B6C43F01002FB681A64FB68002283F891
:103A88003C20012314E0FB68202283F83D20FB68DA
:103A9800002283F83E20FB681B6C43F04002FB6861
:103AA8001A64FB68002283F83C20012300E002230B
:103AB80018462037BD4680BD3800002089B5F81467
:103AC8000000FFFF4D5600080B58000880B58AB06B
:103AD80002AFF8607A603B600B467B81FEF778F9AD
:103AE800F8610023BB61FB6893F83D30DBB2202B03
:103AF80040F01181FB690093192301228849F86875
:103B080001F064FF0346002B01D0022304E1FB68A7
:103B180093F83C30012B01D10223FDE0FB68012220
:103B280083F83C20FB681B681B6803F00103012B2A
:103B380007D0FB681B681A68FB681B6842F0010223
:103B48001A60FB681B681A68FB681B6822F400622D
:103B58001A60FB68242283F83D20FB6800221A645F
:103B6800FB68704ADA62FB681B681A68FB681B68A6
:103B780042F480721A60FB6900933B6800224FF0A0
:103B88000111F86801F022FF0346002B0DD0FB68F5
:103B98001B681B6803F48073B3F5807F03D1FB684F
:103BA8004FF400721A640323B6E07B89DBB21A462D
:103BB800FB681B6802F0FE021A61FEF709F9F8615A
:103BC800FB681B685B6903F00203022B0CBF01232F
:103BD8000023DBB2FB75FB681B685B6903F4806339
:103BE800B3F5806F0CBF01230023DBB2BB7525E062
:103BF800FEF7EEF80246FB69D31A3A689A4202D3F6
:103C08003B68002B03D1FB68A02283F83D20FB68AA
:103C18001B685B6903F00203022B0CBF012300231E
:103C2800DBB2FB75FB681B685B6903F48063B3F563
:103C3800806F0CBF01230023DBB2BB75FB6893F8D0
:103C48003D30DBB2A02B05D0FB7D002B02D1BB7D24
:103C5800002BCDD0FB68202283F83D20FB681B6831
:103C68005B6903F00203022B29D1FB681B681A6801
:103C7800FB681B6842F400721A6000233B61FB6812
:103C88001B685B693B61FB681B689B693B613B691F
:103C9800FB690093192301222149F86801F096FE77
:103CA8000346002B01D0012336E0FB68202283F86D
:103CB8003D20FB68002283F83C2000232CE0FB68B1
:103CC8001B681A68FB681B6842F400721A60FB687C
:103CD8001B686FF480625A61FB6900931923012203
:103CE8000F49F86801F072FE0346002B01D001234A
:103CF80012E0BB690133BB61BA697B689A42FFF481
:103D080032AFFB68202283F83D20FB68002283F84D
:103D18003C20012300E0022318462037BD4680BD21
:103D2800020010000000FFFF80B588B000AF786087
:103D38000023BB617B681B685B687B617B68DB6A0F
:103D48003B617B6893F83E30FB737B6893F83D30AA
:103D5800BB73FB7B102B03D0FB7B402B40F0C18057
:103D68007B681B689B69BB617B681B685B69FB613F
:103D7800FB6903F00103002B0DD13B69B3F52A0F52
:103D880003D03B69B3F12A4F01D1012300E000239E
:103D9800012B00F03281FB6903F00103002B0CD0EA
:103DA8007B695B0A03F00103002B06D0786801F0F9
:103DB800D0FF786800F091FD92E0FB69DB0803F022
:103DC8000103002B09D07B695B0A03F00103002B78
:103DD80003D0786800F007FE82E0FB695B0803F017
:103DE8000103002B09D07B695B0A03F00103002B58
:103DF80003D0786800F021FE72E0BB699B0803F0ED
:103E08000103002B3BD07B681B685B6803F40063ED
:103E1800B3F5006F00F0F380FB69DB0903F00103E1
:103E2800002B0FD07B699B0A03F00103002B09D0FC
:103E3800FB699B0803F00103002B03D1786800F0AD
:103E4800E9F94DE0FB699B0803F00103002B00F042
:103E5800D6807B695B0A03F00103002B00F0CF805A
:103E6800BB7B212B03D1786800F070FAC7E0FB7B9D
:103E7800402B40F0C480786800F0DEFABFE07B6831
:103E88001B685B6803F40063B3F5006F00F0B7804C
:103E9800FB699B0903F00103002B0FD07B699B0A88
:103EA80003F00103002B09D0FB699B0803F0010311
:103EB800002B03D1786800F057FB11E0FB699B08E1
:103EC80003F00103002B00F09A807B695B0A03F082
:103ED8000103002B00F09380786800F00DFC8EE061
:103EE8008DE07B681B6C002B04D07B681B685B69CA
:103EF800FB6107E07B681B689B69BB617B681B688B
:103F08005B69FB61FB695B0803F00103002B12D0BE
:103F18007B695B0A03F00103002B0CD07B681B6CE8
:103F2800002B03D07B681B689B69BB61B969786803
:103F380000F0D2FF66E0FB691B0903F00103002BC8
:103F480009D07B695B0A03F00103002B03D0786872
:103F580001F00CF856E0BB7B212B02D0BB7B292B50
:103F680025D1FB69DB0903F00103002B0FD07B6926
:103F78009B0A03F00103002B09D0FB699B0803F09F
:103F88000103002B03D1786800F0E8FE39E0FB69F3
:103F98009B0803F00103002B33D07B695B0A03F015
:103FA8000103002B2DD0786800F015FF29E0FB698C
:103FB8009B0903F00103002B0FD07B699B0A03F0D8
:103FC8000103002B09D0FB699B0803F00103002BB8
:103FD80003D1786800F020FF14E0FB699B0803F028
:103FE8000103002B0ED07B695B0A03F00103002B51
:103FF80008D0786800F04EFF04E000BF02E000BF80
:1040080000E000BF2037BD4680BD80B58AB000AF54
:1040180078607B681B685B693B627B681B685B68D0
:10402800FB6100237B627B6893F83E30FB763B6A3A
:104038001B0A03F00103002B0ED0FB691B0A03F0D7
:104048000103002B08D07B6A43F001037B627B6885
:104058001B686FF480725A613B6A5B0A03F00103C4
:10406800002B0ED0FB691B0A03F00103002B08D0BC
:104078007B6A43F002037B627B681B686FF4007203
:104088005A613B6A9B0A03F00103002B3FD0FB698E
:104098001B0A03F00103002B39D0FB7EBB767B683B
:1040A8005B8D9BB27B617B6893F83D30FB747B68CA
:1040B8001B6BFB60BB7E202B12D17B69002B0FD1C1
:1040C800FB7C212B08D0FB7C292B05D0FB7C282BE3
:1040D80006D1FB68212B03D1786801F077F816E048
:1040E8007B681B686FF480625A617B6A43F0040343
:1040F8007B62FB7E102B02D0FB7E402B07D17B68B6
:104108001B681A687B681B6842F400721A603B6A75
:10411800DB0A03F00103002B0ED0FB691B0A03F036
:104128000103002B08D07B6A43F008037B627B689D
:104138001B686FF400625A617B6A002B08D07B68A9
:104148001A6C7B6A1A437B681A64786801F0B2F8C3
:1041580000BF2837BD4680BD80B483B000AF78600B
:1041680000BF0C37BD465DF8047B704780B483B050
:1041780000AF786000BF0C37BD465DF8047B704720
:1041880080B483B000AF786000BF0C37BD465DF8DF
:10419800047B704780B483B000AF786000BF0C37F1
:1041A800BD465DF8047B704780B483B000AF78608B
:1041B8000B46FB7013463B8000BF0C37BD465DF8CD
:1041C800047B704780B483B000AF786000BF0C37C1
:1041D800BD465DF8047B704780B483B000AF78605B
:1041E80000BF0C37BD465DF8047B704780B483B0D0
:1041F80000AF786000BF0C37BD465DF8047B7047A0
:1042080080B483B000AF786000BF0C37BD465DF85E
:10421800047B704780B584B000AF78607B6893F802
:104228003D30FB737B6893F83E30BB737B68DB6A79
:10423800BB607B681B8D002B50D1FB7B212B4DD1A4
:10424800BB68082B1DD0BB68202B1AD0BB6813F5A0
:10425800803F16D07B681B685A687B681B6822F40D
:10426800E0625A607B6811221A637B68002283F837
:104278003E207B68202283F83D207868FFF76CFF9A
:1042880060E07B681B685A687B681B6822F4E06200
:104298005A607B681B681A687B681B6842F4007266
:1042A8001A607B6800221A637B68202283F83D200D
:1042B8007B6893F83E30DBB2402B07D17B68002245
:1042C80083F83E207868FCF739F93BE07B680022E8
:1042D80083F83E207868FFF73FFF33E0FB7B212B14
:1042E80005D0BB7B402B2DD1FB7B222B2AD17B68B1
:1042F8005B8D9BB2002B08D17B681B685A687B6872
:104308001B6822F480625A601CE07B6893F83E3098
:10431800DBB2402B03D1786800F08EF812E07B689E
:104328005B6A1A787B681B681A617B685B6A5A1C2F
:104338007B685A627B685B8D9BB2013B9AB27B6853
:104348005A85FFE700BF1037BD4680BD80B584B0F1
:1043580000AF78607B68DB6AFB607B6893F83D3070
:10436800DBB2212B64D17B685B8D9BB2002B12D012
:104378007B685B6A1A787B681B681A617B685B6A72
:104388005A1C7B685A627B685B8D9BB2013B9AB270
:104398007B685A854CE0FB68082B1DD0FB68202BF6
:1043A8001AD0FB6813F5803F16D07B681B685A68E3
:1043B8007B681B6822F4E0625A607B6811221A63EA
:1043C8007B68002283F83E207B68202283F83D200A
:1043D8007868FFF7C1FE2BE07B681B685A687B682A
:1043E8001B6822F4E0625A607B681B681A687B6865
:1043F8001B6842F400721A607B6800221A637B68AB
:10440800202283F83D207B6893F83E30DBB2402BB6
:1044180007D17B68002283F83E207868FCF78EF885
:1044280006E07B68002283F83E207868FFF794FE58
:1044380000BF1037BD4680BD80B584B000AF78603E
:104448007B6893F83D30FB737B681B6D002B1DD197
:104458007B68DB6C012B0BD17B689B6CDAB27B68C9
:104468001B681A617B681B6D9A1C7B681A6577E06C
:104478007B689B6C9BB21B12DAB27B681B681A6163
:104488007B681B6D5A1C7B681A6569E07B681B6D2D
:10449800012B0BD17B689B6CDAB27B681B681A61B5
:1044A8007B681B6D5A1C7B681A6559E07B681B6D1D
:1044B800022B52D1FB7B222B0DD17B681B681A681B
:1044C8007B681B6842F480721A607B681B6D5A1CFB
:1044D8007B681A6544E07B685B8D9BB2002B15D026
:1044E800FB7B212B12D17B685B6A1A787B681B687F
:1044F8001A617B685B6A5A1C7B685A627B685B8DB1
:104508009BB2013B9AB27B685A8529E07B685B8D38
:104518009BB2002B24D1FB7B212B21D17B681B680C
:104528005A687B681B6822F4E0625A607B681B68E3
:104538001A687B681B6842F400721A607B68002264
:104548001A637B68202283F83D207B68002283F869
:104558003E207868FBF7F2FF02E07868FFF742F93F
:1045680000BF1037BD4680BD80B584B000AF78600D
:104578007B6893F83D30DBB2222B40F0B9807B6832
:10458800DB6AFB607B685B8D9BB2BB60BB68032BFF
:1045980021D97B681B681A697B685B6AD2B21A707A
:1045A8007B685B6A5A1C7B685A627B685B8D9BB22E
:1045B800013B9AB27B685A857B685B8D9BB2032B63
:1045C80040F096807B681B685A687B681B6822F4F9
:1045D80080625A608CE07B68DB6A022B7FD0BB6804
:1045E800012B02D0BB68002B79D1786801F050FB11
:1045F8000346002B4CD17B681B681A687B681B68D4
:1046080022F480621A607B681B685A687B681B68A2
:1046180022F4E0625A607B681B681A697B685B6AEF
:10462800D2B21A707B685B6A5A1C7B685A627B68D4
:104638005B8D9BB2013B9AB27B685A857B682022CE
:1046480083F83D207B6893F83E30DBB2402B0AD1DB
:104658007B68002283F83E207B6800221A63786812
:10466800FFF7BAFD44E07B68002283F83E20FB6830
:10467800082B02D0FB68202B03D17B6800221A6329
:1046880002E07B6812221A637868FFF76FFD2FE05B
:104698007B681B685A687B681B6822F4E0625A6072
:1046A8007B681B681A697B685B6AD2B21A707B6880
:1046B8005B6A5A1C7B685A627B685B8D9BB2013BC4
:1046C8009AB27B685A857B68202283F83D207B68F4
:1046D800002283F83E207868FFF788FD08E07B68B1
:1046E8001B685A687B681B6822F480625A60FFE77F
:1046F80000BF1037BD4680BD80B584B000AF78607C
:104708007B68DB6AFB607B685B8D9BB2042B1BD1EB
:104718007B681B685A687B681B6822F480625A6051
:104728007B681B681A697B685B6AD2B21A707B68FF
:104738005B6A5A1C7B685A627B685B8D9BB2013B43
:104748009AB27B685A85C4E07B685B8D9BB2032B69
:1047580029D17B681B685A687B681B6822F48062D1
:104768005A60FB68042B0AD0FB68022B07D07B68D1
:104778001B681A687B681B6822F480621A607B6871
:104788001B681A697B685B6AD2B21A707B685B6ABD
:104798005A1C7B685A627B685B8D9BB2013B9AB25C
:1047A8007B685A8595E07B685B8D9BB2022B7DD137
:1047B800FB68012B02D0FB68102B08D17B681B68B3
:1047C8001A687B681B6822F480621A6016E0FB682E
:1047D800042B02D0FB68022B08D17B681B681A687F
:1047E8007B681B6842F480621A6007E07B681B687C
:1047F8001A687B681B6842F400721A607B681B6841
:104808001A697B685B6AD2B21A707B685B6A5A1C49
:104818007B685A627B685B8D9BB2013B9AB27B686E
:104828005A857B681B681A697B685B6AD2B21A7002
:104838007B685B6A5A1C7B685A627B685B8D9BB29B
:10484800013B9AB27B685A857B681B685A687B680B
:104858001B6822F440725A607B68202283F83D204E
:104868007B6893F83E30DBB2402B0AD17B6800228C
:1048780083F83E207B6800221A637868FFF7ACFC57
:1048880027E07B68002283F83E20FB68082B02D0D3
:10489800FB68202B03D17B6800221A6302E07B6847
:1048A80012221A637868FFF761FC12E07B681B68C4
:1048B8001A697B685B6AD2B21A707B685B6A5A1C99
:1048C8007B685A627B685B8D9BB2013B9AB27B68BE
:1048D8005A8500BF1037BD4680BD80B483B000AF95
:1048E80078607B6893F83E30DBB2402B17D17B6849
:1048F8001B6D002B09D17B685B6CDBB21A467B68A9
:104908001B6802F0FE021A6167E07B685B6CDBB231
:1049180043F00103DAB27B681B681A615DE07B68CB
:104928001B69B3F5804F33D17B6893F83D30DBB218
:10493800212B09D17B685B6CDBB21A467B681B684C
:1049480002F0FE021A6108E07B685B6CDBB243F0A0
:104958000103DAB27B681B681A617B685B6B002B0A
:1049680004D07B685B6BDB6B002B08D17B689B6B8F
:10497800002B32D07B689B6BDB6B002B2DD07B68C8
:104988001B685A687B681B6842F400625A6024E01E
:104998007B681B6D002B0ED17B685B6C9BB2DB11B7
:1049A800DBB203F00603DBB263F00F03DAB27B6815
:1049B8001B681A6111E07B681B6D012B0DD17B68A8
:1049C8005B6C9BB2DB11DBB203F00603DBB263F076
:1049D8000E03DAB27B681B681A6100BF0C37BD464C
:1049E8005DF8047B704780B483B000AF78607B6863
:1049F8005B6CDAB27B681B681A617B685B6B002BA7
:104A080004D07B685B6BDB6B002B08D17B689B6BEE
:104A1800002B0CD07B689B6BDB6B002B07D07B6873
:104A28001B685A687B681B6842F400625A6000BFC2
:104A38000C37BD465DF8047B704780B491B000AF79
:104A480078607B6893F83E3087F83F307B68DB6A94
:104A5800BB637B681B6B7B637B6893F83D30DBB281
:104A6800222B40F069817B681B6D002B0FD197F8D2
:104A78003F30402B0BD100233B637B681B685B698D
:104A88003B637B681B689B693B633B6B60E17B68AE
:104A98001B6D002B1DD17B681B69B3F5404F18D1E6
:104AA8000023FB627B681B685B69FB627B681B6891
:104AB8009B69FB62FB6A7B681B681A687B681B68DA
:104AC80042F480721A607B681B6D5A1C7B681A65F9
:104AD8003EE17B685B8D9BB2002B13D10023BB6248
:104AE8007B681B685B69BB627B681B689B69BB62F0
:104AF800BB6A7B681B681A687B681B6842F4007293
:104B08001A6015E17B685B8D9BB2012B40F08A80AF
:104B1800BB6B13F5803F37D17B681B681A687B68CD
:104B28001B6822F480621A607B681B685B6803F468
:104B38000063B3F5006F13D17B681B681A687B6844
:104B48001B6822F480621A6000237B627B681B6802
:104B58005B697B627B681B689B697B627B6AE7E0B9
:104B680000233B627B681B685B693B627B681B6850
:104B78009B693B623B6A7B681B681A687B681B6899
:104B880042F400721A60D3E0BB6B082B2ED0BB6BCB
:104B9800202B2BD07B6B122B02D1BB6B012B25D189
:104BA800BB6B042B0ED0BB6B022B0BD0BB6B102B3B
:104BB80008D07B681B681A687B681B6822F48062CF
:104BC8001A6007E07B681B681A687B681B6842F4F8
:104BD80080621A600023FB617B681B685B69FB616C
:104BE8007B681B689B69FB61FB69A1E07B681B68AC
:104BF8001A687B681B6822F480621A600023BB6114
:104C08007B681B685B69BB617B681B689B69BB61D0
:104C1800BB697B681B681A687B681B6842F4007272
:104C28001A6085E07B685B8D9BB2022B4DD1BB6B14
:104C3800042B16D0BB6B022B13D0BB6B102B10D0E0
:104C48007B681B681A687B681B6822F480621A609C
:104C58007B681B681A687B681B6842F400621A60EC
:104C680007E07B681B681A687B681B6842F48062EF
:104C78001A607B681B685B6803F40063B3F5006F18
:104C880017D1BB6B13F5803F0BD0BB6B012B08D042
:104C9800BB6B082B05D0BB6B102B02D0BB6B202B3A
:104CA80007D17B681B685A687B681B6842F480528E
:104CB8005A6000237B617B681B685B697B617B684A
:104CC8001B689B697B617B6932E07B681B681A689B
:104CD8007B681B6842F480621A607B681B685B68AB
:104CE80003F40063B3F5006F17D1BB6B13F5803F76
:104CF8000BD0BB6B012B08D0BB6B082B05D0BB6B53
:104D0800102B02D0BB6B202B07D17B681B685A681D
:104D18007B681B6842F480525A6000233B617B68C1
:104D28001B685B693B617B681B689B693B613B69EE
:104D38007B6800221A650BE00023FB607B681B6818
:104D48005B69FB607B681B689B69FB60FB68FFE72E
:104D580000BF4437BD465DF8047B704780B584B01A
:104D680000AF78607B6893F83D30FB737B685B8DA0
:104D78009BB2002B2BD07B685B6A1A787B681B6818
:104D88001A617B685B6A5A1C7B685A627B685B8D18
:104D98009BB2013B9AB27B685A857B685B8D9BB25C
:104DA800002B14D1FB7B292B11D17B681B685A6817
:104DB8007B681B6822F480625A607B6821221A6330
:104DC8007B68282283F83D207868FFF7D9F900BF6F
:104DD8001037BD4680BD80B483B000AF78607B6873
:104DE8005B8D9BB2002B11D07B685B6A1A787B685D
:104DF8001B681A617B685B6A5A1C7B685A627B680D
:104E08005B8D9BB2013B9AB27B685A8500BF0C3719
:104E1800BD465DF8047B704780B584B000AF78600C
:104E28007B6893F83D30FB737B685B8D9BB2002BEE
:104E38002CD07B681B681A697B685B6AD2B21A70CF
:104E48007B685B6A5A1C7B685A627B685B8D9BB285
:104E5800013B9AB27B685A857B685B8D9BB2002BBD
:104E680014D1FB7B2A2B11D17B681B685A687B689D
:104E78001B6822F480625A607B6822221A637B686E
:104E8800282283F83D207868FFF784F900BF10379F
:104E9800BD4680BD80B483B000AF78607B685B8D11
:104EA8009BB2002B12D07B681B681A697B685B6A0F
:104EB800D2B21A707B685B6A5A1C7B685A627B683C
:104EC8005B8D9BB2013B9AB27B685A8500BF0C3759
:104ED800BD465DF8047B704780B584B000AF78604C
:104EE80039600023FB737B6893F83D30DBB203F035
:104EF8002803282B27D17B681B685A687B681B68A6
:104F080022F480625A603B689B0803F00103002B7F
:104F180001D10123FB733B68DB0903F00103002B7C
:104F280003D17B68DB68BB8102E07B689B69BB813E
:104F38007B68002283F83C20BA89FB7B1946786895
:104F4800FFF732F90EE00023BB607B681B685B69E2
:104F5800BB607B681B689B69BB60BB687B68002281
:104F680083F83C2000BF1037BD4680BD80B584B0B3
:104F780000AF78607B6893F83D30FB737B681B68F3
:104F88005A687B681B6822F4E0625A600023BB60A1
:104F98007B681B685B69BB607B681B681A687B68F9
:104FA8001B6842F001021A60BB687B681B681A68BC
:104FB8007B681B6822F480621A607B681B685B68E8
:104FC80003F40063B3F5006F72D1FB7B222B02D090
:104FD800FB7B2A2B35D17B689B6B1B685B689AB27D
:104FE8007B685A857B685B8D9BB2002B05D07B68FC
:104FF8001B6C43F004027B681A647B681B685A6860
:105008007B681B6822F400625A607B689B6B1846B9
:10501800FDF7F2FF0346012B49D07B689B6B694A79
:105028001A657B689B6B1846FDF73AFE0346002B12
:105038003DD07B689B6B1B6D7A68926B10469847D6
:1050480035E07B685B6B1B685B689AB27B685A8546
:105058007B685B8D9BB2002B05D07B681B6C43F093
:1050680004027B681A647B681B685A687B681B6843
:1050780022F400625A607B685B6B1846FDF7BCFF40
:105088000346012B14D07B685B6B4E4A1A657B681C
:105098005B6B1846FDF704FE0346002B08D07B68BF
:1050A8005B6B1B6D7A68526B1046984700E000BF37
:1050B8007B685B8D9BB2002B3ED07B681B685B696D
:1050C80003F00403042B12D17B681B681A697B6800
:1050D8005B6AD2B21A707B685B6A5A1C7B685A6238
:1050E8007B685B8D9BB2013B9AB27B685A857B6873
:1050F8001B685B6903F04003402B12D17B681B6877
:105108001A697B685B6AD2B21A707B685B6A5A1C40
:105118007B685A627B685B8D9BB2013B9AB27B6865
:105128005A857B685B8D9BB2002B05D07B681B6C16
:1051380043F004027B681A647B681B6C002B03D065
:10514800786800F0B7F839E0FB7B2A2B09D17B6837
:1051580000221A637B68282283F83D207868FFF7CD
:1051680019F87B6893F83D30DBB2282B11D17B68A6
:10517800154ADA627B6800221A637B68202283F86A
:105188003D207B68002283F83E207868FFF71AF8F4
:1051980014E07B681B6B222B02D0FB7B222B0DD1EA
:1051A8007B6800221A637B68202283F83D207B6895
:1051B800002283F83E207868FEF7ECFF00BF103726
:1051C800BD4680BD855800080000FFFF80B584B04B
:1051D80000AF78607B6893F83D30FB737B68DB6ACF
:1051E800BB60BB68082B02D0BB68202B29D1FB7B96
:1051F800282B26D17B682E4ADA627B681B685A689E
:105208007B681B6822F4E0625A607B681B686FF455
:1052180080625A617B681B681A687B681B6822F485
:1052280080621A607B6800221A637B68202283F8F8
:105238003D207B68002283F83E207868FEF7C2FF95
:1052480031E0FB7B212B29D17B68194ADA627B6824
:1052580021221A637B68202283F83D207B68002284
:1052680083F83E207B681B685A687B681B6822F4B9
:10527800E0625A607B681B686FF480625A617B68E1
:105288001B681A687B681B6822F480621A60786859
:10529800FEF7A8FA7868FEF773FF04E07B681B68DE
:1052A8006FF480625A6100BF1037BD4680BD00BFF1
:1052B8000000FFFF80B584B000AF78607B6893F88A
:1052C8003D30FB737B6893F83E30BB73BB7B102B80
:1052D80002D0BB7B402B0AD1FB7B222B07D17B68FA
:1052E8001B681A687B681B6822F400621A60FB7BE3
:1052F80003F02803282B07D17B6800221A637B68F8
:10530800282283F83D2015E07B681B685B6803F45E
:105318000063B3F5006F0AD0FB7B602B07D07B6876
:10532800202283F83D207B68002283F83E207B689A
:1053380000221A637B681B685B6803F40063B3F59B
:10534800006F62D17B681B685A687B681B6822F40F
:1053580000625A607B685B6B93F83530DBB2012BD7
:1053680020D07B685B6B6A4A1A657B685B6B184662
:10537800FDF796FC0346002B00F089807B681B68CC
:105388001A687B681B6822F001021A607B68202279
:1053980083F83D207B685B6B1B6D7A68526B104607
:1053A800984774E07B689B6B594A1A657B689B6BCE
:1053B8001846FDF775FC0346002B68D07B681B6810
:1053C8005B6903F04003402B0BD17B681B681A69AB
:1053D8007B685B6AD2B21A707B685B6A5A1C7B680E
:1053E8005A627B681B681A687B681B6822F0010296
:1053F8001A607B68202283F83D207B689B6B1B6DBD
:105408007A68926B1046984741E07B6893F83D3084
:10541800DBB2602B25D17B68202283F83D207B6896
:1054280000221A647B681B685B6903F04003402B09
:105438000BD17B681B681A697B685B6AD2B21A70E9
:105448007B685B6A5A1C7B685A627B681B681A68AF
:105458007B681B6822F001021A607868FEF7D0FEAC
:1054680015E07B681B685B6903F04003402B0BD198
:105478007B681B681A697B685B6AD2B21A707B68A2
:105488005B6A5A1C7B685A627868FEF7AFFE7B68D5
:105498001B6CBB60BB6803F00103002B0ED1BB681B
:1054A80003F00203002B09D1BB6803F00403002BAF
:1054B80004D1BB6803F00803002B07D07B681B6886
:1054C8005A687B681B6822F4E0625A607B6893F82C
:1054D8003D30FB737B681B6C03F00403042B13D172
:1054E800FB7B282B10D17B680A4ADA627B68002292
:1054F8001A637B68202283F83D207B68002283F8AA
:105508003E207868FEF75EFE00BF1037BD4680BDBE
:10551800855800080000FFFF80B588B002AFF8602A
:10552800084611461A4603467B810B463B811346C3
:10553800FB80FB681B681A68FB681B6842F4807272
:105548001A607B6A00933B6A00224FF00111F868E9
:1055580000F03CFA0346002B0DD0FB681B681B6863
:1055680003F48073B3F5807F03D1FB684FF40072B6
:105578001A6403235FE07B89DBB21A46FB681B6869
:1055880002F0FE021A617B6A3A6A2D49F86800F057
:1055980097FA0346002B01D001234CE000237B61DE
:1055A800FB681B685B697B61FB681B689B697B61A7
:1055B8007B697A6A396AF86800F022FB0346002B97
:1055C8000DD0FB681B6C042B07D1FB681B681A689D
:1055D800FB681B6842F400721A6001232BE0FB8809
:1055E800012B05D13B89DAB2FB681B681A6121E0FF
:1055F8003B891B0A9BB2DAB2FB681B681A617A6A9C
:10560800396AF86800F0FCFA0346002B0DD0FB68F5
:105618001B6C042B07D1FB681B681A68FB681B68A6
:1056280042F400721A60012305E03B89DAB2FB6894
:105638001B681A61002318461837BD4680BD00BF95
:105648000200010080B586B000AF78607B689B6B74
:105658007B617B6993F83D30FB747B6993F83E303E
:10566800BB747B69DB6AFB607B691B685A687B6972
:105678001B6822F440725A607B695B6B002B03D075
:105688007B695B6B0022DA637B699B6B002B03D021
:105698007B699B6B0022DA63FB7C03F02103212BDF
:1056A80007D0FB7C03F02203222B31D1BB7C202BBB
:1056B8002ED17B691B685A687B691B6822F40062DB
:1056C8005A607B6900225A85FB7C292B0AD17B69A9
:1056D80021221A637B69282283F83D207869FEF726
:1056E8004FFD0CE0FB7C2A2B09D17B6922221A632F
:1056F8007B69282283F83D207869FEF74BFD7B699A
:105708001B685A687B691B6842F440725A6074E0EF
:105718007B6993F83E30DBB2002B6ED07B695B8DE2
:105728009BB2012B07D17B691B681A687B691B68D0
:1057380022F480621A607B691B685A687B691B685F
:1057480022F440725A60FB6813F5803F09D0FB6869
:10575800082B06D0FB68B3F12A4F02D0FB68202B38
:1057680007D17B691B681A687B691B6842F4007261
:105778001A607B691B685A687B691B6822F480522F
:105788005A607B691B685A687B691B6822F400624F
:105798005A607B6900225A857B691B6C002B03D0F9
:1057A8007869FEF723FD28E07B69202283F83D20F5
:1057B8007B6993F83E30DBB2402B0AD17B6900222B
:1057C80083F83E207B6900221A637869FEF704FD9E
:1057D80013E07B69002283F83E20FB68082B02D087
:1057E800FB68202B03D17B6900221A6302E07B69E6
:1057F80012221A637869FEF7B9FC00BF1837BD4654
:1058080080BD80B584B000AF78607B689B6BFB601F
:10581800FB685B6B002B03D0FB685B6B0022DA63D1
:10582800FB689B6B002B03D0FB689B6B0022DA6341
:105838007868FDF7EFFB0346022B1BD0FB681B685B
:105848001A68FB681B6822F480621A60FB680022F1
:105858005A85FB68202283F83D20FB68002283F8E4
:105868003E20FB681B6C43F01002FB681A64F86862
:10587800FEF7BCFC00BF1037BD4680BD80B586B0C2
:1058880000AF78600023FB607B689B6B7B617B6962
:1058980093F83D30FB744B4B1B68DB084A4AA2FB6C
:1058A80003231A0A13469B001344DA00D31AFB6039
:1058B800FB68002B06D17B691B6C43F020027B69D7
:1058C8001A640AE0FB68013BFB607B691B681B6884
:1058D80003F40073B3F5007FEAD07B695B6B002BA0
:1058E80003D07B695B6B0022DA637B699B6B002BBF
:1058F80003D07B699B6B0022DA637B691B681A689B
:105908007B691B6822F480621A607B6900225A85D1
:105918007B695B6B002B03D07B695B6B00221A658C
:105928007B699B6B002B03D07B699B6B00221A65FC
:105938007B691B681A687B691B6822F001021A6080
:105948007B6993F83D30DBB2602B0ED17B69202256
:1059580083F83D207B69002283F83E207B69002282
:105968001A647869FEF74CFC27E0FB7C03F02803F7
:10597800282B17D17B691B681A687B691B6842F062
:1059880001021A607B691B681A687B691B6842F40C
:1059980080621A607B6900221A637B69282283F877
:1059A8003D2007E07B69202283F83D207B690022A7
:1059B80083F83E207869FEF719FC00BF1837BD460A
:1059C80080BD00BF3800002089B5F81480B584B0C8
:1059D80000AFF860B9603B601346FB7148E03B6874
:1059E800B3F1FF3F44D0FCF7F3F90246BB69D31A81
:1059F8003A689A4202D33B68002B39D1BB681B0C2A
:105A0800DBB2012B0DD1FB681B685B69DA43BB680D
:105A180013409BB2002B0CBF01230023DBB21A46B4
:105A28000CE0FB681B689B69DA43BB6813409BB2B8
:105A3800002B0CBF01230023DBB21A46FB799A42E4
:105A480016D1FB6800221A63FB68202283F83D20E8
:105A5800FB68002283F83E20FB681B6C43F02002A1
:105A6800FB681A64FB68002283F83C20012323E0CA
:105A7800BB681B0CDBB2012B0DD1FB681B685B6993
:105A8800DA43BB6813409BB2002B0CBF01230023F1
:105A9800DBB21A460CE0FB681B689B69DA43BB68FB
:105AA80013409BB2002B0CBF01230023DBB21A4624
:105AB800FB799A4293D0002318461037BD4680BD23
:105AC80080B584B000AFF860B9607A603B6071E07F
