:020000040800F2
:1000000000000220E9140008D9130008E1130008D9
:10001000E9130008F1130008F913000800000000BC
:1000200000000000000000000000000001140008B3
:100030000F140008000000001D1400082B14000815
:100040003915000839150008391500083915000858
:100050003915000839150008391500083915000848
:100060003915000839150008391500083915000838
:100070003915000839150008391500083915000828
:10008000391500083915000839140008000000006F
:10009000000000000000000000000000391500080A
:1000A0004D14000861140008751400088914000834
:1000B00039150008391500083915000839150008E8
:1000C00039150008391500083915000839150008D8
:1000D000391500083915000839150008000000001E
:1000E000391500083915000839150008000000000E
:1000F00000000000000000000000000039150008AA
:1001000000000000391500083915000839150008ED
:1001100000000000000000000000000000000000DF
:100120009D14000839150008391500083915000814
:100130003915000800000000000000000000000069
:10014000000000000000000000000000B1140008E2
:100150003915000839150008391500083915000847
:1001600039150008391500080000000000000000E3
:10017000000000000000000000000000000000007F
:100180000000000039150008000000000000000019
:080190003915000839150008BB
:1001980010B5054C237833B9044B13B10448AFF3B9
:1001A80000800123237010BD3001002000000000F2
:1001B800AC98000808B5034B1BB103490348AFF3DB
:1001C800008008BD0000000034010020AC98000841
:1001D80053B94AB9002908BF00281CBF4FF0FF31A6
:1001E8004FF0FF3000F088B9ADF1080C6DE904CE8E
:1001F80000F006F8DDF804E0DDE9022304B07047FA
:100208002DE9F047089D8E4604468846002B4AD1C2
:100218008A42174662D9B2FA82F64EB1C6F1200375
:1002280001FA06F820FA03F3B74043EA0808B44095
:100238004FEA174E1FFA87FCB8FBFEF1230C0EFBA2
:10024800118843EA084301FB0CF29A4209D9FB18CA
:1002580001F1FF3080F0EA809A4240F2E7800239EB
:100268003B449A1AA3B2B2FBFEF00EFB102243EAFB
:10027800024300FB0CFC9C4509D9FB1800F1FF3236
:1002880080F0D6809C4540F2D3803B44023840EA57
:100298000140A3EB0C0300211DB1F3400022C5E986
:1002A8000032BDE8F0878B4205D90DB1C5E90001E0
:1002B80000210846F5E7B3FA83F1002946D17345D2
:1002C80002D3824200F20581841A6EEB03020120F8
:1002D8009046002DE5D0C5E90048E2E7002A00F085
:1002E8009080B2FA82F6002E40F0A4808A1A030C9D
:1002F8004FEA174E80B2BCB20121B2FBFEFC0EFBE6
:100308001C2243EA024304FB0CF29A4207D9FB1869
:100318000CF1FF3802D29A4200F2E080C4469B1AE0
:10032800B3FBFEF20EFB123340EA034302FB04F474
:100338009C4207D9FB1802F1FF3002D29C4200F21E
:10034800CA8002461B1B42EA0C40A5E7C1F1200601
:100358008B4022FA06F71F430EFA01F420FA06F33F
:100368002EFA06FE4FEA1749234300FA01F81FFA4E
:1003780087FCBEFBF9F01C0C09FB10EE44EA0E44A6
:1003880000FB0CFEA64502FA01F209D93C1900F15E
:10039800FF3A80F09C80A64540F2998002383C44A0
:1003A800A4EB0E041FFA83FEB4FBF9F309FB134414
:1003B8004EEA044403FB0CFCA44508D93C1903F19C
:1003C800FF3E80F08280A4457FD9023B3C4443EA4B
:1003D8000040A4EB0C04A0FB02EC64457346E14624
:1003E80062D35FD05DB1B8EB030264EB090404FA91
:1003F80006F622FA01F31E43CC40C5E90064002149
:100408004FE7B1FBF2FC010C41EA0E4180B240EA31
:1004180001423B4638463C46B846BE462026B1FB1C
:10042800F7F1A2EB080241EA0C4166E7014618E73A
:1004380010462CE7C6F120022EFA02F3B740B1406D
:1004480020FA02F24FEA174E0A43B3FBFEF8BCB299
:100458000EFB1833110C41EA034108FB04F9B040C4
:1004680089454FEA104380B23ED9791808F1FF3C1C
:1004780001D289451FD8A1EB0901B1FBFEF909FB9F
:1004880004F80EFB191192B242EA0142424529D200
:10049800BA1809F1FF31C4D24245C2D2A9F102010A
:1004A8003A44BEE7F0459DD2BEEB02036CEB070C65
:1004B8000138E14696E7A7EB09094944A8F1020C7F
:1004C800B1FBFEF909FB04F8DBE773467FE750460A
:1004D80066E70846FDE63B44023A33E7ACF1020C16
:1004E8003B441CE749469CE7A1EB0901C446B1FB24
:1004F800FEF909FB04F8C4E7704700BF80B485B073
:1005080000AF78600E4A137843F04003137000235D
:10051800FB600AE00B4AFB6832F813100A4AFB68D2
:1005280022F81310FB680133FB60FB68072BF1DD31
:1005380000BF00BF1437BD465DF8047B704700BF9D
:10054800D004002094020020A402002080B582B0CC
:1005580000AF78607B681B680D4A934213D10D4B3E
:100568001B780133DAB20B4B1A700A4B1B78282B15
:1005780004D1084B00221A7000F0F8F80822064946
:10058800064801F0C1F900BF0837BD4680BD00BF6D
:100598000000014090020020940200204C0100203D
:1005A80090B484B000AF786039603B68DAB2164B1B
:1005B8001A70164A137843F0800313700023FB73F4
:1005C80018E0FB7B7A681A44114B1968104B5B7969
:1005D800581CC4B20E4844710B4412781A700C4B64
:1005E8005A790B4B9B791340DAB2094B5A71FB7B52
:1005F8000133FB73FB7B3A689A42E2D800BF00BF25
:100608001037BD4690BC7047CC040020D0040020B1
:10061800C00200202DE9F04184B000AF344B1B78B4
:1006280023F07F03DBB2002B5DD06B469846304A3F
:10063800137823F0800313702E4B1E783346013B4A
:10064800BB60F3B200221C4615464FF000024FF083
:100658000003EB0043EA5473E200F3B200221846A9
:1006680011464FF000024FF00003CB0043EA5073ED
:10067800C20033460733DB08DB00ADEB030D6B46E6
:1006880000337B601C4800F03FFC0346002B03D07E
:100698001A49194800F034F80023FB7317E0174B88
:1006A8001A68164BDB79591CC8B21449C8711A4428
:1006B800FB7B11787A68D154104BDA790F4B9B7910
:1006C8001340DAB20D4BDA71FB7B0133FB73094B34
:1006D8001B78FA7B9A42E2D3064B1B781946786856
:1006E80008F052FCC54600BF1037BD46BDE8F08192
:1006F800D0040020CC040020C0020020B402002056
:1007080080B582B000AF786039607B681B687A6812
:10071800D27913441B78F02B02D0F12B10D01FE0B4
:100728000222F021386800F0D5FA0D21386800F06F
:1007380085FB3B681B7A1946386800F07FFB0FE0A1
:100748000C22F121386800F0C5FA0749386800F032
:100758009DFB3B681B7A1946386800F06FFB00BFA9
:1007680000BF0837BD4680BD0C99000880B500AFB2
:10077800074B1B68013B064A1360054B1B68002B9F
:1007880004D1034B0A221A6000F004F800BF80BDB0
:100798002800002080B500AF0F4B1B68DB430F4AD1
:1007A8001278114601228A401340002B04D04FF4DE
:1007B80000510B4802F093FA084B1B780133DAB268
:1007C800064B1A70054B1B7803F01F03DAB2034B74
:1007D8001A7000BF80BD00BF00000020D1040020B7
:1007E8000008024080B500AF00F0A4FE00F03CF81D
:1007F80000F00AFA00F0E8F900F09EF800F050F96D
:1008080000F07CF908F0A6FA0E4808F0F5FB0E484F
:1008180004F0AAFA0D4B00221A70012202210C489A
:1008280002F044FA0B4B0C4A0C490D4800F070FCDE
:1008380001224FF400510B4802F038FAFFF7EAFEA4
:10084800FCE700BFA905000848020020D0040020EA
:1008580000040240CC020020CC030020B402002097
:10086800C00200200008024080B594B000AF07F134
:10087800200330220021184608F0E8FF07F10C0396
:1008880000221A605A609A60DA601A610023BB601D
:10089800274B1B6C264A43F080531364244B1B6C74
:1008A80003F08053BB60BB6800237B60214B1B684F
:1008B800204A43F4404313601E4B1B6803F4404333
:1008C8007B607B6801233B624FF480337B620223A9
:1008D800BB634FF48003FB6319233B64C0237B6431
:1008E8000223BB640423FB6407F12003184603F0CA
:1008F800A7FD0346002B01D000F0E6F90F23FB60AB
:1009080002233B6100237B614FF48053BB610023CA
:10091800FB6107F10C030321184604F009F80346AC
:10092800002B01D000F0D0F900BF5037BD4680BD84
:10093800003802400070004080B584B000AF3B46EC
:1009480000221A605A609A60DA60524B524A1A6062
:10095800504B4FF480325A604E4B00229A604D4BF8
:1009680001221A614B4B00221A764A4B002283F867
:100978002020484B0022DA62464B484A9A62454B8F
:100988000022DA60434B0822DA61424B012283F8E5
:100998003020404B01225A613E4800F061FE034678
:1009A800002B01D000F090F900233B6001237B600D
:1009B8000023BB603B461946364801F0B7F80346AA
:1009C800002B01D000F080F901233B6002237B60FB
:1009D8003B4619462F4801F0A9F80346002B01D0E1
:1009E80000F072F902233B6003237B603B46194603
:1009F800284801F09BF80346002B01D000F064F969
:100A080003233B6004237B603B461946214801F0E1
:100A18008DF80346002B01D000F056F904233B6003
:100A280005237B603B4619461A4801F07FF80346C8
:100A3800002B01D000F048F905233B6006237B60BA
:100A48003B461946134801F071F80346002B01D0C4
:100A580000F03AF906233B6007237B603B461946C2
:100A68000C4801F063F80346002B01D000F02CF984
:100A780007233B6008237B603B461946054801F085
:100A880055F80346002B01D000F01EF900BF1037BF
:100A9800BD4680BD4C010020002001400100000F30
:100AA80080B500AF124B134A1A60114B124A5A60B4
:100AB8000F4B00229A600E4B0022DA600C4B4FF469
:100AC80080421A610A4B00225A61094B00229A613E
:100AD800074B0022DA61064B00221A62044802F032
:100AE80019F90346002B01D000F0EEF800BF80BDD5
:100AF800F401002000540040801A060080B58CB034
:100B080000AF07F1200300221A605A609A60DA6089
:100B180007F10C0300221A605A609A60DA601A61C1
:100B28003B1D00221A605A60254B264A1A60244B46
:100B38005F225A60224B00229A60214BF922DA6028
:100B48001F4B00221A611E4B00225A611C4B0022C7
:100B58009A611B4804F0B8F80346002B01D000F056
:100B6800B3F84FF480533B6207F120031946144849
:100B780004F04CFA0346002B01D000F0A5F800233E
:100B8800FB6000233B6107F10C0319460C4804F095
:100B980004FB0346002B01D000F096F800237B608D
:100BA8000023BB603B1D1946054804F013FD0346AE
:100BB800002B01D000F088F800BF3037BD4680BD5B
:100BC800480200200000014080B582B000AF002339
:100BD8007B600C4B1B6B0B4A43F480031363094B7C
:100BE8001B6B03F480037B607B68002200213820A4
:100BF80001F031FB382001F04AFB00BF0837BD4641
:100C080080BD00BF0038024080B58AB000AF07F150
:100C1800140300221A605A609A60DA601A6100238D
:100C28003B61274B1B6B264A43F004031363244B99
:100C38001B6B03F004033B613B690023FB60204B03
:100C48001B6B1F4A43F0800313631D4B1B6B03F0A0
:100C58008003FB60FB680023BB60194B1B6B184AC1
:100C680043F001031363164B1B6B03F00103BB60D6
:100C7800BB6800237B60124B1B6B114A43F00203D5
:100C880013630F4B1B6B03F002037B607B6800222E
:100C98004FF400510B4802F009F84FF400537B6100
:100CA8000123BB610023FB6100233B6207F11403AE
:100CB8001946044801F076FE00BF2837BD4680BDBE
:100CC800003802400008024080B400AF72B600BF8E
:100CD80000BFFDE780B483B000AF78600B46FB70BF
:100CE8001346BB707B6800221A727B685A797B684E
:100CF800DA717B681A687B685B79591CC8B27968B5
:100D08004871134455221A707B685A797B689B791D
:100D18001340DAB27B685A717B681A687B685B7922
:100D2800591CC8B27968487113444E221A707B68FE
:100D38005A797B689B791340DAB27B685A717B6871
:100D48001A687B685B79591CC8B279684871134482
:100D580045221A707B685A797B689B791340DAB20E
:100D68007B685A717B681A687B685B79591CC8B2C2
:100D780079684871134452221A707B685A797B68E3
:100D88009B791340DAB27B685A717B681A687B6872
:100D98005B79591CC8B2796848711344BA78013232
:100DA800D2B21A707B685A797B689B791340DAB2A1
:100DB8007B685A717B681A687B685B79591CC8B272
:100DC8007968487113443A221A707B685A797B68AB
:100DD8009B791340DAB27B685A717B681A687B6822
:100DE8005B79591CC8B2796848711344FA781A704B
:100DF8007B685A797B689B791340DAB27B685A71B1
:100E08007B681B7A5AB2BB780133DBB25BB25340C2
:100E18005BB2DAB27B681A727B681A7AFB78534045
:100E2800DBB283F03603DAB27B681A727B681B7A0E
:100E380018460C37BD465DF8047B704780B483B014
:100E480000AF78600B46FB707B681A687B685B793B
:100E5800591CC8B2796848711344FA781A707B68CB
:100E68005A797B689B791340DAB27B685A717B6840
:100E78001A7AFB785340DAB27B681A727B681B7A5D
:100E880018460C37BD465DF8047B704790B484B0B3
:100E980000AF786039600023FB7326E0FB7BDBB290
:100EA8001A463B681A447B6819687B685B79581C4A
:100EB800C4B2786844710B4412781A707B685A7906
:100EC8007B689B791340DAB27B685A71FB7BDBB293
:100ED8005A1CD2B2FA731A463B6813441A787B68D4
:100EE8001B7A5340DAB27B681A72FB7BDBB21A4674
:100EF8003B6813441B78002BD0D17B681B7A1846BB
:100F08001037BD4690BC704780B485B000AF78609C
:100F18007B685B79FB73E8E07A4B1B78062B00F261
:100F2800CD8001A252F823F04D0F0008670F00088A
:100F3800A50F0008D10F0008FD0F000815100008C4
:100F4800791000087B681B687A68127913441B784B
:100F5800552B40F0B7806B4B01221A70B2E07B68CA
:100F68001B687A68127913441B784E2B03D1654BA2
:100F780002221A70A8E07B681B687A681279134409
:100F88001B78552B00F0A0805E4B00221A707B68FE
:100F98001B79013BDAB27B681A7195E07B681B68A4
:100FA8007A68127913441B78452B03D1554B0322D9
:100FB8001A708CE0534B00221A707B681B79013B36
:100FC800DAB27B681A7182E07B681B687A681279EA
:100FD80013441B78522B03D14A4B04221A7076E033
:100FE800484B00221A707B681B79013BDAB27B6898
:100FF8001A716CE07B681B687A68127913441A7856
:10100800414B1A703F4B05221A7060E07B681B68E1
:101018007A68127913441B783A2B1FD1394B062270
:101028001A707B681B790133DAB27B68DA717B68E6
:10103800DA797B689B791340DAB27B68DA71334BD3
:1010480000221A70304B1A78304B1B785340DBB2B1
:1010580083F03603DAB22D4B1A7038E0294B0022A0
:101068001A707B681B79013BDAB27B681A712EE033
:10107800254B1B78013BDAB2234B1A70224B1B78A5
:10108800002B0CD07B681B687A68127913441A7895
:101098001E4B1B785340DAB21C4B1A7016E0194BE2
:1010A80000221A707B681B687A68127913441A78D0
:1010B800164B1B789A4209D101231DE0114B0022DF
:1010C8001A7004E000BF02E000BF00E000BF7B68C8
:1010D8001B790133DAB27B681A717B681A797B68ED
:1010E8009B791340DAB27B681A717B681B79FA7BAB
:1010F8009A427FF411AF002318461437BD465DF8B5
:10110800047B7047D3040020D4040020D2040020BC
:1011180080B485B000AFF860B9607A603B60FB6866
:101128007A681A60FB6800221A71FB6800225A71FB
:10113800FB680022DA71FB68FF229A71FB680022C3
:101148001A72BB683A681A60BB6800221A71BB68D9
:1011580000225A71BB680022DA71BB68FF229A71BB
:10116800BB6800221A7200BF1437BD465DF8047BC5
:101178007047000080B483B000AF00237B60104B41
:101188005B6C0F4A43F4804353640D4B5B6C03F470
:1011980080437B607B6800233B60094B1B6C084ADB
:1011A80043F080531364064B1B6C03F080533B6081
:1011B8003B6800BF0C37BD465DF8047B704700BF35
:1011C8000038024080B58AB000AF786007F1140398
:1011D80000221A605A609A60DA601A617B681B689C
:1011E800324A93425ED100233B61314B5B6C304AFB
:1011F80043F4807353642E4B5B6C03F480733B6140
:101208003B690023FB602A4B1B6B294A43F001030F
:101218001363274B1B6B03F00103FB60FB68FF2381
:101228007B610323BB610023FB6107F114031946AB
:10123800204801F0B7FB204B204A1A601E4B0022C1
:101248005A601D4B00229A601B4B0022DA601A4B31
:101258004FF480621A61184B4FF400625A61164BC2
:101268004FF400529A61144B0022DA61124B0022AB
:101278001A62114B00225A620F4801F023F8034604
:10128800002B01D0FFF720FD7B680B4A9A630A4ABE
:101298007B68936300220021122000F0DCFF1220FB
:1012A80000F0F5FF00BF2837BD4680BD0020014093
:1012B80000380240000002409401002010640240FF
:1012C80080B58AB000AF786007F1140300221A6075
:1012D8005A609A60DA601A617B681B68194A9342FF
:1012E8002BD100233B61184B1B6B174A43F00203B9
:1012F8001363154B1B6B03F002033B613B69C0236F
:101308007B611223BB610023FB6103233B6204233F
:101318007B6207F1140319460C4801F043FB0023D4
:10132800FB60094B1B6C084A43F400131364064B1B
:101338001B6C03F40013FB60FB6800BF2837BD4635
:1013480080BD00BF00540040003802400004024045
:1013580080B584B000AF78607B681B681A4A9342F6
:101368002DD10023FB60194B5B6C184A43F0010335
:101378005364164B5B6C03F00103FB60FB680022AF
:101388000021182000F067FF182000F080FF0022DD
:101398000021192000F05FFF192000F078FF0022DB
:1013A80000211A2000F057FF1A2000F070FF0022D9
:1013B80000211B2000F04FFF1B2000F068FF00BF3A
:1013C8001037BD4680BD00BF000001400038024014
:1013D80080B400AF00BFFDE780B400AF00BFFDE7F9
:1013E80080B400AF00BFFDE780B400AF00BFFDE7E9
:1013F80080B400AF00BFFDE780B400AF00BFBD46BA
:101408005DF8047B704780B400AF00BFBD465DF84F
:10141800047B704780B400AF00BFBD465DF8047B15
:10142800704780B500AF00F0D7F800BF80BD00005E
:1014380080B500AF024800F056F900BF80BD00BF7C
:101448004C01002080B500AF024803F0EFFC00BF5C
:1014580080BD00BF4802002080B500AF024803F0FD
:10146800E5FC00BF80BD00BF4802002080B500AF8A
:10147800024803F0DBFC00BF80BD00BF480200202B
:1014880080B500AF024803F0D1FC00BF80BD00BFAB
:101498004802002080B500AF024801F019F800BFEB
:1014A80080BD00BF9401002080B500AF024801F064
:1014B800B9FE00BF80BD00BFC00D002080B400AFE2
:1014C800064BD3F88830054A43F47003C2F88830D5
:1014D80000BFBD465DF8047B704700BF00ED00E02B
:1014E800DFF834D0FFF7EAFF0C480D490D4A002316
:1014F80002E0D458C4500433C4188C42F9D30A4AC1
:101508000A4C002301E013600432A242FBD308F026
:10151800A5F9FFF767F970470000022000000020D6
:10152800300100204C99000830010020C41400202C
:10153800FEE7000080B500AF0E4B1B680D4A43F470
:10154800007313600B4B1B680A4A43F480631360F3
:10155800084B1B68074A43F480731360032000F0AC
:101568006FFE0F2000F008F8FFF704FE002318466E
:1015780080BD00BF003C024080B582B000AF7860FB
:10158800124B1A68124B1B7819464FF47A73B3FB47
:10159800F1F3B2FBF3F3184600F087FE0346002B85
:1015A80001D001230EE07B680F2B0AD8002279684E
:1015B8004FF0FF3000F04FFE064A7B6813600023AF
:1015C80000E0012318460837BD4680BD2C000020E6
:1015D800340000203000002080B400AF064B1B7898
:1015E8001A46064B1B681344044A136000BFBD46E5
:1015F8005DF8047B704700BF34000020D804002049
:1016080080B400AF034B1B681846BD465DF8047BE9
:10161800704700BFD804002080B584B000AF786060
:10162800FFF7EEFFB8607B68FB60FB68B3F1FF3F34
:1016380005D00A4B1B781A46FB681344FB6000BFB1
:10164800FFF7DEFF0246BB68D31AFA689A42F7D85A
:1016580000BF00BF1037BD4680BD00BF340000206A
:1016680080B584B000AF78600023FB737B68002BE3
:1016780001D1012333E07B681B6C002B09D178680A
:10168800FFF7A0FD7B6800225A647B68002283F87C
:101698003C207B681B6C03F01003002B18D17B687F
:1016A8001B6C23F4885323F0020343F002027B6887
:1016B8001A64786800F06CFB7B6800225A647B68C7
:1016C8001B6C23F0030343F001027B681A6401E0FA
:1016D8000123FB737B68002283F83C20FB7B1846C0
:1016E8001037BD4680BD80B586B000AF7860002356
:1016F8007B6100233B617B681B681B68FB607B6820
:101708001B685B68BB60FB6803F002037B61BB6816
:1017180003F020033B617B69002B49D03B69002B18
:1017280046D07B681B6C03F01003002B05D17B6847
:101738001B6C43F400727B681A647B681B689B68A7
:1017480003F04053002B2BD17B681B7E002B27D145
:101758007B681B68DB6A03F47003002B06D07B6888
:101768001B689B6803F48063002B19D17B681B6896
:101778005A687B681B6822F020025A607B681B6CE1
:1017880023F480727B681A647B681B6C03F48053B3
:10179800002B05D17B681B6C43F001027B681A643F
:1017A8007868FEF7ABFE7B681B686FF012021A6060
:1017B800FB6803F004037B61BB6803F080033B61B3
:1017C8007B69002B57D03B69002B54D07B681B6C7E
:1017D80003F01003002B05D17B681B6C43F4005207
:1017E8007B681A647B681B689B6803F44013002BB2
:1017F80039D17B681B689B6B03F44013002B06D020
:101808007B681B689B6803F48063002B2BD17B6883
:101818001B685B6803F48063002B24D17B681B681A
:101828009B6803F04053002B1DD17B681B7E002B67
:1018380019D17B681B685A687B681B6822F0800294
:101848005A607B681B6C23F480527B681A647B683F
:101858001B6C03F48073002B05D17B681B6C43F071
:1018680001027B681A64786800F010FC7B681B68CA
:101878006FF00C021A60FB6803F001037B61BB6820
:1018880003F040033B617B69002B17D03B69002BB9
:1018980014D07B681B681B6803F00103012B0DD172
:1018A8007B681B6C43F480327B681A64786800F0AC
:1018B80029F97B681B686FF001021A60FB6803F066
:1018C80020037B61BB6803F080633B617B69002B6D
:1018D80015D03B69002B12D07B685B6C43F0020289
:1018E8007B685A647B681B686FF020021A6078680E
:1018F80000F012F97B681B686FF020021A6000BFC5
:101908001837BD4680BD000080B588B000AFF860CC
:10191800B9607A6000237B610023FB77FB6893F84A
:101928003C30012B01D10223D0E0FB68012283F86F
:101938003C20FB681B689B6803F00103012B18D04F
:10194800FB681B689A68FB681B6842F001029A6092
:10195800604B1B68604AA2FB03239A0C13465B008A
:1019680013447B6102E07B69013B7B617B69002B4F
:10197800F9D1FB681B689B6803F48073B3F5807F1B
:1019880007D1FB681B689A68FB681B6822F48072A1
:101998009A60FB681B689B6803F00103012B40F009
:1019A8008880FB681B6C23F4E06323F0010343F495
:1019B8008072FB681A64FB681B685B6803F48063C9
:1019C800002B07D0FB681B6C23F4405343F4805270
:1019D800FB681A64FB681B6C03F48053B3F5805FE3
:1019E80006D1FB685B6C23F00602FB685A6402E0D0
:1019F800FB6800225A64FB68002283F83C20374BBE
:101A0800BB61FB689B6B364ADA63FB689B6B354AA4
:101A18001A64FB689B6B344ADA64FB681B686FF0D6
:101A280022021A60FB681B685A68FB681B6842F050
:101A380080625A60FB681B689A68FB681B6842F4FE
:101A480080729A60FB68986BFB681B684C33194678
:101A5800BA687B6800F0E4FC0346FB77BB695B6807
:101A680003F01F03002B0FD1FB681B689B6803F072
:101A78004053002B29D1FB681B689A68FB681B68D8
:101A880042F080429A6020E0FB681B68174A934244
:101A98001BD1FB681B689B6803F04053002B14D1D3
:101AA800FB681B689A68FB681B6842F080429A6072
:101AB8000BE0FB681B6C43F01002FB681A64FB68C0
:101AC8005B6C43F00102FB685A64FB7F18462037C1
:101AD800BD4680BD2C00002083DE1B43002301404F
:101AE800911F00084B2000086720000800200140D3
:101AF80080B483B000AF786000BF0C37BD465DF896
:101B0800047B704780B483B000AF786000BF0C37A7
:101B1800BD465DF8047B704780B483B000AF786041
:101B280000BF0C37BD465DF8047B704780B485B0B4
:101B380000AF786039600023BB607B6893F83C3065
:101B4800012B01D1022313E17B68012283F83C2099
:101B58003B681B68092B25D97B681B68D9683B68DB
:101B68001B689BB21A4613465B0013441E3B0722B0
:101B780002FA03F3DA437B681B680A40DA607B6881
:101B88001B68D9683B689A683B681B689BB2184613
:101B980003465B0003441E3B9A407B681B680A436C
:101BA800DA6022E07B681B6819693B681B689BB296
:101BB8001A4613465B001344072202FA03F3DA437A
:101BC8007B681B680A401A617B681B6819693B6857
:101BD8009A683B681B689BB2184603465B0003443F
:101BE8009A407B681B680A431A613B685B68062B4E
:101BF80024D87B681B68596B3B685A6813469B005E
:101C08001344053B1F2202FA03F3DA437B681B687F
:101C18000A405A637B681B68596B3B681B689BB218
:101C280018463B685A6813469B001344053B00FA64
:101C380003F27B681B680A435A634CE03B685B68A5
:101C48000C2B24D87B681B68196B3B685A681346B1
:101C58009B001344233B1F2202FA03F3DA437B68F9
:101C68001B680A401A637B681B68196B3B681B6812
:101C78009BB218463B685A6813469B001344233BA3
:101C880000FA03F27B681B680A431A6323E07B6847
:101C98001B68D96A3B685A6813469B001344413B4A
:101CA8001F2202FA03F3DA437B681B680A40DA62F0
:101CB8007B681B68D96A3B681B689BB218463B68FF
:101CC8005A6813469B001344413B00FA03F27B68B1
:101CD8001B680A43DA62294BFB607B681B68284A49
:101CE80093420FD13B681B68122B0BD1FB685B68D2
:101CF80023F40002FB685A60FB685B6843F48002C7
:101D0800FB685A607B681B681D4A93422BD13B686D
:101D18001B681C4A934203D03B681B68112B22D1D5
:101D2800FB685B6823F48002FB685A60FB685B68A9
:101D380043F40002FB685A603B681B68114A9342EF
:101D480011D1114B1B68114AA2FB03239A0C1346AD
:101D58009B0013445B00BB6002E0BB68013BBB60B7
:101D6800BB68002BF9D17B68002283F83C20002354
:101D780018461437BD465DF8047B704700230140C0
:101D880000200140120000102C00002083DE1B43BD
:101D980080B485B000AF7860794BFB60FB685B6806
:101DA80023F44032FB685A60FB685A687B685B68BA
:101DB8001A43FB685A607B681B685A687B681B6813
:101DC80022F480725A607B681B6859687B681B69BB
:101DD8001A027B681B680A435A607B681B685A684A
:101DE8007B681B6822F040725A607B681B685968E0
:101DF8007B689A687B681B680A435A607B681B6823
:101E08009A687B681B6822F400629A607B681B688A
:101E180099687B68DA687B681B680A439A607B6804
:101E28009B6A584A934222D07B681B689A687B68F1
:101E38001B6822F070629A607B681B6899687B68EF
:101E48009A6A7B681B680A439A607B681B689A6871
:101E58007B681B6822F040529A607B681B6899680F
:101E68007B68DA6A7B681B680A439A600FE07B68C4
:101E78001B689A687B681B6822F070629A607B68AE
:101E88001B689A687B681B6822F040529A607B68DE
:101E98001B689A687B681B6822F002029A607B685C
:101EA8001B6899687B681B7E5A007B681B680A431D
:101EB8009A607B6893F82030002B1BD07B681B68E6
:101EC8005A687B681B6842F400625A607B681B682A
:101ED8005A687B681B6822F460425A607B681B68FA
:101EE80059687B685B6A013B5A037B681B680A4335
:101EF8005A6007E07B681B685A687B681B6822F495
:101F080000625A607B681B68DA6A7B681B6822F487
:101F18007002DA627B681B68D96A7B68DB69013BFF
:101F28001A057B681B680A43DA627B681B689A6833
:101F38007B681B6822F400729A607B681B6899684A
:101F48007B6893F830305A027B681B680A439A60B2
:101F58007B681B689A687B681B6822F480629A60B9
:101F68007B681B6899687B685B699A027B681B6859
:101F78000A439A6000BF1437BD465DF8047B70477A
:101F8800002301400100000F80B584B000AF7860E5
:101F98007B689B6BFB60FB681B6C03F05003002B9A
:101FA8003CD1FB681B6C43F40072FB681A64FB6845
:101FB8001B689B6803F04053002B2BD1FB681B7EEA
:101FC800002B27D1FB681B68DB6A03F47003002B26
:101FD80006D0FB681B689B6803F48063002B19D14B
:101FE800FB681B685A68FB681B6822F020025A606D
:101FF800FB681B6C23F48072FB681A64FB681B6C1B
:1020080003F48053002B05D1FB681B6C43F00102DD
:10201800FB681A64F868FEF771FA0EE0FB681B6C3F
:1020280003F01003002B03D0F868FFF775FD04E0F8
:10203800FB689B6BDB6C7868984700BF1037BD4620
:1020480080BD80B584B000AF78607B689B6BFB6017
:10205800F868FFF74DFD00BF1037BD4680BD80B55D
:1020680084B000AF78607B689B6BFB60FB684022A4
:102078001A64FB685B6C43F00402FB685A64F868F6
:10208800FFF74AFD00BF1037BD4680BD80B483B05E
:1020980000AF786000BF0C37BD465DF8047B704721
:1020A80080B485B000AF78607B6803F00703FB60FD
:1020B8000C4BDB68BB60BA684FF6FF031340BB608C
:1020C800FB681A02BB68134343F0BF6343F4003351
:1020D800BB60044ABB68D36000BF1437BD465DF8D7
:1020E800047B704700ED00E080B400AF044BDB6870
:1020F8001B0A03F007031846BD465DF8047B7047CA
:1021080000ED00E080B483B000AF0346FB7197F99F
:102118000730002B0BDBFB7903F01F02074997F907
:1021280007305B09012000FA02F241F8232000BFC2
:102138000C37BD465DF8047B704700BF00E100E046
:1021480080B483B000AF03463960FB7197F907305C
:10215800002B0ADB3B68DAB20C4997F90730120109
:10216800D2B20B4483F800230AE03B68DAB208498C
:10217800FB7903F00F03043B1201D2B20B441A7629
:1021880000BF0C37BD465DF8047B704700E100E0F6
:1021980000ED00E080B489B000AFF860B9607A6003
:1021A800FB6803F00703FB61FB69C3F10703042B1A
:1021B80028BF0423BB61FB690433062B02D9FB69E2
:1021C800033B00E000237B614FF0FF32BB6902FA5A
:1021D80003F3DA43BB681A407B699A404FF0FF313A
:1021E8007B6901FA03F3D9437B680B401343184614
:1021F8002437BD465DF8047B7047000080B582B087
:1022080000AF78607B68013BB3F1807F01D3012385
:102218000FE00A4A7B68013B53600F214FF0FF3003
:10222800FFF78EFF054B00229A60044B07221A60C5
:10223800002318460837BD4680BD00BF10E000E007
:1022480080B582B000AF78607868FFF729FF00BFDB
:102258000837BD4680BD80B586B000AF0346B9607B
:102268007A60FB7300237B61FFF73EFF78617A6831
:10227800B9687869FFF78EFF024697F90F30114663
:102288001846FFF75DFF00BF1837BD4680BD80B513
:1022980082B000AF0346FB7197F907301846FFF785
:1022A80031FF00BF0837BD4680BD80B582B000AFA2
:1022B80078607868FFF7A2FF034618460837BD46DE
:1022C80080BD000080B586B000AF786000237B61D8
:1022D800FFF796F938617B68002B01D1012399E05B
:1022E8007B68022283F835207B68002283F834203B
:1022F8007B681B681A687B681B6822F001021A60F9
:102308000FE0FFF77DF902463B69D31A052B08D980
:102318007B6820225A657B68032283F835200323D3
:1023280078E07B681B681B6803F00103002BE8D189
:102338007B681B681B687B617A69384B13407B613B
:102348007B685A687B689B681A437B68DB681A431A
:102358007B681B691A437B685B691A437B689B69C6
:102368001A437B68DB691A437B681B6A13437A69E3
:1023780013437B617B685B6A042B07D17B68DA6A4D
:102388007B681B6B13437A6913437B617B681B680B
:102398007A691A607B681B685B697B617B6923F0DB
:1023A80007037B617B685B6A7A6913437B617B689F
:1023B8005B6A042B17D17B689B6A7A6913437B613C
:1023C8007B68DB6A002B0ED0786800F06FFA034652
:1023D800002B08D07B6840225A657B68012283F86D
:1023E8003520012316E07B681B687A695A61786892
:1023F80000F026FA0346FB607B68DB6D3F229A40BB
:10240800FB689A607B6800225A657B68012283F822
:102418003520002318461837BD4680BD3F8010F090
:1024280080B586B000AFF860B9607A603B60002381
:10243800FB75FB689B6D3B61FB6893F83430012B9F
:1024480001D1022340E0FB68012283F83420FB68B5
:1024580093F83530DBB2012B2FD1FB68022283F8C9
:102468003520FB6800225A653B687A68B968F868C5
:1024780000F0B8F9FB68DB6D3F229A403B699A602F
:10248800FB681B681A68FB681B6842F016021A6032
:10249800FB681B6C002B07D0FB681B681A68FB687D
:1024A8001B6842F008021A60FB681B681A68FB6820
:1024B8001B6842F001021A6005E0FB68002283F8FD
:1024C80034200223FB75FB7D18461837BD4680BDB6
:1024D80080B586B000AF78600023BB608E4B1B6868
:1024E8008E4AA2FB03239B0A7B617B689B6D3B6141
:1024F8003B691B68FB607B68DB6D08229A40FB68C0
:102508001340002B1AD07B681B681B6803F0040378
:10251800002B13D07B681B681A687B681B6822F045
:1025280004021A607B68DB6D08229A403B699A6056
:102538007B685B6D43F001027B685A657B68DB6DE5
:1025480001229A40FB681340002B12D07B681B685D
:102558005B6903F08003002B0BD07B68DB6D0122E5
:102568009A403B699A607B685B6D43F002027B6826
:102578005A657B68DB6D04229A40FB681340002B88
:1025880012D07B681B681B6803F00203002B0BD07A
:102598007B68DB6D04229A403B699A607B685B6DBF
:1025A80043F004027B685A657B68DB6D10229A4011
:1025B800FB681340002B43D07B681B681B6803F043
:1025C8000803002B3CD07B68DB6D10229A403B69E6
:1025D8009A607B681B681B6803F48023002B18D063
:1025E8007B681B681B6803F40023002B08D17B68F9
:1025F8001B6C002B24D07B681B6C786898471FE005
:102608007B689B6C002B1BD07B689B6C7868984719
:1026180016E07B681B681B6803F48073002B07D1E6
:102628007B681B681A687B681B6822F008021A60BE
:102638007B681B6C002B03D07B681B6C7868984701
:102648007B68DB6D20229A40FB681340002B00F06A
:102658008F807B681B681B6803F01003002B00F059
:1026680087807B68DB6D20229A403B699A607B6893
:1026780093F83530DBB2052B36D17B681B681A68B6
:102688007B681B6822F016021A607B681B685A690F
:102698007B681B6822F080025A617B681B6C002BE8
:1026A80003D17B689B6C002B07D07B681B681A687A
:1026B8007B681B6822F008021A607B68DB6D3F228A
:1026C8009A403B699A607B68012283F835207B68D1
:1026D800002283F834207B681B6D002B7ED07B683A
:1026E8001B6D7868984779E07B681B681B6803F462
:1026F8008023002B1DD07B681B681B6803F4002314
:10270800002B0DD17B685B6C002B31D07B685B6C38
:10271800786898472CE000BF2C000020B5814E1B3C
:102728007B68DB6B002B23D07B68DB6B7868984772
:102738001EE07B681B681B6803F48073002B0FD1B5
:102748007B681B681A687B681B6822F010021A6095
:102758007B68012283F835207B68002283F83420C7
:102768007B68DB6B002B03D07B68DB6B7868984752
:102778007B685B6D002B32D07B685B6D03F00103D7
:10278800002B22D07B68052283F835207B681B68E4
:102798001A687B681B6822F001021A60BB68013363
:1027A800BB607A699A4207D37B681B681B6803F091
:1027B8000103002BF2D100E000BF7B68012283F8FF
:1027C80035207B68002283F834207B68DB6C002B83
:1027D80005D07B68DB6C7868984700E000BF183745
:1027E800BD4680BD80B485B000AFF860B9607A603E
:1027F8003B60FB681B681A68FB681B6822F4802230
:102808001A60FB681B683A685A60FB689B68402B33
:1028180008D1FB681B687A689A60FB681B68BA680D
:10282800DA6007E0FB681B68BA689A60FB681B6897
:102838007A68DA6000BF1437BD465DF8047B7047DC
:1028480080B485B000AF78607B681B68DBB2103B52
:10285800144AA2FB03231B09FB60134AFB681344B9
:102868001B781A467B68DA65FB68032B09D97B68F5
:102878001B6823F47F7323F003031A1D7B689A6592
:1028880007E07B681B6823F47F7323F003037A68EF
:1028980093657B689B6D18461437BD465DF8047BCD
:1028A800704700BFABAAAAAA3499000880B485B0C3
:1028B80000AF78600023FB737B689B6ABB607B6812
:1028C8009B69002B1FD1BB68032B56D801A252F875
:1028D80023F000BFED280008FF280008ED280008B5
:1028E800832900087B68DB6A03F08073002B46D0DD
:1028F8000123FB7343E07B68DB6AB3F1C07F40D1FF
:102908000123FB733DE07B689B69B3F5005F21D130
:10291800BB68032B37D801A252F823F035290008E9
:102928003B290008352900084D2900080123FB73BD
:1029380030E07B68DB6A03F08073002B25D001232D
:10294800FB7322E07B68DB6AB3F1C07F1FD10123F0
:10295800FB731CE0BB68022B03D9BB68032B03D0B5
:1029680018E00123FB7315E07B68DB6A03F08073D2
:10297800002B0ED00123FB730BE000BF0AE000BF61
:1029880008E000BF06E000BF04E000BF02E000BFAF
:1029980000E000BFFB7B18461437BD465DF8047B9A
:1029A800704700BF80B489B000AF786039600023F9
:1029B8007B6100233B610023BB610023FB6159E17C
:1029C8000122FB6902FA03F37B613B681B687A69A1
:1029D80013403B613A697B699A4240F048813B6801
:1029E8005B6803F00303012B05D03B685B6803F0C9
:1029F8000303022B30D17B689B68BB61FB695B00DA
:102A0800032202FA03F3DB43BA691340BB613B6854
:102A1800DA68FB695B0002FA03F3BA691343BB6126
:102A28007B68BA699A607B685B68BB610122FB6955
:102A380002FA03F3DB43BA691340BB613B685B6886
:102A48001B0903F00102FB6902FA03F3BA69134395
:102A5800BB617B68BA695A603B685B6803F0030333
:102A6800032B17D07B68DB68BB61FB695B00032223
:102A780002FA03F3DB43BA691340BB613B689A6807
:102A8800FB695B0002FA03F3BA691343BB617B6815
:102A9800BA69DA603B685B6803F00303022B23D151
:102AA800FB69DA087B68083253F82230BB61FB699E
:102AB80003F007039B000F2202FA03F3DB43BA6912
:102AC8001340BB613B681A69FB6903F007039B006D
:102AD80002FA03F3BA691343BB61FB69DA087B683E
:102AE8000832B96943F822107B681B68BB61FB692F
:102AF8005B00032202FA03F3DB43BA691340BB61AC
:102B08003B685B6803F00302FB695B0002FA03F3AE
:102B1800BA691343BB617B68BA691A603B685B6832
:102B280003F44033002B00F0A2800023FB60574BD6
:102B38005B6C564A43F480435364544B5B6C03F418
:102B48008043FB60FB68524AFB699B08023352F8DA
:102B58002330BB61FB6903F003039B000F2202FAD9
:102B680003F3DB43BA691340BB617B68494A93426C
:102B780019D07B68484A934213D07B68474A9342EE
:102B88000DD07B68464A934207D07B68454A9342FA
:102B980001D1042308E0072306E0032304E002230D
:102BA80002E0012300E00023FA6902F00302920028
:102BB8009340BA691343BB613549FB699B080233EB
:102BC800BA6941F82320384B9B68BB613B69DB43FA
:102BD800BA691340BB613B685B6803F48013002B40
:102BE80003D0BA693B691343BB612F4ABB69936041
:102BF8002D4BDB68BB613B69DB43BA691340BB61A2
:102C08003B685B6803F40013002B03D0BA693B6987
:102C18001343BB61244ABB69D360234B5B68BB6128
:102C28003B69DB43BA691340BB613B685B6803F4EB
:102C38000033002B03D0BA693B691343BB611A4ABE
:102C4800BB695360184B1B68BB613B69DB43BA69BE
:102C58001340BB613B685B6803F48033002B03D0EF
:102C6800BA693B691343BB610F4ABB691360FB69CF
:102C78000133FB61FB690F2B7FF6A2AE00BF00BFDB
:102C88002437BD465DF8047B704700BF003802401A
:102C980000380140000002400004024000080240E1
:102CA800000C024000100240003C014080B483B098
:102CB80000AF78600B467B8013467B707B78002BD7
:102CC80003D07A887B689A6103E07B881A047B6862
:102CD8009A6100BF0C37BD465DF8047B704780B42D
:102CE80085B000AF78600B467B807B685B69FB60D2
:102CF8007A88FB6813401A04FB68D9437B880B4029
:102D08001A437B689A6100BF1437BD465DF8047B9F
:102D18007047000080B584B000AF78607B68002BF6
:102D280001D101232BE17B6893F83D30DBB2002B06
:102D380006D17B68002283F83C207868FEF7C0FA49
:102D48007B68242283F83D207B681B681A687B68AF
:102D58001B6822F001021A607B681B681A687B688E
:102D68001B6842F400421A607B681B681A687B681B
:102D78001B6822F400421A6001F092FFF8607B6839
:102D88005B68814A934207D8FB68804A934294BFA4
:102D980001230023DBB206E0FB687D4A934294BF1F
:102DA80001230023DBB2002B01D00123E7E0FB68FD
:102DB800784AA2FB03239B0CBB607B681B685B689B
:102DC80023F03F017B681B68BA680A435A607B6836
:102DD8001B681B6A23F03F017B685B686A4A934261
:102DE80002D8BB68013309E0BB684FF4967202FB56
:102DF80003F3694AA2FB03239B0901337A6812682B
:102E08000B4313627B681B68DB6923F44F4222F093
:102E1800FF027B685B685C498B4219D8FB68591EC6
:102E28007B685B685B00B1FBF3F3591C40F6FC73ED
:102E38000B40002B0AD0FB68591E7B685B685B005F
:102E4800B1FBF3F30133C3F30B0351E004234FE069
:102E58007B689B68002B11D1FB68581E7B685968FA
:102E68000B465B000B44B0FBF3F30133C3F30B03D6
:102E7800002B0CBF01230023DBB212E0FB68581EB5
:102E88007B6859680B469B000B4499000B44B0FBC8
:102E9800F3F30133C3F30B03002B0CBF012300230F
:102EA800DBB2002B01D0012322E07B689B68002B5A
:102EB8000ED1FB68581E7B6859680B465B000B44B3
:102EC800B0FBF3F30133C3F30B0343F400430FE008
:102ED800FB68581E7B6859680B469B000B44990099
:102EE8000B44B0FBF3F30133C3F30B0343F4404348
:102EF800796809681343CB617B681B681B6823F0FA
:102F0800C0017B68DA697B681B6A1A437B681B68A7
:102F18000A431A607B681B689B6823F4034323F009
:102F2800FF037A6811697A68D26811437A6812686F
:102F38000B4393607B681B68DB6823F0FF017B68A9
:102F48005A697B689B691A437B681B680A43DA6085
:102F58007B681B681A687B681B6842F001021A606C
:102F68007B6800221A647B68202283F83D207B68F6
:102F780000221A637B68002283F83E20002318464B
:102F88001037BD4680BD00BFA08601007F841E00AB
:102F9800FF083D0083DE1B43D34D621080B586B029
:102FA80002AF78607B68002B01D1012301E17B68C7
:102FB8001B68BB607B6893F89534DBB2002B06D1A5
:102FC8007B68002283F89424786806F035F97B68DA
:102FD800032283F89524BB68B3F1A04F02D17B6824
:102FE80000229A717B681B68184602F08CFC7B688B
:102FF80018687B681A7C8DF8002004330ECB02F029
:103008006BFB0346002B05D07B68022283F89524CE
:103018000123CEE07B681B680021184602F084FC7F
:103028000346002B05D07B68022283F895240123F0
:10303800BFE00023FB734AE0FA7B79681346DB00A4
:1030480013449B000B44153301221A70FA7B7968EC
:103058001346DB0013449B000B441433FA7B1A70AD
:10306800FA7BFB7B98B279681346DB0013449B001C
:103078000B442E3302461A80FA7B79681346DB002C
:1030880013449B000B44183300221A70FA7B7968AA
:103098001346DB0013449B000B441C3300221A60C8
:1030A800FA7B79681346DB0013449B000B442033FA
:1030B80000221A60FA7B79681346DB0013449B00F0
:1030C8000B44243300221A60FB7B0133FB737B68BB
:1030D8001B79FA7B9A42AFD30023FB7344E0FA7B57
:1030E80079681346DB0013449B000B4403F2552315
:1030F80000221A70FA7B79681346DB0013449B00A0
:103108000B4403F51573FA7B1A70FA7B796813463A
:10311800DB0013449B000B4403F5167300221A705E
:10312800FA7B79681346DB0013449B000B4403F5D4
:10313800177300221A60FA7B79681346DB00134480
:103148009B000B4403F5187300221A60FA7B796818
:103158001346DB0013449B000B4403F5197300224C
:103168001A60FB7B0133FB737B681B79FA7B9A42FD
:10317800B5D37B6818687B681A7C8DF80020043307
:103188000ECB02F01DFC0346002B05D07B68022203
:1031980083F8952401230CE07B6800225A747B682D
:1031A800012283F895247B681B68184603F067FCA6
:1031B800002318461037BD4680BD80B584B000AFE7
:1031C80078607B681B68FB607B6893F89434012BFC
:1031D80001D1022322E07B68012283F89424FB6852
:1031E800DB6803F04003002B09D07B685B7B012B75
:1031F80005D1FB689B6B43F48032FB689A637B685C
:103208001B68184602F06EFB7B681B68184603F0C3
:1032180015FC7B68002283F8942400231846103795
:10322800BD4680BD90B58DB000AF78607B681B68E7
:103238003B623B6AFB617B681B68184603F0D3FC62
:103248000346002B40F08C847B681B68184603F00B
:1032580037FC0346002B00F08284FB6903F500630A
:103268009B681B0AC3F30D027B68C3F8D4247B68F0
:103278001B68184603F024FC034603F00203022BE4
:1032880007D17B681B685A697B681B6802F00202D9
:103298005A617B681B68184603F012FC034603F06A
:1032A8001003102B61D17B681B689A697B681B68C7
:1032B80022F010029A613B6A1B6ABB61BB6903F08A
:1032C8000F021346DB0013449B0003F514737A685E
:1032D800134404337B61BB6903F4F013B3F5802F07
:1032E80024D1BA6947F6F0731340002B35D07B69B7
:1032F800D968BB691B099BB2C3F30A039BB21A4680
:10330800386A03F049FA7B69DA68BB691B09C3F3B9
:103318000A031A447B69DA607B695A69BB691B092D
:10332800C3F30A031A447B695A6116E0BB6903F4C4
:10333800F013B3F5402F10D17B6803F29C430822A9
:103348001946386A03F028FA7B695A69BB691B0970
:10335800C3F30A031A447B695A617B681B689A693C
:103368007B681B6842F010029A617B681B681846EC
:1033780003F0A6FB034603F40023B3F5002F40F047
:10338800A78000237B627B681B68184603F0ABFBB1
:10339800B86299E0BB6A03F00103002B00F08E804D
:1033A8007B681B687A6AD2B21146184603F0CFFBD5
:1033B80038613B6903F00103002B0CD07B6A5A018A
:1033C800FB69134403F530631A4601239360796A55
:1033D800786800F0A3FE3B6903F00803002B0CD0CB
:1033E8007B6A5A01FB69134403F530631A460823C4
:1033F8009360796A786800F079FF3B6903F01003FD
:10340800002B08D07B6A5A01FB69134403F530632B
:103418001A46102393603B6903F00203002B30D057
:103428003B6A5B6903F08003802B09D1FB6903F5D4
:1034380000635B68FA6902F5006243F480635360D5
:103448007A6A1346DB0013449B0003F514737A6809
:10345800134404337B617B69DB78012B08D17B69DA
:103468000022DA707B6ADBB21946786805F0E0FF63
:103478007B6A5A01FB69134403F530631A46022339
:1034880093603B6903F02003002B08D07B6A5A0144
:10349800FB69134403F530631A46202393603B69A4
:1034A80003F40053002B09D07B6A5A01FB691344CB
:1034B80003F530631A464FF4005393607B6A013377
:1034C8007B62BB6A5B08BB62BB6A002B7FF462AF9E
:1034D8007B681B68184603F0F3FA034603F480235D
:1034E800B3F5802F40F0DB807B681B68184603F03B
:1034F80014FBB86200237B62CDE0BB6A03F00103D2
:10350800002B00F0C2807B681B687A6AD2B2114631
:10351800184603F03AFB38613B6903F00103002BBE
:1035280057D07B6A03F00F03012202FA03F3FB6012
:10353800FB6903F500635A6BFB68DB43F96901F526
:10354800006113404B637B6A5A01FB69134403F51E
:1035580010631A46012393607B689B79012B32D153
:1035680079687A6A1346DB0013449B000B442033C6
:10357800196878687A6A1346DB0013449B00034491
:103588001C331B68194478687A6A1346DB001344B5
:103598009B000344203319607B6A002B13D17968A0
:1035A8007A6A1346DB0013449B000B4424331B68E0
:1035B800002B08D17B6818687B6803F29C431A4685
:1035C800012103F041FB7B6ADBB21946786805F0FC
:1035D800B4FE3B6903F00803002B08D07B6A5A014C
:1035E800FB69134403F510631A46082393603B698B
:1035F80003F01003002B08D07B6A5A01FB691344BF
:1036080003F510631A46102393603B6903F04003E7
:10361800002B08D07B6A5A01FB69134403F5106339
:103628001A46402393603B6903F00203002B23D022
:10363800796A386A02F028FB7A6A1346DB00134479
:103648009B0010337A68134404337B617B69DB7811
:10365800012B08D17B690022DA707B6ADBB219463C
:10366800786805F0F7FE7B6A5A01FB69134403F595
:1036780010631A46022393603B6903F08003002B12
:1036880003D0796A786800F0BDFC7B6A01337B62FD
:10369800BB6A5B08BB62BB6A002B7FF42EAF7B68FA
:1036A8001B68184603F00CFA034603F00043B3F115
:1036B800004F22D1FB6903F500635B68FA6902F5E4
:1036C800006223F0010353607B6893F8CC34012B2C
:1036D80008D17B68002283F8CC240021786800F0A8
:1036E800A3FE02E0786805F095FE7B681B685A69BE
:1036F8007B681B6802F000425A617B681B681846A9
:1037080003F0DEF9034603F40063B3F5006F12D14A
:10371800FB6903F500639B6803F00103012B02D1E9
:10372800786805F051FE7B681B685A697B681B68DE
:1037380002F400625A617B681B68184603F0C0F9FE
:10374800034603F48053B3F5805F40F0B780FB690C
:1037580003F500635B68FA6902F5006223F0010370
:1037680053607B681B681021184602F08DFA00230D
:10377800FB6246E0FB6A5A01FB69134403F51063D8
:103788001A464FF67F339360FB6A5A01FB6913446C
:1037980003F510631B68FA6A5101FA690A4402F5D5
:1037A800106223F400131360FB6A5A01FB69134487
:1037B80003F530631A464FF67F339360FB6A5A016C
:1037C800FB69134403F530631B68FA6A5101FA690F
:1037D8000A4402F5306223F400131360FB6A5A01AD
:1037E800FB69134403F530631B68FA6A5101FA69EF
:1037F8000A4402F5306243F000631360FB6A013348
:10380800FB627B681B791A46FB6A9342B2D3FB6959
:1038180003F50063DB69FA6902F5006243F00113FE
:10382800D3617B68DB7B002B16D0FB6903F5006353
:10383800D3F88430FA6902F5006243F00B03C2F84A
:103848008430FB6903F500635B6CFA6902F500627A
:1038580043F00B03536415E0FB6903F500635B69F0
:10386800FA6902F5006243F4005343F02B035361F5
:10387800FB6903F500631B69FA6902F5006243F00E
:103888000B031361FB6903F500631B68FA6902F512
:10389800006223F4FE6313607B6818687B6899797B
:1038A8007B6803F29C431A4603F0CEF97B681B68D9
:1038B8005A697B681B6802F480525A617B681B68EE
:1038C800184603F0FDF8034603F40053B3F5005F10
:1038D80023D17B681B68184603F093F97B681B6843
:1038E800184602F04AFA03461A467B68DA717B6882
:1038F8001C6801F0C9F901467B68DB791A46204645
:1039080001F04EFF786805F040FD7B681B685A6936
:103918007B681B6802F400525A617B681B68184672
:1039280003F0CEF8034603F00803082B0AD17868A1
:1039380005F01DFD7B681B685A697B681B6802F0EF
:1039480008025A617B681B68184603F0B9F80346F9
:1039580003F08003802B23D13B6A9B6923F080020C
:103968003B6A9A6101237B6214E079687A6A13469C
:10397800DB0013449B000B4403F257231B78012BF5
:1039880005D17B6ADBB21946786800F00AFB7B6ACE
:1039980001337B627B681B791A467B6A9342E4D3C6
:1039A8007B681B68184603F08BF8034603F4801302
:1039B800B3F5801F3CD101237B622BE07B6A5A015F
:1039C800FB69134403F510631B68BB6179687A6A65
:1039D8001346DB0013449B000B4418331B78012B60
:1039E80015D1BB69002B12DA79687A6A1346DB00B5
:1039F80013449B000B44173301221A707B6ADBB215
:103A080063F07F03DBB21946786800F0CAFA7B6A74
:103A180001337B627B681B791A467B6A9342CDD35C
:103A28007B681B685A697B681B6802F480125A61BC
:103A38007B681B68184603F043F8034603F4001339
:103A4800B3F5001F56D101237B6245E07B6A5A011A
:103A5800FB69134403F530631B68BB6179687A6AB4
:103A68001346DB0013449B000B4403F516731B78C5
:103A7800012B2ED1BB69002B2BDABB691A0C7B6892
:103A8800D3F8D434534003F00103002B21D17968D3
:103A98007A6A1346DB0013449B000B4403F2572356
:103AA80001221A703B6A9B6943F080023B6A9A6163
:103AB8003B6A5B6903F08003002B0AD1FB6903F5BD
:103AC80000635B68FA6902F5006243F400735360AF
:103AD80008E07B6A01337B627B681B791A467B6A44
:103AE8009342B3D37B681B685A697B681B6802F4EE
:103AF80000125A617B681B68184602F0E1FF034612
:103B080003F08043B3F1804F0AD1786805F0B4FC24
:103B18007B681B685A697B681B6802F080425A619F
:103B28007B681B68184602F0CBFF034603F00403CA
:103B3800042B15D17B681B685B68BB61BB6903F00C
:103B48000403002B02D0786805F0A4FC7B681B688E
:103B580059687B681B68BA690A435A6000E000BF6D
:103B68003437BD4690BD80B582B000AF78600B4653
:103B7800FB707B6893F89434012B01D1022312E087
:103B88007B68012283F894247B68FA785A747B68EE
:103B98001B68FA781146184602F02AFF7B68002253
:103BA80083F89424002318460837BD4680BD80B5A5
:103BB80084B000AF7860084611461A460346FB7089
:103BC8000B463B801346BB700023FB7297F903300A
:103BD800002B0FDAFB7803F00F021346DB001344C7
:103BE8009B0010337A6813440433FB60FB6801229E
:103BF8005A700FE0FB7803F00F021346DB00134402
:103C08009B0003F514737A6813440433FB60FB6864
:103C180000225A70FB7803F00F03DAB2FB681A70BF
:103C28003B88C3F30A02FB689A60FB68BA781A718A
:103C3800FB685B78002B04D0FB681B781A46FB688E
:103C48005A83BB78022B02D1FB6800225A717B6829
:103C580093F89434012B01D102230EE07B680122F2
:103C680083F894247B681B68F968184602F0AAF860
:103C78007B68002283F89424FB7A18461037BD46E7
:103C880080BD80B584B000AF78600B46FB7097F9B3
:103C98000330002B0FDAFB7803F00F021346DB002A
:103CA80013449B0010337A6813440433FB60FB68A9
:103CB80001225A700FE0FB7803F00F021346DB0075
:103CC80013449B0003F514737A6813440433FB60B0
:103CD800FB6800225A70FB7803F00F03DAB2FB6826
:103CE8001A707B6893F89434012B01D102230EE0FB
:103CF8007B68012283F894247B681B68F96818465E
:103D080002F0E8F87B68002283F894240023184620
:103D18001037BD4680BD80B586B000AFF8607A60C8
:103D28003B600B46FB72FB7A03F00F021346DB0085
:103D380013449B0003F51473FA68134404337B613E
:103D48007B697A68DA607B693A681A617B69002264
:103D58005A617B6900225A70FB7A03F00F03DAB2CA
:103D68007B691A70FB689B79012B02D17A687B69A1
:103D7800DA61FB681868FB689B791A46796902F072
:103D880085F9002318461837BD4680BD80B483B036
:103D980000AF78600B46FB70FB7803F00F02796880
:103DA8001346DB0013449B000B4403F51A731B688E
:103DB80018460C37BD465DF8047B704780B586B061
:103DC80000AFF8607A603B600B46FB72FB7A03F049
:103DD8000F021346DB0013449B001033FA681344A8
:103DE80004337B617B697A68DA607B693A681A61B7
:103DF8007B6900225A617B6901225A70FB7A03F0C1
:103E08000F03DAB27B691A70FB689B79012B02D128
:103E18007A687B69DA61FB681868FB689B791A46DF
:103E2800796902F033F9002318461837BD4680BD7A
:103E380080B584B000AF78600B46FB70FB7803F068
:103E48000F037A681279934201D901234FE097F959
:103E58000330002B0FDAFB7803F00F021346DB0068
:103E680013449B0010337A6813440433FB60FB68E7
:103E780001225A700DE0FA781346DB0013449B00C8
:103E880003F514737A6813440433FB60FB6800225B
:103E98005A70FB6801229A70FB7803F00F03DAB2BC
:103EA800FB681A707B6893F89434012B01D10223C4
:103EB8001DE07B68012283F894247B681B68F968FD
:103EC800184602F0C1FCFB7803F00F03002B09D160
:103ED8007B6818687B6899797B6803F29C431A466B
:103EE80002F0B2FE7B68002283F89424002318466F
:103EF8001037BD4680BD80B584B000AF78600B46F2
:103F0800FB70FB7803F00F037A681279934201D9AA
:103F1800012342E097F90330002B0FDAFB7803F016
:103F28000F021346DB0013449B0010337A681344D6
:103F38000433FB60FB6801225A700FE0FB7803F042
:103F48000F021346DB0013449B0003F514737A68D1
:103F580013440433FB60FB6800225A70FB6800229C
:103F68009A70FB7803F00F03DAB2FB681A707B686B
:103F780093F89434012B01D102230EE07B680122CF
:103F880083F894247B681B68F968184602F0CAFC19
:103F98007B68002283F89424002318461037BD4616
:103FA80080BD80B584B000AF78600B46FB7097F990
:103FB8000330002B0CDAFB7803F00F021346DB000A
:103FC80013449B0010337A6813440433FB600CE0FD
:103FD800FB7803F00F021346DB0013449B0003F544
:103FE80014737A6813440433FB607B681B68F968B0
:103FF800184602F0E9FA0346FB72FB7A18461037B6
:10400800BD4680BD80B58AB002AF786039607B68F4
:104018001B687B617B693B613A681346DB0013448C
:104028009B0010337A6813440433FB60FB685A69B9
:10403800FB681B699A4201D901236BE0FB681A6986
:10404800FB685B69D31AFB61FB689B68FA699A4253
:1040580002D9FB689B68FB61FB6903339B08BB6162
:104068002AE0FB681A69FB685B69D31AFB61FB6885
:104078009B68FA699A4202D9FB689B68FB61FB69F5
:1040880003339B08BB61FB68D9683B68DAB2FB69FC
:1040980098B27B689B7900930346786902F03EFBEF
:1040A800FB68DA68FB691A44FB68DA60FB685A69DE
:1040B800FB691A44FB685A613B685A013B6913441F
:1040C80003F510639B699BB2BA699A4209D8FB68E9
:1040D8005A69FB681B699A4203D2FB681B69002B6B
:1040E800BFD1FB681A69FB685B699A4211D83B68C3
:1040F80003F00F03012202FA03F3BB603B6903F5E7
:1041080000635A6BBB68DB43396901F500611340F2
:104118004B63002318462037BD4680BD80B588B064
:1041280000AF786039607B681B68FB61FB69BB6125
:10413800FB693C3304331B687B613B685A01BB69EC
:10414800134403F530639B683B617B689B79012BC3
:104158007BD13B6903F00803002B15D07B69614ACA
:10416800934240F2B9803B6903F40043002B00F00E
:10417800B3803B685A01BB69134403F530631A46A0
:104188004FF400439360A7E03B6903F02003002B42
:1041980009D03B685A01BB69134403F530631A46DA
:1041A8002023936098E03B6903F02803002B40F03C
:1041B80093807B694B4A93420FD93B6903F40043D0
:1041C800002B0AD03B685A01BB69134403F53063DE
:1041D8001A464FF4004393607EE03A681346DB00CA
:1041E80013449B0003F514737A6813440433FB608B
:1041F800FB681A6A3B685901BB690B4403F53063D5
:104208001B69C3F31203D21AFB685A613B68002B7F
:1042180014D1FB681B69002B09D17B6818687B687F
:1042280003F29C431A46012102F00EFD06E0FB68EA
:10423800DA68FB685B691A44FB68DA603B68DBB2E2
:104248001946786805F05EF846E07B69264A93428D
:1042580024D13B6903F40043002B0AD03B685A0180
:10426800BB69134403F530631A464FF40043936067
:1042780032E03B6903F02003002B08D03B685A0169
:10428800BB69134403F530631A46202393603B68E7
:10429800DBB21946786805F035F81DE03B68002B5D
:1042A80014D179683A681346DB0013449B000B4429
:1042B80003F519731B68002B08D17B6818687B68A5
:1042C80003F29C431A46002102F0BEFC3B68DBB2B5
:1042D8001946786805F016F8002318462037BD46B9
:1042E80080BD00BF0A30544F0A31544F80B586B0A4
:1042F80000AF786039607B681B687B617B693B61D4
:104308007B693C3304331B68FB603B685A013B699B
:10431800134403F530639B68BB60FB68154A9342FE
:104328000ED9BB6803F40043002B09D03B685A013F
:104338003B69134403F530631A464FF40043936016
:10434800786804F0CDFFFB680A4A93420CD97B6871
:104358009B79012B08D17B6818687B6803F29C4322
:104368001A46012102F070FC002318461837BD4692
:1043780080BD00BF0A30544F80B485B000AF78606C
:104388000B46FB7013463B807B681B685B6ABB600F
:10439800FB78002B07D13B8819047B681B68BA6837
:1043A8000A439A6228E07B681B689B6A1B0CBA6800
:1043B8001344BB600023FB730DE07B681A68FB7B2A
:1043C80040339B0013445B681B0CBA681344BB6002
:1043D800FB7B0133FB73FA7BFB78013B9A42ECD3FE
:1043E8003B8818047B681968FB78013BBA6802436C
:1043F80040339B000B445A60002318461437BD46CF
:104408005DF8047B704780B483B000AF78600B46DA
:104418007B807B681B687A885A62002318460C37B1
:10442800BD465DF8047B704780B483B000AF786008
:104438000B46FB7000BF0C37BD465DF8047B704728
:1044480080B586B000AF78607B68002B01D101236E
:1044580067E27B681B6803F00103002B75D0884B6B
:104468009B6803F00C03042B0CD0854B9B6803F06E
:104478000C03082B12D1824B5B6803F48003B3F55D
:10448800800F0BD17E4B1B6803F40033002B5BD0ED
:104498007B685B68002B57D1012342E27B685B682D
:1044A800B3F5803F06D1764B1B68754A43F48033D9
:1044B80013601DE07B685B68B3F5A02F0CD1704BCF
:1044C8001B686F4A43F4802313606D4B1B686C4A6A
:1044D80043F4803313600BE0694B1B68684A23F48C
:1044E80080331360664B1B68654A23F4802313608E
:1044F8007B685B68002B13D0FDF782F8386108E011
:10450800FDF77EF802463B69D31A642B01D90323D1
:1045180007E25B4B1B6803F40033002BF0D014E078
:10452800FDF76EF8386108E0FDF76AF802463B6966
:10453800D31A642B01D90323F3E1514B1B6803F40D
:104548000033002BF0D100E000BF7B681B6803F04C
:104558000203002B63D04A4B9B6803F00C03002B2B
:104568000BD0474B9B6803F00C03082B1CD1444B22
:104578005B6803F48003002B16D1414B1B6803F0E2
:104588000203002B05D07B68DB68012B01D00123D7
:10459800C7E13B4B1B6823F0F8027B681B69DB0013
:1045A800374913430B603AE07B68DB68002B20D067
:1045B800344B01221A60FDF723F8386108E0FDF753
:1045C8001FF802463B69D31A022B01D90323A8E13D
:1045D8002B4B1B6803F00203002BF0D0284B1B6801
:1045E80023F0F8027B681B69DB00254913430B6045
:1045F80015E0244B00221A60FDF702F8386108E044
:10460800FCF7FEFF02463B69D31A022B01D90323AC
:1046180087E11B4B1B6803F00203002BF0D17B687A
:104628001B6803F00803002B36D07B685B69002BFE
:1046380016D0154B01221A60FCF7E2FF386108E03A
:10464800FCF7DEFF02463B69D31A022B01D903238C
:1046580067E10B4B5B6F03F00203002BF0D01BE00C
:10466800094B00221A60FCF7CBFF38610EE0FCF71B
:10467800C7FF02463B69D31A022B07D9032350E12F
:104688000038024000004742800E4742884B5B6F6B
:1046980003F00203002BEAD17B681B6803F00403D4
:1046A800002B00F097800023FB75814B1B6C03F0F7
:1046B8008053002B0FD10023BB607D4B1B6C7C4AC1
:1046C80043F0805313647A4B1B6C03F08053BB6038
:1046D800BB680123FB75774B1B6803F48073002BC1
:1046E80018D1744B1B68734A43F480731360FCF74A
:1046F80087FF386108E0FCF783FF02463B69D31A5D
:10470800022B01D903230CE16A4B1B6803F4807365
:10471800002BF0D07B689B68012B06D1644B1B6F84
:10472800634A43F0010313671CE07B689B68052B11
:104738000CD15F4B1B6F5E4A43F0040313675C4B5D
:104748001B6F5B4A43F0010313670BE0584B1B6F69
:10475800574A23F001031367554B1B6F544A23F044
:10476800040313677B689B68002B15D0FCF748FF90
:1047780038610AE0FCF744FF02463B69D31A41F26C
:104788008832934201D90323CBE0494B1B6F03F0D6
:104798000203002BEED014E0FCF732FF38610AE088
:1047A800FCF72EFF02463B69D31A41F28832934246
:1047B80001D90323B5E03E4B1B6F03F00203002B26
:1047C800EED1FB7D012B05D1394B1B6C384A23F008
:1047D800805313647B689B69002B00F0A180344BE5
:1047E8009B6803F00C03082B5CD07B689B69022B49
:1047F80041D1314B00221A60FCF702FF386108E012
:10480800FCF7FEFE02463B69D31A022B01D90323AB
:1048180087E0274B1B6803F00073002BF0D17B68FF
:10482800DA697B681B6A1A437B685B6A9B011A43D7
:104838007B689B6A5B08013B1B041A437B68DB6A45
:104848001B061B4913434B601B4B01221A60FCF7E4
:10485800D7FE386108E0FCF7D3FE02463B69D31A5D
:10486800022B01D903235CE0114B1B6803F0007392
:10487800002BF0D054E0104B00221A60FCF7C0FE69
:10488800386108E0FCF7BCFE02463B69D31A022BEC
:1048980001D9032345E0064B1B6803F00073002B86
:1048A800F0D13DE07B689B69012B07D1012338E0FB
:1048B8000038024000700040600047421B4B5B68B4
:1048C800FB607B689B69012B28D0FB6803F480029E
:1048D8007B68DB699A4221D1FB6803F03F027B6861
:1048E8001B6A9A421AD1FA6847F6C07313407A686D
:1048F800526A9201934211D1FB6803F440327B68FB
:104908009B6A5B08013B1B049A4207D1FB6803F0D2
:1049180070627B68DB6A1B069A4201D0012300E0C3
:10492800002318461837BD4680BD00BF0038024036
:1049380080B584B000AF786039607B68002B01D106
:104948000123CCE0684B1B6803F007033A689A42DE
:104958000CD9654B3A68D2B21A70634B1B6803F0E6
:1049680007033A689A4201D00123B8E07B681B68C4
:1049780003F00203002B20D07B681B6803F00403BC
:10498800002B05D0594B9B68584A43F4E053936079
:104998007B681B6803F00803002B05D0534B9B680A
:1049A800524A43F460439360504B9B6823F0F002F3
:1049B8007B689B684D4913438B607B681B6803F0D9
:1049C8000103002B44D07B685B68012B07D1474B60
:1049D8001B6803F40033002B19D101237FE07B68A7
:1049E8005B68022B03D07B685B68032B07D13F4BC6
:1049F8001B6803F00073002B09D101236FE03B4BC8
:104A08001B6803F00203002B01D1012367E0374B39
:104A18009B6823F003027B685B68344913438B600F
:104A2800FCF7EEFDF8600AE0FCF7EAFD0246FB68D9
:104A3800D31A41F28832934201D903234FE02B4B1A
:104A48009B6803F00C027B685B689B009A42EBD181
:104A5800254B1B6803F007033A689A420CD2224B95
:104A68003A68D2B21A70204B1B6803F007033A6801
:104A78009A4201D0012332E07B681B6803F00403EB
:104A8800002B08D0194B9B6823F4E0527B68DB6845
:104A9800164913438B607B681B6803F00803002BDF
:104AA80009D0124B9B6823F460427B681B69DB00CA
:104AB8000E4913438B6000F021F802460B4B9B68AC
:104AC8001B0903F00F030A49CB5C22FA03F3094AD6
:104AD8001360094B1B681846FCF74EFD0023184667
:104AE8001037BD4680BD00BF003C02400038024080
:104AF8001C9900082C000020300000202DE9B04F40
:104B080090B000AF00237B630023FB6300233B636B
:104B18000023BB63594B9B6803F00C03082B0DD093
:104B2800082B00F2A180002B02D0042B03D09BE0BD
:104B3800534BBB639BE0534BBB6398E04F4B5B68A5
:104B480003F03F037B634D4B5B6803F48003002B4A
:104B580028D04A4B5B689B0900223B627A623B6A19
:104B6800C3F308000021474B03FB01F2002300FBBD
:104B780003F31344434AA0FB0212FA620A46BA62DC
:104B8800FA6A1344FB627B6B0022BB61FA61D7E9C6
:104B98000623D7E90A01FBF71BFB02460B4613461F
:104BA800FB6353E0354B5B689B0900223B617A61EC
:104BB8003B69C3F3080A4FF0000B52465B464FF0BF
:104BC80000004FF00001590141EAD261500102464C
:104BD8000B46B2EB0A0863EB0B094FF000024FF0EB
:104BE80000034FEA891343EA98634FEA8812B2EB4D
:104BF800080463EB09054FF000024FF00003EB00D7
:104C080043EA5473E20014461D4614EB0A033B6062
:104C180045EB0B037B604FF000024FF00003D7E930
:104C2800004529468B02214643EA915321468A02D0
:104C3800104619467B6B0022BB60FA60D7E9022355
:104C4800FBF7C6FA02460B461346FB630B4B5B6841
:104C58001B0C03F0030301335B003B63FA6B3B6BF4
:104C6800B2FBF3F3BB6302E0054BBB6300BFBB6B56
:104C780018464037BD46BDE8B08F00BF0038024037
:104C88000024F40040787D0180B400AF034B1B681A
:104C98001846BD465DF8047B704700BF2C00002015
:104CA80080B500AFFFF7F0FF0246054B9B689B0AF3
:104CB80003F007030349CB5C22FA03F3184680BDCF
:104CC800003802402C99000880B582B000AF7860A7
:104CD8007B68002B01D1012341E07B6893F83D30CC
:104CE800DBB2002B06D17B68002283F83C20786871
:104CF800FCF72EFB7B68022283F83D207B681A684C
:104D08007B6804331946104600F0B2FA7B6801222A
:104D180083F846207B68012283F83E207B680122C5
:104D280083F83F207B68012283F840207B680122BA
:104D380083F841207B68012283F842207B680122A6
:104D480083F843207B68012283F844207B68012292
:104D580083F845207B68012283F83D20002318460C
:104D68000837BD4680BD000080B485B000AF7860CC
:104D78007B6893F83D30DBB2012B01D0012344E07E
:104D88007B68022283F83D207B681B68DA687B68B1
:104D98001B6842F00102DA607B681B681E4A934276
:104DA80018D07B681B68B3F1804F13D07B681B68F1
:104DB8001A4A93420ED07B681B68194A934209D05D
:104DC8007B681B68174A934204D07B681B68164AA5
:104DD800934211D17B681B689B6803F00703FB6053
:104DE800FB68062B10D07B681B681A687B681B68F9
:104DF80042F001021A6007E07B681B681A687B684A
:104E08001B6842F001021A60002318461437BD4699
:104E18005DF8047B704700BF0000014000040040BB
:104E280000080040000C00400040014080B584B0FC
:104E380000AF78607B681B68DB68FB607B681B6879
:104E48001B69BB60BB6803F00203002B20D0FB6822
:104E580003F00203002B1BD07B681B686FF0020273
:104E68001A617B6801221A777B681B689B6903F0CB
:104E78000303002B03D0786800F0DBF905E07868BD
:104E880000F0CDF9786800F0DEF97B6800221A7727
:104E9800BB6803F00403002B20D0FB6803F0040375
:104EA800002B1BD07B681B686FF004021A617B68BB
:104EB80002221A777B681B689B6903F44073002BF6
:104EC80003D0786800F0B5F905E0786800F0A7F934
:104ED800786800F0B8F97B6800221A77BB6803F09D
:104EE8000803002B20D0FB6803F00803002B1BD01D
:104EF8007B681B686FF008021A617B6804221A77C6
:104F08007B681B68DB6903F00303002B03D0786818
:104F180000F08FF905E0786800F081F9786800F012
:104F280092F97B6800221A77BB6803F01003002B04
:104F380020D0FB6803F01003002B1BD07B681B6894
:104F48006FF010021A617B6808221A777B681B6869
:104F5800DB6903F44073002B03D0786800F069F92B
:104F680005E0786800F05BF9786800F06CF97B6818
:104F780000221A77BB6803F00103002B0CD0FB68F2
:104F880003F00103002B07D07B681B686FF0010258
:104F98001A617868FBF7DAFABB6803F08003002B24
:104FA8000CD0FB6803F08003002B07D07B681B68DC
:104FB8006FF080021A61786800F084FBBB6803F028
:104FC8004003002B0CD0FB6803F04003002B07D0F4
:104FD8007B681B686FF040021A61786800F03DF941
:104FE800BB6803F02003002B0CD0FB6803F0200300
:104FF800002B07D07B681B686FF020021A61786865
:1050080000F056FB00BF1037BD4680BD80B584B0A8
:1050180000AF786039600023FB737B6893F83C30FD
:10502800012B01D10223B4E07B68012283F83C20E4
:105038007B68022283F83D207B681B689B68BB6005
:10504800BB6823F07703BB60BB6823F47F43BB6076
:105058007B681B68BA689A603B681B68B3F5005F99
:105068003ED0B3F5005F00F28780B3F5805F00F0B3
:105078008680B3F5805F7FD8702B1AD0702B7BD8D1
:10508800602B50D0602B77D8502B3CD0502B73D846
:10509800402B58D0402B6FD8302B64D0302B6BD896
:1050A800202B60D0202B67D8002B5CD0102B5AD037
:1050B80062E07B6818683B6899683B685A683B6897
:1050C800DB6800F066FA7B681B689B68BB60BB689E
:1050D80043F07703BB607B681B68BA689A604FE04F
:1050E8007B6818683B6899683B685A683B68DB6866
:1050F80000F04FFA7B681B689A687B681B6842F46B
:1051080080429A603CE07B6818683B6859683B6855
:10511800DB681A4600F0C3F97B681B685021184603
:1051280000F01CFA2CE07B6818683B6859683B68FB
:10513800DB681A4600F0E2F97B681B6860211846B4
:1051480000F00CFA1CE07B6818683B6859683B68FB
:10515800DB681A4600F0A3F97B681B6840211846F3
:1051680000F0FCF90CE07B681A683B681B6819467C
:10517800104600F0F3F903E00123FB7300E000BFE1
:105188007B68012283F83D207B68002283F83C205D
:10519800FB7B18461037BD4680BD80B582B000AF96
:1051A800786039607B6893F83C30012B01D1022389
:1051B80031E07B68012283F83C207B68022283F877
:1051C8003D203968786800F0D9F80346002B09D0EB
:1051D8007B68012283F83D207B68002283F83C200D
:1051E800012318E07B681B68DA687B681B6822F07B
:1051F8004002DA607B681B68DA687B681B6822F407
:105208008042DA607B68012283F83D207B680022B7
:1052180083F83C20002318460837BD4680BD80B47B
:1052280083B000AF786000BF0C37BD465DF8047BE3
:10523800704780B483B000AF786000BF0C37BD46BC
:105248005DF8047B704780B483B000AF786000BF1E
:105258000C37BD465DF8047B704780B483B000AF5F
:10526800786000BF0C37BD465DF8047B70470000CE
:1052780080B485B000AF786039607B681B68FB60DC
:105288007B68374A93420FD07B68B3F1804F0BD0CD
:105298007B68344A934207D07B68334A934203D0F1
:1052A8007B68324A934208D1FB6823F07003FB60A5
:1052B8003B685B68FA681343FB607B68284A934243
:1052C8001BD07B68B3F1804F17D07B68254A934287
:1052D80013D07B68244A93420FD07B68234A9342B9
:1052E8000BD07B68224A934207D07B68214A9342BD
:1052F80003D07B68204A934208D1FB6823F44073AB
:10530800FB603B68DB68FA681343FB60FB6823F0CB
:1053180080023B685B691343FB603B689A687B6863
:10532800DA623B681A687B689A627B680C4A934227
:1053380003D13B681A697B681A637B681B6843F072
:1053480004027B681A607B6801225A617B68FA68EC
:105358001A6000BF1437BD465DF8047B704700BF74
:10536800000001400004004000080040000C00401C
:1053780000400140004401400048014080B586B02B
:1053880000AF786039600023FB757B681B689B68F9
:105398003B613B6923F070033B613B685B683A699A
:1053A80013433B613B6923F007033B613B681B6880
:1053B8003A6913433B617B681B683A699A603B68AA
:1053C8005B68702B1AD0702B60D8602B54D0602B80
:1053D8005CD8502B46D0502B58D8402B19D0402B96
:1053E80054D8302B55D0302B50D8202B51D0202BCF
:1053F8004CD8002B4DD0102B4BD047E07B68186859
:105408003B68D9683B689A683B681B6900F0C1F83B
:1054180040E03B681B68052B01D101233BE07B681A
:105428001B681B6AFB607B681B681A6A7B681B68C1
:1054380022F001021A627B681B689B69BB60BB682B
:1054480023F0F003BB603B681B691B01BA68134378
:10545800BB607B681B68BA689A617B681B68FA68DE
:105468001A6217E07B6818683B6899683B681B6993
:105478001A4600F014F80DE07B6818683B689968D4
:105488003B681B691A4600F039F803E00123FB75F5
:1054980000E000BFFB7D18461837BD4680BD80B4CC
:1054A80087B000AFF860B9607A60FB681B6A7B61FF
:1054B800FB681B6A23F00102FB681A62FB689B69A0
:1054C8003B613B6923F0F0033B617B681B013A6950
:1054D80013433B617B6923F00A037B617A69BB68EC
:1054E80013437B61FB683A699A61FB687A691A62BF
:1054F80000BF1C37BD465DF8047B704780B487B099
:1055080000AFF860B9607A60FB681B6A7B61FB6872
:105518001B6A23F01002FB681A62FB689B693B61F7
:105528003B6923F470433B617B681B033A6913436F
:105538003B617B6923F0A0037B61BB681B017A692F
:1055480013437B61FB683A699A61FB687A691A625E
:1055580000BF1C37BD465DF8047B704780B485B03A
:1055680000AF786039607B689B68FB60FB6823F05C
:105578007003FB603A68FB68134343F00703FB6062
:105588007B68FA689A6000BF1437BD465DF8047BF3
:10559800704780B487B000AFF860B9607A603B604C
:1055A800FB689B687B617B6923F47F437B613B6875
:1055B8001A027B681A43BB6813437A6913437B61F9
:1055C800FB687A699A6000BF1C37BD465DF8047BAA
:1055D8007047000080B485B000AF786039607B68A0
:1055E80093F83C30012B01D1022350E07B68012263
:1055F80083F83C207B68022283F83D207B681B6887
:105608005B68FB607B681B689B68BB60FB6823F07A
:105618007003FB603B681B68FA681343FB607B6898
:105628001B68FA685A607B681B681C4A934218D04A
:105638007B681B68B3F1804F13D07B681B68184ADE
:1056480093420ED07B681B68164A934209D07B6848
:105658001B68154A934204D07B681B68134A93421F
:105668000CD1BB6823F08003BB603B685B68BA68F9
:105678001343BB607B681B68BA689A607B68012229
:1056880083F83D207B68002283F83C2000231846DD
:105698001437BD465DF8047B704700BF0000014029
:1056A8000004004000080040000C00400040014099
:1056B80080B483B000AF786000BF0C37BD465DF89A
:1056C800047B704780B483B000AF786000BF0C37AC
:1056D800BD465DF8047B704784B080B584B000AFE8
:1056E800786007F11C0080E80E0097F82130012B44
:1056F80023D17B689B6B23F480327B689A637B6839
:10570800DB6823F4840323F040037A68D3607B6862
:10571800DB6823F440127B68DA6097F82830012BA5
:1057280005D17B68DB6843F480127B68DA607868AF
:1057380001F0E8FA0346FB731BE07B68DB6843F083
:1057480040027B68DA60786801F0DCFA0346FB7394
:1057580097F82530002B06D17B689B6B43F4803289
:105768007B689A6305E07B689B6B23F480327B68D7
:105778009A63BB7F012B0BD17B689B6843F00602C1
:105788007B689A607B689B6843F020027B689A601C
:10579800FB7B18461037BD46BDE8804004B0704713
:1057A80080B487B000AFF860B9601346FB71FB792D
:1057B800022B65D1BB68414A934206D9BB68404A6F
:1057C800934202D20F237B6162E0BB683C4A93425A
:1057D80006D3BB683B4A934202D20E237B6157E053
:1057E800BB68384A934206D3BB68374A934202D211
:1057F8000D237B614CE0BB68334A934206D3BB68F8
:10580800324A934202D80C237B6141E0BB682F4A9D
:10581800934206D9BB682E4A934202D80B237B6178
:1058280036E0BB682A4A934206D9BB68294A9342A4
:1058380002D80A237B612BE0BB68264A934206D92B
:10584800BB68254A934202D209237B6120E0BB68EA
:10585800214A934206D3BB68204A934202D80823C0
:105868007B6115E0BB681D4A934206D9BB681C4A98
:10587800934202D207237B610AE006237B6107E09B
:10588800FB79002B02D109237B6101E009237B61AD
:10589800FB68DB6823F47052FB68DA60FB68DA683F
:1058A8007B699B0203F470531A43FB68DA60002398
:1058B80018461C37BD465DF8047B7047BFACD8005E
:1058C800C0E1E4000024F400807306019F491A0136
:1058D800FF2C31013FA44C0100366E011FABA6011D
:1058E8000048E80180B483B000AF78607B689B68AB
:1058F80043F001027B689A60002318460C37BD46C6
:105908005DF8047B704780B483B000AF78607B6833
:105918009B6823F001027B689A60002318460C37C5
:10592800BD465DF8047B704780B584B000AF7860F1
:105938000B46FB700023FB607B68DB6823F0C042EA
:105948007B68DA60FB78012B15D17B68DB6843F054
:1059580000527B68DA600A20FBF75EFEFB680A33B8
:10596800FB60786801F03FF90346012B1ED0FB6805
:10597800C72BF0D91AE0FB78002B15D17B68DB68C0
:1059880043F080427B68DA600A20FBF745FEFB683B
:105998000A33FB60786801F026F90346002B05D02E
:1059A800FB68C72BF0D901E0012305E0FB68C82B91
:1059B80001D1012300E0002318461037BD4680BD01
:1059C80084B080B586B000AF786007F1240080E825
:1059D8000E000023FB757B68FB6000233B6109E038
:1059E8007A683B6940339B00134400225A603B6944
:1059F80001333B613B690E2BF2D997F82E30002B0F
:105A08001CD1FB6803F500635B68FA6802F5006265
:105A180043F0020353607B689B6B43F400127B687E
:105A28009A637B689B6B23F400227B689A637B688C
:105A38009B6B23F480227B689A630BE07B689B6BEB
:105A480023F400127B689A637B689B6B43F4002203
:105A58007B689A63FB6803F560631A46002313604A
:105A680097F82930012B0DD197F82730002B04D156
:105A78000021786800F068F908E00121786800F0F2
:105A880063F903E00321786800F05EF91021786873
:105A980000F0FAF80346002B01D00123FB75786863
:105AA80000F024F90346002B01D00123FB75FB68A5
:105AB80003F500631A4600231361FB6803F50063CE
:105AC8001A4600235361FB6803F500631A46002356
