:020000040800F2
:100000000000022021260008112000081920000805
:1000100021200008292000083120000800000000ED
:10002000000000000000000000000000392000086F
:100030004720000800000000552000086320000849
:100040007126000871260008712600087126000834
:100050007126000871260008712600087126000824
:10006000712600087126000871260008712000081A
:1000700085200008712600087126000871260008F6
:100080007126000871260008992000080000000071
:1000900000000000000000000000000071260008C1
:1000A000AD200008C1200008D5200008E920000884
:1000B000712600087126000871260008FD2000083E
:1000C0001121000871260008712600087126000819
:1000D0007126000871260008712600080000000043
:1000E0007126000871260008712600080000000033
:1000F0000000000000000000000000007126000861
:100100000000000071260008712600087126000812
:1001100000000000000000000000000000000000DF
:1001200025210008712600087126000871260008A4
:100130007126000800000000000000000000000020
:10014000000000000000000000000000392100084D
:100150007126000871260008712600087126000823
:100160007126000871260008000000000000000051
:10017000000000000000000000000000000000007F
:1001800000000000712600080000000000000000D0
:08019000712600087126000829
:1001980010B5054C237833B9044B13B10448AFF3B9
:1001A80000800123237010BD3001002000000000F2
:1001B80004D7000808B5034B1BB103490348AFF344
:1001C800008008BD000000003401002004D70008AA
:1001D80081F0004102E000BF83F0004330B54FEAF0
:1001E80041044FEA430594EA050F08BF90EA020F5D
:1001F8001FBF54EA000C55EA020C7FEA645C7FEAF0
:10020800655C00F0E2804FEA5454D4EB5555B8BF12
:100218006D420CDD2C4480EA020281EA030382EA83
:10022800000083EA010180EA020281EA0303362D15
:1002380088BF30BD11F0004F4FEA01314FF4801CE8
:100248004CEA113102D0404261EB410113F0004FFA
:100258004FEA03334CEA133302D0524263EB4303B1
:1002680094EA050F00F0A780A4F10104D5F1200E4F
:100278000DDB02FA0EFC22FA05F2801841F10001AA
:1002880003FA0EF2801843FA05F359410EE0A5F17E
:1002980020050EF1200E012A03FA0EFC28BF4CF0AF
:1002A800020C43FA05F3C01851EBE37101F0004565
:1002B80007D54FF0000EDCF1000C7EEB00006EEB72
:1002C8000101B1F5801F1BD3B1F5001F0CD34908FC
:1002D8005FEA30004FEA3C0C04F101044FEA445253
:1002E80012F5800F80F09A80BCF1004F08BF5FEADA
:1002F800500C50F1000041EB045141EA050130BDBA
:100308005FEA4C0C404141EB0101013C28BFB1F5CB
:10031800801FE9D291F0000F04BF01460020B1FA16
:1003280081F308BF2033A3F10B03B3F120020CDAE9
:100338000C3208DD02F1140CC2F10C0201FA0CF0C7
:1003480021FA02F10CE002F11402D8BFC2F1200C2C
:1003580001FA02F120FA0CFCDCBF41EA0C019040E2
:10036800E41AA2BF01EB0451294330BD6FEA04042B
:100378001F3C1CDA0C340EDC04F11404C4F1200216
:1003880020FA04F001FA02F340EA030021FA04F328
:1003980045EA030130BDC4F10C04C4F1200220FA7F
:1003A80002F001FA04F340EA0300294630BD21FABD
:1003B80004F0294630BD94F0000F83F4801306BF83
:1003C80081F480110134013D4EE77FEA645C18BF77
:1003D8007FEA655C29D094EA050F08BF90EA020F0E
:1003E80005D054EA000C04BF1946104630BD91EA06
:1003F800030F1EBF0021002030BD5FEA545C05D109
:100408004000494128BF41F0004130BD14F5800447
:100418003CBF01F5801130BD01F0004545F0FE41BB
:1004280041F470014FF0000030BD7FEA645C1ABFF0
:10043800194610467FEA655C1CBF0B46024650EA27
:10044800013406BF52EA033591EA030F41F4002153
:1004580030BD00BF90F0000F04BF0021704730B5D9
:100468004FF4806404F132044FF000054FF00001AE
:1004780050E700BF90F0000F04BF0021704730B56F
:100488004FF4806404F1320410F0004548BF404244
:100498004FF000013EE700BF42004FEAE2014FEA99
:1004A80031014FEA02701FBF12F07F4393F07F4F74
:1004B80081F06051704732F07F4208BF704793F077
:1004C8007F4F04BF41F40021704730B54FF460748A
:1004D80001F0004521F000411CE700BF50EA01028D
:1004E80008BF704730B54FF000050AE050EA010236
:1004F80008BF704730B511F0004502D5404261EBA6
:1005080041014FF4806404F132045FEA915C3FF4E6
:10051800D8AE4FF003025FEADC0C18BF03325FEA83
:10052800DC0C18BF033202EBDC02C2F1200300FA34
:1005380003FC20FA02F001FA03FE40EA0E0021FA59
:1005480002F11444BDE600BF70B54FF0FF0C4CF447
:10055800E06C1CEA11541DBF1CEA135594EA0C0FF9
:1005680095EA0C0F00F0DEF82C4481EA030621EA34
:100578004C5123EA4C5350EA013518BF52EA03356F
:1005880041F4801143F4801338D0A0FB02CE4FF021
:100598000005E1FB02E506F00042E0FB03E54FF051
:1005A8000006E1FB03569CF0000F18BF4EF0010E49
:1005B800A4F1FF04B6F5007F64F5407404D25FEA45
:1005C8004E0E6D4146EB060642EAC62141EA5551F8
:1005D8004FEAC52040EA5E504FEACE2EB4F1FD0C3A
:1005E80088BFBCF5E06F1ED8BEF1004F08BF5FEAB8
:1005F800500E50F1000041EB045170BD06F000466A
:1006080046EA010140EA020081EA0301B4EB5C0416
:10061800C2BFD4EB0C0541EA045170BD41F480110E
:100628004FF0000E013C00F3AB8014F1360FDEBF33
:10063800002001F0004170BDC4F10004203C35DA0F
:100648000C341BDC04F11404C4F1200500FA05F392
:1006580020FA04F001FA05F240EA020001F0004233
:1006680021F0004110EBD37021FA04F642EB0601A9
:100678005EEA430E08BF20EAD37070BDC4F10C04D3
:10068800C4F1200500FA04F320FA05F001FA04F297
:1006980040EA020001F0004110EBD37041F1000183
:1006A8005EEA430E08BF20EAD37070BDC4F120058E
:1006B80000FA05F24EEA020E20FA04F301FA05F2F6
:1006C80043EA020321FA04F001F0004121FA04F29E
:1006D80020EA020000EBD3705EEA430E08BF20EA6E
:1006E800D37070BD94F0000F0FD101F000464000A8
:1006F80041EB010111F4801F08BF013CF7D041EA2A
:10070800060195F0000F18BF704703F0004652002D
:1007180043EB030313F4801F08BF013DF7D043EAFE
:100728000603704794EA0C0F0CEA135518BF95EAB4
:100738000C0F0CD050EA410618BF52EA4306D1D13B
:1007480081EA030101F000414FF0000070BD50EA5A
:10075800410606BF1046194652EA430619D094EAE4
:100768000C0F02D150EA013613D195EA0C0F05D1CE
:1007780052EA03361CBF104619460AD181EA030122
:1007880001F0004141F0FE4141F470014FF00000DA
:1007980070BD41F0FE4141F4780170BD70B54FF075
:1007A800FF0C4CF4E06C1CEA11541DBF1CEA1355F5
:1007B80094EA0C0F95EA0C0F00F0A7F8A4EB0504D7
:1007C80081EA030E52EA03354FEA013100F08880CE
:1007D8004FEA03334FF0805545EA131343EA126397
:1007E8004FEA022245EA111545EA10654FEA00264C
:1007F8000EF000419D4208BF964244F1FD0404F505
:10080800407402D25B084FEA3202B61A65EB030560
:100818005B084FEA32024FF480104FF4002CB6EB1D
:10082800020E75EB030E22BFB61A754640EA0C009D
:100838005B084FEA3202B6EB020E75EB030E22BFDD
:10084800B61A754640EA5C005B084FEA3202B6EB1E
:10085800020E75EB030E22BFB61A754640EA9C00DD
:100868005B084FEA3202B6EB020E75EB030E22BFAD
:10087800B61A754640EADC0055EA060E18D04FEA6B
:10088800051545EA16754FEA06164FEAC30343EA0B
:1008980052734FEAC2025FEA1C1CC0D111F4801FD8
:1008A8000BD141EA00014FF000004FF0004CB6E7D1
:1008B80011F4801F04BF01430020B4F1FD0C88BF70
:1008C800BCF5E06F3FF6AFAEB5EB030C04BFB6EB7B
:1008D800020C5FEA500C50F1000041EB045170BD6E
:1008E8000EF0004E4EEA113114EB5C04C2BFD4EB9B
:1008F8000C0541EA045170BD41F480114FF0000E1F
:10090800013C90E645EA060E8DE60CEA135594EA9A
:100918000C0F08BF95EA0C0F3FF43BAF94EA0C0F9D
:100928000AD150EA01347FF434AF95EA0C0F7FF412
:1009380025AF104619462CE795EA0C0F06D152EA66
:1009480003353FF4FDAE1046194622E750EA41064A
:1009580018BF52EA43067FF4C5AE50EA41047FF45B
:100968000DAF52EA43057FF4EBAE12E74FEA4102BE
:1009780012F5001215D211D56FF47873B3EB6252E9
:1009880012D94FEAC12343F0004343EA505311F010
:10099800004F23FA02F018BF404270474FF00000A2
:1009A800704750EA013005D111F0004008BF6FF0E0
:1009B800004070474FF00000704700BF53B94AB974
:1009C800002908BF00281CBF4FF0FF314FF0FF304F
:1009D80000F088B9ADF1080C6DE904CE00F006F816
:1009E800DDF804E0DDE9022304B070472DE9F047A3
:1009F800089D8E4604468846002B4AD18A421746EF
:100A080062D9B2FA82F64EB1C6F1200301FA06F8AD
:100A180020FA03F3B74043EA0808B4404FEA174EF8
:100A28001FFA87FCB8FBFEF1230C0EFB118843EA82
:100A3800084301FB0CF29A4209D9FB1801F1FF3077
:100A480080F0EA809A4240F2E78002393B449A1AE1
:100A5800A3B2B2FBFEF00EFB102243EA024300FBF6
:100A68000CFC9C4509D9FB1800F1FF3280F0D680B8
:100A78009C4540F2D3803B44023840EA0140A3EB56
:100A88000C0300211DB1F3400022C5E90032BDE886
:100A9800F0878B4205D90DB1C5E900010021084650
:100AA800F5E7B3FA83F1002946D1734502D38242B0
:100AB80000F20581841A6EEB030201209046002D96
:100AC800E5D0C5E90048E2E7002A00F09080B2FAD4
:100AD80082F6002E40F0A4808A1A030C4FEA174EC3
:100AE80080B2BCB20121B2FBFEFC0EFB1C2243EA21
:100AF800024304FB0CF29A4207D9FB180CF1FF38A9
:100B080002D29A4200F2E080C4469B1AB3FBFEF27E
:100B18000EFB123340EA034302FB04F49C4207D95C
:100B2800FB1802F1FF3002D29C4200F2CA80024652
:100B38001B1B42EA0C40A5E7C1F120068B4022FAB4
:100B480006F71F430EFA01F420FA06F32EFA06FE02
:100B58004FEA1749234300FA01F81FFA87FCBEFB46
:100B6800F9F01C0C09FB10EE44EA0E4400FB0CFEE5
:100B7800A64502FA01F209D93C1900F1FF3A80F0C2
:100B88009C80A64540F2998002383C44A4EB0E04B0
:100B98001FFA83FEB4FBF9F309FB13444EEA04443D
:100BA80003FB0CFCA44508D93C1903F1FF3E80F077
:100BB8008280A4457FD9023B3C4443EA0040A4EB31
:100BC8000C04A0FB02EC64457346E14662D35FD097
:100BD8005DB1B8EB030264EB090404FA06F622FAE5
:100BE80001F31E43CC40C5E9006400214FE7B1FB87
:100BF800F2FC010C41EA0E4180B240EA01423B4658
:100C080038463C46B846BE462026B1FBF7F1A2EB73
:100C1800080241EA0C4166E7014618E710462CE74E
:100C2800C6F120022EFA02F3B740B14020FA02F2D0
:100C38004FEA174E0A43B3FBFEF8BCB20EFB18335B
:100C4800110C41EA034108FB04F9B04089454FEA19
:100C5800104380B23ED9791808F1FF3C01D289458A
:100C68001FD8A1EB0901B1FBFEF909FB04F80EFB43
:100C7800191192B242EA0142424529D2BA1809F141
:100C8800FF31C4D24245C2D2A9F102013A44BEE7BB
:100C9800F0459DD2BEEB02036CEB070C0138E14630
:100CA80096E7A7EB09094944A8F1020CB1FBFEF944
:100CB80009FB04F8DBE773467FE7504666E708461A
:100CC800FDE63B44023A33E7ACF1020C3B441CE737
:100CD80049469CE7A1EB0901C446B1FBFEF909FBB3
:100CE80004F8C4E7704700BF80B485B000AF7860EF
:100CF8000023FB600AE00A4AFB6832F81310094A2D
:100D0800FB6822F81310FB680133FB60FB68072BB4
:100D1800F1DD00BF00BF1437BD465DF8047B7047A6
:100D2800540300206403002080B483B000AF7860CF
:100D3800044B01221A7000BF0C37BD465DF8047BD6
:100D4800704700BF9105002080B483B000AF786081
:100D5800044B01221A7000BF0C37BD465DF8047BB6
:100D6800704700BF9205002080B582B000AF786060
:100D78007B681B680E4A934216D10E4B1B780133D1
:100D8800DAB20C4B1A700B4B1B78282B07D1094B86
:100D980000221A70084A137843F08003137008225F
:100DA8000649074801F04CFE00BF0837BD4680BD24
:100DB800000001405003002090050020540300204B
:100DC8004C01002090B484B000AF786039600023F3
:100DD800FB7318E0FB7B7A681A44104B19680F4BB9
:100DE8005B79581CC4B20D4844710B4412781A70D0
:100DF8000A4B5A79094B9B791340DAB2074B5A715F
:100E0800FB7B0133FB73FB7B3A689A42E2D800BF55
:100E180000BF1037BD4690BC704700BF800300205C
:100E280080B5C2B000AF224B1A79214B5B799A4248
:100E380039D01F4801F0BAFA0346002B03D01D49E8
:100E48001B4800F039F8002387F807311DE0194BDB
:100E58001A68184B1B7A591CC8B2164908721A44EA
:100E680097F80731117807F58472A2F58272D15488
:100E7800104B1A7A0F4B9B791340DAB20D4B1A724A
:100E880097F80731013387F807310A4BDB7997F870
:100E980007219A42DBD3074BDB791A463B1D1146E3
:100EA80018460BF09DFF00BF07F58477BD4680BD4F
:100EB800800300207403002080B582B000AF786002
:100EC80039607B681B687A68127A13441B78F22BA6
:100ED80027D0F22B00F39D80F02B02D0F12B10D0FD
:100EE80097E00222F021386801F03EF90D213868B8
:100EF80001F0E9F93B685B7A1946386801F0E3F9D3
:100F08009DE00D22F121386801F02EF94E4938682C
:100F180001F007FA3B685B7A1946386801F0D3F9A3
:100F28008DE00D22F221386801F01EF9474BB3F924
:100F380000309AB2464B1A80454B1B7819463868E0
:100F480001F0C1F9424B5B781946386801F0BBF9EA
:100F5800404BB3F900309AB23D4B1A803C4B1B789A
:100F68001946386801F0AFF9394B5B78194638688B
:100F780001F0A9F9384BB3F900309AB2344B1A8012
:100F8800334B1B781946386801F09DF9304B5B7874
:100F98001946386801F097F9304BB3F900309AB226
:100FA8002B4B1A802A4B1B781946386801F08BF9AD
:100FB800274B5B781946386801F085F9284BB3F957
:100FC80000309AB2224B1A80214B1B781946386898
:100FD80001F079F91E4B5B781946386801F073F90E
:100FE800204BB3F900309AB2194B1A80184B1B7872
:100FF8001946386801F067F9154B5B781946386867
:1010080001F061F93B685B7A1946386801F05BF9D1
:1010180015E07B681B687A68127A13441B780222F1
:101028001946386801F0A0F8FF21386801F04BF93B
:101038003B685B7A1946386801F045F900BF00BF84
:101048000837BD4680BD00BF64D70008940500205E
:101058008C05002096050020980500209A050020A0
:101068009C0500209E05002080B500AF104B1B7822
:1010780023F07F03DBB2002B17D00D4A137823F03F
:10108800800313700B4B1B68013B0A4A1360094B22
:101098001B68002B09D1074B0A221A60044A1378EF
:1010A80043F04003137000F007F800BF80BD00BF95
:1010B800900500202800002080B500AF0F4B1B686A
:1010C800DB430F4A1278114601228A401340002B55
:1010D80004D04FF400510B4802F0D9FE084B1B789E
:1010E8000133DAB2064B1A70054B1B7803F01F0365
:1010F800DAB2034B1A7000BF80BD00BF00000020A9
:10110800A00500200008024080B500AF084B1B78FE
:1011180003F04003DBB2002B08D0054A137823F014
:101128004003137000F0E4FA00F0CEFB00BF80BD6E
:101138009005002080B500AF01F098FA00F04CF857
:1011480000F038FA00F0F8F900F0AEF800F060F9B5
:1011580000F08CF90BF02AFD14480BF079FE1448C6
:1011680007F02EFD01224FF40051124802F076FEDE
:10117800114800F0BBFC114800F0A8FC104800F032
:1011880095FC00F0C3FC00F07BFA0E4B0E4A0F49A9
:101198000F4801F009FA0F4B00221A70FFF764FF9D
:1011A800FFF73EFEFFF7B0FF00BFF7E7CD0D0008E1
:1011B8000803002000080240910500208141000832
:1011C800D94700088C0300208C04002074030020F9
:1011D800800300209005002080B594B000AF07F18F
:1011E80020033022002118460CF05CFA07F10C03AA
:1011F80000221A605A609A60DA601A610023BB60A4
:10120800274B1B6C264A43F080531364244B1B6CFA
:1012180003F08053BB60BB6800237B60214B1B68D5
:10122800204A43F4404313601E4B1B6803F44043B9
:101238007B607B6801233B624FF480337B6202232F
:10124800BB634FF48003FB6319233B64C0237B64B7
:101258000223BB640423FB6407F12003184607F04C
:101268001BF80346002B01D000F004FA0F23FB60A3
:1012780002233B6100237B614FF48053BB61002351
:10128800FB6107F10C030321184607F07DFA0346BA
:10129800002B01D000F0EEF900BF5037BD4680BDED
:1012A800003802400070004080B584B000AF3B4673
:1012B80000221A605A609A60DA60524B524A1A60E9
:1012C800504B4FF480325A604E4B00229A604D4B7F
:1012D80001221A614B4B00221A764A4B002283F8EE
:1012E8002020484B0022DA62464B484A9A62454B16
:1012F8000022DA60434B0822DA61424B012283F86C
:101308003020404B01225A613E4801F045FA03461D
:10131800002B01D000F0AEF900233B6001237B6075
:101328000023BB603B461946364801F09BFC034648
:10133800002B01D000F09EF901233B6002237B6063
:101348003B4619462F4801F08DFC0346002B01D07F
:1013580000F090F902233B6003237B603B4619466B
:10136800284801F07FFC0346002B01D000F082F9E9
:1013780003233B6004237B603B461946214801F068
:1013880071FC0346002B01D000F074F904233B6084
:1013980005237B603B4619461A4801F063FC034667
:1013A800002B01D000F066F905233B6006237B6023
:1013B8003B461946134801F055FC0346002B01D063
:1013C80000F058F906233B6007237B603B4619462B
:1013D8000C4801F047FC0346002B01D000F04AF905
:1013E80007233B6008237B603B461946054801F00C
:1013F80039FC0346002B01D000F03CF900BF103740
:10140800BD4680BD4C010020002001400100000FB6
:1014180080B500AF124B134A1A60114B124A5A603A
:101428000F4B00229A600E4B0022DA600C4B4FF4EF
:1014380080421A610A4B00225A61094B00229A61C4
:10144800074B0022DA61064B00221A62044802F0B8
:1014580039FD0346002B01D000F00CF900BF80BD18
:10146800F401002000540040801A060080B58CB0BA
:1014780000AF07F1200300221A605A609A60DA6010
:1014880007F10C0300221A605A609A60DA601A6148
:101498003B1D00221A605A60254B264A1A60244BCD
:1014A8005F225A60224B00229A60214BF922DA60AF
:1014B8001F4B00221A611E4B00225A611C4B00224E
:1014C8009A611B4807F02CFB0346002B01D000F063
:1014D800D1F84FF480533B6207F1200319461448B2
:1014E80007F0C0FC0346002B01D000F0C3F800232E
:1014F800FB6000233B6107F10C0319460C4807F019
:1015080078FD0346002B01D000F0B4F800237B607F
:101518000023BB603B1D1946054807F087FF0346BB
:10152800002B01D000F0A6F800BF3037BD4680BDC3
:10153800080300200000014080B582B000AF0023FE
:101548007B601B4B1B6B1A4A43F480031363184BD5
:101558001B6B03F480037B607B6800233B60144BA8
:101568001B6B134A43F400131363114B1B6B03F4F7
:1015780000133B603B68002200210B2001F007FFAD
:101588000B2001F020FF002200210C2001F0FFFEBB
:101598000C2001F018FF00220021382001F0F7FE8E
:1015A800382001F010FF00BF0837BD4680BD00BFDE
:1015B8000038024080B58AB000AF07F1140300225A
:1015C8001A605A609A60DA601A6100233B61274BFF
:1015D8001B6B264A43F004031363244B1B6B03F075
:1015E80004033B613B690023FB60204B1B6B1F4AD4
:1015F80043F0800313631D4B1B6B03F08003FB60F8
:10160800FB680023BB60194B1B6B184A43F00103AE
:101618001363164B1B6B03F00103BB60BB6800230D
:101628007B60124B1B6B114A43F0020313630F4B91
:101638001B6B03F002037B607B6800224FF40051B0
:101648000B4802F00BFC4FF400537B610123BB6194
:101658000023FB6100233B6207F114031946044889
:1016680002F078FA00BF2837BD4680BD0038024036
:101678000008024080B400AF72B600BF00BFFDE7AB
:1016880080B586B004AF0023FB714FF0FF3302939F
:1016980001230193FB1D009301236B22D0211248E3
:1016A80002F06AFD0023FB714FF0FF330293012320
:1016B8000193FB1D009301231C22D0210A4802F04C
:1016C8005BFD0023FB714FF0FF330293012301936D
:1016D800FB1D009301231B22D021034802F04CFD7F
:1016E80000BF0837BD4680BDF4010020000000009F
:1016F80080B586B004AF4FF0FF3302930623019301
:101708003B46009301233B22D021654802F02EFE80
:101718003B781BB21B021AB27B781BB213431BB275
:101728001A46604B1A60BB781BB21B021AB2FB78D0
:101738001BB213431BB21A465B4B1A603B791BB2B0
:101748001B021AB27B791BB213431BB21A46574BC2
:101758001A60544B1B6813F5E17F08DB514B1B687B
:10176800B3F5E17F03DC524B00221A8025E04D4B94
:101778001B6807EE903AF8EEE77A9FED4E7AC7EECF
:10178800876A16EE900AFEF787FE43A3D3E9002383
:10179800FEF7DAFE02460B46104619464FF00002E5
:1017A800454BFEF7D1FE02460B4610461946FFF799
:1017B800DDF803461AB23E4B1A803B4B1B6813F503
:1017C800E17F08DB384B1B68B3F5E17F03DC3B4B5B
:1017D80000221A8025E0344B1B6807EE903AF8EE99
:1017E800E77A9FED347AC7EE876A16EE900AFEF71D
:1017F80053FE29A3D3E90023FEF7A6FE02460B46B3
:10180800104619464FF000022B4BFEF79DFE02468C
:101818000B4610461946FFF7A9F803461AB2274B9C
:101828001A80224B1B68264A93420ADB1F4B1B680F
:1018380044F62062934204DC224B40F2D5321A80EF
:1018480026E01A4B1B6807EE903AF8EEE77A9FED10
:10185800197AC7EE876A16EE900AFEF71DFE0EA3E8
:10186800D3E90023FEF770FE02460B4610461946E0
:101878004FF00002104BFEF767FE02460B4610467B
:101888001946FFF773F803461AB20E4B1A8000BFC9
:1018980000BF0837BD4680BD1F85EB51B89E234069
:1018A800F4010020A4050020A8050020AC050020B4
:1018B800940500200000804600005940960500204D
:1018C800E0B1FFFF9805002080B586B004AF4FF463
:1018D8007A730293062301933B4600930123432224
:1018E800D021494802F042FD3B781BB21B021AB2D4
:1018F8007B781BB213431BB21A46444B1A60BB7861
:101908001BB21B021AB2FB781BB213431BB21A4656
:101918003F4B1A603B791BB21B021AB27B791BB290
:1019280013431BB21A463B4B1A60384B1B6813F51E
:10193800E17F08DB354B1B68B3F5E17F03DC364BF1
:1019480000221A8014E0314B1B6807EE903AB8EE7B
:10195800E77ADFED326AC7EE267A9FED317A67EED5
:10196800877AFDEEE77A17EE903A1AB22A4B1A8078
:10197800274B1B6813F5AF7F08DB254B1B68B3F5B6
:10198800AF7F03DC274B00221A8014E0204B1B6832
:1019980007EE903AB8EEE77ADFED206AC7EE267ACE
:1019A8009FED1F7A67EE877AFDEEE77A17EE903A99
:1019B8001AB21C4B1A80174B1B6813F5AF7F08DB54
:1019C800144B1B68B3F5AF7F03DC174B00221A805A
:1019D80015E0104B1B6807EE903AB8EEE77ADFED9A
:1019E8000F6AC7EE267A9FED0E7A67EE877AFDEECC
:1019F800E77A17EE903A1AB20B4B1A8000BF00BF75
:101A08000837BD4680BD00BFF4010020B0050020A6
:101A1800B4050020B80500209A0500200000034303
:101A28000000C8429C0500209E05002080B400AF3D
:101A380000BFBD465DF8047B7047000090B587B0D5
:101A480004AF0346FB71094B1C684FF0FF33029348
:101A580001230193FB1D00930123002278210448F0
:101A6800A04700BF0C37BD4690BD00BFC005002091
:101A7800F401002090B587B004AF78603960094B55
:101A88001C683B689BB24FF0FF32029201937B685F
:101A980000930123402278210348A04700BF0C3758
:101AA800BD4690BDC0050020F401002080B483B07D
:101AB80000AF7860044A7B68136000BF0C37BD46EE
:101AC8005DF8047B704700BFC405002080B483B074
:101AD80000AF7860044A7B68136000BF0C37BD46CE
:101AE8005DF8047B704700BFC005002080B483B058
:101AF80000AF7860044A7B68136000BF0C37BD46AE
:101B08005DF8047B704700BFBC05002080B500AFBE
:101B1800FFF78CFF642000F01BFE002000F0B4F8F3
:101B28002020FFF78BFF0020FFF788FFB020FFF78A
:101B380085FFC820FFF782FF0020FFF77FFF1020F6
:101B4800FFF77CFF4020FFF779FFFF2000F088F8BF
:101B5800A120FFF773FFA620FFF770FFA820FFF76B
:101B68006DFF3F20FFF76AFFA420FFF767FFD32030
:101B7800FFF764FF0020FFF761FFD520FFF75EFF46
:101B8800F020FFF75BFFD920FFF758FF2220FFF76F
:101B980055FFDA20FFF752FF1220FFF74FFFDB2037
:101BA800FFF74CFF2020FFF749FF8D20FFF746FF86
:101BB8001420FFF743FF012000F066F8002000F032
:101BC8000FF800F025F8054B00221A80034B00227D
:101BD8005A80024B01221A7100BF80BDC80900203B
:101BE80080B582B000AF0346FB71FB79002B01D1B1
:101BF800002300E0FF234FF48062194603480BF0EE
:101C080051FD00BF0837BD4680BD00BFC805002094
:101C180080B582B000AF0023FB7116E0FB79503B22
:101C2800DBB21846FFF70AFF0020FFF707FF102076
:101C3800FFF704FFFB79DB01084A134480211846AB
:101C4800FFF718FFFB790133FB71FB79072BE5D907
:101C580000BF00BF0837BD4680BD00BFC8050020D3
:101C680080B584B000AF0346FB718123FB73FB7B17
:101C78001846FFF7E3FEFB791846FFF7DFFE00BFC3
:101C88001037BD4680BD000080B584B000AF034664
:101C9800FB71FB79002B05D0AF23FB73084B0122A6
:101CA8005A7104E0AE23FB73054B00225A71FB7B8B
:101CB8001846FFF7C3FE00BF1037BD4680BD00BF02
:101CC800C809002080B483B000AF00237B60104BAC
:101CD8005B6C0F4A43F4804353640D4B5B6C03F415
:101CE80080437B607B6800233B60094B1B6C084A80
:101CF80043F080531364064B1B6C03F080533B6026
:101D08003B6800BF0C37BD465DF8047B704700BFD9
:101D18000038024080B58AB000AF786007F114033C
:101D280000221A605A609A60DA601A617B681B6840
:101D3800324A93425ED100233B61314B5B6C304A9F
:101D480043F4807353642E4B5B6C03F480733B61E4
:101D58003B690023FB602A4B1B6B294A43F00103B4
:101D68001363274B1B6B03F00103FB60FB68FF2326
:101D78007B610323BB610023FB6107F11403194650
:101D8800204801F0E7FE204B204A1A601E4B002233
:101D98005A601D4B00229A601B4B0022DA601A4BD6
:101DA8004FF480621A61184B4FF400625A61164B67
:101DB8004FF400529A61144B0022DA61124B002250
:101DC8001A62114B00225A620F4801F017FB0346B2
:101DD800002B01D0FFF74EFC7B680B4A9A630A4A36
:101DE8007B68936300220021122001F0D0FA1220B0
:101DF80001F0E9FA00BF2837BD4680BD0020014048
:101E080000380240000002409401002010640240A3
:101E180080B58AB000AF786007F1140300221A6019
:101E28005A609A60DA601A617B681B684F4A93426D
:101E380040F0978000233B614D4B1B6B4C4A43F0AD
:101E4800020313634A4B1B6B03F002033B613B69BC
:101E5800C0237B611223BB610023FB6103233B6228
:101E680004237B6207F114031946424801F072FE0D
:101E78000023FB603E4B1B6C3D4A43F40013136484
:101E88003B4B1B6C03F40013FB60FB683A4B3B4A6B
:101E98001A60394B4FF000725A60374B00229A6033
:101EA800354B0022DA60344B4FF480621A61324BB2
:101EB80000225A61304B00229A612F4B0022DA61CE
:101EC8002D4B00221A622C4B00225A622A4801F03C
:101ED80095FA0346002B01D0FFF7CCFB7B68264A16
:101EE8009A63254A7B689363254B264A1A60244BDC
:101EF80000225A60224B40229A60214B0022DA606D
:101F08001F4B4FF480621A611D4B00225A611C4B13
:101F180000229A611A4B0022DA61194B00221A62D8
:101F2800174B00225A62164801F068FA0346002B44
:101F380001D0FFF79FFB7B68114A5A63104A7B6800
:101F48009363002200211F2001F021FA1F2001F0D5
:101F58003AFA00220021202001F019FA202001F08D
:101F680032FA00BF2837BD4680BD00BF005400408C
:101F7800003802400004024048020020106002407D
:101F8800A80200202860024080B584B000AF7860C5
:101F98007B681B681A4A93422DD10023FB60194BBA
:101FA8005B6C184A43F001035364164B5B6C03F0F7
:101FB8000103FB60FB6800220021182001F0E7F90B
:101FC800182001F000FA00220021192001F0DFF9A1
:101FD800192001F0F8F9002200211A2001F0D7F9A0
:101FE8001A2001F0F0F9002200211B2001F0CFF99E
:101FF8001B2001F0E8F900BF1037BD4680BD00BFC7
:10200800000001400038024080B400AF00BFFDE787
:1020180080B400AF00BFFDE780B400AF00BFFDE7AC
:1020280080B400AF00BFFDE780B400AF00BFFDE79C
:1020380080B400AF00BFBD465DF8047B704780B434
:1020480000AF00BFBD465DF8047B704780B400AFA9
:1020580000BFBD465DF8047B704780B500AF00F057
:1020680057FB00BF80BD000080B500AF024801F0FB
:10207800EDFA00BF80BD00BF4802002080B500AF68
:10208800024801F0E3FA00BF80BD00BFA8020020AB
:1020980080B500AF024800F0C2FB00BF80BD00BFA2
:1020A8004C01002080B500AF024806F0EBFD00BFF0
:1020B80080BD00BF0803002080B500AF024806F0CD
:1020C800E1FD00BF80BD00BF0803002080B500AF60
:1020D800024806F0D7FD00BF80BD00BF08030020FE
:1020E80080B500AF024806F0CDFD00BF80BD00BF3F
:1020F8000803002080B500AF024802F0C7FC00BF0B
:1021080080BD00BFF401002080B500AF024802F096
:102118002EFE00BF80BD00BFF401002080B500AFD7
:10212800024801F093FA00BF80BD00BF940100206F
:1021380080B500AF024804F0A0FF00BF80BD00BF1B
:10214800B812002080B400AF064BD3F88830054A97
:1021580043F47003C2F8883000BFBD465DF8047BC5
:10216800704700BF00ED00E080B483B000AF786036
:102178000B46FB701346BB70BB780133BB707B68A2
:1021880000225A727B685A797B681A727B681A68CF
:102198007B685B79591CC8B2796848711344552229
:1021A8001A707B685A797B689B791340DAB27B682E
:1021B8005A717B681A687B685B79591CC8B2796860
:1021C800487113444E221A707B685A797B689B7950
:1021D8001340DAB27B685A717B681A687B685B794E
:1021E800591CC8B279684871134445221A707B6833
:1021F8005A797B689B791340DAB27B685A717B689D
:102208001A687B685B79591CC8B2796848711344AD
:1022180052221A707B685A797B689B791340DAB22C
:102228007B685A717B681A687B685B79591CC8B2ED
:10223800796848711344BA781A707B685A797B6850
:102248009B791340DAB27B685A717B681A687B689D
:102258005B79591CC8B27968487113443A221A70DC
:102268007B685A797B689B791340DAB27B685A712C
:102278007B681A687B685B79591CC8B279684871B1
:102288001344FA781A707B685A797B689B791340F3
:10229800DAB27B685A717B680722DA717B685A7AEE
:1022A800B978FB784B40DBB25340DBB283F036039E
:1022B800DAB27B685A727B685B7A18460C37BD467F
:1022C8005DF8047B704780B483B000AF78600B463C
:1022D800FB707B68DB790133DAB27B68DA717B6883
:1022E8001A687B685B79591CC8B2796848711344CD
:1022F800FA781A707B685A797B689B791340DAB24E
:102308007B685A717B685A7AFB785340DAB27B68EB
:102318005A727B685B7A18460C37BD465DF8047BB9
:10232800704790B484B000AF786039600023FB73C5
:102338002CE07B68DB790133DAB27B68DA71FB7BEE
:10234800DBB21A463B681A447B6819687B685B797C
:10235800581CC4B2786844710B4412781A707B68B0
:102368005A797B689B791340DAB27B685A71FB7B98
:10237800DBB25A1CD2B2FA731A463B6813441A7875
:102388007B685B7A5340DAB27B685A72FB7BDBB2BC
:102398001A463B6813441B78002BCAD17B685B7ACA
:1023A80018461037BD4690BC7047000080B485B011
:1023B80000AF78600023FB737B685B79BB73E4E054
:1023C800784B1B78072B00F2C98001A252F823F042
:1023D800F923000813240008512400087D2400086C
:1023E800A9240008BF240008652500082125000845
:1023F8007B681B687A68127913441B78552B40F068
:10240800B180684B01221A70ACE07B681B687A685F
:10241800127913441B784E2B03D1624B02221A7097
:10242800A2E07B681B687A68127913441B78552BE5
:1024380000F09A805B4B00221A707B681B79013B85
:10244800DAB27B681A718FE07B681B687A68127948
:1024580013441B78452B03D1524B03221A7086E094
:10246800504B00221A707B681B79013BDAB27B68FB
:102478001A717CE07B681B687A68127913441B78B0
:10248800522B03D1474B04221A7070E0454B0022AF
:102498001A707B681B79013BDAB27B681A7166E0B7
:1024A8007B681B687A68127913441B78FB733D4B71
:1024B80005221A705BE07B681B687A6812791344FE
:1024C8001B783A2B1ED1374B07221A707B681B7971
:1024D8000133DAB27B681A727B681A7A7B689B7957
:1024E8001340DAB27B681A727B6800225A727B68E2
:1024F8005A7AFB7B5340DBB283F03603DAB27B684F
:102508005A7234E0274B00221A707B681B79013B12
:10251800DAB27B681A712AE0FB7B013BFB73FB7B19
:10252800002B0CD07B685A7A7B681B68796809791C
:102538000B441B785340DAB27B685A7216E0194B89
:1025480000221A707B681B687A68127913441A781B
:102558007B685B7A9A4209D101231DE0114B002266
:102568001A7004E000BF02E000BF00E000BF7B6813
:102578001B790133DAB27B681A717B681A797B6838
:102588009B791340DAB27B681A717B681B79BA7B36
:102598009A427FF415AF002318461437BD465DF8FC
:1025A800047B7047CE09002080B485B000AFF86086
:1025B800B9607A603B60FB687A681A60FB68002241
:1025C8001A71FB6800225A71FB6800221A72FB68B4
:1025D8000022DA71FB68FF229A71FB6800225A72A6
:1025E800BB683A681A60BB6800221A71BB6800228F
:1025F8005A71BB6800221A72BB680022DA71BB6884
:10260800FF229A71BB6800225A7200BF1437BD4678
:102618005DF8047B70470000DFF834D0FFF792FDC7
:102628000C480D490D4A002302E0D458C450043325
:10263800C4188C42F9D30A4A0A4C002301E01360FB
:102648000432A242FBD30BF035F8FEF773FD704756
:10265800000002200000002030010020A4D700085C
:1026680030010020BC190020FEE7000080B500AF53
:102678000E4B1B680D4A43F4007313600B4B1B6829
:102688000A4A43F480631360084B1B68074A43F403
:1026980080731360032000F06FFE0F2000F008F82D
:1026A800FFF710FB0023184680BD00BF003C024026
:1026B80080B582B000AF7860124B1A68124B1B7855
:1026C80019464FF47A73B3FBF1F3B2FBF3F31846F0
:1026D80000F087FE0346002B01D001230EE07B6843
:1026E8000F2B0AD8002279684FF0FF3000F04FFE18
:1026F800064A7B681360002300E001231846083768
:10270800BD4680BD2C000020340000203000002091
:1027180080B400AF064B1B781A46064B1B6813445F
:10272800044A136000BFBD465DF8047B704700BFD4
:1027380034000020D009002080B400AF034B1B6890
:102748001846BD465DF8047B704700BFD0090020DD
:1027580080B584B000AF7860FFF7EEFFB8607B68A3
:10276800FB60FB68B3F1FF3F05D00A4B1B781A46A4
:10277800FB681344FB6000BFFFF7DEFF0246BB683F
:10278800D31AFA689A42F7D800BF00BF1037BD467F
:1027980080BD00BF3400002080B584B000AF7860F1
:1027A8000023FB737B68002B01D1012333E07B6896
:1027B8001B6C002B09D17868FFF7ACFA7B68002204
:1027C8005A647B68002283F83C207B681B6C03F00A
:1027D8001003002B18D17B681B6C23F4885323F05B
:1027E800020343F002027B681A64786800F06CFB0D
:1027F8007B6800225A647B681B6C23F0030343F058
:1028080001027B681A6401E00123FB737B680022E4
:1028180083F83C20FB7B18461037BD4680BD80B549
:1028280086B000AF786000237B6100233B617B6842
:102838001B681B68FB607B681B685B68BB60FB6888
:1028480003F002037B61BB6803F020033B617B69F3
:10285800002B49D03B69002B46D07B681B6C03F0EA
:102868001003002B05D17B681B6C43F400727B6856
:102878001A647B681B689B6803F04053002B2BD1BC
:102888007B681B7E002B27D17B681B68DB6A03F4FF
:102898007003002B06D07B681B689B6803F4806379
:1028A800002B19D17B681B685A687B681B6822F06B
:1028B80020025A607B681B6C23F480727B681A6460
:1028C8007B681B6C03F48053002B05D17B681B6C61
:1028D80043F001027B681A647868FEF705FA7B68A2
:1028E8001B686FF012021A60FB6803F004037B6137
:1028F800BB6803F080033B617B69002B57D03B69C1
:10290800002B54D07B681B6C03F01003002B05D1FF
:102918007B681B6C43F400527B681A647B681B68F5
:102928009B6803F44013002B39D17B681B689B6BB1
:1029380003F44013002B06D07B681B689B6803F4E4
:102948008063002B2BD17B681B685B6803F4806372
:10295800002B24D17B681B689B6803F04053002B35
:102968001DD17B681B7E002B19D17B681B685A68B8
:102978007B681B6822F080025A607B681B6C23F41A
:1029880080527B681A647B681B6C03F48073002B8D
:1029980005D17B681B6C43F001027B681A64786878
:1029A80000F010FC7B681B686FF00C021A60FB6873
:1029B80003F001037B61BB6803F040033B617B6963
:1029C800002B17D03B69002B14D07B681B681B6851
:1029D80003F00103012B0DD17B681B6C43F480329B
:1029E8007B681A64786800F029F97B681B686FF0C7
:1029F80001021A60FB6803F020037B61BB6803F0E7
:102A080080633B617B69002B15D03B69002B12D09A
:102A18007B685B6C43F002027B685A647B681B68C6
:102A28006FF020021A60786800F012F97B681B6862
:102A38006FF020021A6000BF1837BD4680BD000045
:102A480080B588B000AFF860B9607A6000237B6118
:102A58000023FB77FB6893F83C30012B01D102235C
:102A6800D0E0FB68012283F83C20FB681B689B6868
:102A780003F00103012B18D0FB681B689A68FB68F8
:102A88001B6842F001029A60604B1B68604AA2FB17
:102A980003239A0C13465B0013447B6102E07B69B5
:102AA800013B7B617B69002BF9D1FB681B689B6844
:102AB80003F48073B3F5807F07D1FB681B689A68BD
:102AC800FB681B6822F480729A60FB681B689B682D
:102AD80003F00103012B40F08880FB681B6C23F492
:102AE800E06323F0010343F48072FB681A64FB6817
:102AF8001B685B6803F48063002B07D0FB681B6CC2
:102B080023F4405343F48052FB681A64FB681B6C3F
:102B180003F48053B3F5805F06D1FB685B6C23F048
:102B28000602FB685A6402E0FB6800225A64FB68EC
:102B3800002283F83C20374BBB61FB689B6B364A0D
:102B4800DA63FB689B6B354A1A64FB689B6B344AF3
:102B5800DA64FB681B686FF022021A60FB681B6866
:102B68005A68FB681B6842F080625A60FB681B6801
:102B78009A68FB681B6842F480729A60FB68986BDD
:102B8800FB681B684C331946BA687B6800F0E4FCA4
:102B98000346FB77BB695B6803F01F03002B0FD16B
:102BA800FB681B689B6803F04053002B29D1FB6826
:102BB8001B689A68FB681B6842F080429A6020E0B4
:102BC800FB681B68174A93421BD1FB681B689B680C
:102BD80003F04053002B14D1FB681B689A68FB680C
:102BE8001B6842F080429A600BE0FB681B6C43F064
:102BF8001002FB681A64FB685B6C43F00102FB6817
:102C08005A64FB7F18462037BD4680BD2C00002043
:102C180083DE1B4300230140C930000883310008CC
:102C28009F3100080020014080B483B000AF786075
:102C380000BF0C37BD465DF8047B704780B483B095
:102C480000AF786000BF0C37BD465DF8047B704765
:102C580080B483B000AF786000BF0C37BD465DF824
:102C6800047B704780B485B000AF7860396000237A
:102C7800BB607B6893F83C30012B01D1022313E140
:102C88007B68012283F83C203B681B68092B25D907
:102C98007B681B68D9683B681B689BB21A46134659
:102CA8005B0013441E3B072202FA03F3DA437B68F6
:102CB8001B680A40DA607B681B68D9683B689A68B9
:102CC8003B681B689BB2184603465B0003441E3BE7
:102CD8009A407B681B680A43DA6022E07B681B68BD
:102CE80019693B681B689BB21A4613465B0013447C
:102CF800072202FA03F3DA437B681B680A401A6169
:102D08007B681B6819693B689A683B681B689BB2BB
:102D1800184603465B0003449A407B681B680A43D5
:102D28001A613B685B68062B24D87B681B68596B63
:102D38003B685A6813469B001344053B1F2202FA5E
:102D480003F3DA437B681B680A405A637B681B6895
:102D5800596B3B681B689BB218463B685A68134618
:102D68009B001344053B00FA03F27B681B680A4387
:102D78005A634CE03B685B680C2B24D87B681B6863
:102D8800196B3B685A6813469B001344233B1F2268
:102D980002FA03F3DA437B681B680A401A637B680C
:102DA8001B68196B3B681B689BB218463B685A68DE
:102DB80013469B001344233B00FA03F27B681B680D
:102DC8000A431A6323E07B681B68D96A3B685A6820
:102DD80013469B001344413B1F2202FA03F3DA43D4
:102DE8007B681B680A40DA627B681B68D96A3B68A3
:102DF8001B689BB218463B685A6813469B001344ED
:102E0800413B00FA03F27B681B680A43DA62294BEC
:102E1800FB607B681B68284A93420FD13B681B689C
:102E2800122B0BD1FB685B6823F40002FB685A6025
:102E3800FB685B6843F48002FB685A607B681B6828
:102E48001D4A93422BD13B681B681C4A934203D00E
:102E58003B681B68112B22D1FB685B6823F4800256
:102E6800FB685A60FB685B6843F40002FB685A60C1
:102E78003B681B68114A934211D1114B1B68114AD8
:102E8800A2FB03239A0C13469B0013445B00BB6010
:102E980002E0BB68013BBB60BB68002BF9D17B68D3
:102EA800002283F83C20002318461437BD465DF8FD
:102EB800047B7047002301400020014012000010ED
:102EC8002C00002083DE1B4380B485B000AF7860FF
:102ED800794BFB60FB685B6823F44032FB685A60FF
:102EE800FB685A687B685B681A43FB685A607B68B2
:102EF8001B685A687B681B6822F480725A607B687A
:102F08001B6859687B681B691A027B681B680A433F
:102F18005A607B681B685A687B681B6822F040729D
:102F28005A607B681B6859687B689A687B681B686D
:102F38000A435A607B681B689A687B681B6822F49E
:102F480000629A607B681B6899687B68DA687B68AE
:102F58001B680A439A607B689B6A584A934222D04E
:102F68007B681B689A687B681B6822F070629A60AD
:102F78007B681B6899687B689A6A7B681B680A4348
:102F88009A607B681B689A687B681B6822F04052CD
:102F98009A607B681B6899687B68DA6A7B681B683B
:102FA8000A439A600FE07B681B689A687B681B6815
:102FB80022F070629A607B681B689A687B681B685D
:102FC80022F040529A607B681B689A687B681B688D
:102FD80022F002029A607B681B6899687B681B7EF6
:102FE8005A007B681B680A439A607B6893F8203014
:102FF800002B1BD07B681B685A687B681B6842F4EF
:1030080000625A607B681B685A687B681B6822F4F8
:1030180060425A607B681B6859687B685B6A013B41
:103028005A037B681B680A435A6007E07B681B6881
:103038005A687B681B6822F400625A607B681B68C8
:10304800DA6A7B681B6822F47002DA627B681B68A4
:10305800D96A7B68DB69013B1A057B681B680A43F0
:10306800DA627B681B689A687B681B6822F40072C6
:103078009A607B681B6899687B6893F830305A02BD
:103088007B681B680A439A607B681B689A687B6840
:103098001B6822F480629A607B681B6899687B6869
:1030A8005B699A027B681B680A439A6000BF143701
:1030B800BD465DF8047B7047002301400100000F06
:1030C80080B584B000AF78607B689B6BFB60FB6861
:1030D8001B6C03F05003002B3CD1FB681B6C43F4C2
:1030E8000072FB681A64FB681B689B6803F0405316
:1030F800002B2BD1FB681B7E002B27D1FB681B689C
:10310800DB6A03F47003002B06D0FB681B689B681E
:1031180003F48063002B19D1FB681B685A68FB68AD
:103128001B6822F020025A60FB681B6C23F4807233
:10313800FB681A64FB681B6C03F48053002B05D1F1
:10314800FB681B6C43F00102FB681A64F868FDF722
:10315800CBFD0EE0FB681B6C03F01003002B03D0C3
:10316800F868FFF775FD04E0FB689B6BDB6C78681B
:10317800984700BF1037BD4680BD80B584B000AF0A
:1031880078607B689B6BFB60F868FFF74DFD00BFBC
:103198001037BD4680BD80B584B000AF78607B68CD
:1031A8009B6BFB60FB6840221A64FB685B6C43F016
:1031B8000402FB685A64F868FFF74AFD00BF10373D
:1031C800BD4680BD80B483B000AF786000BF0C37C7
:1031D800BD465DF8047B704780B485B000AF786069
:1031E8007B6803F00703FB600C4BDB68BB60BA68C5
:1031F8004FF6FF031340BB60FB681A02BB6813431A
:1032080043F0BF6343F40033BB60044ABB68D36038
:1032180000BF1437BD465DF8047B704700ED00E041
:1032280080B400AF044BDB681B0A03F007031846A1
:10323800BD465DF8047B704700ED00E080B483B0C4
:1032480000AF0346FB7197F90730002B0BDBFB79C6
:1032580003F01F02074997F907305B09012000FABC
:1032680002F241F8232000BF0C37BD465DF8047B0D
:10327800704700BF00E100E080B483B000AF0346B0
:103288003960FB7197F90730002B0ADB3B68DAB22B
:103298000C4997F907301201D2B20B4483F8002386
:1032A8000AE03B68DAB20849FB7903F00F03043BF4
:1032B8001201D2B20B441A7600BF0C37BD465DF836
:1032C800047B704700E100E000ED00E080B489B0C5
:1032D80000AFF860B9607A60FB6803F00703FB6130
:1032E800FB69C3F10703042B28BF0423BB61FB69F7
:1032F8000433062B02D9FB69033B00E000237B6102
:103308004FF0FF32BB6902FA03F3DA43BB681A4095
:103318007B699A404FF0FF317B6901FA03F3D94387
:103328007B680B40134318462437BD465DF8047B81
:103338007047000080B582B000AF78607B68013BC1
:10334800B3F1807F01D301230FE00A4A7B68013B78
:1033580053600F214FF0FF30FFF78EFF054B00221F
:103368009A60044B07221A60002318460837BD46A6
:1033780080BD00BF10E000E080B582B000AF78608B
:103388007868FFF729FF00BF0837BD4680BD80B5C4
:1033980086B000AF0346B9607A60FB7300237B6197
:1033A800FFF73EFF78617A68B9687869FFF78EFFA2
:1033B800024697F90F3011461846FFF75DFF00BF28
:1033C8001837BD4680BD80B582B000AF0346FB719B
:1033D80097F907301846FFF731FF00BF0837BD4699
:1033E80080BD80B582B000AF78607868FFF7A2FF33
:1033F800034618460837BD4680BD000080B586B034
:1034080000AF786000237B61FFF796F938617B682D
:10341800002B01D1012399E07B68022283F8352033
:103428007B68002283F834207B681B681A687B68F5
:103438001B6822F001021A600FE0FFF77DF90246CF
:103448003B69D31A052B08D97B6820225A657B680B
:10345800032283F83520032378E07B681B681B6808
:1034680003F00103002BE8D17B681B681B687B61B4
:103478007A69384B13407B617B685A687B689B6824
:103488001A437B68DB681A437B681B691A437B68AD
:103498005B691A437B689B691A437B68DB691A433B
:1034A8007B681B6A13437A6913437B617B685B6A99
:1034B800042B07D17B68DA6A7B681B6B13437A6934
:1034C80013437B617B681B687A691A607B681B6899
:1034D8005B697B617B6923F007037B617B685B6ABF
:1034E8007A6913437B617B685B6A042B17D17B681D
:1034F8009B6A7A6913437B617B68DB6A002B0ED079
:10350800786800F0ABFA0346002B08D07B684022AD
:103518005A657B68012283F83520012316E07B6811
:103528001B687A695A61786800F062FA0346FB60A2
:103538007B68DB6D3F229A40FB689A607B680022BB
:103548005A657B68012283F835200023184618370E
:10355800BD4680BD3F8010F080B586B000AFF860F2
:10356800B9607A603B600023FB75FB689B6D3B612B
:10357800FB6893F83430012B01D1022340E0FB684B
:10358800012283F83420FB6893F83530DBB2012B35
:103598002FD1FB68022283F83520FB6800225A6588
:1035A8003B687A68B968F86800F0F4F9FB68DB6D85
:1035B8003F229A403B699A60FB681B681A68FB685F
:1035C8001B6842F016021A60FB681B6C002B07D0C0
:1035D800FB681B681A68FB681B6842F008021A60DF
:1035E800FB681B681A68FB681B6842F001021A60D6
:1035F80005E0FB68002283F834200223FB75FB7D7D
:1036080018461837BD4680BD80B483B000AF7860D7
:103618007B6893F83530DBB2022B04D07B688022BC
:103628005A6501230CE07B68052283F835207B6806
:103638001B681A687B681B6822F001021A60002365
:1036480018460C37BD465DF8047B704780B586B0D8
:1036580000AF78600023BB608E4B1B688E4AA2FBCC
:1036680003239B0A7B617B689B6D3B613B691B68FD
:10367800FB607B68DB6D08229A40FB681340002BD7
:103688001AD07B681B681B6803F00403002B13D057
:103698007B681B681A687B681B6822F004021A6042
:1036A8007B68DB6D08229A403B699A607B685B6D9A
:1036B80043F001027B685A657B68DB6D01229A4002
:1036C800FB681340002B12D07B681B685B6903F012
:1036D8008003002B0BD07B68DB6D01229A403B698D
:1036E8009A607B685B6D43F002027B685A657B6871
:1036F800DB6D04229A40FB681340002B12D07B68D4
:103708001B681B6803F00203002B0BD07B68DB6D82
:1037180004229A403B699A607B685B6D43F004021F
:103728007B685A657B68DB6D10229A40FB68134002
:10373800002B43D07B681B681B6803F00803002B31
:103748003CD07B68DB6D10229A403B699A607B68AD
:103758001B681B6803F48023002B18D07B681B6848
:103768001B6803F40023002B08D17B681B6C002B1B
:1037780024D07B681B6C786898471FE07B689B6C3B
:10378800002B1BD07B689B6C7868984716E07B6899
:103798001B681B6803F48073002B07D17B681B68C8
:1037A8001A687B681B6822F008021A607B681B6C29
:1037B800002B03D07B681B6C786898477B68DB6DAF
:1037C80020229A40FB681340002B00F08F807B6812
:1037D8001B681B6803F01003002B00F087807B68D0
:1037E800DB6D20229A403B699A607B6893F83530FC
:1037F800DBB2052B36D17B681B681A687B681B68AF
:1038080022F016021A607B681B685A697B681B687D
:1038180022F080025A617B681B6C002B03D17B6805
:103828009B6C002B07D07B681B681A687B681B6839
:1038380022F008021A607B68DB6D3F229A403B69E0
:103848009A607B68012283F835207B68002283F820
:1038580034207B681B6D002B7ED07B681B6D7868DD
:10386800984779E07B681B681B6803F48023002B6A
:103878001DD07B681B681B6803F40023002B0DD147
:103888007B685B6C002B31D07B685B6C78689847F1
:103898002CE000BF2C000020B5814E1B7B68DB6B41
:1038A800002B23D07B68DB6B786898471EE07B6829
:1038B8001B681B6803F48073002B0FD17B681B689F
:1038C8001A687B681B6822F010021A607B68012264
:1038D80083F835207B68002283F834207B68DB6B13
:1038E800002B03D07B68DB6B786898477B685B6D3F
:1038F800002B32D07B685B6D03F00103002B22D0D4
:103908007B68052283F835207B681B681A687B680A
:103918001B6822F001021A60BB680133BB607A6938
:103928009A4207D37B681B681B6803F00103002BCE
:10393800F2D100E000BF7B68012283F835207B6864
:10394800002283F834207B68DB6C002B05D07B6871
:10395800DB6C7868984700E000BF1837BD4680BD2B
:1039680080B483B000AF78607B6893F83530DBB201
:1039780018460C37BD465DF8047B704780B483B0A9
:1039880000AF78607B685B6D18460C37BD465DF804
:10399800047B704780B485B000AFF860B9607A6086
:1039A8003B60FB681B681A68FB681B6822F480226E
:1039B8001A60FB681B683A685A60FB689B68402B72
:1039C80008D1FB681B687A689A60FB681B68BA684C
:1039D800DA6007E0FB681B68BA689A60FB681B68D6
:1039E8007A68DA6000BF1437BD465DF8047B70471B
:1039F80080B485B000AF78607B681B68DBB2103B91
:103A0800144AA2FB03231B09FB60134AFB681344F7
:103A18001B781A467B68DA65FB68032B09D97B6833
:103A28001B6823F47F7323F003031A1D7B689A65D0
:103A380007E07B681B6823F47F7323F003037A682D
:103A480093657B689B6D18461437BD465DF8047B0B
:103A5800704700BFABAAAAAA8CD7000880B485B06B
:103A680000AF78600023FB737B689B6ABB607B6850
:103A78009B69002B1FD1BB68032B56D801A252F8B3
:103A880023F000BF9D3A0008AF3A00089D3A0008AD
:103A9800333B00087B68DB6A03F08073002B46D059
:103AA8000123FB7343E07B68DB6AB3F1C07F40D13D
:103AB8000123FB733DE07B689B69B3F5005F21D16F
:103AC800BB68032B37D801A252F823F0E53A000867
:103AD800EB3A0008E53A0008FD3A00080123FB73B9
:103AE80030E07B68DB6A03F08073002B25D001236C
:103AF800FB7322E07B68DB6AB3F1C07F1FD101232F
:103B0800FB731CE0BB68022B03D9BB68032B03D0F3
:103B180018E00123FB7315E07B68DB6A03F0807310
:103B2800002B0ED00123FB730BE000BF0AE000BF9F
:103B380008E000BF06E000BF04E000BF02E000BFED
:103B480000E000BFFB7B18461437BD465DF8047BD8
:103B5800704700BF80B489B000AF78603960002337
:103B68007B6100233B610023BB610023FB6159E1BA
:103B78000122FB6902FA03F37B613B681B687A69DF
:103B880013403B613A697B699A4240F048813B683F
:103B98005B6803F00303012B05D03B685B6803F007
:103BA8000303022B30D17B689B68BB61FB695B0018
:103BB800032202FA03F3DB43BA691340BB613B6893
:103BC800DA68FB695B0002FA03F3BA691343BB6165
:103BD8007B68BA699A607B685B68BB610122FB6994
:103BE80002FA03F3DB43BA691340BB613B685B68C5
:103BF8001B0903F00102FB6902FA03F3BA691343D4
:103C0800BB617B68BA695A603B685B6803F0030371
:103C1800032B17D07B68DB68BB61FB695B00032261
:103C280002FA03F3DB43BA691340BB613B689A6845
:103C3800FB695B0002FA03F3BA691343BB617B6853
:103C4800BA69DA603B685B6803F00303022B23D18F
:103C5800FB69DA087B68083253F82230BB61FB69DC
:103C680003F007039B000F2202FA03F3DB43BA6950
:103C78001340BB613B681A69FB6903F007039B00AB
:103C880002FA03F3BA691343BB61FB69DA087B687C
:103C98000832B96943F822107B681B68BB61FB696D
:103CA8005B00032202FA03F3DB43BA691340BB61EA
:103CB8003B685B6803F00302FB695B0002FA03F3ED
:103CC800BA691343BB617B68BA691A603B685B6871
:103CD80003F44033002B00F0A2800023FB60574B15
:103CE8005B6C564A43F480435364544B5B6C03F457
:103CF8008043FB60FB68524AFB699B08023352F819
:103D08002330BB61FB6903F003039B000F2202FA17
:103D180003F3DB43BA691340BB617B68494A9342AA
:103D280019D07B68484A934213D07B68474A93422C
:103D38000DD07B68464A934207D07B68454A934238
:103D480001D1042308E0072306E0032304E002234B
:103D580002E0012300E00023FA6902F00302920066
:103D68009340BA691343BB613549FB699B08023329
:103D7800BA6941F82320384B9B68BB613B69DB4338
:103D8800BA691340BB613B685B6803F48013002B7E
:103D980003D0BA693B691343BB612F4ABB6993607F
:103DA8002D4BDB68BB613B69DB43BA691340BB61E0
:103DB8003B685B6803F40013002B03D0BA693B69C6
:103DC8001343BB61244ABB69D360234B5B68BB6167
:103DD8003B69DB43BA691340BB613B685B6803F42A
:103DE8000033002B03D0BA693B691343BB611A4AFD
:103DF800BB695360184B1B68BB613B69DB43BA69FD
:103E08001340BB613B685B6803F48033002B03D02D
:103E1800BA693B691343BB610F4ABB691360FB690D
:103E28000133FB61FB690F2B7FF6A2AE00BF00BF19
:103E38002437BD465DF8047B704700BF0038024058
:103E4800003801400000024000040240000802401F
:103E5800000C024000100240003C014080B483B0D6
:103E680000AF78600B467B8013467B707B78002B15
:103E780003D07A887B689A6103E07B881A047B68A0
:103E88009A6100BF0C37BD465DF8047B704780B46B
:103E980085B000AF78600B467B807B685B69FB6010
:103EA8007A88FB6813401A04FB68D9437B880B4067
:103EB8001A437B689A6100BF1437BD465DF8047BDE
:103EC8007047000080B584B000AF78607B68002B35
:103ED80001D101232BE17B6893F83D30DBB2002B45
:103EE80006D17B68002283F83C207868FDF790FFB4
:103EF8007B68242283F83D207B681B681A687B68EE
:103F08001B6822F001021A607B681B681A687B68CC
:103F18001B6842F400421A607B681B681A687B6859
:103F28001B6822F400421A6004F0E6FDF8607B6822
:103F38005B68814A934207D8FB68804A934294BFE2
:103F480001230023DBB206E0FB687D4A934294BF5D
:103F580001230023DBB2002B01D00123E7E0FB683B
:103F6800784AA2FB03239B0CBB607B681B685B68D9
:103F780023F03F017B681B68BA680A435A607B6874
:103F88001B681B6A23F03F017B685B686A4A93429F
:103F980002D8BB68013309E0BB684FF4967202FB94
:103FA80003F3694AA2FB03239B0901337A68126869
:103FB8000B4313627B681B68DB6923F44F4222F0D2
:103FC800FF027B685B685C498B4219D8FB68591E05
:103FD8007B685B685B00B1FBF3F3591C40F6FC732C
:103FE8000B40002B0AD0FB68591E7B685B685B009E
:103FF800B1FBF3F30133C3F30B0351E004234FE0A8
:104008007B689B68002B11D1FB68581E7B68596838
:104018000B465B000B44B0FBF3F30133C3F30B0314
:10402800002B0CBF01230023DBB212E0FB68581EF3
:104038007B6859680B469B000B4499000B44B0FB06
:10404800F3F30133C3F30B03002B0CBF012300234D
:10405800DBB2002B01D0012322E07B689B68002B98
:104068000ED1FB68581E7B6859680B465B000B44F1
:10407800B0FBF3F30133C3F30B0343F400430FE046
:10408800FB68581E7B6859680B469B000B449900D7
:104098000B44B0FBF3F30133C3F30B0343F4404386
:1040A800796809681343CB617B681B681B6823F038
:1040B800C0017B68DA697B681B6A1A437B681B68E6
:1040C8000A431A607B681B689B6823F4034323F048
:1040D800FF037A6811697A68D26811437A681268AE
:1040E8000B4393607B681B68DB6823F0FF017B68E8
:1040F8005A697B689B691A437B681B680A43DA60C4
:104108007B681B681A687B681B6842F001021A60AA
:104118007B6800221A647B68202283F83D207B6834
:1041280000221A637B68002283F83E200023184689
:104138001037BD4680BD00BFA08601007F841E00E9
:10414800FF083D0083DE1B43D34D621080B483B06B
:1041580000AF78607B681B685B6903F08003802B85
:1041680003D17B681B6800221A6100BF0C37BD466B
:104178005DF8047B7047000080B588B002AFF86036
:10418800084611461A4603467B810B463B81134677
:10419800FB80FEF7D1FA7861FB6893F83D30DBB21B
:1041A800202B40F0D9807B690093192301226D49A7
:1041B800F86802F09BFB0346002B01D00223CCE0F9
:1041C800FB6893F83C30012B01D10223C5E0FB6862
:1041D800012283F83C20FB681B681B6803F001037D
:1041E800012B07D0FB681B681A68FB681B6842F044
:1041F80001021A60FB681B681A68FB681B6822F4D6
:1042080000621A60FB68212283F83D20FB68402287
:1042180083F83E20FB6800221A64FB683A6A5A62F7
:10422800FB68BA8C5A85FB685B8D9AB2FB681A8565
:10423800FB684D4ADA62F8883A8979897B69019383
:10424800BB6A00930346F86802F00EF80346002B99
:1042580052D0012381E07A69B96AF86802F060FCFB
:104268000346002B0DD0FB681B6C042B07D1FB68A1
:104278001B681A68FB681B6842F400721A60012305
:104288006BE0FB685B6A1A78FB681B681A61FB685D
:104298005B6A5A1CFB685A62FB681B8D013B9AB229
:1042A800FB681A85FB685B8D9BB2013B9AB2FB6881
:1042B8005A85FB681B685B6903F00403042B1BD158
:1042C800FB681B8D002B17D0FB685B6A1A78FB68AC
:1042D8001B681A61FB685B6A5A1CFB685A62FB68B8
:1042E8001B8D013B9AB2FB681A85FB685B8D9BB2FC
:1042F800013B9AB2FB685A85FB681B8D002BAAD13B
:104308007A69B96AF86802F053FC0346002B0DD0AD
:10431800FB681B6C042B07D1FB681B681A68FB68D9
:104328001B6842F400721A60012316E0FB681B68E0
:104338001A68FB681B6842F400721A60FB68202246
:1043480083F83D20FB68002283F83E20FB680022AA
:1043580083F83C20002300E0022318461837BD46A6
:1043680080BD00BF020010000000FFFF80B58CB0C8
:1043780002AFF860084611461A4603467B810B4691
:104388003B811346FB80FEF7D7F97862FB6893F808
:104398003D30DBB2202B40F014827B6A0093192356
:1043A80001227B49F86802F0A1FA0346002B01D0EC
:1043B800022307E2FB6893F83C30012B01D102236A
:1043C80000E2FB68012283F83C20FB681B681B683D
:1043D80003F00103012B07D0FB681B681A68FB6810
:1043E8001B6842F001021A60FB681B681A68FB68C8
:1043F8001B6822F400621A60FB68222283F83D20C1
:10440800FB68402283F83E20FB6800221A64FB68A0
:104418003A6B5A62FB68BA8E5A85FB685B8D9AB212
:10442800FB681A85FB685B4ADA62F8883A897989F9
:104438007B6A0193BB6B00930346F86801F0AAFFFF
:104448000346002B01D00123BCE1FB681B8D002B28
:1044580013D100233B62FB681B685B693B62FB6806
:104468001B689B693B623B6AFB681B681A68FB68B0
:104478001B6842F400721A6090E1FB681B8D012BE7
:104488001BD1FB681B681A68FB681B6822F48062F2
:104498001A600023FB61FB681B685B69FB61FB68B2
:1044A8001B689B69FB61FB69FB681B681A68FB68F2
:1044B8001B6842F400721A6070E1FB681B8D022BC6
:1044C8001BD1FB681B681A68FB681B6822F48062B2
:1044D8001A60FB681B681A68FB681B6842F4006274
:1044E8001A600023BB61FB681B685B69BB61FB68E2
:1044F8001B689B69BB61BB6950E100237B61FB685A
:104508001B685B697B61FB681B689B697B617B69D6
:1045180044E1FB681B8D032B00F2F180FB681B8DC7
:10452800012B23D17A6AB96BF86802F0BBFB03460A
:10453800002B01D0012345E1FB681B681A69FB6861
:104548005B6AD2B21A70FB685B6A5A1CFB685A62D3
:10455800FB681B8D013B9AB2FB681A85FB685B8D73
:104568009BB2013B9AB2FB685A8517E1FB681B8D29
:10457800022B4ED17B6A0093BB6B00220649F86878
:1045880002F0B4F90346002B08D001231AE100BF5A
:10459800020010000000FFFF04000100FB681B6818
:1045A8001A68FB681B6842F400721A60FB681B6893
:1045B8001A69FB685B6AD2B21A70FB685B6A5A1C9C
:1045C800FB685A62FB681B8D013B9AB2FB681A852F
:1045D800FB685B8D9BB2013B9AB2FB685A85FB680E
:1045E8001B681A69FB685B6AD2B21A70FB685B6A5F
:1045F8005A1CFB685A62FB681B8D013B9AB2FB6828
:104608001A85FB685B8D9BB2013B9AB2FB685A85A1
:10461800C4E07B6A0093BB6B00226C49F86802F027
:1046280065F90346002B01D00123CBE0FB681B682A
:104638001A68FB681B6822F480621A60FB681B68B2
:104648001A69FB685B6AD2B21A70FB685B6A5A1C0B
:10465800FB685A62FB681B8D013B9AB2FB681A859E
:10466800FB685B8D9BB2013B9AB2FB685A857B6AFB
:104678000093BB6B00225549F86802F037F90346EE
:10468800002B01D001239DE0FB681B681A68FB68BA
:104698001B6842F400721A60FB681B681A69FB68A1
:1046A8005B6AD2B21A70FB685B6A5A1CFB685A6272
:1046B800FB681B8D013B9AB2FB681A85FB685B8D12
:1046C8009BB2013B9AB2FB685A85FB681B681A6962
:1046D800FB685B6AD2B21A70FB685B6A5A1CFB689B
:1046E8005A62FB681B8D013B9AB2FB681A85FB680E
:1046F8005B8D9BB2013B9AB2FB685A854EE07A6AA1
:10470800B96BF86802F0CEFA0346002B01D00123FA
:1047180058E0FB681B681A69FB685B6AD2B21A70BA
:10472800FB685B6A5A1CFB685A62FB681B8D013B7D
:104738009AB2FB681A85FB685B8D9BB2013B9AB203
:10474800FB685A85FB681B685B6903F00403042B4C
:1047580024D1FB681B8D032B07D1FB681B681A68E3
:10476800FB681B6822F480621A60FB681B681A6980
:10477800FB685B6AD2B21A70FB685B6A5A1CFB68FA
:104788005A62FB681B8D013B9AB2FB681A85FB686D
:104798005B8D9BB2013B9AB2FB685A85FB681B8D07
:1047A800002B7FF4B6AEFB68202283F83D20FB681F
:1047B800002283F83E20FB68002283F83C20002377
:1047C80000E0022318462837BD4680BD04000100DA
:1047D80080B58AB002AFF860084611461A4603460B
:1047E8007B810B463B811346FB8000237B61FDF7F1
:1047F800A3FFF861FB6893F83D30DBB2202B40F053
:1048080036819D4B1B68DB089C4AA2FB03231A0ACE
:1048180013469B0013449A0013447B617B69013B58
:104828007B617B69002B12D1FB6800221A63FB684D
:10483800202283F83D20FB68002283F83E20FB6895
:104848001B6C43F02002FB681A64022310E1FB682A
:104858001B689B6903F00203022BDFD0FB6893F807
:104868003C30012B01D1022302E1FB68012283F8CD
:104878003C20FB681B681B6803F00103012B07D071
:10488800FB681B681A68FB681B6842F001021A6023
:10489800FB681B681A68FB681B6822F400621A60D0
:1048A800FB68212283F83D20FB68402283F83E20E4
:1048B800FB6800221A64FB68BA6A5A62FB68BA8D00
:1048C8005A85FB685B8D9AB2FB681A85FB686C4A4F
:1048D800DA627A89FB685A643A89FB689A64FA88CA
:1048E800FB68DA64FB6800221A65FB681B8D002BE5
:1048F80000F0A980FB685B6B002B2AD0FB685B6B20
:10490800604ADA63FB685B6B5F4ADA64FB685B6B7F
:1049180000221A64FB685B6B00225A64FB685B6BBD
:1049280000229A64FB685B6B00221A65FB68586B6F
:10493800FB685B6A1946FB681B6810331A46FB68FC
:104948001B8DFEF709FE0346FB76FB7E002B66D126
:1049580013E0FB68202283F83D20FB68002283F8DF
:104968003E20FB681B6C43F08002FB681A64FB68FE
:10497800002283F83C2001237AE0F8883A89798973
:10498800FB690193232300930346F86801F06CFC4C
:104998000346002B22D0FB685B6B1846FEF734FEFB
:1049A8000346FB76FB685B6B0022DA63FB681B68D7
:1049B8001A68FB681B6822F480621A60FB68002290
:1049C8001A85FB6800225A85FB681B681A68FB6811
:1049D8001B6822F001021A60012349E000233B61B1
:1049E800FB681B685B693B61FB681B689B693B61F3
:1049F8003B69FB68002283F83C20FB681B685A6807
:104A0800FB681B6842F480725A60FB681B685A682E
:104A1800FB681B6842F400625A60002328E0FB68C8
:104A2800202283F83D20FB68002283F83E20FB68A3
:104A38001B6C43F01002FB681A64FB68002283F8C1
:104A48003C20012314E0FB68202283F83D20FB680A
:104A5800002283F83E20FB681B6C43F04002FB6891
:104A68001A64FB68002283F83C20012300E002233B
:104A780018462037BD4680BD2C00002089B5F814A3
:104A88000000FFFF6D6500082B67000880B588B03F
:104A980000AF78600023BB617B681B685B687B6143
:104AA8007B68DB6A3B617B6893F83E30FB737B680D
:104AB80093F83D30BB73FB7B102B03D0FB7B402B63
:104AC80040F0C1807B681B689B69BB617B681B6881
:104AD8005B69FB61FB6903F00103002B0DD13B69A6
:104AE800B3F52A0F03D03B69B3F12A4F01D1012353
:104AF80000E00023012B00F03281FB6903F0010381
:104B0800002B0CD07B695B0A03F00103002B06D055
:104B1800786802F053F9786800F087FD92E0FB6945
:104B2800DB0803F00103002B09D07B695B0A03F063
:104B38000103002B03D0786800F0FDFD82E0FB69DB
:104B48005B0803F00103002B09D07B695B0A03F0C3
:104B58000103002B03D0786800F017FE72E0BB69F0
:104B68009B0803F00103002B3BD07B681B685B6844
:104B780003F40063B3F5006F00F0F380FB69DB0911
:104B880003F00103002B0FD07B699B0A03F001039C
:104B9800002B09D0FB699B0803F00103002B03D10C
:104BA800786800F0DFF94DE0FB699B0803F001032A
:104BB800002B00F0D6807B695B0A03F00103002B11
:104BC80000F0CF80BB7B212B03D1786800F066FA18
:104BD800C7E0FB7B402B40F0C480786800F0D4FA33
:104BE800BFE07B681B685B6803F40063B3F5006F84
:104BF80000F0B780FB699B0903F00103002B0FD07D
:104C08007B699B0A03F00103002B09D0FB699B0811
:104C180003F00103002B03D1786800F04DFB11E08D
:104C2800FB699B0803F00103002B00F09A807B6965
:104C38005B0A03F00103002B00F09380786800F012
:104C480003FC8EE08DE07B681B6C002B04D07B6836
:104C58001B685B69FB6107E07B681B689B69BB613C
:104C68007B681B685B69FB61FB695B0803F00103F8
:104C7800002B12D07B695B0A03F00103002B0CD0D8
:104C88007B681B6C002B03D07B681B689B69BB612E
:104C9800B969786800F0C8FF66E0FB691B0903F092
:104CA8000103002B09D07B695B0A03F00103002B89
:104CB80003D0786801F002F856E0BB7B212B02D0C4
:104CC800BB7B292B25D1FB69DB0903F00103002BF2
:104CD8000FD07B699B0A03F00103002B09D0FB6905
:104CE8009B0803F00103002B03D1786800F0DEFE77
:104CF80039E0FB699B0803F00103002B33D07B6983
:104D08005B0A03F00103002B2DD0786800F00BFF3D
:104D180029E0FB699B0903F00103002B0FD07B6995
:104D28009B0A03F00103002B09D0FB699B0803F0E1
:104D38000103002B03D1786800F016FF14E0FB692B
:104D48009B0803F00103002B0ED07B695B0A03F07C
:104D58000103002B08D0786800F044FF04E000BF8E
:104D680002E000BF00E000BF2037BD4680BD80B52F
:104D78008AB000AF78607B681B685B693B627B68C0
:104D88001B685B68FB6100237B627B6893F83E309D
:104D9800FB763B6A1B0A03F00103002B0ED0FB696C
:104DA8001B0A03F00103002B08D07B6A43F00103C0
:104DB8007B627B681B686FF480725A613B6A5B0A8E
:104DC80003F00103002B0ED0FB691B0A03F001035B
:104DD800002B08D07B6A43F002037B627B681B6868
:104DE8006FF400725A613B6A9B0A03F00103002BBF
:104DF8003FD0FB691B0A03F00103002B39D0FB7E6F
:104E0800BB767B685B8D9BB27B617B6893F83D309A
:104E1800FB747B681B6BFB60BB7E202B12D17B690C
:104E2800002B0FD1FB7C212B08D0FB7C292B05D034
:104E3800FB7C282B06D1FB68212B03D1786801F075
:104E48006DF816E07B681B686FF480625A617B6AB4
:104E580043F004037B62FB7E102B02D0FB7E402BC9
:104E680007D17B681B681A687B681B6842F400726C
:104E78001A603B6ADB0A03F00103002B0ED0FB69C2
:104E88001B0A03F00103002B08D07B6A43F00803D8
:104E98007B627B681B686FF400625A617B6A002B37
:104EA80008D07B681A6C7B6A1A437B681A64786836
:104EB80001F0A8F800BF2837BD4680BD80B483B094
:104EC80000AF786000BF0C37BD465DF8047B7047C3
:104ED80080B483B000AF786000BF0C37BD465DF882
:104EE800047B704780B483B000AF786000BF0C3794
:104EF800BD465DF8047B704780B483B000AF78602E
:104F080000BF0C37BD465DF8047B704780B483B0A2
:104F180000AF78600B46FB7013463B8000BF0C3730
:104F2800BD465DF8047B704780B483B000AF7860FD
:104F380000BF0C37BD465DF8047B704780B483B072
:104F480000AF786000BF0C37BD465DF8047B704742
:104F580080B483B000AF786000BF0C37BD465DF801
:104F6800047B704780B584B000AF78607B6893F8A5
:104F78003D30FB737B6893F83E30BB737B68DB6A1C
:104F8800BB607B681B8D002B50D1FB7B212B4DD147
:104F9800BB68082B1DD0BB68202B1AD0BB6813F543
:104FA800803F16D07B681B685A687B681B6822F4B0
:104FB800E0625A607B6811221A637B68002283F8DA
:104FC8003E207B68202283F83D207868FFF776FF33
:104FD80060E07B681B685A687B681B6822F4E062A3
:104FE8005A607B681B681A687B681B6842F4007209
:104FF8001A607B6800221A637B68202283F83D20B0
:105008007B6893F83E30DBB2402B07D17B680022E7
:1050180083F83E207868FBF787FE3BE07B68002238
:1050280083F83E207868FFF749FF33E0FB7B212BAC
:1050380005D0BB7B402B2DD1FB7B222B2AD17B6853
:105048005B8D9BB2002B08D17B681B685A687B6814
:105058001B6822F480625A601CE07B6893F83E303B
:10506800DBB2402B03D1786800F08EF812E07B6841
:105078005B6A1A787B681B681A617B685B6A5A1CD2
:105088007B685A627B685B8D9BB2013B9AB27B68F6
:105098005A85FFE700BF1037BD4680BD80B584B094
:1050A80000AF78607B68DB6AFB607B6893F83D3013
:1050B800DBB2212B64D17B685B8D9BB2002B12D0B5
:1050C8007B685B6A1A787B681B681A617B685B6A15
:1050D8005A1C7B685A627B685B8D9BB2013B9AB213
:1050E8007B685A854CE0FB68082B1DD0FB68202B99
:1050F8001AD0FB6813F5803F16D07B681B685A6886
:105108007B681B6822F4E0625A607B6811221A638C
:105118007B68002283F83E207B68202283F83D20AC
:105128007868FFF7CBFE2BE07B681B685A687B68C2
:105138001B6822F4E0625A607B681B681A687B6807
:105148001B6842F400721A607B6800221A637B684D
:10515800202283F83D207B6893F83E30DBB2402B59
:1051680007D17B68002283F83E207868FBF7DCFDD6
:1051780006E07B68002283F83E207868FFF79EFEF1
:1051880000BF1037BD4680BD80B584B000AF7860E1
:105198007B6893F83D30FB737B681B6D002B1DD13A
:1051A8007B68DB6C012B0BD17B689B6CDAB27B686C
:1051B8001B681A617B681B6D9A1C7B681A6577E00F
:1051C8007B689B6C9BB21B12DAB27B681B681A6106
:1051D8007B681B6D5A1C7B681A6569E07B681B6DD0
:1051E800012B0BD17B689B6CDAB27B681B681A6158
:1051F8007B681B6D5A1C7B681A6559E07B681B6DC0
:10520800022B52D1FB7B222B0DD17B681B681A68BD
:105218007B681B6842F480721A607B681B6D5A1C9D
:105228007B681A6544E07B685B8D9BB2002B15D0C8
:10523800FB7B212B12D17B685B6A1A787B681B6821
:105248001A617B685B6A5A1C7B685A627B685B8D53
:105258009BB2013B9AB27B685A8529E07B685B8DDB
:105268009BB2002B24D1FB7B212B21D17B681B68AF
:105278005A687B681B6822F4E0625A607B681B6886
:105288001A687B681B6842F400721A607B68002207
:105298001A637B68202283F83D207B68002283F80C
:1052A8003E207868FBF740FD02E07868FEF74EFF85
:1052B80000BF1037BD4680BD80B584B000AF7860B0
:1052C8007B6893F83D30DBB2222B40F0B9807B68D5
:1052D800DB6AFB607B685B8D9BB2BB60BB68032BA2
:1052E80021D97B681B681A697B685B6AD2B21A701D
:1052F8007B685B6A5A1C7B685A627B685B8D9BB2D1
:10530800013B9AB27B685A857B685B8D9BB2032B05
:1053180040F096807B681B685A687B681B6822F49B
:1053280080625A608CE07B68DB6A022B7FD0BB68A6
:10533800012B02D0BB68002B79D1786801F080FC82
:105348000346002B4CD17B681B681A687B681B6876
:1053580022F480621A607B681B685A687B681B6845
:1053680022F4E0625A607B681B681A697B685B6A92
:10537800D2B21A707B685B6A5A1C7B685A627B6877
:105388005B8D9BB2013B9AB27B685A857B68202271
:1053980083F83D207B6893F83E30DBB2402B0AD17E
:1053A8007B68002283F83E207B6800221A637868B5
:1053B800FBF7CAFC44E07B68002283F83E20FB68C8
:1053C800082B02D0FB68202B03D17B6800221A63CC
:1053D80002E07B6812221A637868FFF779FD2FE0F4
:1053E8007B681B685A687B681B6822F4E0625A6015
:1053F8007B681B681A697B685B6AD2B21A707B6823
:105408005B6A5A1C7B685A627B685B8D9BB2013B66
:105418009AB27B685A857B68202283F83D207B6896
:10542800002283F83E207868FFF788FD08E07B6853
:105438001B685A687B681B6822F480625A60FFE721
:1054480000BF1037BD4680BD80B584B000AF78601E
:105458007B68DB6AFB607B685B8D9BB2042B1BD18E
:105468007B681B685A687B681B6822F480625A60F4
:105478007B681B681A697B685B6AD2B21A707B68A2
:105488005B6A5A1C7B685A627B685B8D9BB2013BE6
:105498009AB27B685A85C4E07B685B8D9BB2032B0C
:1054A80029D17B681B685A687B681B6822F4806274
:1054B8005A60FB68042B0AD0FB68022B07D07B6874
:1054C8001B681A687B681B6822F480621A607B6814
:1054D8001B681A697B685B6AD2B21A707B685B6A60
:1054E8005A1C7B685A627B685B8D9BB2013B9AB2FF
:1054F8007B685A8595E07B685B8D9BB2022B7DD1DA
:10550800FB68012B02D0FB68102B08D17B681B6855
:105518001A687B681B6822F480621A6016E0FB68D0
:10552800042B02D0FB68022B08D17B681B681A6821
:105538007B681B6842F480621A6007E07B681B681E
:105548001A687B681B6842F400721A607B681B68E3
:105558001A697B685B6AD2B21A707B685B6A5A1CEC
:105568007B685A627B685B8D9BB2013B9AB27B6811
:105578005A857B681B681A697B685B6AD2B21A70A5
:105588007B685B6A5A1C7B685A627B685B8D9BB23E
:10559800013B9AB27B685A857B681B685A687B68AE
:1055A8001B6822F440725A607B68202283F83D20F1
:1055B8007B6893F83E30DBB2402B0AD17B6800222F
:1055C80083F83E207B6800221A637868FBF7BCFBEF
:1055D80027E07B68002283F83E20FB68082B02D076
:1055E800FB68202B03D17B6800221A6302E07B68EA
:1055F80012221A637868FFF76BFC12E07B681B685D
:105608001A697B685B6AD2B21A707B685B6A5A1C3B
:105618007B685A627B685B8D9BB2013B9AB27B6860
:105628005A8500BF1037BD4680BD80B483B000AF37
:1056380078607B6893F83E30DBB2402B17D17B68EB
:105648001B6D002B09D17B685B6CDBB21A467B684B
:105658001B6802F0FE021A6167E07B685B6CDBB2D4
:1056680043F00103DAB27B681B681A615DE07B686E
:105678001B69B3F5804F33D17B6893F83D30DBB2BB
:10568800212B09D17B685B6CDBB21A467B681B68EF
:1056980002F0FE021A6108E07B685B6CDBB243F043
:1056A8000103DAB27B681B681A617B685B6B002BAD
:1056B80004D07B685B6BDB6B002B08D17B689B6B32
:1056C800002B32D07B689B6BDB6B002B2DD07B686B
:1056D8001B685A687B681B6842F400625A6024E0C1
:1056E8007B681B6D002B0ED17B685B6C9BB2DB115A
:1056F800DBB203F00603DBB263F00F03DAB27B68B8
:105708001B681A6111E07B681B6D012B0DD17B684A
:105718005B6C9BB2DB11DBB203F00603DBB263F018
:105728000E03DAB27B681B681A6100BF0C37BD46EE
:105738005DF8047B704780B483B000AF78607B6805
:105748005B6CDAB27B681B681A617B685B6B002B49
:1057580004D07B685B6BDB6B002B08D17B689B6B91
:10576800002B0CD07B689B6BDB6B002B07D07B6816
:105778001B685A687B681B6842F400625A6000BF65
:105788000C37BD465DF8047B704780B491B000AF1C
:1057980078607B6893F83E3087F83F307B68DB6A37
:1057A800BB637B681B6B7B637B6893F83D30DBB224
:1057B800222B40F069817B681B6D002B0FD197F875
:1057C8003F30402B0BD100233B637B681B685B6930
:1057D8003B637B681B689B693B633B6B60E17B6851
:1057E8001B6D002B1DD17B681B69B3F5404F18D189
:1057F8000023FB627B681B685B69FB627B681B6834
:105808009B69FB62FB6A7B681B681A687B681B687C
:1058180042F480721A607B681B6D5A1C7B681A659B
:105828003EE17B685B8D9BB2002B13D10023BB62EA
:105838007B681B685B69BB627B681B689B69BB6292
:10584800BB6A7B681B681A687B681B6842F4007235
:105858001A6015E17B685B8D9BB2012B40F08A8052
:10586800BB6B13F5803F37D17B681B681A687B6870
:105878001B6822F480621A607B681B685B6803F40B
:105888000063B3F5006F13D17B681B681A687B68E7
:105898001B6822F480621A6000237B627B681B68A5
:1058A8005B697B627B681B689B697B627B6AE7E05C
:1058B80000233B627B681B685B693B627B681B68F3
:1058C8009B693B623B6A7B681B681A687B681B683C
:1058D80042F400721A60D3E0BB6B082B2ED0BB6B6E
:1058E800202B2BD07B6B122B02D1BB6B012B25D12C
:1058F800BB6B042B0ED0BB6B022B0BD0BB6B102BDE
:1059080008D07B681B681A687B681B6822F4806271
:105918001A6007E07B681B681A687B681B6842F49A
:1059280080621A600023FB617B681B685B69FB610E
:105938007B681B689B69FB61FB69A1E07B681B684E
:105948001A687B681B6822F480621A600023BB61B6
:105958007B681B685B69BB617B681B689B69BB6173
:10596800BB697B681B681A687B681B6842F4007215
:105978001A6085E07B685B8D9BB2022B4DD1BB6BB7
:10598800042B16D0BB6B022B13D0BB6B102B10D083
:105998007B681B681A687B681B6822F480621A603F
:1059A8007B681B681A687B681B6842F400621A608F
:1059B80007E07B681B681A687B681B6842F4806292
:1059C8001A607B681B685B6803F40063B3F5006FBB
:1059D80017D1BB6B13F5803F0BD0BB6B012B08D0E5
:1059E800BB6B082B05D0BB6B102B02D0BB6B202BDD
:1059F80007D17B681B685A687B681B6842F4805231
:105A08005A6000237B617B681B685B697B617B68EC
:105A18001B689B697B617B6932E07B681B681A683D
:105A28007B681B6842F480621A607B681B685B684D
:105A380003F40063B3F5006F17D1BB6B13F5803F18
:105A48000BD0BB6B012B08D0BB6B082B05D0BB6BF5
:105A5800102B02D0BB6B202B07D17B681B685A68C0
:105A68007B681B6842F480525A6000233B617B6864
:105A78001B685B693B617B681B689B693B613B6991
:105A88007B6800221A650BE00023FB607B681B68BB
:105A98005B69FB607B681B689B69FB60FB68FFE7D1
:105AA80000BF4437BD465DF8047B704780B584B0BD
:105AB80000AF78607B6893F83D30FB737B685B8D43
:105AC8009BB2002B2BD07B685B6A1A787B681B68BB
