:020000040800F2
:1000000000000220E9250008211F0008291F000820
:10001000311F0008391F0008411F000800000000C0
:10002000000000000000000000000000491F000860
:10003000571F000800000000651F0008731F00081C
:100040003926000839260008392600083926000814
:100050003926000839260008392600083926000804
:10006000392600083926000839260008811F0008B3
:1000700039260008392600083926000839260008E4
:1000800039260008951F0008A91F0008000000007D
:1000900000000000000000000000000039260008F9
:1000A000BD1F0008D11F0008E51F0008F91F000848
:1000B0000D200008212000083520000849200008F4
:1000C0005D20000839260008392600083926000876
:1000D00039260008712000083926000800000000B9
:1000E00039260008392600083926000800000000DB
:1000F0000000000000000000000000003926000899
:1001000000000000392600083926000839260008BA
:1001100000000000000000000000000000000000DF
:1001200085200008392600083926000839260008ED
:100130003926000800000000000000000000000058
:1001400000000000000000000000000099200008EE
:100150003926000839260008392600083926000803
:1001600039260008392600080000000000000000C1
:10017000000000000000000000000000000000007F
:100180000000000039260008000000000000000008
:08019000392600083926000899
:1001980010B5054C237833B9044B13B10448AFF3B9
:1001A80000800123237010BD3001002000000000F2
:1001B8008CE6000808B5034B1BB103490348AFF3AD
:1001C800008008BD00000000340100208CE6000813
:1001D80053B94AB9002908BF00281CBF4FF0FF31A6
:1001E8004FF0FF3000F088B9ADF1080C6DE904CE8E
:1001F80000F006F8DDF804E0DDE9022304B07047FA
:100208002DE9F047089D8E4604468846002B4AD1C2
:100218008A42174662D9B2FA82F64EB1C6F1200375
:1002280001FA06F820FA03F3B74043EA0808B44095
:100238004FEA174E1FFA87FCB8FBFEF1230C0EFBA2
:10024800118843EA084301FB0CF29A4209D9FB18CA
:1002580001F1FF3080F0EA809A4240F2E7800239EB
:100268003B449A1AA3B2B2FBFEF00EFB102243EAFB
:10027800024300FB0CFC9C4509D9FB1800F1FF3236
:1002880080F0D6809C4540F2D3803B44023840EA57
:100298000140A3EB0C0300211DB1F3400022C5E986
:1002A8000032BDE8F0878B4205D90DB1C5E90001E0
:1002B80000210846F5E7B3FA83F1002946D17345D2
:1002C80002D3824200F20581841A6EEB03020120F8
:1002D8009046002DE5D0C5E90048E2E7002A00F085
:1002E8009080B2FA82F6002E40F0A4808A1A030C9D
:1002F8004FEA174E80B2BCB20121B2FBFEFC0EFBE6
:100308001C2243EA024304FB0CF29A4207D9FB1869
:100318000CF1FF3802D29A4200F2E080C4469B1AE0
:10032800B3FBFEF20EFB123340EA034302FB04F474
:100338009C4207D9FB1802F1FF3002D29C4200F21E
:10034800CA8002461B1B42EA0C40A5E7C1F1200601
:100358008B4022FA06F71F430EFA01F420FA06F33F
:100368002EFA06FE4FEA1749234300FA01F81FFA4E
:1003780087FCBEFBF9F01C0C09FB10EE44EA0E44A6
:1003880000FB0CFEA64502FA01F209D93C1900F15E
:10039800FF3A80F09C80A64540F2998002383C44A0
:1003A800A4EB0E041FFA83FEB4FBF9F309FB134414
:1003B8004EEA044403FB0CFCA44508D93C1903F19C
:1003C800FF3E80F08280A4457FD9023B3C4443EA4B
:1003D8000040A4EB0C04A0FB02EC64457346E14624
:1003E80062D35FD05DB1B8EB030264EB090404FA91
:1003F80006F622FA01F31E43CC40C5E90064002149
:100408004FE7B1FBF2FC010C41EA0E4180B240EA31
:1004180001423B4638463C46B846BE462026B1FB1C
:10042800F7F1A2EB080241EA0C4166E7014618E73A
:1004380010462CE7C6F120022EFA02F3B740B1406D
:1004480020FA02F24FEA174E0A43B3FBFEF8BCB299
:100458000EFB1833110C41EA034108FB04F9B040C4
:1004680089454FEA104380B23ED9791808F1FF3C1C
:1004780001D289451FD8A1EB0901B1FBFEF909FB9F
:1004880004F80EFB191192B242EA0142424529D200
:10049800BA1809F1FF31C4D24245C2D2A9F102010A
:1004A8003A44BEE7F0459DD2BEEB02036CEB070C65
:1004B8000138E14696E7A7EB09094944A8F1020C7F
:1004C800B1FBFEF909FB04F8DBE773467FE750460A
:1004D80066E70846FDE63B44023A33E7ACF1020C16
:1004E8003B441CE749469CE7A1EB0901C446B1FB24
:1004F800FEF909FB04F8C4E7704700BF80B582B075
:1005080000AF78600C22796810480EF0ADF8104BF7
:1005180000221A700F4B00221A700F4B00221A800B
:100528000E4B00221A800E4B00221A800D4B00221F
:100538001A800D4B00221A700C4B00221A600C4BCB
:1005480000221A6000BF0837BD4680BD7401002034
:100558004C010020680100206E010020700100207D
:100568006C0100206A010020500100206001002079
:100578006401002080B400AF134B1B68002B04D02B
:10058800114B1B68013B104A1360104B1B68002B72
:100598000BD00E4B1B68013B0C4A13600B4B1B68BE
:1005A800002B02D10A4B00221A700A4B1B68002B41
:1005B80004D0084B1B68013B064A136000BFBD46C8
:1005C8005DF8047B704700BF5401002058010020EB
:1005D800680100205C01002080B485B000AF78601D
:1005E8000023FB600AE00A4AFB6832F81310094A44
:1005F800FB6822F81310FB680133FB60FB68072BCC
:10060800F1DD00BF00BF1437BD465DF8047B7047BD
:10061800A4040020B404002080B483B000AF786044
:10062800044B01221A7000BF0C37BD465DF8047BED
:10063800704700BFE106002080B483B000AF786047
:10064800044B01221A7000BF0C37BD465DF8047BCD
:10065800704700BFE206002080B582B000AF786026
:100668007B681B682A4A934216D12A4B1B780133B0
:10067800DAB2284B1A70274B1B78282B07D1254B49
:1006880000221A70244A137843F08003137008225A
:100698002249234802F0B8F97B681B68B3F1804F00
:1006A80032D1204B1B781A461F4B012199541D4B00
:1006B8001B780133DAB21B4B1A701A4B1B7803F004
:1006C8000F03DAB2174B1A70184B1B78013BDAB2DA
:1006D800164B1A70154B1B78002B15D1134B05229E
:1006E8001A70104B1B781A460F4B002199540D4B6A
:1006F8001B780133DAB20B4B1A700A4B1B7803F0E4
:100708000F03DAB2074B1A7000BF0837BD4680BD29
:1007180000000140A0040020E0060020A4040020FE
:100728008001002000070020F00600202A00002099
:1007380090B484B000AF786039600023FB7318E090
:10074800FB7B7A681A44104B19680F4B5B79581C6D
:10075800C4B20D4844710B4412781A700A4B5A7986
:10076800094B9B791340DAB2074B5A71FB7B013373
:10077800FB73FB7B3A689A42E2D800BF00BF103790
:10078800BD4690BC704700BFD004002080B5C2B001
:1007980000AF224B1A79214B5B799A4239D01F4816
:1007A80001F0E8FD0346002B03D01D491B4800F06B
:1007B80039F8002387F807311DE0194B1A68184BE0
:1007C8001B7A591CC8B2164908721A4497F807319F
:1007D800117807F58472A2F58272D154104B1A7AF7
:1007E8000F4B9B791340DAB20D4B1A7297F8073109
:1007F800013387F807310A4BDB7997F807219A42CA
:10080800DBD3074BDB791A463B1D114618460DF022
:100818009DFA00BF07F58477BD4680BDD00400204F
:10082800C404002080B582B000AF786039607B686E
:100838001B687A68127A13441B78F03B042B00F289
:100848009F8101A252F823F0650800088508000876
:10085800A508000889090008C50A00080222F02135
:10086800386801F031FC0D21386801F0DCFC3B6888
:100878005B7A1946386801F0D6FC97E10D22F12120
:10088800386801F021FC8449386801F0FAFC3B68BB
:100898005B7A1946386801F0C6FC87E10D22F2211F
:1008A800386801F011FC7D4BB3F900207C4B1A80AD
:1008B8007B4B1B781946386801F0B5FC784B5B78A0
:1008C8001946386801F0AFFC764BB3F90020744B39
:1008D8001A80734B1B781946386801F0A4FC704BDA
:1008E8005B781946386801F09EFC6F4BB3F900201D
:1008F8006B4B1A806A4B1B781946386801F093FCD9
:10090800674B5B781946386801F08DFC674BB3F983
:100918000020634B1A80624B1B781946386801F037
:1009280082FC5F4B5B781946386801F07CFC604BB1
:10093800B3F900205A4B1A80594B1B78194638686E
:1009480001F071FC564B5B781946386801F06BFC76
:10095800584BB3F90020524B1A80514B1B7819465B
:10096800386801F060FC4E4B5B781946386801F036
:100978005AFC3B685B7A1946386801F054FC15E16B
:100988001122F321386801F09FFB4B4B1A88444B26
:100998001A80434B1B781946386801F044FC404BD9
:1009A8005B781946386801F03EFC434B5A883C4B4B
:1009B8001A803B4B1B781946386801F034FC384BD9
:1009C8005B781946386801F02EFC3B4B9A88344B0B
:1009D8001A80334B1B781946386801F024FC304BD9
:1009E8005B781946386801F01EFC334BDA882C4BCB
:1009F8001A802B4B1B781946386801F014FC284BD9
:100A08005B781946386801F00EFC2B4B1A89244B89
:100A18001A80234B1B781946386801F004FC204BD8
:100A28005B781946386801F0FEFB234B5A891C4B4A
:100A38001A801B4B1B781946386801F0F4FB184BD9
:100A48005B781946386801F0EEFB1B4B9A89144B0A
:100A58001A80134B1B781946386801F0E4FB104BD9
:100A68005B781946386801F0DEFB134BDA890C4BCA
:100A78001A800B4B1B781946386801F0D4FB084BD9
:100A88005B781946386801F0CEFB3B685B7A1946FB
:100A9800386801F0C8FB89E0ECE60008E4060020AD
:100AA800DC060020E6060020E8060020EA06002012
:100AB800EC060020EE060020B40400200222F421F7
:100AC800386801F001FB0D21386801F0ACFB3B6888
:100AD8005B7A1946386801F0A6FB00220121786884
:100AE80001F013FC03461A46324B1A70002201210A
:100AF800786801F00AFC03461A462E4B5A70002209
:100B08000121786801F001FC03461A46294B9A70C6
:100B180000220121786801F0F8FB03461A46254BAC
:100B2800DA70244B1B68DAB2234B1A7000220121B9
:100B3800786801F0EAFB03461A461E4B1A70002239
:100B48000121786801F0E1FB03461A46194B5A70F7
:100B580000220121786801F0D8FB03461A46154B9C
:100B68009A7000220121786801F0CFFB03461A46EB
:100B7800104BDA700F4B1B68DAB2104B1A7015E085
:100B88007B681B687A68127A13441B78022219461C
:100B9800386801F099FAFF21386801F044FB3B6896
:100BA8005B7A1946386801F03EFB00BF00BF083782
:100BB800BD4680BDDC06002001070020020700209A
:100BC80080B500AF1B4B1B7823F07F03DBB2002BF3
:100BD8002ED0184A137823F080031370164B1B7815
:100BE800013BDAB2144B1A70144B1B78013BDAB292
:100BF800124B1A7000F0D0F8FFF7BCFC0F4B1B78B3
:100C0800002B07D10D4B02221A700A4A137843F0C1
:100C180040031370084B1B78002B09D1064B0A229E
:100C28001A70044A137843F02003137000F008F890
:100C380000BF80BDE0060020280000202900002019
:100C480080B500AF0F4B1B68DB430F4A1278114683
:100C580001228A401340002B04D04FF400510B4866
:100C680003F0F9F8084B1B780133DAB2064B1A7017
:100C7800054B1B7803F01F03DAB2034B1A7000BF51
:100C880080BD00BF000000201007002000080240BF
:100C980080B586B004AF396011461A460346FB7129
:100CA8000B46BB7113467B71FB7999B27B799AB27B
:100CB800BB799BB24FF0FF30029001933B680093E1
:100CC8000123034803F03CFA00BF0837BD4680BD46
:100CD8002802002080B584B002AF396011461A4658
:100CE8000346FB710B46BB7113467B71FB7999B2C6
:100CF8007B799AB2BB799BB201933B68009301233D
:100D0800034803F017FB00BF0837BD4680BD00BF8E
:100D18002802002080B586B004AF396011461A4613
:100D28000346FB710B46BB7113467B71FB7999B285
:100D38007B799AB2BB799BB24FF0FF300290019356
:100D48003B6800930123034803F0FAF900BF083712
:100D5800BD4680BD2802002080B584B002AF39604E
:100D680011461A460346FB710B46BB7113467B714D
:100D7800FB7999B27B799AB2BB799BB201933B68B4
:100D880000930123034803F033FC00BF0837BD4636
:100D980080BD00BF2802002080B485B000AF174B8B
:100DA800DB68FB60FB680133154A127802FB03F32A
:100DB800144AA2FB03235B09BB60FB680133124A98
:100DC800127802FB03F30F4AA2FB03235B097B6043
:100DD8000A4B1B68BA685A63084B1B68BA689A635F
:100DE800064B1B687A68DA63044B1B687A681A64D6
:100DF80000BF1437BD465DF8047B7047CC03002064
:100E0800010700201F85EB510207002080B500AFC5
:100E180001F010FC00F076F800F0EEFB00F0AEFBFD
:100E280000F0D8F800F08AF900F0B6F90CF074FE7A
:100E380000F018FA00F07AFA00F026FB00F072FBD6
:100E48001E480CF0BBFF1E4807F0B2FD1D4807F016
:100E5800AFFD1D4807F0ACFD1C4807F0A9FD0122B5
:100E68004FF400511A4802F0DDFF1A4800F0E4FC84
:100E7800194800F0D1FC194800F0BEFC00F0ECFC69
:100E8800174800F02FFC174800F03CFC164800F00B
:100E980049FC00F06BFC1548FFF730FB144B154A72
:100EA8001549164801F064FB154B00221A70FFF72C
:100EB80087FEFFF76BFC00BFF9E700BF39070008A2
:100EC8003C03002084030020CC03002014040020ED
:100ED80000080240E1060020990C0008DD0C00081B
:100EE800E20600201D0D0008610D0008040700201F
:100EF800DC040020DC050020C4040020D00400200D
:100F0800E006002080B594B000AF07F1200330223E
:100F1800002118460DF07CFB07F10C0300221A6033
:100F28005A609A60DA601A610023BB60274B1B6C19
:100F3800264A43F080531364244B1B6C03F0805300
:100F4800BB60BB6800237B60214B1B68204A43F4CD
:100F5800404313601E4B1B6803F440437B607B686F
:100F680001233B624FF480337B620223BB634FF45F
:100F78008003FB6319233B64C0237B640223BB64A7
:100F88000423FB6407F12003184607F069F80346B9
:100F9800002B01D000F0A0FB0F23FB6002233B6174
:100FA80000237B614FF48053BB610023FB6107F191
:100FB8000C030321184607F0CBFA0346002B01D097
:100FC80000F08AFB00BF5037BD4680BD00380240A4
:100FD8000070004080B584B000AF3B4600221A6024
:100FE8005A609A60DA60524B524A1A60504B4FF47A
:100FF80080325A604E4B00229A604D4B01221A6192
:101008004B4B00221A764A4B002283F82020484B8B
:101018000022DA62464B484A9A62454B0022DA605F
:10102800434B0822DA61424B012283F83020404BBF
:1010380001225A613E4801F093FB0346002B01D080
:1010480000F04AFB00233B6001237B600023BB6068
:101058003B461946364801F0E9FD0346002B01D00E
:1010680000F03AFB01233B6002237B603B461946B4
:101078002F4801F0DBFD0346002B01D000F02CFBCC
:1010880002233B6003237B603B461946284801F056
:10109800CDFD0346002B01D000F01EFB03233B606F
:1010A80004237B603B461946214801F0BFFD0346F7
:1010B800002B01D000F010FB04233B6005237B606C
:1010C8003B4619461A4801F0B1FD0346002B01D0F2
:1010D80000F002FB05233B6006237B603B46194674
:1010E800134801F0A3FD0346002B01D000F0F4FAE9
:1010F80006233B6007237B603B4619460C4801F0FA
:1011080095FD0346002B01D000F0E6FA07233B606B
:1011180008237B603B461946054801F087FD0346D6
:10112800002B01D000F0D8FA00BF1037BD4680BDB3
:1011380080010020002001400100000F80B500AFB1
:10114800124B134A1A60114B124A5A600F4B002275
:101158009A600E4B0022DA600C4B4FF480421A6101
:101168000A4B00225A61094B00229A61074B002260
:10117800DA61064B00221A62044802F087FE034631
:10118800002B01D000F0A8FA00BF80BD2802002083
:1011980000540040801A060080B58CB000AF07F1FB
:1011A800200300221A605A609A60DA6007F10C0383
:1011B80000221A605A609A60DA601A613B1D0022A8
:1011C8001A605A60254B264A1A60244B5F225A60DF
:1011D800224B00229A60214BF922DA601F4B002231
:1011E8001A611E4B00225A611C4B00229A611B484F
:1011F80007F08EFB0346002B01D000F06DFA4FF488
:1012080080533B6207F120031946144807F03EFE5D
:101218000346002B01D000F05FFA0023FB60002397
:101228003B6107F10C0319460C4807F0F6FE03462C
:10123800002B01D000F050FA00237B600023BB6034
:101248003B1D1946054808F091FA0346002B01D0CA
:1012580000F042FA00BF3037BD4680BD3C03002095
:101268000000014080B58CB000AF07F120030022D8
:101278001A605A609A60DA6007F10C0300221A605B
:101288005A609A60DA601A613B1D00221A605A603F
:10129800254B4FF080421A60234B5F225A60224B45
:1012A80000229A60204B44F61F62DA601E4B00222F
:1012B8001A611D4B00229A611B4807F029FB03465F
:1012C800002B01D000F008FA4FF480533B6207F17D
:1012D80020031946144807F0D9FD0346002B01D016
:1012E80000F0FAF90023FB6000233B6107F10C03CF
:1012F80019460D4807F091FE0346002B01D000F077
:10130800EBF900237B600023BB603B1D19460648B0
:1013180008F02CFA0346002B01D000F0DDF900BFDD
:101328003037BD4680BD00BF8403002080B592B031
:1013380000AF07F1380300221A605A609A60DA6039
:1013480007F1240300221A605A609A60DA601A6171
:1013580007F11C0300221A605A603B4600221A60FB
:101368005A609A60DA601A615A619A61444B454A38
:101378001A60434B5F225A60414B00229A60404BEF
:1013880042F20F72DA603E4B00221A613C4B002297
:101398009A613B4807F0BCFA0346002B01D000F0E5
:1013A8009BF94FF48053BB6307F13803194634485F
:1013B80007F06CFD0346002B01D000F08DF9304892
:1013C80007F058FB0346002B01D000F085F90023F5
:1013D8007B620023BB6207F124031946284807F003
:1013E8001CFE0346002B01D000F076F90023FB61B8
:1013F80000233B6207F11C031946214808F0B6F99F
:101408000346002B01D000F067F960233B600023FE
:101418007B600023BB6000233B613B4600221946EA
:10142800174807F071FC0346002B01D000F054F96F
:101438003B4604221946124807F066FC0346002B77
:1014480001D000F049F93B46082219460C4807F03C
:101458005BFC0346002B01D000F03EF93B460C2212
:101468001946074807F050FC0346002B01D000F04E
:1014780033F9034800F0C6FC00BF4837BD4680BDBD
:10148800CC0300200004004080B586B000AF07F10F
:10149800080300221A605A609A60DA603B4600220C
:1014A8001A605A601D4B1E4A1A601C4BBF225A60B4
:1014B8001A4B00229A60194B4CF24F32DA60174BE4
:1014C80000221A61154B00229A61144807F020FA8D
:1014D8000346002B01D000F0FFF84FF48053BB60A7
:1014E80007F1080319460D4807F0D0FC0346002B06
:1014F80001D000F0F1F800233B6000237B603B46FD
:101508001946064808F032F90346002B01D000F0CE
:10151800E3F800BF1837BD4680BD00BF14040020A3
:101528000008004080B500AF124B134A1A60114BF7
:101538004FF4E1325A600F4B00229A600D4B0022A3
:10154800DA600C4B00221A610A4B0C225A61094BD3
:1015580000229A61074B0022DA61064B00221A62C8
:10156800044808F085F90346002B01D000F0B4F8D0
:1015780000BF80BD5C0400200010014080B582B02F
:1015880000AF00237B601B4B1B6B1A4A43F480039C
:101598001363184B1B6B03F480037B607B68002389
:1015A8003B60144B1B6B134A43F400131363114B3A
:1015B8001B6B03F400133B603B68002200210B20E7
:1015C80001F0C9FE0B2001F0E2FE002200210C20F0
:1015D80001F0C1FE0C2001F0DAFE002200213820C3
:1015E80001F0B9FE382001F0D2FE00BF0837BD4631
:1015F80080BD00BF0038024080B58AB000AF07F157
:10160800140300221A605A609A60DA601A61002393
:101618003B612E4B1B6B2D4A43F0040313632B4B8A
:101628001B6B03F004033B613B690023FB60274B02
:101638001B6B264A43F080031363244B1B6B03F098
:101648008003FB60FB680023BB60204B1B6B1F4AB9
:1016580043F0010313631D4B1B6B03F00103BB60D5
:10166800BB6800237B60194B1B6B184A43F00203CD
:101678001363164B1B6B03F002037B607B6800222D
:101688004FF40051124802F0CDFB4FF400537B6138
:101698000123BB610023FB6100233B6207F11403B4
:1016A80019460B4802F03AFA4FF400437B610023D5
:1016B800BB610023FB6107F114031946054802F0DA
:1016C8002DFA00BF2837BD4680BD00BF0038024054
:1016D800000802400004024080B400AF72B600BFA8
:1016E80000BFFDE780B483B000AF7860044A7B6830
:1016F800136000BF0C37BD465DF8047B704700BF20
:101708001407002080B483B000AF7860044A7B6877
:10171800136000BF0C37BD465DF8047B704700BFFF
:101728001807002080B483B000AF7860044A7B6853
:10173800136000BF0C37BD465DF8047B704700BFDF
:101748001C07002090B583B000AF78600B46FB7093
:10175800054B1C68FB7801227968D020A04700BFA0
:101768000C37BD4690BD00BF1807002080B582B079
:1017780000AF0023FB71FB1D6B211846FFF7E2FF4A
:10178800FB1D1C211846FFF7DDFFFB1D1B2118461A
:10179800FFF7D8FF00BF0837BD4680BD80B400AF53
:1017A80000BFBD465DF8047B7047000090B583B06C
:1017B80000AF0346FB71054B1C68F91D002301228D
:1017C8007820A04700BF0C37BD4690BD24070020F5
:1017D80090B583B000AF78603960064B1C683B68F1
:1017E800DAB2402379687820A04700BF0C37BD469D
:1017F80090BD00BF2407002080B483B000AF78609C
:10180800044A7B68136000BF0C37BD465DF8047B53
:10181800704700BF2807002080B483B000AF78600D
:10182800044A7B68136000BF0C37BD465DF8047B33
:10183800704700BF2407002080B483B000AF7860F1
:10184800044A7B68136000BF0C37BD465DF8047B13
:10185800704700BF2007002080B500AFFFF79EFF4C
:10186800642000F059FF002000F0B4F82020FFF7B2
:101878009DFF0020FFF79AFFB020FFF797FFC820D1
:10188800FFF794FF0020FFF791FF1020FFF78EFF6E
:101898004020FFF78BFFFF2000F088F8A120FFF71A
:1018A80085FFA620FFF782FFA820FFF77FFF3F20D4
:1018B800FFF77CFFA420FFF779FFD320FFF776FF1F
:1018C8000020FFF773FFD520FFF770FFF020FFF728
:1018D8006DFFD920FFF76AFF2220FFF767FFDA20A4
:1018E800FFF764FF1220FFF761FFDB20FFF75EFFC1
:1018F8002020FFF75BFF8D20FFF758FF1420FFF72C
:1019080055FF012000F066F8002000F00FF800F005
:1019180025F8054B00221A80034B00225A80024BFF
:1019280001221A7100BF80BD2C0B002080B582B047
:1019380000AF0346FB71FB79002B01D1002300E0C7
:10194800FF234FF48062194603480CF061FE00BF84
:101958000837BD4680BD00BF2C07002080B582B087
:1019680000AF0023FB7116E0FB79503BDBB2184651
:10197800FFF71CFF0020FFF719FF1020FFF716FFE5
:10198800FB79DB01084A134480211846FFF720FF42
:10199800FB790133FB71FB79072BE5D900BF00BF49
:1019A8000837BD4680BD00BF2C07002080B584B035
:1019B80000AF0346FB718123FB73FB7B1846FFF7DF
:1019C800F5FEFB791846FFF7F1FE00BF1037BD465C
:1019D80080BD000080B584B000AF0346FB71FB7981
:1019E800002B05D0AF23FB73084B01225A7104E08A
:1019F800AE23FB73054B00225A71FB7B1846FFF799
:101A0800D5FE00BF1037BD4680BD00BF2C0B00209F
:101A180080B483B000AF00237B60104B5B6C0F4A2F
:101A280043F4804353640D4B5B6C03F480437B6049
:101A38007B6800233B60094B1B6C084A43F08053CA
:101A48001364064B1B6C03F080533B603B6800BF7C
:101A58000C37BD465DF8047B704700BF0038024074
:101A680080B58AB000AF786007F1140300221A60CD
:101A78005A609A60DA601A617B681B68324A93423E
:101A88005ED100233B61314B5B6C304A43F4807379
:101A980053642E4B5B6C03F480733B613B690023FA
:101AA800FB602A4B1B6B294A43F001031363274B46
:101AB8001B6B03F00103FB60FB68FF237B610323BF
:101AC800BB610023FB6107F114031946204802F0AB
:101AD80025F8204B204A1A601E4B00225A601D4BE5
:101AE80000229A601B4B0022DA601A4B4FF4806286
:101AF8001A61184B4FF400625A61164B4FF40052AA
:101B08009A61144B0022DA61124B00221A62114BBF
:101B180000225A620F4801F055FC0346002B01D001
:101B2800FFF7DAFD7B680B4A9A630A4A7B6893637E
:101B380000220021122001F00EFC122001F027FCE7
:101B480000BF2837BD4680BD002001400038024054
:101B580000000240C80100201064024080B58AB02D
:101B680000AF786007F1140300221A605A609A6087
:101B7800DA601A617B681B684F4A934240F098808C
:101B880000233B614D4B1B6B4C4A43F0020313632C
:101B98004A4B1B6B03F002033B613B69C0237B612B
:101BA8001223BB610023FB6103233B6204237B6296
:101BB80007F114031946424801F0B0FF0023FB6007
:101BC8003E4B1B6C3D4A43F4001313643B4B1B6CA8
:101BD80003F40013FB60FB683A4B3B4A1A60394B2D
:101BE8004FF000725A60374B00229A60354B002242
:101BF800DA60344B4FF480621A61324B00225A612A
:101C0800304B00229A612F4B0022DA612D4B0022C3
:101C18001A622C4B00225A622A4801F0D3FB034671
:101C2800002B01D0FFF758FD7B68264A9A63254AA6
:101C38007B689363254B264A1A60244B4FF0007249
:101C48005A60224B40229A60204B0022DA601F4BD8
:101C58004FF480621A611D4B00225A611B4B00220F
:101C68009A611A4B0022DA61184B00221A62174B4C
:101C780000225A62154801F0A5FB0346002B01D04B
:101C8800FFF72AFD7B68114A5A63104A7B68936301
:101C9800002200211F2001F05EFB1F2001F077FBCE
:101CA80000220021202001F056FB202001F06FFBCC
:101CB80000BF2837BD4680BD0054004000380240B0
:101CC800000402407C02002010600240DC02002078
:101CD800A060024080B586B000AF78607B681B6862
:101CE800444A93422ED100237B61434B5B6C424AAA
:101CF80043F001035364404B5B6C03F001037B61C9
:101D08007B6900220021182001F025FB182001F032
:101D18003EFB00220021192001F01DFB192001F0D3
:101D280036FB002200211A2001F015FB1A2001F0D1
:101D38002EFB002200211B2001F00DFB1B2001F0CF
:101D480026FB52E07B681B68B3F1804F16D1002355
:101D58003B61294B1B6C284A43F001031364264B53
:101D68001B6C03F001033B613B69002200211C202E
:101D780001F0F1FA1C2001F00AFB36E07B681B68D1
:101D88001E4A934216D10023FB601B4B1B6C1A4A58
:101D980043F002031364184B1B6C03F00203FB604F
:101DA800FB68002200211D2001F0D5FA1D2001F05A
:101DB800EEFA1AE07B681B68114A934215D100239A
:101DC800BB600D4B1B6C0C4A43F0040313640A4BB5
:101DD8001B6C03F00403BB60BB68002200211E20BB
:101DE80001F0B9FA1E2001F0D2FA00BF1837BD463B
:101DF80080BD00BF000001400038024000040040E0
:101E08000008004080B588B000AF786007F10C0387
:101E180000221A605A609A60DA601A617B681B684F
:101E2800124A93421DD10023BB60114B1B6B104A11
:101E380043F0020313630E4B1B6B03F00203BB60FA
:101E4800BB683323FB6002233B6100237B610023D3
:101E5800BB610223FB6107F10C031946054801F039
:101E68005DFE00BF2037BD4680BD00BF00040040B6
:101E7800003802400004024080B58AB000AF7860A4
:101E880007F1140300221A605A609A60DA601A6136
:101E98007B681B681D4A934234D100233B611C4B6D
:101EA8005B6C1B4A43F010035364194B5B6C03F0E3
:101EB80010033B613B690023FB60154B1B6B144A05
:101EC80043F001031363124B1B6B03F00103FB6028
:101ED800FB684FF4E0637B610223BB610023FB6175
:101EE80003233B6207237B6207F114031946094861
:101EF80001F014FE00220021252001F02CFA2520F3
:101F080001F045FA00BF2837BD4680BD00100140EA
:101F1800003802400000024080B400AF00BFFDE777
:101F280080B400AF00BFFDE780B400AF00BFFDE79D
:101F380080B400AF00BFFDE780B400AF00BFFDE78D
:101F480080B400AF00BFBD465DF8047B704780B425
:101F580000AF00BFBD465DF8047B704780B400AF9A
:101F680000BFBD465DF8047B704780B500AF00F048
:101F7800B3FB00BF80BD000080B500AF024801F090
:101F880049FB00BF80BD00BF7C02002080B500AFC8
:101F9800024801F03FFB00BF80BD00BFDC0200200B
:101FA80080B500AF024800F01EFC00BF80BD00BF36
:101FB8008001002080B500AF024806F0B4FD00BFE4
:101FC80080BD00BF3C03002080B500AF024806F08A
:101FD800AAFD00BF80BD00BF3C03002080B500AF54
:101FE800024806F0A0FD00BF80BD00BF3C030020F2
:101FF80080B500AF024806F096FD00BF80BD00BF67
:102008003C03002080B500AF024806F08CFD00BFFD
:1020180080BD00BF8403002080B500AF024806F0F1
:1020280082FD00BF80BD00BFCC03002080B500AF9B
:10203800024806F078FD00BF80BD00BF14040020F0
:1020480080B500AF024802F063FC00BF80BD00BF4E
:102058002802002080B500AF024802F0CAFD00BF88
:1020680080BD00BF2802002080B500AF024807F0FD
:1020780041FC00BF80BD00BF5C04002080B500AFFC
:10208800024801F0C7FA00BF80BD00BFC8010020A8
:1020980080B500AF024804F0D5FE00BF80BD00BF88
:1020A8001C14002080B400AF064BD3F88830054AD2
:1020B80043F47003C2F8883000BFBD465DF8047B66
:1020C800704700BF00ED00E080B483B000AF7860D7
:1020D8000B46FB701346BB70BB780133BB707B6843
:1020E80000225A727B685A797B681A727B681A6870
:1020F8007B685B79591CC8B27968487113445522CA
:102108001A707B685A797B689B791340DAB27B68CE
:102118005A717B681A687B685B79591CC8B2796800
:10212800487113444E221A707B685A797B689B79F0
:102138001340DAB27B685A717B681A687B685B79EE
:10214800591CC8B279684871134445221A707B68D3
:102158005A797B689B791340DAB27B685A717B683D
:102168001A687B685B79591CC8B27968487113444E
:1021780052221A707B685A797B689B791340DAB2CD
:102188007B685A717B681A687B685B79591CC8B28E
:10219800796848711344BA781A707B685A797B68F1
:1021A8009B791340DAB27B685A717B681A687B683E
:1021B8005B79591CC8B27968487113443A221A707D
:1021C8007B685A797B689B791340DAB27B685A71CD
:1021D8007B681A687B685B79591CC8B27968487152
:1021E8001344FA781A707B685A797B689B79134094
:1021F800DAB27B685A717B680722DA717B685A7A8F
:10220800B978FB784B40DBB25340DBB283F036033E
:10221800DAB27B685A727B685B7A18460C37BD461F
:102228005DF8047B704780B483B000AF78600B46DC
:10223800FB707B68DB790133DAB27B68DA717B6823
:102248001A687B685B79591CC8B27968487113446D
:10225800FA781A707B685A797B689B791340DAB2EE
:102268007B685A717B685A7AFB785340DAB27B688C
:102278005A727B685B7A18460C37BD465DF8047B5A
:10228800704790B484B000AF786039600023FB7366
:102298002CE07B68DB790133DAB27B68DA71FB7B8F
:1022A800DBB21A463B681A447B6819687B685B791D
:1022B800581CC4B2786844710B4412781A707B6851
:1022C8005A797B689B791340DAB27B685A71FB7B39
:1022D800DBB25A1CD2B2FA731A463B6813441A7816
:1022E8007B685B7A5340DAB27B685A72FB7BDBB25D
:1022F8001A463B6813441B78002BCAD17B685B7A6B
:1023080018461037BD4690BC704780B485B000AF02
:1023180078600B46FB701346BB707B681A7AFB78B3
:102328001344DAB27B681A727B681A7A7B689B79E5
:102338001340DAB27B681A727B681B687A68127A73
:1023480013441B78FB737B681A7ABB781344DAB2A0
:102358007B681A727B681A7A7B689B791340DAB2B9
:102368007B681A72FB7B18461437BD465DF8047B00
:102378007047000080B485B000AF78600023FB731D
:102388007B685B79BB73E4E0784B1B78072B00F222
:10239800C98001A252F823F0C1230008DB230008FA
:1023A800192400084524000871240008872400081F
:1023B8002D250008E92400087B681B687A681279D3
:1023C80013441B78552B40F0B180684B01221A70DA
:1023D800ACE07B681B687A68127913441B784E2B33
:1023E80003D1624B02221A70A2E07B681B687A68EC
:1023F800127913441B78552B00F09A805B4B00220E
:102408001A707B681B79013BDAB27B681A718FE01E
:102418007B681B687A68127913441B78452B03D1B3
:10242800524B03221A7086E0504B00221A707B68C8
:102438001B79013BDAB27B681A717CE07B681B6808
:102448007A68127913441B78522B03D1474B042224
:102458001A7070E0454B00221A707B681B79013BAB
:10246800DAB27B681A7166E07B681B687A68127951
:1024780013441B78FB733D4B05221A705BE07B68A5
:102488001B687A68127913441B783A2B1ED1374B94
:1024980007221A707B681B790133DAB27B681A72DB
:1024A8007B681A7A7B689B791340DAB27B681A7268
:1024B8007B6800225A727B685A7AFB7B5340DBB2F6
:1024C80083F03603DAB27B685A7234E0274B002275
:1024D8001A707B681B79013BDAB27B681A712AE0B3
:1024E800FB7B013BFB73FB7B002B0CD07B685A7A90
:1024F8007B681B68796809790B441B785340DAB20A
:102508007B685A7216E0194B00221A707B681B68A8
:102518007A68127913441A787B685B7A9A4209D1EF
:1025280001231DE0114B00221A7004E000BF02E0F5
:1025380000BF00E000BF7B681B790133DAB27B681B
:102548001A717B681A797B689B791340DAB27B68C9
:102558001A717B681B79BA7B9A427FF415AF002306
:1025680018461437BD465DF8047B7047320B0020CF
:1025780080B485B000AFF860B9607A603B60FB68F2
:102588007A681A60FB6800221A71FB6800225A7187
:10259800FB6800221A72FB680022DA71FB68FF22CE
:1025A8009A71FB6800225A72BB683A681A60BB6865
:1025B80000221A71BB6800225A71BB6800221A7285
:1025C800BB680022DA71BB68FF229A71BB680022DF
:1025D8005A7200BF1437BD465DF8047B704700008F
:1025E800DFF834D0FFF75EFD0C480D490D4A002393
:1025F80002E0D458C4500433C4188C42F9D30A4AB0
:102608000A4C002301E013600432A242FBD30CF011
:1026180007F8FEF7FBFB70470000022000000020CF
:10262800300100202CE7000830010020201B00208A
:10263800FEE7000080B500AF0E4B1B680D4A43F45F
:10264800007313600B4B1B680A4A43F480631360E2
:10265800084B1B68074A43F480731360032000F09B
:102668006FFE0F2000F008F8FFF7D2F90023184694
:1026780080BD00BF003C024080B582B000AF7860EA
:10268800124B1A68124B1B7819464FF47A73B3FB36
:10269800F1F3B2FBF3F3184600F087FE0346002B74
:1026A80001D001230EE07B680F2B0AD8002279683D
:1026B8004FF0FF3000F04FFE064A7B68136000239E
:1026C80000E0012318460837BD4680BD2C000020D5
:1026D800340000203000002080B400AF064B1B7887
:1026E8001A46064B1B681344044A136000BFBD46D4
:1026F8005DF8047B704700BF34000020340B0020D5
:1027080080B400AF034B1B681846BD465DF8047BD8
:10271800704700BF340B002080B584B000AF7860EC
:10272800FFF7EEFFB8607B68FB60FB68B3F1FF3F23
:1027380005D00A4B1B781A46FB681344FB6000BFA0
:10274800FFF7DEFF0246BB68D31AFA689A42F7D849
:1027580000BF00BF1037BD4680BD00BF3400002059
:1027680080B584B000AF78600023FB737B68002BD2
:1027780001D1012333E07B681B6C002B09D17868F9
:10278800FFF76EF97B6800225A647B68002283F8A1
:102798003C207B681B6C03F01003002B18D17B686E
:1027A8001B6C23F4885323F0020343F002027B6876
:1027B8001A64786800F06CFB7B6800225A647B68B6
:1027C8001B6C23F0030343F001027B681A6401E0E9
:1027D8000123FB737B68002283F83C20FB7B1846AF
:1027E8001037BD4680BD80B586B000AF7860002345
:1027F8007B6100233B617B681B681B68FB607B680F
:102808001B685B68BB60FB6803F002037B61BB6805
:1028180003F020033B617B69002B49D03B69002B07
:1028280046D07B681B6C03F01003002B05D17B6836
:102838001B6C43F400727B681A647B681B689B6896
:1028480003F04053002B2BD17B681B7E002B27D134
:102858007B681B68DB6A03F47003002B06D07B6877
:102868001B689B6803F48063002B19D17B681B6885
:102878005A687B681B6822F020025A607B681B6CD0
:1028880023F480727B681A647B681B6C03F48053A2
:10289800002B05D17B681B6C43F001027B681A642E
:1028A8007868FDF799FE7B681B686FF012021A6062
:1028B800FB6803F004037B61BB6803F080033B61A2
:1028C8007B69002B57D03B69002B54D07B681B6C6D
:1028D80003F01003002B05D17B681B6C43F40052F6
:1028E8007B681A647B681B689B6803F44013002BA1
:1028F80039D17B681B689B6B03F44013002B06D00F
:102908007B681B689B6803F48063002B2BD17B6872
:102918001B685B6803F48063002B24D17B681B6809
:102928009B6803F04053002B1DD17B681B7E002B56
:1029380019D17B681B685A687B681B6822F0800283
:102948005A607B681B6C23F480527B681A647B682E
:102958001B6C03F48073002B05D17B681B6C43F060
:1029680001027B681A64786800F010FC7B681B68B9
:102978006FF00C021A60FB6803F001037B61BB680F
:1029880003F040033B617B69002B17D03B69002BA8
:1029980014D07B681B681B6803F00103012B0DD161
:1029A8007B681B6C43F480327B681A64786800F09B
:1029B80029F97B681B686FF001021A60FB6803F055
:1029C80020037B61BB6803F080633B617B69002B5C
:1029D80015D03B69002B12D07B685B6C43F0020278
:1029E8007B685A647B681B686FF020021A607868FD
:1029F80000F012F97B681B686FF020021A6000BFB4
:102A08001837BD4680BD000080B588B000AFF860BB
:102A1800B9607A6000237B610023FB77FB6893F839
:102A28003C30012B01D10223D0E0FB68012283F85E
:102A38003C20FB681B689B6803F00103012B18D03E
:102A4800FB681B689A68FB681B6842F001029A6081
:102A5800604B1B68604AA2FB03239A0C13465B0079
:102A680013447B6102E07B69013B7B617B69002B3E
:102A7800F9D1FB681B689B6803F48073B3F5807F0A
:102A880007D1FB681B689A68FB681B6822F4807290
:102A98009A60FB681B689B6803F00103012B40F0F8
:102AA8008880FB681B6C23F4E06323F0010343F484
:102AB8008072FB681A64FB681B685B6803F48063B8
:102AC800002B07D0FB681B6C23F4405343F480525F
:102AD800FB681A64FB681B6C03F48053B3F5805FD2
:102AE80006D1FB685B6C23F00602FB685A6402E0BF
:102AF800FB6800225A64FB68002283F83C20374BAD
:102B0800BB61FB689B6B364ADA63FB689B6B354A93
:102B18001A64FB689B6B344ADA64FB681B686FF0C5
:102B280022021A60FB681B685A68FB681B6842F03F
:102B380080625A60FB681B689A68FB681B6842F4ED
:102B480080729A60FB68986BFB681B684C33194667
:102B5800BA687B6800F0E4FC0346FB77BB695B68F6
:102B680003F01F03002B0FD1FB681B689B6803F061
:102B78004053002B29D1FB681B689A68FB681B68C7
:102B880042F080429A6020E0FB681B68174A934233
:102B98001BD1FB681B689B6803F04053002B14D1C2
:102BA800FB681B689A68FB681B6842F080429A6061
:102BB8000BE0FB681B6C43F01002FB681A64FB68AF
:102BC8005B6C43F00102FB685A64FB7F18462037B0
:102BD800BD4680BD2C00002083DE1B43002301403E
:102BE800913000084B31000867310008002001408F
:102BF80080B483B000AF786000BF0C37BD465DF885
:102C0800047B704780B483B000AF786000BF0C3796
:102C1800BD465DF8047B704780B483B000AF786030
:102C280000BF0C37BD465DF8047B704780B485B0A3
:102C380000AF786039600023BB607B6893F83C3054
:102C4800012B01D1022313E17B68012283F83C2088
:102C58003B681B68092B25D97B681B68D9683B68CA
:102C68001B689BB21A4613465B0013441E3B07229F
:102C780002FA03F3DA437B681B680A40DA607B6870
:102C88001B68D9683B689A683B681B689BB2184602
:102C980003465B0003441E3B9A407B681B680A435B
:102CA800DA6022E07B681B6819693B681B689BB285
:102CB8001A4613465B001344072202FA03F3DA4369
:102CC8007B681B680A401A617B681B6819693B6846
:102CD8009A683B681B689BB2184603465B0003442E
:102CE8009A407B681B680A431A613B685B68062B3D
:102CF80024D87B681B68596B3B685A6813469B004D
:102D08001344053B1F2202FA03F3DA437B681B686E
:102D18000A405A637B681B68596B3B681B689BB207
:102D280018463B685A6813469B001344053B00FA53
:102D380003F27B681B680A435A634CE03B685B6894
:102D48000C2B24D87B681B68196B3B685A681346A0
:102D58009B001344233B1F2202FA03F3DA437B68E8
:102D68001B680A401A637B681B68196B3B681B6801
:102D78009BB218463B685A6813469B001344233B92
:102D880000FA03F27B681B680A431A6323E07B6836
:102D98001B68D96A3B685A6813469B001344413B39
:102DA8001F2202FA03F3DA437B681B680A40DA62DF
:102DB8007B681B68D96A3B681B689BB218463B68EE
:102DC8005A6813469B001344413B00FA03F27B68A0
:102DD8001B680A43DA62294BFB607B681B68284A38
:102DE80093420FD13B681B68122B0BD1FB685B68C1
:102DF80023F40002FB685A60FB685B6843F48002B6
:102E0800FB685A607B681B681D4A93422BD13B685C
:102E18001B681C4A934203D03B681B68112B22D1C4
:102E2800FB685B6823F48002FB685A60FB685B6898
:102E380043F40002FB685A603B681B68114A9342DE
:102E480011D1114B1B68114AA2FB03239A0C13469C
:102E58009B0013445B00BB6002E0BB68013BBB60A6
:102E6800BB68002BF9D17B68002283F83C20002343
:102E780018461437BD465DF8047B704700230140AF
:102E880000200140120000102C00002083DE1B43AC
:102E980080B485B000AF7860794BFB60FB685B68F5
:102EA80023F44032FB685A60FB685A687B685B68A9
:102EB8001A43FB685A607B681B685A687B681B6802
:102EC80022F480725A607B681B6859687B681B69AA
:102ED8001A027B681B680A435A607B681B685A6839
:102EE8007B681B6822F040725A607B681B685968CF
:102EF8007B689A687B681B680A435A607B681B6812
:102F08009A687B681B6822F400629A607B681B6879
:102F180099687B68DA687B681B680A439A607B68F3
:102F28009B6A584A934222D07B681B689A687B68E0
:102F38001B6822F070629A607B681B6899687B68DE
:102F48009A6A7B681B680A439A607B681B689A6860
:102F58007B681B6822F040529A607B681B689968FE
:102F68007B68DA6A7B681B680A439A600FE07B68B3
:102F78001B689A687B681B6822F070629A607B689D
:102F88001B689A687B681B6822F040529A607B68CD
:102F98001B689A687B681B6822F002029A607B684B
:102FA8001B6899687B681B7E5A007B681B680A430C
:102FB8009A607B6893F82030002B1BD07B681B68D5
:102FC8005A687B681B6842F400625A607B681B6819
:102FD8005A687B681B6822F460425A607B681B68E9
:102FE80059687B685B6A013B5A037B681B680A4324
:102FF8005A6007E07B681B685A687B681B6822F484
:1030080000625A607B681B68DA6A7B681B6822F476
:103018007002DA627B681B68D96A7B68DB69013BEE
:103028001A057B681B680A43DA627B681B689A6822
:103038007B681B6822F400729A607B681B68996839
:103048007B6893F830305A027B681B680A439A60A1
:103058007B681B689A687B681B6822F480629A60A8
:103068007B681B6899687B685B699A027B681B6848
:103078000A439A6000BF1437BD465DF8047B704769
:10308800002301400100000F80B584B000AF7860D4
:103098007B689B6BFB60FB681B6C03F05003002B89
:1030A8003CD1FB681B6C43F40072FB681A64FB6834
:1030B8001B689B6803F04053002B2BD1FB681B7ED9
:1030C800002B27D1FB681B68DB6A03F47003002B15
:1030D80006D0FB681B689B6803F48063002B19D13A
:1030E800FB681B685A68FB681B6822F020025A605C
:1030F800FB681B6C23F48072FB681A64FB681B6C0A
:1031080003F48053002B05D1FB681B6C43F00102CC
:10311800FB681A64F868FDF75FFA0EE0FB681B6C41
:1031280003F01003002B03D0F868FFF775FD04E0E7
:10313800FB689B6BDB6C7868984700BF1037BD460F
:1031480080BD80B584B000AF78607B689B6BFB6006
:10315800F868FFF74DFD00BF1037BD4680BD80B54C
:1031680084B000AF78607B689B6BFB60FB68402293
:103178001A64FB685B6C43F00402FB685A64F868E5
:10318800FFF74AFD00BF1037BD4680BD80B483B04D
:1031980000AF786000BF0C37BD465DF8047B704710
:1031A80080B485B000AF78607B6803F00703FB60EC
:1031B8000C4BDB68BB60BA684FF6FF031340BB607B
:1031C800FB681A02BB68134343F0BF6343F4003340
:1031D800BB60044ABB68D36000BF1437BD465DF8C6
:1031E800047B704700ED00E080B400AF044BDB685F
:1031F8001B0A03F007031846BD465DF8047B7047B9
:1032080000ED00E080B483B000AF0346FB7197F98E
:103218000730002B0BDBFB7903F01F02074997F9F6
:1032280007305B09012000FA02F241F8232000BFB1
:103238000C37BD465DF8047B704700BF00E100E035
:1032480080B483B000AF03463960FB7197F907304B
:10325800002B0ADB3B68DAB20C4997F907301201F8
:10326800D2B20B4483F800230AE03B68DAB208497B
:10327800FB7903F00F03043B1201D2B20B441A7618
:1032880000BF0C37BD465DF8047B704700E100E0E5
:1032980000ED00E080B489B000AFF860B9607A60F2
:1032A800FB6803F00703FB61FB69C3F10703042B09
:1032B80028BF0423BB61FB690433062B02D9FB69D1
:1032C800033B00E000237B614FF0FF32BB6902FA49
:1032D80003F3DA43BB681A407B699A404FF0FF3129
:1032E8007B6901FA03F3D9437B680B401343184603
:1032F8002437BD465DF8047B7047000080B582B076
:1033080000AF78607B68013BB3F1807F01D3012374
:103318000FE00A4A7B68013B53600F214FF0FF30F2
:10332800FFF78EFF054B00229A60044B07221A60B4
:10333800002318460837BD4680BD00BF10E000E0F6
:1033480080B582B000AF78607868FFF729FF00BFCA
:103358000837BD4680BD80B586B000AF0346B9606A
:103368007A60FB7300237B61FFF73EFF78617A6820
:10337800B9687869FFF78EFF024697F90F30114652
:103388001846FFF75DFF00BF1837BD4680BD80B502
:1033980082B000AF0346FB7197F907301846FFF774
:1033A80031FF00BF0837BD4680BD80B582B000AF91
:1033B80078607868FFF7A2FF034618460837BD46CD
:1033C80080BD000080B586B000AF786000237B61C7
:1033D800FFF796F938617B68002B01D1012399E04A
:1033E8007B68022283F835207B68002283F834202A
:1033F8007B681B681A687B681B6822F001021A60E8
:103408000FE0FFF77DF902463B69D31A052B08D96F
:103418007B6820225A657B68032283F835200323C2
:1034280078E07B681B681B6803F00103002BE8D178
:103438007B681B681B687B617A69384B13407B612A
:103448007B685A687B689B681A437B68DB681A4309
:103458007B681B691A437B685B691A437B689B69B5
:103468001A437B68DB691A437B681B6A13437A69D2
:1034780013437B617B685B6A042B07D17B68DA6A3C
:103488007B681B6B13437A6913437B617B681B68FA
:103498007A691A607B681B685B697B617B6923F0CA
:1034A80007037B617B685B6A7A6913437B617B688E
:1034B8005B6A042B17D17B689B6A7A6913437B612B
:1034C8007B68DB6A002B0ED0786800F0ABFA034605
:1034D800002B08D07B6840225A657B68012283F85C
:1034E8003520012316E07B681B687A695A61786881
:1034F80000F062FA0346FB607B68DB6D3F229A406E
:10350800FB689A607B6800225A657B68012283F811
:103518003520002318461837BD4680BD3F8010F07F
:1035280080B586B000AFF860B9607A603B60002370
:10353800FB75FB689B6D3B61FB6893F83430012B8E
:1035480001D1022340E0FB68012283F83420FB68A4
:1035580093F83530DBB2012B2FD1FB68022283F8B8
:103568003520FB6800225A653B687A68B968F868B4
:1035780000F0F4F9FB68DB6D3F229A403B699A60E2
:10358800FB681B681A68FB681B6842F016021A6021
:10359800FB681B6C002B07D0FB681B681A68FB686C
:1035A8001B6842F008021A60FB681B681A68FB680F
:1035B8001B6842F001021A6005E0FB68002283F8EC
:1035C80034200223FB75FB7D18461837BD4680BDA5
:1035D80080B483B000AF78607B6893F83530DBB295
:1035E800022B04D07B6880225A6501230CE07B689B
:1035F800052283F835207B681B681A687B681B687E
:1036080022F001021A60002318460C37BD465DF807
:10361800047B704780B586B000AF78600023BB603C
:103628008E4B1B688E4AA2FB03239B0A7B617B6837
:103638009B6D3B613B691B68FB607B68DB6D082207
:103648009A40FB681340002B1AD07B681B681B68E4
:1036580003F00403002B13D07B681B681A687B688F
:103668001B6822F004021A607B68DB6D08229A400E
:103678003B699A607B685B6D43F001027B685A6521
:103688007B68DB6D01229A40FB681340002B12D047
:103698007B681B685B6903F08003002B0BD07B6899
:1036A800DB6D01229A403B699A607B685B6D43F051
:1036B80002027B685A657B68DB6D04229A40FB68CE
:1036C8001340002B12D07B681B681B6803F00203B1
:1036D800002B0BD07B68DB6D04229A403B699A6013
:1036E8007B685B6D43F004027B685A657B68DB6D21
:1036F80010229A40FB681340002B43D07B681B685C
:103708001B6803F00803002B3CD07B68DB6D10229C
:103718009A403B699A607B681B681B6803F48023A6
:10372800002B18D07B681B681B6803F40023002B50
:1037380008D17B681B6C002B24D07B681B6C7868D5
:1037480098471FE07B689B6C002B1BD07B689B6CA9
:103758007868984716E07B681B681B6803F48073D9
:10376800002B07D17B681B681A687B681B6822F0EE
:1037780008021A607B681B6C002B03D07B681B6CEB
:10378800786898477B68DB6D20229A40FB68134075
:10379800002B00F08F807B681B681B6803F0100308
:1037A800002B00F087807B68DB6D20229A403B6904
:1037B8009A607B6893F83530DBB2052B36D17B688D
:1037C8001B681A687B681B6822F016021A607B68FF
:1037D8001B685A697B681B6822F080025A617B6803
:1037E8001B6C002B03D17B689B6C002B07D07B687C
:1037F8001B681A687B681B6822F008021A607B68DD
:10380800DB6D3F229A403B699A607B68012283F80E
:1038180035207B68002283F834207B681B6D002BE1
:103828007ED07B681B6D7868984779E07B681B6859
:103838001B6803F48023002B1DD07B681B681B6862
:1038480003F40023002B0DD17B685B6C002B31D077
:103858007B685B6C786898472CE000BF2C000020E0
:10386800B5814E1B7B68DB6B002B23D07B68DB6B41
:10387800786898471EE07B681B681B6803F48073B0
:10388800002B0FD17B681B681A687B681B6822F0C5
:1038980010021A607B68012283F835207B680022B9
:1038A80083F834207B68DB6B002B03D07B68DB6BF1
:1038B800786898477B685B6D002B32D07B685B6DBE
:1038C80003F00103002B22D07B68052283F8352002
:1038D8007B681B681A687B681B6822F001021A6003
:1038E800BB680133BB607A699A4207D37B681B685F
:1038F8001B6803F00103002BF2D100E000BF7B68D6
:10390800012283F835207B68002283F834207B6805
:10391800DB6C002B05D07B68DB6C7868984700E08F
:1039280000BF1837BD4680BD80B483B000AF786053
:103938007B6893F83530DBB218460C37BD465DF826
:10394800047B704780B483B000AF78607B685B6DA0
:1039580018460C37BD465DF8047B704780B485B0C7
:1039680000AFF860B9607A603B60FB681B681A6852
:10397800FB681B6822F480221A60FB681B683A689F
:103988005A60FB689B68402B08D1FB681B687A6803
:103998009A60FB681B68BA68DA6007E0FB681B6816
:1039A800BA689A60FB681B687A68DA6000BF1437E7
:1039B800BD465DF8047B704780B485B000AF786081
:1039C8007B681B68DBB2103B144AA2FB03231B096C
:1039D800FB60134AFB6813441B781A467B68DA6558
:1039E800FB68032B09D97B681B6823F47F7323F0DA
:1039F80003031A1D7B689A6507E07B681B6823F43C
:103A08007F7323F003037A6893657B689B6D184680
:103A18001437BD465DF8047B704700BFABAAAAAA5D
:103A280014E7000880B485B000AF78600023FB730A
:103A38007B689B6ABB607B689B69002B1FD1BB6856
:103A4800032B56D801A252F823F000BF653A0008AC
:103A5800773A0008653A0008FB3A00087B68DB6A99
:103A680003F08073002B46D00123FB7343E07B688F
:103A7800DB6AB3F1C07F40D10123FB733DE07B6873
:103A88009B69B3F5005F21D1BB68032B37D801A22E
:103A980052F823F0AD3A0008B33A0008AD3A0008EE
:103AA800C53A00080123FB7330E07B68DB6A03F04A
:103AB8008073002B25D00123FB7322E07B68DB6A2F
:103AC800B3F1C07F1FD10123FB731CE0BB68022B3D
:103AD80003D9BB68032B03D018E00123FB7315E05F
:103AE8007B68DB6A03F08073002B0ED00123FB7325
:103AF8000BE000BF0AE000BF08E000BF06E000BF1F
:103B080004E000BF02E000BF00E000BFFB7B1846F6
:103B18001437BD465DF8047B704700BF80B489B098
:103B280000AF7860396000237B6100233B6100238C
:103B3800BB610023FB6159E10122FB6902FA03F32F
:103B48007B613B681B687A6913403B613A697B6912
:103B58009A4240F048813B685B6803F00303012BFD
:103B680005D03B685B6803F00303022B30D17B6808
:103B78009B68BB61FB695B00032202FA03F3DB432A
:103B8800BA691340BB613B68DA68FB695B0002FAFB
:103B980003F3BA691343BB617B68BA699A607B68AF
:103BA8005B68BB610122FB6902FA03F3DB43BA6974
:103BB8001340BB613B685B681B0903F00102FB69AA
:103BC80002FA03F3BA691343BB617B68BA695A60A6
:103BD8003B685B6803F00303032B17D07B68DB6843
:103BE800BB61FB695B00032202FA03F3DB43BA699A
:103BF8001340BB613B689A68FB695B0002FA03F3F8
:103C0800BA691343BB617B68BA69DA603B685B6871
:103C180003F00303022B23D1FB69DA087B6808321F
:103C280053F82230BB61FB6903F007039B000F22A6
:103C380002FA03F3DB43BA691340BB613B681A69B4
:103C4800FB6903F007039B0002FA03F3BA69134305
:103C5800BB61FB69DA087B680832B96943F822104E
:103C68007B681B68BB61FB695B00032202FA03F3F4
:103C7800DB43BA691340BB613B685B6803F003022E
:103C8800FB695B0002FA03F3BA691343BB617B6803
:103C9800BA691A603B685B6803F44033002B00F094
:103CA800A2800023FB60574B5B6C564A43F4804369
:103CB8005364544B5B6C03F48043FB60FB68524ACB
:103CC800FB699B08023352F82330BB61FB6903F0A0
:103CD80003039B000F2202FA03F3DB43BA69134084
:103CE800BB617B68494A934219D07B68484A934232
:103CF80013D07B68474A93420DD07B68464A93426B
:103D080007D07B68454A934201D1042308E0072382
:103D180006E0032304E0022302E0012300E000237D
:103D2800FA6902F0030292009340BA691343BB6137
:103D38003549FB699B080233BA6941F82320384B9F
:103D48009B68BB613B69DB43BA691340BB613B6855
:103D58005B6803F48013002B03D0BA693B691343F3
:103D6800BB612F4ABB6993602D4BDB68BB613B6924
:103D7800DB43BA691340BB613B685B6803F400131B
:103D8800002B03D0BA693B691343BB61244ABB6962
:103D9800D360234B5B68BB613B69DB43BA69134063
:103DA800BB613B685B6803F40033002B03D0BA693E
:103DB8003B691343BB611A4ABB695360184B1B68C4
:103DC800BB613B69DB43BA691340BB613B685B6815
:103DD80003F48033002B03D0BA693B691343BB61FA
:103DE8000F4ABB691360FB690133FB61FB690F2B49
:103DF8007FF6A2AE00BF00BF2437BD465DF8047B46
:103E0800704700BF003802400038014000000240FF
:103E18000004024000080240000C0240001002406A
:103E2800003C014080B483B000AF78600B467B80D3
:103E380013467B707B78002B03D07A887B689A6165
:103E480003E07B881A047B689A6100BF0C37BD4683
:103E58005DF8047B704780B485B000AF78600B468E
:103E68007B807B685B69FB607A88FB6813401A0477
:103E7800FB68D9437B880B401A437B689A6100BF73
:103E88001437BD465DF8047B7047000080B584B0E8
:103E980000AF78607B68002B01D101232BE17B68A0
:103EA80093F83D30DBB2002B06D17B68002283F803
:103EB8003C207868FDF752FE7B68242283F83D2079
:103EC8007B681B681A687B681B6822F001021A600D
:103ED8007B681B681A687B681B6842F400421A609A
:103EE8007B681B681A687B681B6822F400421A60AA
:103EF80004F0E6FCF8607B685B68814A934207D867
:103F0800FB68804A934294BF01230023DBB206E09A
:103F1800FB687D4A934294BF01230023DBB2002B48
:103F280001D00123E7E0FB68784AA2FB03239B0C3E
:103F3800BB607B681B685B6823F03F017B681B687C
:103F4800BA680A435A607B681B681B6A23F03F0102
:103F58007B685B686A4A934202D8BB68013309E010
:103F6800BB684FF4967202FB03F3694AA2FB032372
:103F78009B0901337A6812680B4313627B681B68DC
:103F8800DB6923F44F4222F0FF027B685B685C49DF
:103F98008B4219D8FB68591E7B685B685B00B1FBD4
:103FA800F3F3591C40F6FC730B40002B0AD0FB6856
:103FB800591E7B685B685B00B1FBF3F30133C3F305
:103FC8000B0351E004234FE07B689B68002B11D161
:103FD800FB68581E7B6859680B465B000B44B0FBB6
:103FE800F3F30133C3F30B03002B0CBF01230023AE
:103FF800DBB212E0FB68581E7B6859680B469B00D1
:104008000B4499000B44B0FBF3F30133C3F30B03E8
:10401800002B0CBF01230023DBB2002B01D00123AE
:1040280022E07B689B68002B0ED1FB68581E7B68DA
:1040380059680B465B000B44B0FBF3F30133C3F341
:104048000B0343F400430FE0FB68581E7B68596874
:104058000B469B000B4499000B44B0FBF3F3013370
:10406800C3F30B0343F44043796809681343CB61F6
:104078007B681B681B6823F0C0017B68DA697B6872
:104088001B6A1A437B681B680A431A607B681B68B3
:104098009B6823F4034323F0FF037A6811697A6865
:1040A800D26811437A6812680B4393607B681B6877
:1040B800DB6823F0FF017B685A697B689B691A43B8
:1040C8007B681B680A43DA607B681B681A687B6830
:1040D8001B6842F001021A607B6800221A647B6840
:1040E800202283F83D207B6800221A637B68002227
:1040F80083F83E20002318461037BD4680BD00BF18
:10410800A08601007F841E00FF083D0083DE1B435C
:10411800D34D621080B483B000AF78607B681B68B1
:104128005B6903F08003802B03D17B681B68002246
:104138001A6100BF0C37BD465DF8047B704700006C
:1041480080B588B002AFF860084611461A460346A3
:104158007B810B463B811346FB80FEF7D1FA7861E1
:10416800FB6893F83D30DBB2202B40F0D9807B69A7
:104178000093192301226D49F86802F0F9FA034601
:10418800002B01D00223CCE0FB6893F83C30012BD4
:1041980001D10223C5E0FB68012283F83C20FB68BB
:1041A8001B681B6803F00103012B07D0FB681B6821
:1041B8001A68FB681B6842F001021A60FB681B68FA
:1041C8001A68FB681B6822F400621A60FB682122E7
:1041D80083F83D20FB68402283F83E20FB680022DC
:1041E8001A64FB683A6A5A62FB68BA8C5A85FB689B
:1041F8005B8D9AB2FB681A85FB684D4ADA62F888CB
:104208003A8979897B690193BB6A00930346F86808
:1042180001F06CFF0346002B52D0012381E07A693C
:10422800B96AF86802F0BEFB0346002B0DD0FB68A4
:104238001B6C042B07D1FB681B681A68FB681B689A
:1042480042F400721A6001236BE0FB685B6A1A781B
:10425800FB681B681A61FB685B6A5A1CFB685A6238
:10426800FB681B8D013B9AB2FB681A85FB685B8D66
:104278009BB2013B9AB2FB685A85FB681B685B6975
:1042880003F00403042B1BD1FB681B8D002B17D0F4
:10429800FB685B6A1A78FB681B681A61FB685B6AD3
:1042A8005A1CFB685A62FB681B8D013B9AB2FB687B
:1042B8001A85FB685B8D9BB2013B9AB2FB685A85F5
:1042C800FB681B8D002BAAD17A69B96AF86802F0DD
:1042D800B1FB0346002B0DD0FB681B6C042B07D1E8
:1042E800FB681B681A68FB681B6842F400721A6056
:1042F800012316E0FB681B681A68FB681B6842F418
:1043080000721A60FB68202283F83D20FB680022B7
:1043180083F83E20FB68002283F83C20002300E05D
:10432800022318461837BD4680BD00BF02001000A2
:104338000000FFFF80B58AB002AFF860084611465A
:104348001A4603467B810B463B811346FB800023BC
:104358007B61FEF7D5F9F861FB6893F83D30DBB275
:10436800202B40F036819D4B1B68DB089C4AA2FB42
:1043780003231A0A13469B0013449A0013447B61D3
:104388007B69013B7B617B69002B12D1FB680022B2
:104398001A63FB68202283F83D20FB68002283F81B
:1043A8003E20FB681B6C43F02002FB681A64022362
:1043B80010E1FB681B689B6903F00203022BDFD046
:1043C800FB6893F83C30012B01D1022302E1FB6822
:1043D800012283F83C20FB681B681B6803F001037B
:1043E800012B07D0FB681B681A68FB681B6842F042
:1043F80001021A60FB681B681A68FB681B6822F4D4
:1044080000621A60FB68212283F83D20FB68402285
:1044180083F83E20FB6800221A64FB68BA6A5A6275
:10442800FB68BA8D5A85FB685B8D9AB2FB681A8562
:10443800FB686C4ADA627A89FB685A643A89FB68D5
:104448009A64FA88FB68DA64FB6800221A65FB68DC
:104458001B8D002B00F0A980FB685B6B002B2AD01A
:10446800FB685B6B604ADA63FB685B6B5F4ADA6424
:10447800FB685B6B00221A64FB685B6B00225A6462
:10448800FB685B6B00229A64FB685B6B00221A6511
:10449800FB68586BFB685B6A1946FB681B6810333E
:1044A8001A46FB681B8DFFF73BF80346FB76FB7E3D
:1044B800002B66D113E0FB68202283F83D20FB68BF
:1044C800002283F83E20FB681B6C43F08002FB68E7
:1044D8001A64FB68002283F83C2001237AE0F888FC
:1044E8003A897989FB690193232300930346F86885
:1044F80001F0FCFD0346002B22D0FB685B6B1846DD
:10450800FFF766F80346FB76FB685B6B0022DA630D
:10451800FB681B681A68FB681B6822F480621A60D3
:10452800FB6800221A85FB6800225A85FB681B6815
:104538001A68FB681B6822F001021A60012349E02F
:1045480000233B61FB681B685B693B61FB681B6878
:104558009B693B613B69FB68002283F83C20FB6850
:104568001B685A68FB681B6842F480725A60FB68D3
:104578001B685A68FB681B6842F400625A60002393
:1045880028E0FB68202283F83D20FB68002283F89E
:104598003E20FB681B6C43F01002FB681A64FB6842
:1045A800002283F83C20012314E0FB68202283F8D2
:1045B8003D20FB68002283F83E20FB681B6C43F01B
:1045C8004002FB681A64FB68002283F83C20012340
:1045D80000E0022318462037BD4680BD2C0000208D
:1045E80089B5F8140000FFFFF1630008AF65000803
:1045F80080B58CB002AFF860084611461A460346EB
:104608007B810B463B811346FB80FEF779F8786285
:104618000023FB61FB6893F83D30DBB2202B40F0B0
:104628007281934B1B68DB08924AA2FB03231A0A88
:1046380013469B0013449A001344FB61FB69013B3A
:10464800FB61FB69002B12D1FB6800221A63FB682F
:10465800202283F83D20FB68002283F83E20FB6877
:104668001B6C43F02002FB681A6402234CE1FB68D0
:104678001B689B6903F00203022BDFD0FB6893F8E9
:104688003C30012B01D102233EE1FB68012283F873
:104698003C20FB681B681B6803F00103012B07D053
:1046A800FB681B681A68FB681B6842F001021A6005
:1046B800FB681B681A68FB681B6822F400621A60B2
:1046C800FB68222283F83D20FB68402283F83E20C5
:1046D800FB6800221A64FB683A6B5A62FB68BA8E60
:1046E8005A85FB685B8D9AB2FB681A85FB68624A3B
:1046F800DA627A89FB685A643A89FB689A64FA88AC
:10470800FB68DA64FB6800221A65FB681B8D002BC6
:1047180000F0CC80FB689B6B002B2DD0FB689B6B5B
:10472800564ADA63FB689B6B554ADA64FB689B6BF5
:1047380000221A64FB689B6B00225A64FB689B6B1F
:1047480000229A64FB689B6B00221A65FB68986BD1
:10475800FB681B6810331946FB685B6A1A46FB68DE
:104768001B8DFEF7DDFE034687F8233097F82330CC
:10477800002B40F0878013E0FB68202283F83D205F
:10478800FB68002283F83E20FB681B6C43F0800224
:10479800FB681A64FB68002283F83C200123B3E01D
:1047A800F8883A8979897B6A019323230093034621
:1047B800F86801F031FD0346002B23D0FB689B6BA2
:1047C8001846FEF705FF034687F82330FB689B6B06
:1047D8000022DA63FB681B681A68FB681B6822F40E
:1047E80080621A60FB6800221A85FB6800225A85DD
:1047F800FB681B681A68FB681B6822F001021A60D4
:10480800012381E0FB681B8D012B08D1FB681B6825
:104818001A68FB681B6822F480621A6007E0FB686C
:104828001B685A68FB681B6842F480525A60002370
:10483800BB61FB681B685B69BB61FB681B689B69A4
:10484800BB61BB69FB68002283F83C20FB681B68DE
:104858005A68FB681B6842F480725A60FB681B68E0
:104868005A68FB681B6842F400625A6049E000BF5E
:104878002C00002089B5F8140000FFFFF163000840
:10488800AF650008FB68202283F83D20FB68002202
:1048980083F83E20FB681B6C43F01002FB681A6427
:1048A800FB68002283F83C2001232DE0F8883A8930
:1048B80079897B6A0193232300930346F86801F002
:1048C800ABFC0346002B01D001231DE000237B61D4
:1048D800FB681B685B697B61FB681B689B697B6184
:1048E8007B69FB681B681A68FB681B6842F40072E6
:1048F8001A60FB68202283F83D20FB68002283F8B9
:104908003C20002300E0022318462837BD4680BD1E
:1049180080B588B000AF78600023BB617B681B68F6
:104928005B687B617B68DB6A3B617B6893F83E3040
:10493800FB737B6893F83D30BB73FB7B102B03D074
:10494800FB7B402B40F0C1807B681B689B69BB6187
:104958007B681B685B69FB61FB6903F00103002B43
:104968000DD13B69B3F52A0F03D03B69B3F12A4F48
:1049780001D1012300E00023012B00F03281FB6903
:1049880003F00103002B0CD07B695B0A03F00103E1
:10499800002B06D0786802F0F6F8786800F087FDFA
:1049A80092E0FB69DB0803F00103002B09D07B6967
:1049B8005B0A03F00103002B03D0786800F0FDFDCB
:1049C80082E0FB695B0803F00103002B09D07B69D7
:1049D8005B0A03F00103002B03D0786800F017FE90
:1049E80072E0BB699B0803F00103002B3BD07B6896
:1049F8001B685B6803F40063B3F5006F00F0F38095
:104A0800FB69DB0903F00103002B0FD07B699B0ACC
:104A180003F00103002B09D0FB699B0803F0010395
:104A2800002B03D1786800F0DFF94DE0FB699B08A3
:104A380003F00103002B00F0D6807B695B0A03F0CA
:104A48000103002B00F0CF80BB7B212B03D17868BA
:104A580000F066FAC7E0FB7B402B40F0C480786822
:104A680000F0D4FABFE07B681B685B6803F400635E
:104A7800B3F5006F00F0B780FB699B0903F00103F1
:104A8800002B0FD07B699B0A03F00103002B09D090
:104A9800FB699B0803F00103002B03D1786800F041
:104AA8004DFB11E0FB699B0803F00103002B00F0AC
:104AB8009A807B695B0A03F00103002B00F0938066
:104AC800786800F003FC8EE08DE07B681B6C002B9F
:104AD80004D07B681B685B69FB6107E07B681B6827
:104AE8009B69BB617B681B685B69FB61FB695B0851
:104AF80003F00103002B12D07B695B0A03F001036A
:104B0800002B0CD07B681B6C002B03D07B681B68C8
:104B18009B69BB61B969786800F0C8FF66E0FB690A
:104B28001B0903F00103002B09D07B695B0A03F022
:104B38000103002B03D0786801F002F856E0BB7B34
:104B4800212B02D0BB7B292B25D1FB69DB0903F084
:104B58000103002B0FD07B699B0A03F00103002B94
:104B680009D0FB699B0803F00103002B03D1786887
:104B780000F0DEFE39E0FB699B0803F00103002B1F
:104B880033D07B695B0A03F00103002B2DD07868D2
:104B980000F00BFF29E0FB699B0903F00103002BE0
:104BA8000FD07B699B0A03F00103002B09D0FB6936
:104BB8009B0803F00103002B03D1786800F016FF6F
:104BC80014E0FB699B0803F00103002B0ED07B69FE
:104BD8005B0A03F00103002B08D0786800F044FF5B
:104BE80004E000BF02E000BF00E000BF2037BD4680
:104BF80080BD80B58AB000AF78607B681B685B6950
:104C08003B627B681B685B68FB6100237B627B6897
:104C180093F83E30FB763B6A1B0A03F00103002B36
:104C28000ED0FB691B0A03F00103002B08D07B6A36
:104C380043F001037B627B681B686FF480725A61E2
:104C48003B6A5B0A03F00103002B0ED0FB691B0AC9
:104C580003F00103002B08D07B6A43F002037B6258
:104C68007B681B686FF400725A613B6A9B0A03F009
:104C78000103002B3FD0FB691B0A03F00103002B43
:104C880039D0FB7EBB767B685B8D9BB27B617B6892
:104C980093F83D30FB747B681B6BFB60BB7E202B5D
:104CA80012D17B69002B0FD1FB7C212B08D0FB7C18
:104CB800292B05D0FB7C282B06D1FB68212B03D19F
:104CC800786801F06DF816E07B681B686FF4806205
:104CD8005A617B6A43F004037B62FB7E102B02D08F
:104CE800FB7E402B07D17B681B681A687B681B68B2
:104CF80042F400721A603B6ADB0A03F00103002BDE
:104D08000ED0FB691B0A03F00103002B08D07B6A55
:104D180043F008037B627B681B686FF400625A618A
:104D28007B6A002B08D07B681A6C7B6A1A437B6805
:104D38001A64786801F0A8F800BF2837BD4680BD1E
:104D480080B483B000AF786000BF0C37BD465DF813
:104D5800047B704780B483B000AF786000BF0C3725
:104D6800BD465DF8047B704780B483B000AF7860BF
:104D780000BF0C37BD465DF8047B704780B483B034
:104D880000AF786000BF0C37BD465DF8047B704704
:104D980080B483B000AF78600B46FB7013463B804D
:104DA80000BF0C37BD465DF8047B704780B483B004
:104DB80000AF786000BF0C37BD465DF8047B7047D4
:104DC80080B483B000AF786000BF0C37BD465DF893
:104DD800047B704780B483B000AF786000BF0C37A5
:104DE800BD465DF8047B704780B584B000AF78603D
:104DF8007B6893F83D30FB737B6893F83E30BB7358
:104E08007B68DB6ABB607B681B8D002B50D1FB7B0A
:104E1800212B4DD1BB68082B1DD0BB68202B1AD085
:104E2800BB6813F5803F16D07B681B685A687B689F
:104E38001B6822F4E0625A607B6811221A637B685F
:104E4800002283F83E207B68202283F83D20786882
:104E5800FFF776FF60E07B681B685A687B681B6811
:104E680022F4E0625A607B681B681A687B681B68DA
:104E780042F400721A607B6800221A637B68202261
:104E880083F83D207B6893F83E30DBB2402B07D196
:104E98007B68002283F83E207868FBF7BDFB3BE087
:104EA8007B68002283F83E207868FFF749FF33E0EB
:104EB800FB7B212B05D0BB7B402B2DD1FB7B222BF1
:104EC8002AD17B685B8D9BB2002B08D17B681B685D
:104ED8005A687B681B6822F480625A601CE07B6811
:104EE80093F83E30DBB2402B03D1786800F08EF89F
:104EF80012E07B685B6A1A787B681B681A617B68BA
:104F08005B6A5A1C7B685A627B685B8D9BB2013B6B
:104F18009AB27B685A85FFE700BF1037BD4680BD4F
:104F280080B584B000AF78607B68DB6AFB607B6823
:104F380093F83D30DBB2212B64D17B685B8D9BB24B
:104F4800002B12D07B685B6A1A787B681B681A6131
:104F58007B685B6A5A1C7B685A627B685B8D9BB274
:104F6800013B9AB27B685A854CE0FB68082B1DD040
:104F7800FB68202B1AD0FB6813F5803F16D07B689E
:104F88001B685A687B681B6822F4E0625A607B6879
:104F980011221A637B68002283F83E207B68202256
:104FA80083F83D207868FFF7CBFE2BE07B681B6811
:104FB8005A687B681B6822F4E0625A607B681B6849
:104FC8001A687B681B6842F400721A607B680022CA
:104FD8001A637B68202283F83D207B6893F83E3073
:104FE800DBB2402B07D17B68002283F83E2078682B
:104FF800FBF712FB06E07B68002283F83E20786806
:10500800FFF79EFE00BF1037BD4680BD80B584B057
:1050180000AF78607B6893F83D30FB737B681B6D4D
:10502800002B1DD17B68DB6C012B0BD17B689B6C43
:10503800DAB27B681B681A617B681B6D9A1C7B68F7
:105048001A6577E07B689B6C9BB21B12DAB27B68AF
:105058001B681A617B681B6D5A1C7B681A6569E0BE
:105068007B681B6D012B0BD17B689B6CDAB27B686C
:105078001B681A617B681B6D5A1C7B681A6559E0AE
:105088007B681B6D022B52D1FB7B222B0DD17B68D9
:105098001B681A687B681B6842F480721A607B6818
:1050A8001B6D5A1C7B681A6544E07B685B8D9BB25C
:1050B800002B15D0FB7B212B12D17B685B6A1A78F9
:1050C8007B681B681A617B685B6A5A1C7B685A623A
:1050D8007B685B8D9BB2013B9AB27B685A8529E05D
:1050E8007B685B8D9BB2002B24D1FB7B212B21D1CC
:1050F8007B681B685A687B681B6822F4E0625A6008
:105108007B681B681A687B681B6842F400721A6027
:105118007B6800221A637B68202283F83D207B6825
:10512800002283F83E207868FBF776FA02E0786878
:10513800FEF7F0FF00BF1037BD4680BD80B584B0D4
:1051480000AF78607B6893F83D30DBB2222B40F0EB
:10515800B9807B68DB6AFB607B685B8D9BB2BB6058
:10516800BB68032B21D97B681B681A697B685B6A5B
:10517800D2B21A707B685B6A5A1C7B685A627B6879
:105188005B8D9BB2013B9AB27B685A857B685B8DCD
:105198009BB2032B40F096807B681B685A687B683B
:1051A8001B6822F480625A608CE07B68DB6A022B01
:1051B8007FD0BB68012B02D0BB68002B79D17868FF
:1051C80001F080FC0346002B4CD17B681B681A68F1
:1051D8007B681B6822F480621A607B681B685A68C7
:1051E8007B681B6822F4E0625A607B681B681A6956
:1051F8007B685B6AD2B21A707B685B6A5A1C7B68F0
:105208005A627B685B8D9BB2013B9AB27B685A8578
:105218007B68202283F83D207B6893F83E30DBB220
:10522800402B0AD17B68002283F83E207B6800224D
:105238001A637868FBF700FA44E07B68002283F879
:105248003E20FB68082B02D0FB68202B03D17B682B
:1052580000221A6302E07B6812221A637868FFF75B
:1052680079FD2FE07B681B685A687B681B6822F40D
:10527800E0625A607B681B681A697B685B6AD2B215
:105288001A707B685B6A5A1C7B685A627B685B8D04
:105298009BB2013B9AB27B685A857B68202283F8CF
:1052A8003D207B68002283F83E207868FFF788FD60
:1052B80008E07B681B685A687B681B6822F4806278
:1052C8005A60FFE700BF1037BD4680BD80B584B087
:1052D80000AF78607B68DB6AFB607B685B8D9BB2A4
:1052E800042B1BD17B681B685A687B681B6822F4F7
:1052F80080625A607B681B681A697B685B6AD2B2F5
:105308001A707B685B6A5A1C7B685A627B685B8D83
:105318009BB2013B9AB27B685A85C4E07B685B8D7F
:105328009BB2032B29D17B681B685A687B681B6872
:1053380022F480625A60FB68042B0AD0FB68022BB7
:1053480007D07B681B681A687B681B6822F4806238
:105358001A607B681B681A697B685B6AD2B21A702C
:105368007B685B6A5A1C7B685A627B685B8D9BB260
:10537800013B9AB27B685A8595E07B685B8D9BB24E
:10538800022B7DD1FB68012B02D0FB68102B08D1C2
:105398007B681B681A687B681B6822F480621A6045
:1053A80016E0FB68042B02D0FB68022B08D17B684F
:1053B8001B681A687B681B6842F480621A6007E001
:1053C8007B681B681A687B681B6842F400721A6065
:1053D8007B681B681A697B685B6AD2B21A707B6843
:1053E8005B6A5A1C7B685A627B685B8D9BB2013B87
:1053F8009AB27B685A857B681B681A697B685B6A06
:10540800D2B21A707B685B6A5A1C7B685A627B68E6
:105418005B8D9BB2013B9AB27B685A857B681B689F
:105428005A687B681B6822F440725A607B682022A5
:1054380083F83D207B6893F83E30DBB2402B0AD1DD
:105448007B68002283F83E207B6800221A63786814
:10545800FBF7F2F827E07B68002283F83E20FB6820
:10546800082B02D0FB68202B03D17B6800221A632B
:1054780002E07B6812221A637868FFF76BFC12E07F
:105488007B681B681A697B685B6AD2B21A707B6892
:105498005B6A5A1C7B685A627B685B8D9BB2013BD6
:1054A8009AB27B685A8500BF1037BD4680BD80B46C
:1054B80083B000AF78607B6893F83E30DBB2402B56
:1054C80017D17B681B6D002B09D17B685B6CDBB245
:1054D8001A467B681B6802F0FE021A6167E07B6867
:1054E8005B6CDBB243F00103DAB27B681B681A61BC
:1054F8005DE07B681B69B3F5804F33D17B6893F817
:105508003D30DBB2212B09D17B685B6CDBB21A46DC
:105518007B681B6802F0FE021A6108E07B685B6C1E
:10552800DBB243F00103DAB27B681B681A617B685F
:105538005B6B002B04D07B685B6BDB6B002B08D1AB
:105548007B689B6B002B32D07B689B6BDB6B002BE3
:105558002DD07B681B685A687B681B6842F4006220
:105568005A6024E07B681B6D002B0ED17B685B6C56
:105578009BB2DB11DBB203F00603DBB263F00F036F
:10558800DAB27B681B681A6111E07B681B6D012B1E
:105598000DD17B685B6C9BB2DB11DBB203F00603B9
:1055A800DBB263F00E03DAB27B681B681A6100BFD6
:1055B8000C37BD465DF8047B704780B483B000AFFC
:1055C80078607B685B6CDAB27B681B681A617B6801
:1055D8005B6B002B04D07B685B6BDB6B002B08D10B
:1055E8007B689B6B002B0CD07B689B6BDB6B002B69
:1055F80007D07B681B685A687B681B6842F40062A6
:105608005A6000BF0C37BD465DF8047B704780B414
:1056180091B000AF78607B6893F83E3087F83F30F0
:105628007B68DB6ABB637B681B6B7B637B6893F877
:105638003D30DBB2222B40F069817B681B6D002B6B
:105648000FD197F83F30402B0BD100233B637B6889
:105658001B685B693B637B681B689B693B633B6BAF
:1056680060E17B681B6D002B1DD17B681B69B3F55E
:10567800404F18D10023FB627B681B685B69FB62A3
:105688007B681B689B69FB62FB6A7B681B681A68FE
:105698007B681B6842F480721A607B681B6D5A1C19
:1056A8007B681A653EE17B685B8D9BB2002B13D14A
:1056B8000023BB627B681B685B69BB627B681B68F5
:1056C8009B69BB62BB6A7B681B681A687B681B683E
:1056D80042F400721A6015E17B685B8D9BB2012B66
:1056E80040F08A80BB6B13F5803F37D17B681B681D
:1056F8001A687B681B6822F480621A607B681B68E2
:105708005B6803F40063B3F5006F13D17B681B6813
:105718001A687B681B6822F480621A6000237B6227
:105728007B681B685B697B627B681B689B697B6223
:105738007B6AE7E000233B627B681B685B693B622E
:105748007B681B689B693B623B6A7B681B681A68BD
:105758007B681B6842F400721A60D3E0BB6B082BAD
:105768002ED0BB6B202B2BD07B6B122B02D1BB6BAB
:10577800012B25D1BB6B042B0ED0BB6B022B0BD09E
:10578800BB6B102B08D07B681B681A687B681B688A
:1057980022F480621A6007E07B681B681A687B68DD
:1057A8001B6842F480621A600023FB617B681B68F7
:1057B8005B69FB617B681B689B69FB61FB69A1E016
:1057C8007B681B681A687B681B6822F480621A6011
:1057D8000023BB617B681B685B69BB617B681B68D6
:1057E8009B69BB61BB697B681B681A687B681B681F
:1057F80042F400721A6085E07B685B8D9BB2022BD5
:105808004DD1BB6B042B16D0BB6B022B13D0BB6BDB
:10581800102B10D07B681B681A687B681B6822F401
:1058280080621A607B681B681A687B681B6842F490
:1058380000621A6007E07B681B681A687B681B684F
:1058480042F480621A607B681B685B6803F400633B
:10585800B3F5006F17D1BB6B13F5803F0BD0BB6B53
:10586800012B08D0BB6B082B05D0BB6B102B02D0CB
:10587800BB6B202B07D17B681B685A687B681B6849
:1058880042F480525A6000237B617B681B685B6925
:105898007B617B681B689B697B617B6932E07B6805
:1058A8001B681A687B681B6842F480621A607B6810
:1058B8001B685B6803F40063B3F5006F17D1BB6B1B
:1058C80013F5803F0BD0BB6B012B08D0BB6B082BAB
:1058D80005D0BB6B102B02D0BB6B202B07D17B688C
:1058E8001B685A687B681B6842F480525A60002320
:1058F8003B617B681B685B693B617B681B689B69D4
:105908003B613B697B6800221A650BE00023FB6062
:105918007B681B685B69FB607B681B689B69FB6035
:10592800FB68FFE700BF4437BD465DF8047B70475E
:1059380080B584B000AF78607B6893F83D30FB7326
:105948007B685B8D9BB2002B2BD07B685B6A1A78D7
:105958007B681B681A617B685B6A5A1C7B685A62A1
:105968007B685B8D9BB2013B9AB27B685A857B68EA
:105978005B8D9BB2002B14D1FB7B292B11D17B684B
:105988001B685A687B681B6822F480625A607B68CF
:1059980021221A637B68282283F83D207868FFF764
:1059A800E3F900BF1037BD4680BD80B483B000AFB7
:1059B80078607B685B8D9BB2002B11D07B685B6A3B
:1059C8001A787B681B681A617B685B6A5A1C7B685B
:1059D8005A627B685B8D9BB2013B9AB27B685A85A1
:1059E80000BF0C37BD465DF8047B704780B584B0B6
:1059F80000AF78607B6893F83D30FB737B685B8D04
:105A08009BB2002B2CD07B681B681A697B685B6A89
:105A1800D2B21A707B685B6A5A1C7B685A627B68D0
:105A28005B8D9BB2013B9AB27B685A857B685B8D24
:105A38009BB2002B14D1FB7B2A2B11D17B681B68EE
:105A48005A687B681B6822F480625A607B6822224D
:105A58001A637B68282283F83D207868FFF78EF95F
:105A680000BF1037BD4680BD80B483B000AF7860FA
:105A78007B685B8D9BB2002B12D07B681B681A6910
:105A88007B685B6AD2B21A707B685B6A5A1C7B6857
:105A98005A627B685B8D9BB2013B9AB27B685A85E0
:105AA80000BF0C37BD465DF8047B704780B584B0F5
:105AB80000AF786039600023FB737B6893F83D3052
:105AC800DBB203F02803282B27D17B681B685A68B0
